:1000000055C0000070C000006EC000006CC0000051
:100010006AC0000068C0000066C0000064C0000044
:1000200062C00000BAC100005EC000005CC00000F9
:100030005AC0000058C0000056C0000054C0000064
:1000400052C0000050C000004EC000004CC0000074
:100050004AC0000048C0000046C0000044C0000084
:1000600042C000000C94120A3EC000000C94780AB2
:100070003AC0000038C0000036C0000034C00000A4
:1000800032C0000030C000002EC000002CC00000B4
:100090002AC0000028C0000026C0000024C00000C4
:1000A00022C0000020C000001EC0000011241FBE9E
:1000B000CFEFDAE0DEBFCDBF11E0A0E0B1E0E4E8D1
:1000C000FEE102C005900D92A630B107D9F721E0FC
:1000D000A6E0B1E001C01D92A53FB207E1F70E9482
:1000E000480B0C94400F8CCFA0E0B0E0EAE7F0E0C2
:1000F0000C94650BEC01088119816115710551F0B3
:100100006130710569F4088119818A819B81081B1E
:10011000190B06C0888199810A811B81080F191F5C
:10012000888199815801A81AB90AB7FE03C0B19411
:10013000A194B108CE010E94E90AA114B10499F179
:10014000888199815801A81AB90AB7FE03C0B194F1
:10015000A194B1088A809B80B501882777FD80959E
:10016000982F0E94F60C6B017C01B40180E090E0B6
:100170000E94F40C9B01AC01C701B6010E94260C41
:1001800020E030E040E752E40E94B60D0E94C80C27
:10019000862F6D3320F4653018F485E001C08CE3C0
:1001A0000E94FB0ACACF80E00E94FB0ACDB7DEB7EF
:1001B000ECE00C94810BCF93DF93DC01AC59BF4F83
:1001C0002C91253688F4FC01EA59FF4F2081EC017F
:1001D000C20FD11D688380818F5F8083843608F0D1
:1001E00010828C918F5F8C93DF91CF910895CF9384
:1001F000DF93DC01AC59BF4F2C91222391F0FC011D
:10020000EB59FF4F2081EC01C20FD11D88819081F5
:100210009F5F9083943608F010829C9191509C933C
:1002200001C08FEFDF91CF910895FC01EA59FF4F94
:10023000108231971082319710820895CF92DF9209
:10024000EF920F931F9384E095E00E94010B88ECDE
:10025000C82E88E0D82E94E0E92E0EE210E020E2CD
:1002600040E163E270E085E791E00E949A0A1F9105
:100270000F91EF90DF90CF900895E0DF1092EC01A6
:100280001092EB011092EA01089583E072D788235F
:10029000F1F080E06ED78823D1F00E94E609882330
:1002A000B1F081E090E00E948509882381F040E070
:1002B00060E070E48CE996E4FDD2882341F084E0AC
:1002C00058D7882321F085E054D7811103C080E0FE
:1002D00090E02DC10895479A5D98089547985D9ADA
:1002E0000895269A6A9A84B18F7C84B9F4DF2FEF3F
:1002F00083ED90E3215080409040E1F700C0000082
:10030000EDDFBBCF0F931F93CF93DF93C091ED0130
:10031000D091EE0101E010E0E981FA8120818B812A
:10032000282381E090E011F480E090E02C813D8171
:1003300021303105E1F4892B31F58FE39CE90197F8
:10034000F1F700C00000E981FA8180819B81892357
:10035000D1F48881813421F0833431F461E001C02B
:1003600060E086E891E027DF1D821C820CC0232B11
:1003700051F4019741F48FE39CE90197F1F700C034
:1003800000001D830C830E80DF81C02D209721F695
:10039000DF91CF911F910F9108951F920F920FB689
:1003A0000F9211242F933F934F935F936F937F93FB
:1003B0008F939F93AF93BF93EF93FF93A3DF85E753
:1003C00091E00E94B90AFF91EF91BF91AF919F9187
:1003D0008F917F916F915F914F913F912F910F90EE
:1003E0000FBE0F901F90189582B7806882BF82B7AA
:1003F000806282BF82B78F7E82BF82B78A6082BFEF
:1004000082B78A7F82BF89B58F7E89BD89B58260B8
:1004100089BD0895EF92FF920F931F93CF93DF93BF
:1004200084B1867F84B985B1896085B988E090E020
:100430000E94190EEC019093EE018093ED0181E48E
:10044000888383E2E82EF12CFA82E98288E08B83AC
:1004500001E010E01D830C8388E090E00E94190EFB
:10046000FC019F838E8383E48083F282E18281E0BA
:1004700083831583048317821682CDB7DEB7E6E047
:100480000C94870B479A5D9A2FEF43EC59E021506B
:1004900040405040E1F700C000008CE090E030E2C6
:1004A00028B1205828B92BB123272BB92FEF41EEC3
:1004B00054E0215040405040E1F700C00000019757
:1004C000009771F747985D9A08952FEF81EE94E0B9
:1004D000215080409040E1F700C000003F9A559ABB
:1004E00099DFD0CF85B5887F85BD0895A1E0B0E0C4
:1004F000ECE7F2E00C946F0B8983F4DF898186BD11
:1005000084B58F7384BD85B5877F85BD84B58C7FA9
:1005100084BDEEE6F0E0808181608083579885B5E8
:10052000876085BD81E02196E2E00C948B0BF89406
:10053000209A009721F0019719F45D9801C0479A1D
:100540002898FFCFAAE0B0E0E8EAF2E00C945F0B55
:1005500058874F83680179019B01AC0160E070E02E
:100560008AE794E40E94260C9B01AC0160E074E2EF
:1005700084E79BE40E94260C0E94930CF22FE32F49
:1005800049875A876B837C838D839E83160127015D
:10059000612C712C430156016201E12CF12C00E029
:1005A00010E00E94B40B48F4CF01AF81B8859C9352
:1005B00011968C9381E090E079C02F2F3E2F4985D2
:1005C0005A856B817C818D819E8103E00E94980B0E
:1005D000D90151016201E12CF12C00E010E00E94F0
:1005E000B40B38F4EF81F885A083B18388E090E004
:1005F0005DC02F2F3E2F49855A856B817C818D816F
:100600009E8106E00E94980BD90151016201E12C04
:10061000F12C00E010E00E94B40B50F49A2F8B2FC5
:10062000AF81B8859C9311968C9380E490E03EC096
:100630002F2F3E2F49855A856B817C818D819E812C
:1006400008E00E94980BD90151016201E12CF12CC4
:1006500000E010E00E94B40B38F4EF81F885A0832D
:10066000B18380E091E022C02F2F3E2F49855A852B
:100670006B817C818D819E810AE00E94980BF22F14
:10068000E32F51016201E12CF12C00E010E00E9407
:10069000B40B48F4CF01AF81B8859C9311968C932D
:1006A00080E094E003C080E090E041DF2A96E2E140
:1006B0000C947B0BA2E0B0E0E0E6F3E00C946D0B51
:1006C000BC0180E090E00E94F40C00E011E020E02A
:1006D00030E0AE014F5F5F4F35DF009709F443C054
:1006E00016BC24B52F7324BD25B5277F25BD24B5A1
:1006F000226024BD24B52E7F24BD2981215027BD31
:1007000020916E00226020936E0088309105A9F040
:1007100040F4019711F585B5897F85BD85B5816068
:1007200011C08034910599F081159140B1F485B5DF
:10073000846085BD85B58C7F05C085B58A7F85BD04
:1007400085B5826085BD81E02296E4E0E2C785B58B
:100750008B7F85BD85B58360F5CF85B5856085BD0B
:1007600085B58D7FEFCF80E090E0E1DE823441F00F
:100770008F3451F0813471F480916E00826007C033
:1007800080916E00846003C080916E0081608093D0
:100790006E00089580E090E0CADE823441F08F342C
:1007A00051F0813471F480916E008D7F07C080918B
:1007B0006E008B7F03C080916E008E7F80936E00F1
:1007C000089580E090E0B3DEA2E0B0E0E9EEF3E06F
:1007D00084C7BC0180E090E00E94F40C00E010E0CF
:1007E00021E030E0AE014F5F5F4FACDE009709F4CF
:1007F0005EC01092850010928400209181002860D4
:1008000020938100209181002F7E209381002091F0
:1008100080002C7F2093800029813A81215031096A
:10082000309389002093880020916F0022602093EC
:100830006F0088309105D9F058F4019779F58091CF
:100840008100897F8093810080918100816017C041
:1008500080349105D1F08115914001F5809181009E
:10086000846080938100809181008C7F08C080919A
:1008700081008A7F809381008091810082608093D3
:10088000810081E02296E4E044C7809181008B7F63
:1008900080938100809181008360F1CF80918100FD
:1008A000856080938100809181008D7FE8CF80E01A
:1008B00090E03DDEA2E0B0E0EFE5F4E009C7B42E41
:1008C0009B01AC015BD79B01AC0160E070E08AE763
:1008D00094E4BCD700E010E021E030E0AE014F5FCF
:1008E0005F4F30DE8C01009709F46BC0809181006E
:1008F000887F8093810010928500109284008091FF
:10090000810080618093810080918100877F809346
:100910008100809180008C7F8093800089819A8102
:1009200090938700809386008091800080718093EF
:1009300080008091800080628093800084E68B1527
:1009400008F43FC069817A8180E090E00E94F40C55
:100950006B017C016B2D70E080E090E00E94F40C54
:100960009B01AC01C701B6010E94B60D20E030E04A
:1009700048EC52E46BD70E94C80C70938B006093D4
:100980008A000830110501F160F40130110571F59C
:1009900080918100897F80938100809181008160B6
:1009A0002DC000341105C9F0011581E01807F1F4DC
:1009B00080918100846080938100809181008C7F90
:1009C0001DC080E090E0B3DD809181008A7F80933C
:1009D000810080918100826011C0809181008B7FB5
:1009E0008093810080918100836008C080918100A4
:1009F000856080938100809181008D7F809381004C
:100A000081E02296E9E080C6CF92DF92EF92FF92DA
:100A1000CF93C82F853628F5209186003091870026
:100A2000B90180E090E0E0D76B017C016C2F70E0B1
:100A300080E090E0D9D79B01AC01C701B6010E94CC
:100A4000B60D20E030E048EC52E400D7A1D7709317
:100A50008B0060938A00CF91FF90EF90DF90CF9052
:100A6000089580E090E063DD823479F034F48134DD
:100A7000B1F480916F0082600FC0833451F08F34E5
:100A800071F480916F00816007C080916F00846075
:100A900003C080916F00886080936F00089580E0AC
:100AA00090E045DD823479F034F48134B1F4809102
:100AB0006F008D7F0FC0833451F08F3471F48091BB
:100AC0006F008E7F07C080916F008B7F03C0809185
:100AD0006F00877F80936F00089580E090E027DDAE
:100AE000A2E0B0E0E5E7F5E0F8C5BC0180E090E009
:100AF0007BD700E010E021E030E0AE014F5F5F4FB8
:100B000021DD009709F45EC01092950010929400C8
:100B100020919100286020939100209191002F7ED8
:100B200020939100209190002C7F209390002981A8
:100B30003A812150310930939900209398002091F7
:100B4000710022602093710088309105D9F058F42B
:100B5000019779F580919100897F80939100809130
:100B60009100816017C080349105D1F081159140CA
:100B700001F58091910084608093910080919100B3
:100B80008C7F08C0809191008A7F80939100809132
:100B9000910082608093910081E02296E4E0B9C5E3
:100BA000809191008B7F8093910080919100836070
:100BB000F1CF8091910085608093910080919100A8
:100BC0008D7FE8CF80E090E0B2DC823479F034F4BD
:100BD0008134B1F48091710082600FC0833451F090
:100BE0008F3471F480917100816007C08091710031
:100BF000846003C0809171008860809371000895C3
:100C000080E090E094DC823479F034F48134B1F403
:100C1000809171008D7F0FC0833451F08F3471F457
:100C2000809171008E7F07C0809171008B7F03C01F
:100C300080917100877F80937100089580E090E03B
:100C400076DC8F929F92AF92BF92CF92DF92EF921B
:100C5000FF926B017C0120E030E040E854E4F2D5E3
:100C600087FF09C08091C100817F8093C10080917E
:100C7000C10081606EC120E030E040E05FE3C70169
:100C8000B60174D74B015C0120E030E040E854E449
:100C9000D9D587FF09C08091C100827F8093C100B0
:100CA0008091C10082602EC120E030E040E85EE328
:100CB000C701B6015BD74B015C0120E030E040E8A2
:100CC00054E4C0D587FF0EC08091C100837F80931C
:100CD000C1008091C10082608093C1008091C100F9
:100CE000816010C120E030E040E05EE3C701B60162
:100CF0003DD720E030E040E854E4A4D587FF09C0A8
:100D00008091C100837F8093C1008091C100836086
:100D1000F9C020E030E040E85DE3C701B60126D726
:100D20004B015C0120E030E040E854E48BD587FFC4
:100D300009C08091C10084608093C1008091C1008E
:100D4000847FE0C020E030E040E05DE3C701B60111
:100D50000DD74B015C0120E030E040E854E472D54F
:100D600087FF09C08091C100857F8093C100809179
:100D7000C1008560C7C020E030E040E85CE3C70107
:100D8000B601F4D64B015C0120E030E040E854E4C9
:100D900059D587FF09C08091C100867F8093C1002B
:100DA0008091C1008660AEC020E030E040E05CE3AE
:100DB000C701B601DBD64B015C0120E030E040E822
:100DC00054E440D587FF09C08091C100877F80939C
:100DD000C1008091C100876095C020E030E040E80C
:100DE0005BE3C701B601C2D64B015C0120E030E0F5
:100DF00040E854E427D587FF09C08091C10088608E
:100E00008093C1008091C100887F7CC020E030E0E9
:100E100040E05BE3C701B601A9D64B015C0120E0CD
:100E200030E040E854E40ED587FF09C08091C1004E
:100E300089608093C1008091C100897F63C020E0F8
:100E400030E040E85AE3C701B60190D64B015C019F
:100E500020E030E040E854E4F5D487FF09C08091F9
:100E6000C1008B7F8093C1008091C1008B604AC01C
:100E700020E030E040E05AE3C701B60177D64B01ED
:100E80005C0120E030E040E854E4DCD487FF09C096
:100E90008091C1008C608093C1008091C1008C7FE3
:100EA00031C020E030E040E859E3C701B6015ED62A
:100EB0004B015C0120E030E040E854E4C3D487FFFC
:100EC00009C08091C1008D608093C1008091C100F4
:100ED0008D7F18C020E030E040E059E3C701B60143
:100EE00045D64B015C0120E030E040E854E4AAD450
:100EF00087FF17C08091C1008E608093C1008091F0
:100F0000C1008E7F8093C100C501B40141D5CB01E2
:100F1000FF90EF90DF90CF90BF90AF909F908F9019
:100F2000089520E030E040E858E3C701B6011ED63E
:100F30006B017C0120E030E040E854E483D487FF7B
:100F40000DC08091C1008C608093C1008091C10070
:100F500083608093C100C701B601D8CF80E090E0E4
:100F6000E6DAA2E0B0E0E6EBF7E0B7C38C011A8264
:100F700019823ADA8091C0008F7C8093C000809102
:100F8000C0008F738093C0008091C0008C7F8093DD
:100F9000C0008091C2008E7F8093C2008091C20009
:100FA000837F8093C2008091C3008C7F8093C300B5
:100FB000B801660F771F80E090E016D59B01AC0169
:100FC00060E070E08AE794E441D49B01AC0160E00A
:100FD00074E284E79CE43AD434DE9A83898389817D
:100FE0009A819093BF0089819A818093D1008981F1
:100FF0009A819093BF0089819A818093D200109248
:10100000BF001092BF001092BE0029813A8181E09A
:10101000232B09F480E02296E4E07BC3CF92DF9299
:10102000EF92FF921F93CF93DF9300D000D0CDB704
:10103000DEB7142F69837A838B839C83D5D9209163
:10104000C00020622093C0002091C0002F7E20931A
:10105000C0002091C00021602093C0002091C300F7
:101060002D7F2093C3002091C30021602093C300F3
:1010700069817A818B819C819B01AC0160E074E283
:1010800084E79CE4E3D3DDDD9093BF008093D1003F
:10109000153630F5BC0180E090E0A6D46B017C01F0
:1010A000612F70E080E090E09FD49B01AC01C7010C
:1010B000B6015CD520E030E048EC52E4C7D368D4F8
:1010C0007093BF006093D0000F900F900F900F901F
:1010D000DF91CF911F91FF90EF90DF90CF90089517
:1010E0008091C100837F8093C1008091C1008C7F7B
:1010F0008093C10080E090E01ADA823479F034F411
:101100008134B1F48091720080640FC0843451F056
:101110008F3471F480917200846007C080917200F6
:10112000806203C08091720080688093720008958D
:1011300080E090E0FCD9823479F034F48134B1F469
:10114000809172008F7B0FC0843451F08F3471F422
:10115000809172008B7F07C0809172008F7D03C0E9
:10116000809172008F7780937200089580E090E004
:10117000DED990916800916090936800883018F0F3
:1011800080E090E0D4D990916B0021E030E001C084
:10119000220F8A95EAF7922B90936B0081E00895D5
:1011A000909168009E7F90936800883070F49091D1
:1011B0006B0021E030E0082E01C0220F0A94EAF70C
:1011C0002095292320936B00089580E090E0AFD90B
:1011D0001092400110923F0110927401109273011D
:1011E00010920C0110920701109206011092090151
:1011F0001092080110920B0110920A0108951092AA
:10120000400110923F0110927401109273010895F1
:1012100080910D018093CE0081E08093400108957C
:10122000CF93DF93EC0180910C01833018F082E0C2
:1012300090E07DD98091060190910701892B79F08A
:101240008091080190910901892B61F080910A0138
:1012500090910B01892BA9F422E030E005C020E039
:1012600030E002C021E030E0F901EE0FFF1FEA5F3D
:10127000FE4FD183C08380910C018F5F80930C015E
:1012800002C023E030E0822FDF91CF910895E82F54
:10129000F0E0EE0FFF1FEA5FFE4F11821082ECE0DC
:1012A000F1E08081815080830895009719F00197C3
:1012B000A1F029C0CB010197029748F48091C900A1
:1012C00080618093C9006230710519F01AC0672BE4
:1012D000C1F48091C900886012C0CB0101970297C8
:1012E00048F48091C9008F7E8093C90062307105F7
:1012F00019F007C0672B29F48091C900877F80937C
:10130000C90081E0089580E00895CF93DF93EC0158
:101310005FDF8091CA008F7C8093CA008091CA00F1
:10132000877F8093CA008091C9008B7F8093C9001A
:101330008091CA0086608093CA008091C9008C7F2A
:101340008093C9008091CA008E7F8093CA008091EB
:10135000CB008C7F8093CB00209761F0219729F5FB
:1013600080E190E09093CD008093CC008091C80004
:10137000826009C087E090E09093CD008093CC001C
:101380008091C8008D7F8093C8008091C8008E7FB7
:101390008093C8008091CA008F738093CA0062E076
:1013A00070E080E090E081DF01C080E0DF91CF91CC
:1013B00008958091C80085FFFCCFE0917301F0E0B3
:1013C000EF5BFE4F80818093CE000895E9ECF0E062
:1013D0008081806C808381E00895E9ECF0E0808179
:1013E0008F73808381E00895A2E0B0E0E9EFF9E037
:1013F00075C1182F8091C90089839A83EEDFE12F90
:101400009A81F92F8191882339F09091C80095FF36
:10141000FCCF8093CE00F6CF89818093C9002296BD
:10142000E3E078C11F920F920FB60F9211242F9311
:101430003F934F935F936F937F938F939F93AF935C
:10144000BF93CF93DF93EF93FF9380917301823328
:1014500010F0109273018091CE00E0917301F0E0E2
:10146000EF5BFE4F8083A5DF90917301E92FF0E0E1
:10147000EF5BFE4F80818D3011F08A30E9F41082ED
:1014800080910C01882309F1C0E0D0E0FE01EE0F4D
:10149000FF1FEA5FFE4F80819181892B41F001900F
:1014A000F081E02D63E771E081E491E009952196F8
:1014B000C330D10559F709C0883011F08F3711F4C6
:1014C000915001C09F5F90937301FF91EF91DF9165
:1014D000CF91BF91AF919F918F917F916F915F91CC
:1014E0004F913F912F910F900FBE0F901F90189525
:1014F0001F920F920FB60F9211248F939F93EF9329
:10150000FF938091400190913F01891750F4E82F9B
:10151000F0E0E35FFE4F90819093CE008F5F809369
:101520004001FF91EF919F918F910F900FBE0F900F
:101530001F901895CF92DF92EF920F931F93FC01AB
:10154000118210821582148217821682D382C2827F
:10155000738762874787208B15870487E68682E03A
:1015600090E0918780871F910F91EF90DF90CF904F
:101570000895FC01A285B38587859C91892321E08C
:1015800030E011F420E030E0A285B38540898C91F1
:10159000482381E090E011F480E090E0468157819B
:1015A0002417350731F0408151814F5F5F4F5183E0
:1015B0004083448155814817590731F0408151815A
:1015C0004150510951834083358324839783868317
:1015D0000895FC0180859185A485B58586179707B8
:1015E00021F496858C91892B04C0968590958C91D9
:1015F00089238C930895E091EF01F091F001099512
:1016000008959093F0018093EF010895CF93DF93B5
:10161000EC0180E0F0DF88EE93E099838883EC852D
:10162000FD859E858081892B808389E1E4DF2FEF12
:1016300089E698E1215080409040E1F700C0000029
:1016400080E0D9DF88819981893E23E0920718F0F4
:10165000198618860CC0883E934029F081E090E0FE
:101660009987888704C081E090E00E9497021982E0
:101670001882DF91CF910895FC01118210821582AA
:1016800014821782168222E030E031872087BECF95
:101690000E9465020E9445010E947101789485E7CD
:1016A00091E0EADF86E891E00E94F7008F3FD1F3F6
:1016B000682F70E085E791E00E947400F3CF2F92CD
:1016C0003F924F925F926F927F928F929F92AF92D2
:1016D000BF92CF92DF92EF92FF920F931F93CF931F
:1016E000DF93CDB7DEB7CA1BDB0B0FB6F894DEBFB6
:1016F0000FBECDBF09942A88398848885F846E84DC
:101700007D848C849B84AA84B984C884DF80EE8025
:10171000FD800C811B81AA81B981CE0FD11D0FB62E
:10172000F894DEBF0FBECDBFED01089597FB10F812
:10173000169400080F93083098F00850232F342F88
:10174000452F562F672F782F892F902DF4CF059492
:1017500097958795779567955795479537952795E9
:101760000A95AAF70F9108952A153B054C055D05CA
:101770006E057F058007910708955058BB27AA275B
:101780000ED0BAC1ABD130F0B0D120F031F49F3FD0
:1017900011F41EF490C10EF4E095E7FB86C1E92F29
:1017A000BCD180F3BA17620773078407950718F056
:1017B00071F49EF5D4C10EF4E0950B2EBA2FA02D36
:1017C0000B01B90190010C01CA01A0011124FF27EE
:1017D000591B99F0593F50F4503E68F11A16F040E9
:1017E000A22F232F342F4427585FF3CF46953795E8
:1017F0002795A795F0405395C9F77EF41F16BA0BAD
:10180000620B730B840BBAF09150A1F0FF0FBB1F5A
:10181000661F771F881FC2F70EC0BA0F621F731FA3
:10182000841F48F4879577956795B795F7959E3F00
:1018300008F0B3CF9395880F08F09927EE0F97958E
:10184000879508950ED108F481E008950CD054C115
:101850004CD140F043D130F021F45F3F19F025C165
:1018600051117EC128C159D198F39923C9F3552349
:10187000B1F3951B550BBB27AA2762177307840783
:1018800038F09F5F5F4F220F331F441FAA1FA9F339
:1018900033D00E2E3AF0E0E830D091505040E6952B
:1018A000001CCAF729D0FE2F27D0660F771F881F8C
:1018B000BB1F261737074807AB07B0E809F0BB0B7B
:1018C000802DBF01FF2793585F4F2AF09E3F51059F
:1018D00068F0EBC045C15F3FECF3983EDCF38695C2
:1018E00077956795B795F7959F5FC9F7880F911D15
:1018F0009695879597F90895E1E0660F771F881F01
:10190000BB1F621773078407BA0720F0621B730BB3
:10191000840BBA0BEE1F88F7E0950895BEE304D060
:1019200008F490E80895BFE322273327A901FDD0EA
:1019300058F19F5740F1B91738F1BFE3B91B992708
:10194000B8503AF4660F771F881F991FB395D2F3EA
:1019500016C0B8504AF0232F342F452F562F672F2B
:10196000782F8827B850BAF7B85F49F086957795F1
:1019700067955795479537952795BA95B9F70EF41A
:101980009DD088940895889460E070E0CB0108951C
:10199000CCD088F09F5790F0B92F9927B751A0F07D
:1019A000D1F0660F771F881F991F1AF0BA95C9F7F3
:1019B00012C0B13081F0D3D0B1E00895D0C0672F0C
:1019C000782F8827B85F39F0B93FCCF386957795A3
:1019D0006795B395D9F73EF490958095709561958C
:1019E0007F4F8F4F9F4F0895E89409C097FB3EF4B7
:1019F00090958095709561957F4F8F4F9F4F99235C
:101A0000A9F0F92F96E9BB279395F69587957795D9
:101A10006795B795F111F8CFFAF4BB0F11F460FF99
:101A20001BC06F5F7F4F8F4F9F4F16C0882311F0F1
:101A300096E911C0772321F09EE8872F762F05C005
:101A4000662371F096E8862F70E060E02AF09A95A0
:101A5000660F771F881FDAF7880F9695879597F995
:101A60000895990F0008550FAA0BE0E8FEEF16162F
:101A70001706E807F907C0F012161306E407F50782
:101A800098F0621B730B840B950B39F40A2661F0F6
:101A9000232B242B252B21F408950A2609F4A14099
:101AA000A6958FEF811D811D089597F99F6780E8A6
:101AB00070E060E008959FEF80EC08959095809528
:101AC0007095609550954095309521953F4F4F4FBB
:101AD0005F4F6F4F7F4F8F4F9F4F089500240A94A1
:101AE0001616170618060906089500240A941216F9
:101AF0001306140605060895092E0394000C11F42C
:101B0000882352F0BB0F40F4BF2B11F460FF04C0D8
:101B10006F5F7F4F8F4F9F4F089557FD9058440F31
:101B2000551F59F05F3F71F04795880F97FB991F3C
:101B300061F09F3F79F087950895121613061406F9
:101B4000551FF2CF4695F1DF08C016161706180686
:101B5000991FF1CF86957105610508940895E89461
:101B6000BB2766277727CB0197F908950BD0C4CF01
:101B7000B5DF28F0BADF18F0952309F096CF9BCF98
:101B80001124EECFCADFA0F3959FD1F3950F50E05B
:101B9000551F629FF001729FBB27F00DB11D639F1F
:101BA000AA27F00DB11DAA1F649F6627B00DA11DC5
:101BB000661F829F2227B00DA11D621F739FB00D6B
:101BC000A11D621F839FA00D611D221F749F3327DB
:101BD000A00D611D231F849F600D211D822F762F74
:101BE0006A2F11249F5750408AF0E1F088234AF071
:101BF000EE0FFF1FBB1F661F771F881F91505040BD
:101C0000A9F79E3F510570F050CFAACF5F3FECF38C
:101C1000983EDCF3869577956795B795F795E795A8
:101C20009F5FC1F7FE2B880F911D9695879597F9B9
:101C30000895CF93DF938230910510F482E090E015
:101C4000E091F301F091F40120E030E0A0E0B0E099
:101C5000309739F14081518148175907B8F048173A
:101C6000590771F482819381109729F013969C9300
:101C70008E9312972CC09093F4018093F30127C0A8
:101C80002115310531F04217530718F0A901DB0186
:101C900001C0EF019A01BD01DF010280F381E02D57
:101CA000D7CF21153105F9F0281B390B2430310528
:101CB00080F48A819B816115710521F0FB0193837A
:101CC000828304C09093F4018093F301FE01329665
:101CD00044C0FE01E20FF31F81939193225031091A
:101CE000398328833AC02091F1013091F201232BEE
:101CF00041F420910201309103013093F2012093CD
:101D0000F10120910001309101012115310541F4CB
:101D10002DB73EB74091040150910501241B350BAE
:101D2000E091F101F091F201E217F307A0F42E1B0C
:101D30003F0B2817390778F0AC014E5F5F4F24172F
:101D4000350748F04E0F5F1F5093F2014093F101A9
:101D50008193919302C0E0E0F0E0CF01DF91CF9159
:101D60000895CF93DF93009709F487C0FC01329761
:101D700013821282C091F301D091F401209781F473
:101D800020813181280F391F8091F1019091F2015A
:101D90008217930779F5F093F201E093F1016DC09A
:101DA000DE0120E030E0AE17BF0750F412964D91EF
:101DB0005C9113979D014115510509F1DA01F3CFAB
:101DC000B383A28340815181840F951F8A179B079B
:101DD00071F48D919C911197840F951F02969183B8
:101DE000808312968D919C91139793838283211502
:101DF000310529F4F093F401E093F3013EC0D901D9
:101E00001396FC93EE9312974D915D91A40FB51F1D
:101E1000EA17FB0779F480819181840F951F029660
:101E2000D90111969C938E938281938113969C93F2
:101E30008E931297E0E0F0E08A819B81009719F081
:101E4000FE01EC01F9CFCE01029628813981820F83
:101E5000931F2091F1013091F2012817390769F49D
:101E6000309729F41092F4011092F30102C013820A
:101E70001282D093F201C093F101DF91CF910895C6
:041E8000F894FFCF04
:061E84000000F501200042
:00000001FF
