:100000005BC0000076C0000074C0000072C0000039
:1000100070C000006EC000006CC000006AC000002C
:1000200068C00000F4C1000064C0000062C00000AD
:1000300060C000005EC000005CC000005AC000004C
:1000400058C0000056C0000054C0000052C000005C
:1000500050C000004EC000004CC000004AC000006C
:1000600048C000000C944C0A44C000000C94B20A32
:1000700040C000003EC000003CC000003AC000008C
:1000800038C0000036C0000034C0000032C000009C
:1000900030C000002EC000002CC000002AC00000AC
:1000A00028C0000026C0000024C000006364696E00
:1000B0006F70737578585B0011241FBECFEFDAE0C4
:1000C000DEBFCDBF11E0A0E0B1E0EAE4F5E202C09E
:1000D00005900D92AC30B107D9F721E0ACE0B1E06A
:1000E00001C01D92AB3FB207E1F70E94900B0C9448
:1000F000A31286CFA0E0B0E0E0E8F0E00C94AD0BF6
:10010000EC01088119816115710551F061307105AB
:1001100069F4088119818A819B81081B190B06C02B
:10012000888199810A811B81080F191F8881998113
:100130005801A81AB90AB7FE03C0B194A194B10836
:10014000CE010E94230BA114B10499F188819981F9
:100150005801A81AB90AB7FE03C0B194A194B10816
:100160008A809B80B501882777FD8095982F0E9413
:100170003E0D6B017C01B40180E090E00E943C0DDB
:100180009B01AC01C701B6010E946E0C20E030E07B
:1001900048EC51E40E94FE0D0E94100D862F6A313A
:1001A00020F4653018F485E001C089E10E94350B28
:1001B000CACF80E00E94350BCDB7DEB7ECE00C94DF
:1001C000C90BCF93DF93DC01AC59BF4F2C9125367F
:1001D00088F4FC01EA59FF4F2081EC01C20FD11DC8
:1001E000688380818F5F8083843608F010828C91D1
:1001F0008F5F8C93DF91CF910895A1E0B0E0E3E0B1
:10020000F1E00C94B70B9E012F5F3F4F3F932F936C
:1002100026E031E03F932F939F938F930E94880FA6
:100220000F900F900F900F900F900F9018161906C7
:100230005CF48981863621F0823731F461E001C0B7
:1002400060E08EE891E0BDDF89E091E00E942E0A37
:100250000E9439092196E2E00C94D30BCF93DF93EF
:10026000DC01AC59BF4F2C91222391F0FC01EB59DA
:10027000FF4F2081EC01C20FD11D888190819F5FCB
:100280009083943608F010829C9191509C9301C009
:100290008FEFDF91CF910895FC01EA59FF4F108253
:1002A00031971082319710820895CF92DF92EF92AA
:1002B0000F931F938EE395E00E94490B88ECC82EA4
:1002C00088E0D82E94E0E92E0EE210E020E240E132
:1002D00063E270E08DE791E00E94D40A1F910F91D4
:1002E000EF90DF90CF900895E0DF1092F40110922C
:1002F000F3011092F201089583E075D7882309F184
:1003000080E071D78823E9F081E090E00E94BF0986
:100310008823B9F00E94200A882399F08DEF90E09D
:10032000B9D740E060E070E48CE996E4FDD2882320
:1003300041F084E058D7882321F085E054D781111B
:1003400003C080E090E02DC10895479A5D9808951C
:1003500047985D9A0895269A6A9A84B18F7C84B9E9
:10036000F4DF2FEF83ED90E3215080409040E1F7E0
:1003700000C00000EDDFB8CF0F931F93CF93DF9342
:10038000C091F501D091F60101E010E0E981FA8118
:1003900020818B81282381E090E011F480E090E0BF
:1003A0002C813D8121303105E1F4892B31F58FE33A
:1003B0009CE90197F1F700C00000E981FA81808192
:1003C0009B818923D1F48881813421F0833431F4F5
:1003D00061E001C060E08EE891E0F3DE1D821C82E6
:1003E0000CC0232B51F4019741F48FE39CE9019752
:1003F000F1F700C000001D830C830E80DF81C02D4B
:10040000209721F6DF91CF911F910F9108951F92B0
:100410000F920FB60F9211242F933F934F935F9338
:100420006F937F938F939F93AF93BF93EF93FF93BC
:10043000A3DF8DE791E00E94F30AFF91EF91BF9156
:10044000AF919F918F917F916F915F914F913F916C
:100450002F910F900FBE0F901F90189582B7806854
:1004600082BF82B7806282BF82B78F7E82BF82B72F
:100470008A6082BF82B78A7F82BF89B58F7E89BD3D
:1004800089B5826089BD0895EF92FF920F931F9303
:10049000CF93DF9384B1867F84B985B1896085B9B4
:1004A00088E090E00E94610EEC019093F601809349
:1004B000F50181E4888383E2E82EF12CFA82E98257
:1004C00088E08B8301E010E01D830C8388E090E0DE
:1004D0000E94610EFC019F838E8383E48083F282FD
:1004E000E18281E083831583048317821682CDB76E
:1004F000DEB7E6E00C94CF0B479A5D9A2FEF43EC02
:1005000059E0215040405040E1F700C000008CE02D
:1005100090E030E228B1205828B92BB123272BB91D
:100520002FEF41EE54E0215040405040E1F700C031
:1005300000000197009771F747985D9A08952FEF93
:1005400081EE94E0215080409040E1F700C000002F
:100550003F9A559A99DFD0CF85B5887F85BD08959C
:10056000A1E0B0E0E6EBF2E00C94B70B8983F4DF96
:10057000898186BD84B58F7384BD85B5877F85BD30
:1005800084B58C7F84BDEEE6F0E08081816080835D
:10059000579885B5876085BD81E02196E2E00C948F
:1005A000D30BF894209A009721F0019719F45D98E5
:1005B00001C0479A2898FFCFAAE0B0E0E2EEF2E04F
:1005C0000C94A70B58874F83680179019B01AC01FC
:1005D00060E070E08AE794E40E946E0C9B01AC013D
:1005E00060E074E284E79BE40E946E0C0E94DB0CE6
:1005F000F22FE32F49875A876B837C838D839E83F9
:1006000016012701612C712C430156016201E12C76
:10061000F12C00E010E00E94FC0B48F4CF01AF8108
:10062000B8859C9311968C9381E090E079C02F2F30
:100630003E2F49855A856B817C818D819E8103E0A7
:100640000E94E00BD90151016201E12CF12C00E084
:1006500010E00E94FC0B38F4EF81F885A083B18391
:1006600088E090E05DC02F2F3E2F49855A856B8131
:100670007C818D819E8106E00E94E00BD9015101B1
:100680006201E12CF12C00E010E00E94FC0B50F420
:100690009A2F8B2FAF81B8859C9311968C9380E411
:1006A00090E03EC02F2F3E2F49855A856B817C817B
:1006B0008D819E8108E00E94E00BD9015101620109
:1006C000E12CF12C00E010E00E94FC0B38F4EF81EB
:1006D000F885A083B18380E091E022C02F2F3E2FC8
:1006E00049855A856B817C818D819E810AE00E94BB
:1006F000E00BF22FE32F51016201E12CF12C00E01D
:1007000010E00E94FC0B48F4CF01AF81B8859C93A8
:1007100011968C9380E094E003C080E090E041DF8C
:100720002A96E2E10C94C30BA2E0B0E0EAE9F3E020
:100730000C94B50BBC0180E090E00E943C0D00E001
:1007400011E020E030E0AE014F5F5F4F35DF0097F2
:1007500009F443C016BC24B52F7324BD25B5277FEB
:1007600025BD24B5226024BD24B52E7F24BD29815A
:10077000215027BD20916E00226020936E008830AA
:100780009105A9F040F4019711F585B5897F85BDE4
:1007900085B5816011C08034910599F08115914033
:1007A000B1F485B5846085BD85B58C7F05C085B500
:1007B0008A7F85BD85B5826085BD81E02296E4E0B3
:1007C000F0C785B58B7F85BD85B58360F5CF85B5D1
:1007D000856085BD85B58D7FEFCF80E090E0E1DE5F
:1007E000823441F08F3451F0813471F480916E0085
:1007F000826007C080916E00846003C080916E00AB
:10080000816080936E00089580E090E0CADE8234BB
:1008100041F08F3451F0813471F480916E008D7FFE
:1008200007C080916E008B7F03C080916E008E7F29
:1008300080936E00089580E090E0B3DEA2E0B0E027
:10084000E3E2F4E092C7BC0180E090E00E943C0D3E
:1008500000E010E021E030E0AE014F5F5F4FACDE22
:10086000009709F45EC010928500109284002091D8
:100870008100286020938100209181002F7E2093A9
:100880008100209180002C7F2093800029813A8173
:1008900021503109309389002093880020916F0006
:1008A000226020936F0088309105D9F058F40197A9
:1008B00079F580918100897F80938100809181000A
:1008C000816017C080349105D1F08115914001F508
:1008D00080918100846080938100809181008C7F71
:1008E00008C0809181008A7F80938100809181007F
:1008F00082608093810081E02296E4E052C780917B
:1009000081008B7F80938100809181008360F1CF93
:1009100080918100856080938100809181008D7F2E
:10092000E8CF80E090E03DDEA2E0B0E0E9E9F4E06D
:1009300017C7B42E9B01AC0169D79B01AC0160E0E5
:1009400070E08AE794E4CAD700E010E021E030E0EC
:10095000AE014F5F5F4F30DE8C01009709F46BC032
:1009600080918100887F8093810010928500109291
:10097000840080918100806180938100809181005A
:10098000877F80938100809180008C7F809380009E
:1009900089819A819093870080938600809180005E
:1009A00080718093800080918000806280938000BD
:1009B00084E68B1508F43FC069817A8180E090E07D
:1009C0000E943C0D6B017C016B2D70E080E090E09B
:1009D0000E943C0D9B01AC01C701B6010E94FE0DB7
:1009E00020E030E048EC52E479D70E94100D70937B
:1009F0008B0060938A000830110501F160F401302A
:100A0000110571F580918100897F8093810080912B
:100A1000810081602DC000341105C9F0011581E00D
:100A20001807F1F4809181008460809381008091A7
:100A300081008C7F1DC080E090E0B3DD809181005B
:100A40008A7F8093810080918100826011C08091B3
:100A500081008B7F8093810080918100836008C03A
:100A600080918100856080938100809181008D7FDD
:100A70008093810081E02296E9E08EC6CF92DF92DA
:100A8000EF92FF92CF93C82F853628F520918600EC
:100A900030918700B90180E090E0EED76B017C01D6
:100AA0006C2F70E080E090E0E7D79B01AC01C701BC
:100AB000B6010E94FE0D20E030E048EC52E40ED773
:100AC000AFD770938B0060938A00CF91FF90EF9027
:100AD000DF90CF90089580E090E063DD823479F07C
:100AE00034F48134B1F480916F0082600FC083349C
:100AF00051F08F3471F480916F00816007C0809154
:100B00006F00846003C080916F00886080936F00E5
:100B1000089580E090E045DD823479F034F481344A
:100B2000B1F480916F008D7F0FC0833451F08F340A
:100B300071F480916F008E7F07C080916F008B7F72
:100B400003C080916F00877F80936F00089580E0DD
:100B500090E027DDA2E0B0E0EFEAF5E006C6BC01D8
:100B600080E090E089D700E010E021E030E0AE01C5
:100B70004F5F5F4F21DD009709F45EC01092950032
:100B80001092940020919100286020939100209170
:100B900091002F7E20939100209190002C7F209334
:100BA000900029813A812150310930939900209396
:100BB0009800209171002260209371008830910587
:100BC000D9F058F4019779F580919100897F80934D
:100BD000910080919100816017C080349105D1F01F
:100BE0008115914001F5809191008460809391007E
:100BF000809191008C7F08C0809191008A7F8093C2
:100C000091008091910082608093910081E0229612
:100C1000E4E0C7C5809191008B7F80939100809123
:100C200091008360F1CF8091910085608093910065
:100C3000809191008D7FE8CF80E090E0B2DC82343B
:100C400079F034F48134B1F48091710082600FC086
:100C5000833451F08F3471F480917100816007C04A
:100C600080917100846003C08091710088608093DE
:100C70007100089580E090E094DC823479F034F4DF
:100C80008134B1F4809171008D7F0FC0833451F0B5
:100C90008F3471F4809171008E7F07C08091710054
:100CA0008B7F03C080917100877F809371000895CE
:100CB00080E090E076DC8F929F92AF92BF92CF92CD
:100CC000DF92EF92FF926B017C0120E030E040E880
:100CD00054E400D687FF09C08091C100817F8093D2
:100CE000C1008091C10081606EC120E030E040E031
:100CF0005FE3C701B60182D74B015C0120E030E021
:100D000040E854E4E7D587FF09C08091C100827FA5
:100D10008093C1008091C10082602EC120E030E04C
:100D200040E85EE3C701B60169D74B015C0120E0F2
:100D300030E040E854E4CED587FF0EC08091C1007A
:100D4000837F8093C1008091C10082608093C10045
:100D50008091C100816010C120E030E040E05EE39E
:100D6000C701B6014BD720E030E040E854E4B2D5EB
:100D700087FF09C08091C100837F8093C10080916B
:100D8000C1008360F9C020E030E040E85DE3C701C6
:100D9000B60134D74B015C0120E030E040E854E478
:100DA00099D587FF09C08091C10084608093C100FC
:100DB0008091C100847FE0C020E030E040E05DE34E
:100DC000C701B6011BD74B015C0120E030E040E8D1
:100DD00054E480D587FF09C08091C100857F80934E
:100DE000C1008091C1008560C7C020E030E040E8CC
:100DF0005CE3C701B60102D74B015C0120E030E0A3
:100E000040E854E467D587FF09C08091C100867F20
:100E10008093C1008091C1008660AEC020E030E0C8
:100E200040E05CE3C701B601E9D64B015C0120E07C
:100E300030E040E854E44ED587FF09C08091C100FE
:100E4000877F8093C1008091C100876095C020E0BA
:100E500030E040E85BE3C701B601D0D64B015C014E
:100E600020E030E040E854E435D587FF09C08091A8
:100E7000C10088608093C1008091C100887F7CC0E0
:100E800020E030E040E05BE3C701B601B7D64B019C
:100E90005C0120E030E040E854E41CD587FF09C045
:100EA0008091C10089608093C1008091C100897FD9
:100EB00063C020E030E040E85AE3C701B6019ED6A7
:100EC0004B015C0120E030E040E854E403D587FFAB
:100ED00009C08091C1008B7F8093C1008091C100C7
:100EE0008B604AC020E030E040E05AE3C701B60121
:100EF00085D64B015C0120E030E040E854E4EAD4C0
:100F000087FF09C08091C1008C608093C1008091EF
:100F1000C1008C7F31C020E030E040E859E3C701D8
:100F2000B6016CD64B015C0120E030E040E854E4AF
:100F3000D1D487FF09C08091C1008D608093C1002A
:100F40008091C1008D7F18C020E030E040E059E37F
:100F5000C701B60153D64B015C0120E030E040E808
:100F600054E4B8D487FF17C08091C1008E6080938D
:100F7000C1008091C1008E7F8093C100C501B40182
:100F80004FD5CB01FF90EF90DF90CF90BF90AF9007
:100F90009F908F90089520E030E040E858E3C7012B
:100FA000B6012CD66B017C0120E030E040E854E42F
:100FB00091D487FF0DC08091C1008C608093C100E7
:100FC0008091C10083608093C100C701B601D8CF72
:100FD00080E090E0E6DAA2E0B0E0E0EFF7E0C5C341
:100FE0008C011A8219823ADA8091C0008F7C80933A
:100FF000C0008091C0008F738093C0008091C000BA
:101000008C7F8093C0008091C2008E7F8093C2004D
:101010008091C200837F8093C2008091C3008C7F47
:101020008093C300B801660F771F80E090E024D55D
:101030009B01AC0160E070E08AE794E44FD49B012F
:10104000AC0160E074E284E79CE448D434DE9A8327
:10105000898389819A819093BF0089819A81809345
:10106000D10089819A819093BF0089819A81809370
:10107000D2001092BF001092BF001092BE002981D2
:101080003A8181E0232B09F480E02296E4E089C3D1
:10109000CF92DF92EF92FF921F93CF93DF9300D016
:1010A00000D0CDB7DEB7142F69837A838B839C83FE
:1010B000D5D92091C00020622093C0002091C000AB
:1010C0002F7E2093C0002091C00021602093C0009B
:1010D0002091C3002D7F2093C3002091C300216085
:1010E0002093C30069817A818B819C819B01AC0133
:1010F00060E074E284E79CE4F1D3DDDD9093BF000F
:101100008093D100153630F5BC0180E090E0B4D476
:101110006B017C01612F70E080E090E0ADD49B0119
:10112000AC01C701B6016AD520E030E048EC52E4DA
:10113000D5D376D47093BF006093D0000F900F90FA
:101140000F900F90DF91CF911F91FF90EF90DF9064
:10115000CF9008958091C100837F8093C1008091DA
:10116000C1008C7F8093C10080E090E01ADA823465
:1011700079F034F48134B1F48091720080640FC04E
:10118000843451F08F3471F480917200846007C010
:1011900080917200806203C08091720080688093A9
:1011A0007200089580E090E0FCD9823479F034F444
:1011B0008134B1F4809172008F7B0FC0843451F080
:1011C0008F3471F4809172008B7F07C08091720020
:1011D0008F7D03C0809172008F7780937200089595
:1011E00080E090E0DED99091680091609093680073
:1011F000883018F080E090E0D4D990916B0021E025
:1012000030E001C0220F8A95EAF7922B90936B0091
:1012100081E00895909168009E7F909368008830E7
:1012200070F490916B0021E030E0082E01C0220F95
:101230000A94EAF72095292320936B00089580E013
:1012400090E0AFD9109246011092450110927A01B8
:10125000109279011092120110920D0110920C015E
:1012600010920F0110920E011092110110921001B4
:101270000895109246011092450110927A01109241
:1012800079010895809113018093CE0081E08093CD
:1012900046010895CF93DF93EC01809112018330D2
:1012A00018F082E090E07DD980910C0190910D01C1
:1012B000892B79F080910E0190910F01892B61F0BB
:1012C0008091100190911101892BA9F422E030E066
:1012D00005C020E030E002C021E030E0F901EE0F6F
:1012E000FF1FE45FFE4FD183C083809112018F5FA7
:1012F0008093120102C023E030E0822FDF91CF9172
:101300000895E82FF0E0EE0FFF1FE45FFE4F11821B
:101310001082E2E1F1E0808181508083089500979E
:1013200019F00197A1F029C0CB010197029748F469
:101330008091C90080618093C9006230710519F005
:101340001AC0672BC1F48091C900886012C0CB011C
:101350000197029748F48091C9008F7E8093C9005D
:101360006230710519F007C0672B29F48091C9001C
:10137000877F8093C90081E0089580E00895CF932E
:10138000DF93EC015FDF8091CA008F7C8093CA00FD
:101390008091CA00877F8093CA008091C9008B7FAB
:1013A0008093C9008091CA0086608093CA008091B2
:1013B000C9008C7F8093C9008091CA008E7F809382
:1013C000CA008091CB008C7F8093CB00209761F086
:1013D000219729F580E190E09093CD008093CC0097
:1013E0008091C800826009C087E090E09093CD00B2
:1013F0008093CC008091C8008D7F8093C80080913D
:10140000C8008E7F8093C8008091CA008F7380933C
:10141000CA0062E070E080E090E081DF01C080E01F
:10142000DF91CF9108958091C80085FFFCCFE091B6
:101430007901F0E0E95BFE4F80818093CE00089552
:10144000E9ECF0E08081806C808381E00895E9EC34
:10145000F0E080818F73808381E00895A2E0B0E0A6
:10146000E3E3FAE083C1182F8091C90089839A834E
:10147000EEDFE12F9A81F92F8191882339F0909145
:10148000C80095FFFCCF8093CE00F6CF8981809372
:10149000C9002296E3E086C11F920F920FB60F9209
:1014A00011242F933F934F935F936F937F938F9369
:1014B0009F93AF93BF93CF93DF93EF93FF9380916D
:1014C0007901823310F0109279018091CE00E09181
:1014D0007901F0E0E95BFE4F8083A5DF909179010F
:1014E000E92FF0E0E95BFE4F80818D3011F08A300A
:1014F000E9F4108280911201882309F1C0E0D0E064
:10150000FE01EE0FFF1FE45FFE4F80819181892B6A
:1015100041F00190F081E02D69E771E087E491E00E
:1015200009952196C330D10559F709C0883011F0CB
:101530008F3711F4915001C09F5F90937901FF9113
:10154000EF91DF91CF91BF91AF919F918F917F915B
:101550006F915F914F913F912F910F900FBE0F9020
:101560001F9018951F920F920FB60F9211248F9310
:101570009F93EF93FF9380914601909145018917C6
:1015800050F4E82FF0E0ED5EFE4F90819093CE0096
:101590008F5F80934601FF91EF919F918F910F9004
:1015A0000FBE0F901F901895CF92DF92EF920F937E
:1015B0001F93FC01118210821582148217821682F9
:1015C000D382C282738762874787208B15870487FF
:1015D000E68682E090E0918780871F910F91EF90DF
:1015E000DF90CF900895FC01A285B38587859C91FB
:1015F000892321E030E011F420E030E0A285B385BA
:1016000040898C91482381E090E011F480E090E0E3
:10161000468157812417350731F0408151814F5F52
:101620005F4F51834083448155814817590731F0FA
:101630004081518141505109518340833583248336
:10164000978386830895FC0180859185A485B5855F
:101650008617970721F496858C91892B04C096856F
:1016600090958C9189238C930895CF93C82F2091C6
:101670007B0130917C01232B21F482E090E00E94D9
:10168000D102E0917B01F0917C018C2F0995CF91E3
:10169000089590937C0180937B010895CF93DF930D
:1016A000EC0180E0E2DF88EE93E099838883EC85AB
:1016B000FD859E858081892B808389E1D6DF2FEF90
:1016C00089E698E1215080409040E1F700C0000099
:1016D00080E0CBDF88819981893E23E0920718F072
:1016E000198618860CC0883E934029F081E090E06E
:1016F0009987888704C081E090E00E94D102198216
:101700001882DF91CF910895FC0111821082158219
:1017100014821782168222E030E031872087BECF04
:101720000E949F020E947C010E94AB0178948DE789
:1017300091E0EADF8EE891E00E942E018F3FD1F325
:10174000682F70E08DE791E00E947A00F3CF2F922E
:101750003F924F925F926F927F928F929F92AF9241
:10176000BF92CF92DF92EF92FF920F931F93CF938E
:10177000DF93CDB7DEB7CA1BDB0B0FB6F894DEBF25
:101780000FBECDBF09942A88398848885F846E844B
:101790007D848C849B84AA84B984C884DF80EE8095
:1017A000FD800C811B81AA81B981CE0FD11D0FB69E
:1017B000F894DEBF0FBECDBFED01089597FB10F882
:1017C000169400080F93083098F00850232F342FF8
:1017D000452F562F672F782F892F902DF4CF059402
:1017E0009795879577956795579547953795279559
:1017F0000A95AAF70F9108952A153B054C055D053A
:101800006E057F058007910708955058BB27AA27CA
:101810000ED0BAC1ABD130F0B0D120F031F49F3F3F
:1018200011F41EF490C10EF4E095E7FB86C1E92F98
:10183000BCD180F3BA17620773078407950718F0C5
:1018400071F49EF5D4C10EF4E0950B2EBA2FA02DA5
:101850000B01B90190010C01CA01A0011124FF275D
:10186000591B99F0593F50F4503E68F11A16F04058
:10187000A22F232F342F4427585FF3CF4695379557
:101880002795A795F0405395C9F77EF41F16BA0B1C
:10189000620B730B840BBAF09150A1F0FF0FBB1FCA
:1018A000661F771F881FC2F70EC0BA0F621F731F13
:1018B000841F48F4879577956795B795F7959E3F70
:1018C00008F0B3CF9395880F08F09927EE0F9795FE
:1018D000879508950ED108F481E008950CD054C185
:1018E0004CD140F043D130F021F45F3F19F025C1D5
:1018F00051117EC128C159D198F39923C9F35523B9
:10190000B1F3951B550BBB27AA27621773078407F2
:1019100038F09F5F5F4F220F331F441FAA1FA9F3A8
:1019200033D00E2E3AF0E0E830D091505040E6959A
:10193000001CCAF729D0FE2F27D0660F771F881FFB
:10194000BB1F261737074807AB07B0E809F0BB0BEA
:10195000802DBF01FF2793585F4F2AF09E3F51050E
:1019600068F0EBC045C15F3FECF3983EDCF3869531
:1019700077956795B795F7959F5FC9F7880F911D84
:101980009695879597F90895E1E0660F771F881F70
:10199000BB1F621773078407BA0720F0621B730B23
:1019A000840BBA0BEE1F88F7E0950895BEE304D0D0
:1019B00008F490E80895BFE322273327A901FDD05A
:1019C00058F19F5740F1B91738F1BFE3B91B992778
:1019D000B8503AF4660F771F881F991FB395D2F35A
:1019E00016C0B8504AF0232F342F452F562F672F9B
:1019F000782F8827B850BAF7B85F49F08695779561
:101A000067955795479537952795BA95B9F70EF489
:101A10009DD088940895889460E070E0CB0108958B
:101A2000CCD088F09F5790F0B92F9927B751A0F0EC
:101A3000D1F0660F771F881F991F1AF0BA95C9F762
:101A400012C0B13081F0D3D0B1E00895D0C0672F7B
:101A5000782F8827B85F39F0B93FCCF38695779512
:101A60006795B395D9F73EF49095809570956195FB
:101A70007F4F8F4F9F4F0895E89409C097FB3EF426
:101A800090958095709561957F4F8F4F9F4F9923CB
:101A9000A9F0F92F96E9BB279395F6958795779549
:101AA0006795B795F111F8CFFAF4BB0F11F460FF09
:101AB0001BC06F5F7F4F8F4F9F4F16C0882311F061
:101AC00096E911C0772321F09EE8872F762F05C075
:101AD000662371F096E8862F70E060E02AF09A9510
:101AE000660F771F881FDAF7880F9695879597F905
:101AF0000895990F0008550FAA0BE0E8FEEF16169F
:101B00001706E807F907C0F012161306E407F507F1
:101B100098F0621B730B840B950B39F40A2661F065
:101B2000232B242B252B21F408950A2609F4A14008
:101B3000A6958FEF811D811D089597F99F6780E815
:101B400070E060E008959FEF80EC08959095809597
:101B50007095609550954095309521953F4F4F4F2A
:101B60005F4F6F4F7F4F8F4F9F4F089500240A9410
:101B70001616170618060906089500240A94121668
:101B80001306140605060895092E0394000C11F49B
:101B9000882352F0BB0F40F4BF2B11F460FF04C048
:101BA0006F5F7F4F8F4F9F4F089557FD9058440FA1
:101BB000551F59F05F3F71F04795880F97FB991FAC
:101BC00061F09F3F79F08795089512161306140669
:101BD000551FF2CF4695F1DF08C0161617061806F6
:101BE000991FF1CF86957105610508940895E894D1
:101BF000BB2766277727CB0197F908950BD0C4CF71
:101C0000B5DF28F0BADF18F0952309F096CF9BCF07
:101C10001124EECFCADFA0F3959FD1F3950F50E0CA
:101C2000551F629FF001729FBB27F00DB11D639F8E
:101C3000AA27F00DB11DAA1F649F6627B00DA11D34
:101C4000661F829F2227B00DA11D621F739FB00DDA
:101C5000A11D621F839FA00D611D221F749F33274A
:101C6000A00D611D231F849F600D211D822F762FE3
:101C70006A2F11249F5750408AF0E1F088234AF0E0
:101C8000EE0FFF1FBB1F661F771F881F915050402C
:101C9000A9F79E3F510570F050CFAACF5F3FECF3FC
:101CA000983EDCF3869577956795B795F795E79518
:101CB0009F5FC1F7FE2B880F911D9695879597F929
:101CC0000895CF93DF938230910510F482E090E085
:101CD000E091F901F091FA0120E030E0A0E0B0E0FD
:101CE000309739F14081518148175907B8F04817AA
:101CF000590771F482819381109729F013969C9370
:101D00008E9312972CC09093FA018093F90127C00B
:101D10002115310531F04217530718F0A901DB01F5
:101D200001C0EF019A01BD01DF010280F381E02DC6
:101D3000D7CF21153105F9F0281B390B2430310597
:101D400080F48A819B816115710521F0FB019383E9
:101D5000828304C09093FA018093F901FE013296C8
:101D600044C0FE01E20FF31F819391932250310989
:101D7000398328833AC02091F7013091F801232B51
:101D800041F420910201309103013093F801209336
:101D9000F70120910001309101012115310541F435
:101DA0002DB73EB74091040150910501241B350B1E
:101DB000E091F701F091F801E217F307A0F42E1B70
:101DC0003F0B2817390778F0AC014E5F5F4F24179F
:101DD000350748F04E0F5F1F5093F8014093F7010D
:101DE0008193919302C0E0E0F0E0CF01DF91CF91C9
:101DF0000895CF93DF93009709F487C0FC013297D1
:101E000013821282C091F901D091FA01209781F4D6
:101E100020813181280F391F8091F7019091F801BD
:101E20008217930779F5F093F801E093F7016DC0FD
:101E3000DE0120E030E0AE17BF0750F412964D915E
:101E40005C9113979D014115510509F1DA01F3CF1A
:101E5000B383A28340815181840F951F8A179B070A
:101E600071F48D919C911197840F951F0296918327
:101E7000808312968D919C91139793838283211571
:101E8000310529F4F093FA01E093F9013EC0D9013C
:101E90001396FC93EE9312974D915D91A40FB51F8D
:101EA000EA17FB0779F480819181840F951F0296D0
:101EB000D90111969C938E938281938113969C9362
:101EC0008E931297E0E0F0E08A819B81009719F0F1
:101ED000FE01EC01F9CFCE01029628813981820FF3
:101EE000931F2091F7013091F8012817390769F401
:101EF000309729F41092FA011092F90102C013826E
:101F00001282D093F801C093F701DF91CF91089529
:101F1000AEE0B0E0EDE8FFE02ACC85E08C838B8971
:101F20009C899A838983AE01495E5F4F6D897E8962
:101F3000CE01019672D12E96E2E035CC20FD09C08B
:101F4000FC0123FD05C022FF02C07383628351831D
:101F50004083089544FD10C046FD10C0DB01FC0124
:101F6000AA0FBB1FEE1FFF1F1094D1F76A0F7B1F34
:101F70008E1F9F1F31E003C033E001C034E0660FC5
:101F8000771F881F991F3150D1F7620F711D811D76
:101F9000911D08950F931F93CF93DF938C01C80178
:101FA00078D2EC0197FD06C061D2892BC1F7B80148
:101FB000CE01ADD2CE01DF91CF911F910F91089547
:101FC0008F929F92AF92CF92DF92EF92FF920F93F8
:101FD0001F93CF93DF93EC01A62E4A01022F59D213
:101FE000AC0155274B32510521F04D32510549F4D2
:101FF0000068AA9411F480E060C0CE014AD297FD37
:10200000FACF102F1D7F302F3073F1F48033E1F4BD
:10201000FF24FA94FA0C09F43DC0CE013AD297FDA0
:1020200039C0382F3F7D383549F41264AA94AA94F8
:1020300089F1CE012ED297FF07C02CC006FF02C047
:10204000126001C01261AF2CC12CD12C760120EDA1
:10205000280F283078F014FF03C0BE0158D217C0F3
:102060002A3040F016FFF9CF2F7D3FEE320F363089
:10207000A0F72750412FC701B6016CDF6B017C012F
:102080001260AA9451F0CE0104D297FFE0CF11FD67
:1020900004C0B1CFC12CD12C760117FF08C0F09439
:1020A000E094D094C094C11CD11CE11CF11C212FE0
:1020B000B701A601C40142DF81E0DF91CF911F91FA
:1020C0000F91FF90EF90DF90CF90AF909F908F9007
:1020D0000895A1E2B0E0EEE6F0E13ECB5C017A01CA
:1020E0008E010F5F1F4F680180E2D8011D928A9513
:1020F000E9F7F501738040E050E0812CB0E0912CCD
:1021000081E090E0F90173FCA59173FEA1918F012C
:102110007A2F9F01A11103C080E090E07BC0AE3513
:1021200019F44115510559F1E92DF0E0E417F507CF
:102130003CF4AD3569F1AD3219F4BB2319F103C09C
:10214000B11101C08A2EE72FE695E695E695860146
:102150000E0F111DF801A72FA7708C0102C0000FF0
:10216000111FAA95E2F7D801B081BA2BB083781578
:1021700059F0781510F47F5FE6CF7150E4CF9924C1
:10218000939403C0B1E001C0B0E04F5F5F4FBACF9E
:10219000BB2319F08E8180628E83911003C0992435
:1021A000939415C0F601CE0181962081209521934C
:1021B000E817F907D1F7F3CFE114F10429F0D701BB
:1021C0008C93F70131967F016150F1F0912CC5019C
:1021D00069A35FD169A197FD15C0282F2695269583
:1021E0002695F601E20FF11D208130E0AC01477029
:1021F000552702C0359527954A95E2F720FDDCCF9B
:10220000B50185D1911088CFE114F10411F0D70107
:102210001C92C801A196EDE0BBCA4F925F927F92DB
:102220008F929F92AF92BF92CF92DF92EF92FF92E6
:102230000F931F93CF93DF931F92CDB7DEB78C011F
:102240002B017A01FC0117821682A12CF801D380A0
:10225000F201D3FC8591D3FE8191382F2F01882381
:1022600009F4EEC090E0398301D13981892B19F04E
:10227000C80190DEEBCF353241F4F201D3FC359149
:10228000D3FE31912F01353259F4C801398301D180
:10229000398197FDD3C03817C9F2B80138D1D0C001
:1022A0003A3241F4D3FC3591D3FE31912F01BB2456
:1022B000B39401C0B12C712C20ED230F2A3088F487
:1022C000FB2DF260BF2E672D70E080E090E040E2D1
:1022D00041DE762EF201D3FC3591D3FE31912F01F0
:1022E000EBCFB1FE03C0711003C0AAC077247A946B
:1022F000383619F03C3661F014C0F201D3FC359148
:10230000D3FE31912F01383661F4FB2DF860BF2EDA
:102310008B2D8460B82EF201D3FC3591D3FE319120
:102320002F01332309F48CC0632F70E08CEA90E016
:102330003983A4D03981892B09F482C0B0FC07C04D
:10234000F701C080D180C70102967C0102C0C12C78
:10235000D12C3E3649F4F8014681578160E070E0A7
:102360002B2DC601EBDD72CF333699F4B1FC02C0E0
:1023700077247394C8018DD097FD60C0C114D10437
:1023800029F0F6018083C60101966C017A9491F7D9
:1023900051C03B3551F49201A601672DC80199DE69
:1023A0002C01009709F046C040C0C8013983F2DD16
:1023B000398197FD43C03F3651F128F4343619F185
:1023C000393661F128C0333769F03537E1F023C081
:1023D000C114D10429F0F6018082C60101966C0176
:1023E0007A9459F0C80155D04C0197FD06C03ED0F3
:1023F000892B71F3B801C4018AD0C114D104D1F082
:10240000F601108217C0FB2DF062BF2E07C08B2D86
:102410008061B82E03C09B2D9064B92E2B2DA60190
:10242000672DC801CDDD811105C0F801838180735E
:1024300029F406C0B0FC0ACFA39408CFAA2019F053
:102440008A2D90E002C08FEF9FEF0F90DF91CF9128
:102450001F910F91FF90EF90DF90CF90BF90AF90C2
:102460009F908F907F905F904F900895911168C0DA
:10247000803219F089508550D0F70895FC010590FD
:10248000061621F00020D9F7C00108953197CF0139
:102490000895CF93DF93EC012B8120FF33C026FFFB
:1024A0000AC02F7B2B838E819F8101969F838E8311
:1024B0008A8190E029C022FF0FC0E881F9818081E4
:1024C000992787FD9095009719F420622B831AC0F5
:1024D0003196F983E8830EC0EA85FB85099597FF5D
:1024E00009C02B81019611F480E101C080E2822BAA
:1024F0008B8308C02E813F812F5F3F4F3F832E8308
:10250000992702C08FEF9FEFDF91CF910895FB01D4
:10251000238120FF12C026FD10C08F3F3FEF93079D
:1025200061F082832F7D20642383268137812150AF
:10253000310937832683992708958FEF9FEF0895F8
:0A254000992788270895F894FFCF2B
:0C254A000000FB0120002563000D0A00CA
:00000001FF
