:1000000055C0000070C000006EC000006CC0000051
:100010006AC0000068C0000066C0000064C0000044
:1000200062C0000018C100005EC000005CC000009B
:100030005AC0000058C0000056C0000054C0000064
:1000400052C0000050C000004EC000004CC0000074
:100050004AC0000048C0000046C0000044C0000084
:1000600042C000000C943D093EC000000C94A3095E
:100070003AC0000038C0000036C0000034C00000A4
:1000800032C0000030C000002EC000002CC00000B4
:100090002AC0000028C0000026C0000024C00000C4
:1000A00022C0000020C000001EC0000011241FBE9E
:1000B000CFEFDAE0DEBFCDBF11E0A0E0B1E0E8E9CC
:1000C000FFE102C005900D92A830B107D9F721E0F9
:1000D000A8E0B1E001C01D92A239B207E1F70E9489
:1000E0002F0A0C94CA0F8CCF8F929F92AF92BF921F
:1000F000CF92EF920F931F9381E480938B0183E261
:1001000090E090938D0180938C0188E080938E0124
:1001100081E090E09093900180938F011092910183
:1001200086E6882E982C8BE3A82E82E4B82E90E3E6
:10013000C92E24E0E22E0EE210E020E240E163E26C
:1001400070E087E791E00E94C5091F910F91EF9041
:10015000CF90BF90AF909F908F900895C5CF83E0D0
:1001600033D78823C1F00E9411098823A1F081E0D0
:1001700090E0F6D7882379F04091910160E070E437
:100180008CE996E4C2D2882331F084E01DD785E063
:100190001BD7811103C080E090E0F4C00895479A16
:1001A0005D98089547985D9A0895269A6A9A84B151
:1001B0008F7C84B9F4DF2FEF83ED90E321508040F2
:1001C0009040E1F700C00000EDDF8ECFE0918C01A0
:1001D000F0918D01208180918E01282381E090E0B3
:1001E00011F480E090E020918F0130919001213056
:1001F0003105C9F40097B9F42FEF89EF90E0215051
:1002000080409040E1F700C00000E0918C01F09147
:100210008D01808190918E018923E1F410929001EB
:1002200010928F01089520918F0130919001232B1E
:1002300089F4019779F42FEF89EF90E02150804005
:100240009040E1F700C0000081E090E090939001C1
:1002500080938F0108951F920F920FB60F92112471
:100260002F933F934F935F936F937F938F939F93BE
:10027000AF93BF93EF93FF93A9DF87E791E00E94CD
:10028000FF09FF91EF91BF91AF919F918F917F9166
:100290006F915F914F913F912F910F900FBE0F90F3
:1002A0001F90189582B7806882BF82B7806282BF34
:1002B00082B78F7E82BF82B78A6082BF82B78A7F11
:1002C00082BF89B58F7E89BD89B5826089BD089559
:1002D000479A5D9A2FEF43EC59E02150404050403F
:1002E000E1F700C000008CE090E030E228B1205837
:1002F00028B92BB123272BB92FEF41EE54E0215021
:1003000040405040E1F700C000000197009771F7AE
:1003100047985D9A08952FEF81EE94E02150804038
:100320009040E1F700C000003F9A559A84B1867F63
:1003300084B985B1896085B9CBCF85B5887F85BD06
:100340000895A1E0B0E0E7EAF1E00C94980A89830F
:10035000F4DF898186BD84B58F7384BD85B5877FC1
:1003600085BD84B58C7F84BDEEE6F0E08081816040
:100370008083579885B5876085BD81E02196E2E04E
:100380000C94B40AF894209A009721F0019719F47C
:100390005D9801C0479A2898FFCFAAE0B0E0E3ED4E
:1003A000F1E00C94880A58874F83680179019B011A
:1003B000AC0160E070E08AE794E40E944F0B9B017F
:1003C000AC0160E074E284E79BE40E944F0B0E9462
:1003D000BC0BF22FE32F49875A876B837C838D8375
:1003E0009E8316012701612C712C43015601620185
:1003F000E12CF12C00E010E00E94DD0A48F4CF016E
:10040000AF81B8859C9311968C9381E090E079C080
:100410002F2F3E2F49855A856B817C818D819E814E
:1004200003E00E94C10AD90151016201E12CF12CC3
:1004300000E010E00E94DD0A38F4EF81F885A08327
:10044000B18388E090E05DC02F2F3E2F49855A850B
:100450006B817C818D819E8106E00E94C10AD90159
:1004600051016201E12CF12C00E010E00E94DD0A54
:1004700050F49A2F8B2FAF81B8859C9311968C9353
:1004800080E490E03EC02F2F3E2F49855A856B8136
:100490007C818D819E8108E00E94C10AD9015101B1
:1004A0006201E12CF12C00E010E00E94DD0A38F43A
:1004B000EF81F885A083B18380E091E022C02F2FE7
:1004C0003E2F49855A856B817C818D819E810AE012
:1004D0000E94C10AF22FE32F51016201E12CF12C9D
:1004E00000E010E00E94DD0A48F4CF01AF81B8853A
:1004F0009C9311968C9380E094E003C080E090E0A0
:1005000041DF2A96E2E10C94A40AA2E0B0E0EBE815
:10051000F2E00C94960ABC0180E090E00E941D0C71
:1005200000E011E020E030E0AE014F5F5F4F35DFCB
:10053000009709F443C016BC24B52F7324BD25B51C
:10054000277F25BD24B5226024BD24B52E7F24BD80
:100550002981215027BD20916E00226020936E00DA
:1005600088309105A9F040F4019711F585B5897F90
:1005700085BD85B5816011C08034910599F08115E4
:100580009140B1F485B5846085BD85B58C7F05C08B
:1005900085B58A7F85BD85B5826085BD81E022965F
:1005A000E4E0E0C785B58B7F85BD85B58360F5CF79
:1005B00085B5856085BD85B58D7FEFCF80E090E006
:1005C000E1DE823441F08F3451F0813471F4809156
:1005D0006E00826007C080916E00846003C08091CD
:1005E0006E00816080936E00089580E090E0CADE26
:1005F000823441F08F3451F0813471F480916E0077
:100600008D7F07C080916E008B7F03C080916E004C
:100610008E7F80936E00089580E090E0B3DEA2E0CC
:10062000B0E0E4E1F3E082C7BC0180E090E00E942A
:100630001D0C00E010E021E030E0AE014F5F5F4FA5
:10064000ACDE009709F45EC0109285001092840021
:1006500020918100286020938100209181002F7ECD
:1006600020938100209180002C7F2093800029819D
:100670003A812150310930938900209388002091DC
:100680006F00226020936F0088309105D9F058F4F4
:10069000019779F580918100897F80938100809115
:1006A0008100816017C080349105D1F0811591409F
:1006B00001F58091810084608093810080918100A8
:1006C0008C7F08C0809181008A7F80938100809117
:1006D000810082608093810081E02296E4E042C73D
:1006E000809181008B7F8093810080918100836065
:1006F000F1CF80918100856080938100809181009D
:100700008D7FE8CF80E090E03DDEA2E0B0E0EAE857
:10071000F3E007C7B42E9B01AC0159D79B01AC0194
:1007200060E070E08AE794E4BAD700E010E021E0EE
:1007300030E0AE014F5F5F4F30DE8C01009709F46F
:100740006BC080918100887F80938100109285002A
:10075000109284008091810080618093810080915B
:100760008100877F80938100809180008C7F8093BF
:10077000800089819A819093870080938600809180
:1007800080008071809380008091800080628093DF
:10079000800084E68B1508F43FC069817A8180E08F
:1007A00090E00E941D0C6B017C016B2D70E080E0DD
:1007B00090E00E941D0C9B01AC01C701B6010E9494
:1007C000DF0C20E030E048EC52E469D70E94F10BE6
:1007D00070938B0060938A000830110501F160F47A
:1007E0000130110571F580918100897F809381002E
:1007F0008091810081602DC000341105C9F0011580
:1008000081E01807F1F48091810084608093810079
:10081000809181008C7F1DC080E090E0B3DD8091ED
:1008200081008A7F8093810080918100826011C065
:10083000809181008B7F8093810080918100836013
:1008400008C0809181008560809381008091810043
:100850008D7F8093810081E02296E9E07EC6CF9271
:10086000DF92EF92FF92CF93C82F853628F5209123
:10087000860030918700B90180E090E0DED76B01FF
:100880007C016C2F70E080E090E0D7D79B01AC0139
:10089000C701B6010E94DF0C20E030E048EC52E4D2
:1008A000FED69FD770938B0060938A00CF91FF9004
:1008B000EF90DF90CF90089580E090E063DD823488
:1008C00079F034F48134B1F480916F0082600FC00C
:1008D000833451F08F3471F480916F00816007C0D0
:1008E00080916F00846003C080916F008860809366
:1008F0006F00089580E090E045DD823479F034F4B3
:100900008134B1F480916F008D7F0FC0833451F03A
:100910008F3471F480916F008E7F07C080916F00DB
:100920008B7F03C080916F00877F80936F00089555
:1009300080E090E027DDA2E0B0E0E0EAF4E0F6C578
:10094000BC0180E090E079D700E010E021E030E0E9
:10095000AE014F5F5F4F21DD009709F45EC010923A
:1009600095001092940020919100286020939100AE
:10097000209191002F7E20939100209190002C7F58
:100980002093900029813A812150310930939900B8
:10099000209398002091710022602093710088308C
:1009A0009105D9F058F4019779F580919100897FEC
:1009B0008093910080919100816017C080349105EF
:1009C000D1F08115914001F5809191008460809370
:1009D0009100809191008C7F08C0809191008A7F66
:1009E000809391008091910082608093910081E0DA
:1009F0002296E4E0B7C5809191008B7F80939100AF
:100A0000809191008360F1CF809191008560809307
:100A10009100809191008D7FE8CF80E090E0B2DC82
:100A2000823479F034F48134B1F4809171008260C1
:100A30000FC0833451F08F3471F480917100816064
:100A400007C080917100846003C08091710088604C
:100A500080937100089580E090E094DC823479F016
:100A600034F48134B1F4809171008D7F0FC08334F0
:100A700051F08F3471F4809171008E7F07C08091A6
:100A800071008B7F03C080917100877F809371001C
:100A9000089580E090E076DC8F929F92AF92BF92B3
:100AA000CF92DF92EF92FF926B017C0120E030E069
:100AB00040E854E4F0D587FF09C08091C100817FF0
:100AC0008093C1008091C10081606EC120E030E060
:100AD00040E05FE3C701B60172D74B015C0120E043
:100AE00030E040E854E4D7D587FF09C08091C100C9
:100AF000827F8093C1008091C10082602EC120E07E
:100B000030E040E85EE3C701B60159D74B015C0114
:100B100020E030E040E854E4BED587FF0EC080916D
:100B2000C100837F8093C1008091C1008260809367
:100B3000C1008091C100816010C120E030E040E040
:100B40005EE3C701B6013BD720E030E040E854E463
:100B5000A2D587FF09C08091C100837F8093C10027
:100B60008091C1008360F9C020E030E040E85DE39F
:100B7000C701B60124D74B015C0120E030E040E81A
:100B800054E489D587FF09C08091C10084608093B7
:100B9000C1008091C100847FE0C020E030E040E0EF
:100BA0005DE3C701B6010BD74B015C0120E030E0EB
:100BB00040E854E470D587FF09C08091C100857F6B
:100BC0008093C1008091C1008560C7C020E030E003
:100BD00040E85CE3C701B601F2D64B015C0120E0BE
:100BE00030E040E854E457D587FF09C08091C10048
:100BF000867F8093C1008091C1008660AEC020E0F6
:100C000030E040E05CE3C701B601D9D64B015C019E
:100C100020E030E040E854E43ED587FF09C08091F1
:100C2000C100877F8093C1008091C100876095C01B
:100C300020E030E040E85BE3C701B601C0D64B01DD
:100C40005C0120E030E040E854E425D587FF09C08E
:100C50008091C10088608093C1008091C100887F2D
:100C60007CC020E030E040E05BE3C701B601A7D6DE
:100C70004B015C0120E030E040E854E40CD587FFF4
:100C800009C08091C10089608093C1008091C1003A
:100C9000897F63C020E030E040E85AE3C701B60135
:100CA0008ED64B015C0120E030E040E854E4F3D400
:100CB00087FF09C08091C1008B7F8093C100809124
:100CC000C1008B604AC020E030E040E05AE3C70139
:100CD000B60175D64B015C0120E030E040E854E4F9
:100CE000DAD487FF09C08091C1008C608093C10075
:100CF0008091C1008C7F31C020E030E040E859E3B2
:100D0000C701B6015CD64B015C0120E030E040E851
:100D100054E4C1D487FF09C08091C1008D608093E5
:100D2000C1008091C1008D7F18C020E030E040E01C
:100D300059E3C701B60143D64B015C0120E030E026
:100D400040E854E4A8D487FF17C08091C1008E60AA
:100D50008093C1008091C1008E7F8093C100C50146
:100D6000B4013FD5CB01FF90EF90DF90CF90BF90C3
:100D7000AF909F908F90089520E030E040E858E3D6
:100D8000C701B6011CD66B017C0120E030E040E8D1
:100D900054E481D487FF0DC08091C1008C608093A2
:100DA000C1008091C10083608093C100C701B6017A
:100DB000D8CF80E090E0E6DAA2E0B0E0E1EEF6E045
:100DC000B5C38C011A8219826DDA8091C0008F7CC4
:100DD0008093C0008091C0008F738093C000809189
:100DE000C0008C7F8093C0008091C2008E7F809372
:100DF000C2008091C200837F8093C2008091C300B3
:100E00008C7F8093C300B801660F771F80E090E06D
:100E100014D59B01AC0160E070E08AE794E43FD414
:100E20009B01AC0160E074E284E79CE438D434DEDA
:100E30009A83898389819A819093BF0089819A815D
:100E40008093D10089819A819093BF0089819A8192
:100E50008093D2001092BF001092BF001092BE008B
:100E600029813A8181E0232B09F480E02296E4E095
:100E700079C3CF92DF92EF92FF921F93CF93DF93CC
:100E800000D000D0CDB7DEB7142F69837A838B836F
:100E90009C8308DA2091C00020622093C00020913A
:100EA000C0002F7E2093C0002091C00021602093BD
:100EB000C0002091C3002D7F2093C3002091C30068
:100EC00021602093C30069817A818B819C819B0181
:100ED000AC0160E074E284E79CE4E1D3DDDD909353
:100EE000BF008093D100153630F5BC0180E090E062
:100EF000A4D46B017C01612F70E080E090E09DD470
:100F00009B01AC01C701B6015AD520E030E048ECA6
:100F100052E4C5D366D47093BF006093D0000F90A5
:100F20000F900F900F90DF91CF911F91FF90EF9056
:100F3000DF90CF9008958091C100837F8093C1009E
:100F40008091C1008C7F8093C10080E090E01ADA2C
:100F5000823479F034F48134B1F480917200806489
:100F60000FC0843451F08F3471F48091720084602A
:100F700007C080917200806203C080917200806817
:100F800080937200089580E090E0FCD9823479F07B
:100F900034F48134B1F4809172008F7B0FC08434BB
:100FA00051F08F3471F4809172008B7F07C0809173
:100FB00072008F7D03C0809172008F7780937200E2
:100FC000089580E090E0DED9909168009160909360
:100FD0006800883018F080E090E0D4D990916B00E0
:100FE00021E030E001C0220F8A95EAF7922B90931E
:100FF0006B0081E00895909168009E7F9093680057
:10100000883070F490916B0021E030E0082E01C030
:10101000220F0A94EAF72095292320936B00089564
:1010200080E090E0AFD910924201109241011092FD
:1010300076011092750110920E0110920901109222
:10104000080110920B0110920A0110920D011092EA
:101050000C01089510924201109241011092760104
:1010600010927501089580910F018093CE0081E068
:10107000809342010895CF93DF93EC0180910E019C
:10108000833018F082E090E07DD980910801909142
:101090000901892B79F080910A0190910B01892B2C
:1010A00061F080910C0190910D01892BA9F422E04F
:1010B00030E005C020E030E002C021E030E0F9017E
:1010C000EE0FFF1FE85FFE4FD183C08380910E01BA
:1010D0008F5F80930E0102C023E030E0822FDF910A
:1010E000CF910895E82FF0E0EE0FFF1FE85FFE4F6D
:1010F00011821082EEE0F1E08081815080830895BA
:10110000009719F00197A1F029C0CB010197029730
:1011100048F48091C90080618093C90062307105F4
:1011200019F01AC0672BC1F48091C900886012C001
:10113000CB010197029748F48091C9008F7E80937C
:10114000C9006230710519F007C0672B29F480913E
:10115000C900877F8093C90081E0089580E00895E9
:10116000CF93DF93EC015FDF8091CA008F7C809387
:10117000CA008091CA00877F8093CA008091C9000D
:101180008B7F8093C9008091CA0086608093CA00DB
:101190008091C9008C7F8093C9008091CA008E7FA6
:1011A0008093CA008091CB008C7F8093CB002097E6
:1011B00061F0219729F580E190E09093CD00809334
:1011C000CC008091C800826009C087E090E09093D5
:1011D000CD008093CC008091C8008D7F8093C800A3
:1011E0008091C8008E7F8093C8008091CA008F7361
:1011F0008093CA0062E070E080E090E081DF01C08F
:1012000080E0DF91CF9108958091C80085FFFCCFE9
:10121000E0917501F0E0ED5BFE4F80818093CE00A0
:101220000895E9ECF0E08081806C808381E008958E
:10123000E9ECF0E080818F73808381E00895A2E083
:10124000B0E0E4E2F9E073C1182F8091C90089830E
:101250009A83EEDFE12F9A81F92F8191882339F06B
:101260009091C80095FFFCCF8093CE00F6CF898186
:101270008093C9002296E3E076C11F920F920FB6C9
:101280000F9211242F933F934F935F936F937F930C
:101290008F939F93AF93BF93CF93DF93EF93FF937E
:1012A00080917501823310F0109275018091CE000B
:1012B000E0917501F0E0ED5BFE4F8083A5DF90913A
:1012C0007501E92FF0E0ED5BFE4F80818D3011F06C
:1012D0008A30E9F4108280910E01882309F1C0E080
:1012E000D0E0FE01EE0FFF1FE85FFE4F808191818D
:1012F000892B41F00190F081E02D65E771E083E4F6
:1013000091E009952196C330D10559F709C088307D
:1013100011F08F3711F4915001C09F5F90937501C8
:10132000FF91EF91DF91CF91BF91AF919F918F91FD
:101330007F916F915F914F913F912F910F900FBED1
:101340000F901F9018951F920F920FB60F921124B5
:101350008F939F93EF93FF9380914201909141016E
:10136000891750F4E82FF0E0E15FFE4F90819093F1
:10137000CE008F5F80934201FF91EF919F918F91FB
:101380000F900FBE0F901F9018958F929F92AF9263
:10139000BF92CF92EF920F931F93CF93DF93CDB76E
:1013A000DEB7FC011182108214821382168215822C
:1013B000C282808A918AA28AB38A728761874687AD
:1013C000278714870387E58682E090E090878783EC
:1013D000DF91CF911F910F91EF90CF90BF90AF9081
:1013E0009F908F900895FC011182108214821382C5
:1013F0001682158282E090E0908787830895FC0131
:10140000A185B28586859C91892321E030E011F485
:1014100020E030E0A185B28547858C91482381E0AA
:1014200090E011F480E090E0458156812417350763
:1014300031F0408151814F5F5F4F51834083438141
:1014400054814817590731F0408151814150510969
:101450005183408334832383968385830895A4E155
:10146000B0E0E4E3FAE060C00E948B010E94D50086
:101470000E94AF00789485E0F2D930E0E32E31E0AD
:10148000F32E8E010F5F1F4F8091770190917801AD
:10149000893C9840B8F480917701909178019F93AE
:1014A0008F93FF92EF921F930F93ECD2C801C7DE88
:1014B00083E091E0C4DE0F900F900F900F900F909B
:1014C0000F90E2CFE0918201F0918301909184012D
:1014D0008081892780838091770190917801892B81
:1014E00099F280917701909178019F938F93FF9269
:1014F000EF921F930F93C6D2C801A1DE83E091E063
:101500009EDE0F900F900F900F900F900F90E3CFF3
:101510002F923F924F925F926F927F928F929F9203
:10152000AF92BF92CF92DF92EF92FF920F931F93F1
:10153000CF93DF93CDB7DEB7CA1BDB0B0FB6F894A2
:10154000DEBF0FBECDBF09942A88398848885F84E2
:101550006E847D848C849B84AA84B984C884DF8053
:10156000EE80FD800C811B81AA81B981CE0FD11D37
:101570000FB6F894DEBF0FBECDBFED01089597FB07
:1015800010F8169400080F93083098F00850232F95
:10159000342F452F562F672F782F892F902DF4CF7A
:1015A00005949795879577956795579547953795BE
:1015B00027950A95AAF70F9108952A153B054C0522
:1015C0005D056E057F058007910708955058BB277C
:1015D000AA270ED0BAC1ABD130F0B0D120F031F48F
:1015E0009F3F11F41EF490C10EF4E095E7FB86C115
:1015F000E92FBCD180F3BA176207730784079507F8
:1016000018F071F49EF5D4C10EF4E0950B2EBA2FAC
:10161000A02D0B01B90190010C01CA01A0011124F8
:10162000FF27591B99F0593F50F4503E68F11A16A4
:10163000F040A22F232F342F4427585FF3CF469535
:1016400037952795A795F0405395C9F77EF41F1657
:10165000BA0B620B730B840BBAF09150A1F0FF0F21
:10166000BB1F661F771F881FC2F70EC0BA0F621F0D
:10167000731F841F48F4879577956795B795F795FD
:101680009E3F08F0B3CF9395880F08F09927EE0F8F
:101690009795879508950ED108F481E008950CD0B0
:1016A00054C14CD140F043D130F021F45F3F19F0E8
:1016B00025C151117EC128C159D198F39923C9F38D
:1016C0005523B1F3951B550BBB27AA276217730748
:1016D000840738F09F5F5F4F220F331F441FAA1FFC
:1016E000A9F333D00E2E3AF0E0E830D091505040BC
:1016F000E695001CCAF729D0FE2F27D0660F771F6A
:10170000881FBB1F261737074807AB07B0E809F04B
:10171000BB0B802DBF01FF2793585F4F2AF09E3FE0
:10172000510568F0EBC045C15F3FECF3983EDCF338
:10173000869577956795B795F7959F5FC9F7880F59
:10174000911D9695879597F90895E1E0660F771FAB
:10175000881FBB1F621773078407BA0720F0621B3C
:10176000730B840BBA0BEE1F88F7E0950895BEE368
:1017700004D008F490E80895BFE322273327A90195
:10178000FDD058F19F5740F1B91738F1BFE3B91BAD
:101790009927B8503AF4660F771F881F991FB395A1
:1017A000D2F316C0B8504AF0232F342F452F562FAE
:1017B000672F782F8827B850BAF7B85F49F0869519
:1017C000779567955795479537952795BA95B9F7C2
:1017D0000EF49DD088940895889460E070E0CB0169
:1017E0000895CCD088F09F5790F0B92F9927B75122
:1017F000A0F0D1F0660F771F881F991F1AF0BA95D5
:10180000C9F712C0B13081F0D3D0B1E00895D0C093
:10181000672F782F8827B85F39F0B93FCCF38695CA
:1018200077956795B395D9F73EF490958095709527
:1018300061957F4F8F4F9F4F0895E89409C097FBA4
:101840003EF490958095709561957F4F8F4F9F4F97
:101850009923A9F0F92F96E9BB279395F6958795DB
:1018600077956795B795F111F8CFFAF4BB0F11F49E
:1018700060FF1BC06F5F7F4F8F4F9F4F16C0882345
:1018800011F096E911C0772321F09EE8872F762F7B
:1018900005C0662371F096E8862F70E060E02AF0BC
:1018A0009A95660F771F881FDAF7880F96958795A8
:1018B00097F90895990F0008550FAA0BE0E8FEEF7D
:1018C00016161706E807F907C0F012161306E40704
:1018D000F50798F0621B730B840B950B39F40A26FD
:1018E00061F0232B242B252B21F408950A2609F4DB
:1018F000A140A6958FEF811D811D089597F99F67DF
:1019000080E870E060E008959FEF80EC0895909586
:1019100080957095609550954095309521953F4FF5
:101920004F4F5F4F6F4F7F4F8F4F9F4F0895002452
:101930000A941616170618060906089500240A9434
:1019400012161306140605060895092E0394000CBA
:1019500011F4882352F0BB0F40F4BF2B11F460FF49
:1019600004C06F5F7F4F8F4F9F4F089557FD905872
:10197000440F551F59F05F3F71F04795880F97FB53
:10198000991F61F09F3F79F087950895121613060D
:101990001406551FF2CF4695F1DF08C0161617063C
:1019A0001806991FF1CF8695710561050894089571
:1019B000E894BB2766277727CB0197F908950BD0CA
:1019C000C4CFB5DF28F0BADF18F0952309F096CF21
:1019D0009BCF1124EECFCADFA0F3959FD1F3950FD3
:1019E00050E0551F629FF001729FBB27F00DB11DA3
:1019F000639FAA27F00DB11DAA1F649F6627B00D33
:101A0000A11D661F829F2227B00DA11D621F739F1B
:101A1000B00DA11D621F839FA00D611D221F749F29
:101A20003327A00D611D231F849F600D211D822F70
:101A3000762F6A2F11249F5750408AF0E1F08823B7
:101A40004AF0EE0FFF1FBB1F661F771F881F9150C4
:101A50005040A9F79E3F510570F050CFAACF5F3F8D
:101A6000ECF3983EDCF3869577956795B795F795F7
:101A7000E7959F5FC1F7FE2B880F911D969587957F
:101A800097F90895AEE0B0E0E7E4FDE04FCD0D89B1
:101A90001E8986E08C831A8309838FEF9FE79E83DC
:101AA0008D83AE01475E5F4F6F89788DCE010196C1
:101AB00008D0EF81F885E00FF11F10822E96E4E048
:101AC00051CDACE0B0E0E6E6FDE022CD7C016B015B
:101AD0008A01FC0117821682838181FFB0C1CE0189
:101AE00001964C01F7019381F60193FD859193FFD7
:101AF00081916F01882309F49EC1853239F493FDE9
:101B0000859193FF81916F01853221F4B70190E0B7
:101B1000B1D1E8CF512C312C20E02032A0F48B320F
:101B200069F030F4803259F0833269F420612CC0BE
:101B30008D3239F0803339F4216026C02260246070
:101B400023C0286021C027FD27C030ED380F3A3070
:101B500078F426FF06C0FAE05F9E300D1124532E64
:101B600013C08AE0389E300D1124332E20620CC041
:101B70008E3221F426FD5FC1206406C08C3611F43C
:101B8000206802C0883641F4F60193FD859193FFE9
:101B900081916F018111C1CF982F9F7D9554933012
:101BA00028F40C5F1F4FFFE3F9830DC0833631F03B
:101BB000833771F0833509F057C021C0F801808167
:101BC00089830E5F1F4F44244394512C540114C049
:101BD0003801F2E06F0E711CF801A080B18026FF81
:101BE00003C0652D70E002C06FEF7FEFC5012C8749
:101BF00036D12C0183012C852F77222E16C0380177
:101C0000F2E06F0E711CF801A080B18026FF03C0C6
:101C1000652D70E002C06FEF7FEFC5012C8714D1F6
:101C20002C012C852068222E830123FC19C0832DD2
:101C300090E048165906A0F4B70180E290E01AD16E
:101C40003A94F5CFF50127FC859127FE81915F013C
:101C5000B70190E00FD131103A94F1E04F1A5108DA
:101C60004114510479F7DEC0843611F0893631F51C
:101C7000F80127FF07C060817181828193810C5F29
:101C80001F4F08C060817181882777FD8095982F4C
:101C90000E5F1F4F2F76B22E97FF09C0909580954B
:101CA000709561957F4F8F4F9F4F2068B22E2AE02D
:101CB00030E0A40111D1A82EA81843C0853729F41B
:101CC0002F7EB22E2AE030E025C0F22FF97FBF2E02
:101CD0008F36C1F018F4883579F0ADC0803719F02F
:101CE000883721F0A8C02F2F2061B22EB4FE0DC07E
:101CF0008B2D8460B82E09C024FF0AC09F2F9660E8
:101D0000B92E06C028E030E005C020E130E002C076
:101D100020E132E0F801B7FE07C060817181828165
:101D200093810C5F1F4F06C06081718180E090E05D
:101D30000E5F1F4FA401D0D0A82EA818FB2DFF774F
:101D4000BF2EB6FE0BC02B2D2E7FA51450F4B4FE73
:101D50000AC0B2FC08C02B2D2E7E05C07A2C2B2D7C
:101D600003C07A2C01C0752C24FF0DC0FE01EA0DC2
:101D7000F11D8081803311F4297E09C022FF06C045
:101D80007394739404C0822F867809F0739423FDB2
:101D900012C020FF06C05A2C731418F4530C5718A5
:101DA000732C731460F4B70180E290E02C8762D04A
:101DB00073942C85F6CF731410F4371801C0312CAE
:101DC00024FF11C0B70180E390E02C8753D02C850D
:101DD00022FF16C021FF03C088E590E002C088E71B
:101DE00090E0B7010CC0822F867851F021FD02C02F
:101DF00080E201C08BE227FD8DE2B70190E03AD08E
:101E0000A51430F4B70180E390E034D05A94F8CFB1
:101E1000AA94F401EA0DF11D8081B70190E02AD067
:101E2000A110F6CF332009F45DCEB70180E290E037
:101E300021D03A94F7CFF7018681978102C08FEFC6
:101E40009FEF2C96E2E180CBFC0105906150704041
:101E50000110D8F7809590958E0F9F1F0895FC0173
:101E60006150704001900110D8F7809590958E0FC9
:101E70009F1F08950F931F93CF93DF93182F092F60
:101E8000EB018B8181FD03C08FEF9FEF20C082FFAC
:101E900010C04E815F812C813D81421753077CF435
:101EA000E881F9819F012F5F3F4F39832883108399
:101EB00006C0E885F985812F0995892B29F72E81A0
:101EC0003F812F5F3F4F3F832E83812F902FDF91E4
:101ED000CF911F910F910895FA01AA27283051F14F
:101EE000203181F1E8946F936E7F6E5F7F4F8F4F4B
:101EF0009F4FAF4FB1E03ED0B4E03CD0670F781FAA
:101F0000891F9A1FA11D680F791F8A1F911DA11D8E
:101F10006A0F711D811D911DA11D20D009F46894C7
:101F20003F912AE0269F11243019305D3193DEF66F
:101F3000CF010895462F4770405D4193B3E00FD025
:101F4000C9F7F6CF462F4F70405D4A3318F0495D10
:101F500031FD4052419302D0A9F7EACFB4E0A695F3
:101F60009795879577956795BA95C9F70097610515
:101F7000710508959B01AC010A2E0694579547956B
:101F800037952795BA95C9F7620F731F841F951F60
:081F9000A01D0895F894FFCF95
:081F98002575000D0A20000070
:00000001FF
