:1000000055C0000070C000006EC000006CC0000051
:100010006AC0000068C0000066C0000064C0000044
:1000200062C00000FEC000005EC000005CC00000B6
:100030005AC0000058C0000056C0000054C0000064
:1000400052C0000050C000004EC000004CC0000074
:100050004AC0000048C0000046C0000044C0000084
:1000600042C000000C945A093EC000000C94C00924
:100070003AC0000038C0000036C0000034C00000A4
:1000800032C0000030C000002EC000002CC00000B4
:100090002AC0000028C0000026C0000024C00000C4
:1000A00022C0000020C000001EC0000011241FBE9E
:1000B000CFEFDAE0DEBFCDBF11E0A0E0B1E0E4ECCD
:1000C000F2E202C005900D92AE30B107D9F721E0FF
:1000D000AEE0B1E001C01D92AA39B207E1F70E947B
:1000E0009D0A0C9460118CCF8F929F92AF92BF9219
:1000F000CF92EF920F931F93109291018AE494E0B4
:100100000E94580A86E6882E982C8BE3A82E82E45B
:10011000B82E90E3C92E24E0E22E0EE210E020E299
:1001200040E163E270E08DE791E00E94E2091F91F7
:100130000F91EF90CF90BF90AF909F908F900895C8
:10014000D3CF83E05ED78823C9F00E942E0988238D
:10015000A9F081E090E00E94CD08882379F04091D9
:10016000910160E070E48CE996E4E9D2882331F0F3
:1001700084E047D785E045D7811103C080E090E057
:100180001AC10895479A5D98089547985D9A089511
:10019000269A6A9A84B18F7C84B9F4DF2FEF83EDBD
:1001A00090E3215080409040E1F700C00000EDDF77
:1001B0009BCFE0919201F091930141E050E0A18149
:1001C000B2812C918381282381E090E011F480E0BA
:1001D00090E0248135812130310589F4892BD9F4CF
:1001E0008FE39CE90197F1F700C00000A181B28183
:1001F0008C919381892379F4158214820CC0232B6E
:1002000051F4019741F48FE39CE90197F1F700C0A5
:100210000000558344830680F781E02D309779F6FE
:1002200008951F920F920FB60F9211242F933F93B0
:100230004F935F936F937F938F939F93AF93BF93EE
:10024000EF93FF93B6DF8DE791E00E94100AFF91D4
:10025000EF91BF91AF919F918F917F916F915F913E
:100260004F913F912F910F900FBE0F901F901895B7
:1002700082B7806882BF82B7806282BF82B78F7E7A
:1002800082BF82B78A6082BF82B78A7F82BF89B508
:100290008F7E89BD89B5826089BD0895EF92FF92F6
:1002A0000F931F93CF93DF9384B1867F84B985B179
:1002B000896085B988E090E00E94B10DEC019093CF
:1002C00093018093920181E4888383E2E82EF12CEC
:1002D000FA82E98288E08B8301E010E01D830C83C1
:1002E00088E090E00E94B10DFC019F838E8383E43F
:1002F0008083F282E18281E0838315830483178205
:100300001682CDB7DEB7E6E00C941F0B479A5D9AD4
:100310002FEF43EC59E0215040405040E1F700C03E
:1003200000008CE090E030E228B1205828B92BB1D1
:1003300023272BB92FEF41EE54E02150404050408D
:10034000E1F700C000000197009771F747985D9AA8
:1003500008952FEF81EE94E0215080409040E1F726
:1003600000C000003F9A559A99DFD0CF85B5887FAD
:1003700085BD0895A1E0B0E0E0ECF1E00C94070B3E
:100380008983F4DF898186BD84B58F7384BD85B58B
:10039000877F85BD84B58C7F84BDEEE6F0E08081EB
:1003A00081608083579885B5876085BD81E02196FF
:1003B000E2E00C94230BF894209A009721F0019727
:1003C00019F45D9801C0479A2898FFCFAAE0B0E0E1
:1003D000ECEEF1E00C94F70A58874F83680179013D
:1003E0009B01AC0160E070E08AE794E40E94BE0BE0
:1003F0009B01AC0160E074E284E79BE40E94BE0BC9
:100400000E942B0CF22FE32F49875A876B837C8342
:100410008D839E8316012701612C712C43015601A7
:100420006201E12CF12C00E010E00E944C0B48F43A
:10043000CF01AF81B8859C9311968C9381E090E0B9
:1004400079C02F2F3E2F49855A856B817C818D8104
:100450009E8103E00E94300BD90151016201E12C21
:10046000F12C00E010E00E944C0B38F4EF81F8858D
:10047000A083B18388E090E05DC02F2F3E2F498597
:100480005A856B817C818D819E8106E00E94300BB4
:10049000D90151016201E12CF12C00E010E00E9431
:1004A0004C0B50F49A2F8B2FAF81B8859C931196EB
:1004B0008C9380E490E03EC02F2F3E2F49855A85D3
:1004C0006B817C818D819E8108E00E94300BD90177
:1004D00051016201E12CF12C00E010E00E944C0B74
:1004E00038F4EF81F885A083B18380E091E022C0E9
:1004F0002F2F3E2F49855A856B817C818D819E816E
:100500000AE00E94300BF22FE32F51016201E12C2F
:10051000F12C00E010E00E944C0B48F4CF01AF81B9
:10052000B8859C9311968C9380E094E003C080E0A2
:1005300090E041DF2A96E2E10C94130BA2E0B0E0D8
:10054000E4EAF2E00C94050BBC0180E090E00E942C
:100550008C0C00E011E020E030E0AE014F5F5F4F17
:1005600035DF009709F444C016BC24B52F7324BDB1
:1005700025B5277F25BD24B5226024BD24B52E7F57
:1005800024BD2981215027BD20916E002260209337
:100590006E0088309105A9F040F4019719F585B5F2
:1005A000897F85BD85B5816011C080349105A1F03A
:1005B00081159140B9F485B5846085BD85B58C7F82
:1005C00005C085B58A7F85BD85B5826085BD81E022
:1005D0002296E4E00C94210B85B58B7F85BD85B513
:1005E0008360F4CF85B5856085BD85B58D7FEECF01
:1005F00080E090E0E0DE823441F08F3451F08134CD
:1006000071F480916E00826007C080916E008460FA
:1006100003C080916E00816080936E00089580E039
:1006200090E0C9DE823441F08F3451F0813471F4AE
:1006300080916E008D7F07C080916E008B7F03C01C
:1006400080916E008E7F80936E00089580E090E030
:10065000B2DEA2E0B0E0EEE2F3E0D7C7BC0180E09A
:1006600090E00E948C0C00E010E021E030E0AE0150
:100670004F5F5F4FABDE009709F45EC010928500BC
:1006800010928400209181002860209381002091A5
:1006900081002F7E20938100209180002C7F209369
:1006A000800029813A8121503109309389002093BB
:1006B000880020916F00226020936F0088309105A0
:1006C000D9F058F4019779F580918100897F809362
:1006D000810080918100816017C080349105D1F044
:1006E0008115914001F580918100846080938100A3
:1006F000809181008C7F08C0809181008A7F8093E7
:1007000081008091810082608093810081E0229647
:10071000E4E097C7809181008B7F80938100809176
:1007200081008360F1CF809181008560809381009A
:10073000809181008D7FE8CF80E090E03CDEA2E0F8
:10074000B0E0E4EAF3E05CC7B42E9B01AC01AED7A5
:100750009B01AC0160E070E08AE794E40E94BE0B6C
:1007600000E010E021E030E0AE014F5F5F4F2EDE91
:100770008C01009709F46BC080918100887F809381
:100780008100109285001092840080918100806128
:100790008093810080918100877F80938100809188
:1007A00080008C7F8093800089819A81909387005C
:1007B000809386008091800080718093800080917A
:1007C000800080628093800084E68B1508F43FC02F
:1007D00069817A8180E090E00E948C0C6B017C0141
:1007E0006B2D70E080E090E00E948C0C9B01AC01CE
:1007F000C701B6010E944E0D20E030E048EC52E403
:10080000BDD70E94600C70938B0060938A00083003
:10081000110501F160F40130110571F5809181003D
:10082000897F809381008091810081602DC0003498
:100830001105C9F0011581E01807F1F480918100DC
:10084000846080938100809181008C7F1DC080E056
:1008500090E0B1DD809181008A7F8093810080915A
:100860008100826011C0809181008B7F8093810024
:1008700080918100836008C08091810085608093B1
:100880008100809181008D7F8093810081E022969C
:10089000E9E0D2C6CF92DF92EF92FF92CF93C82FBA
:1008A000853638F52091860030918700B90180E0C7
:1008B00090E00E948C0C6B017C016C2F70E080E05A
:1008C00090E00E948C0C9B01AC01C701B6010E9414
:1008D0004E0D20E030E048EC52E450D7F1D7709351
:1008E0008B0060938A00CF91FF90EF90DF90CF90C4
:1008F000089580E090E05FDD823479F034F4813453
:10090000B1F480916F0082600FC0833451F08F3456
:1009100071F480916F00816007C080916F008460E6
:1009200003C080916F00886080936F00089580E01D
:1009300090E041DD823479F034F48134B1F4809177
:100940006F008D7F0FC0833451F08F3471F480912C
:100950006F008E7F07C080916F008B7F03C08091F6
:100960006F00877F80936F00089580E090E023DD23
:10097000A2E0B0E0EDEBF4E048C6BC0180E090E01E
:10098000CBD700E010E021E030E0AE014F5F5F4FD9
:100990001DDD009709F45EC010929500109294003E
:1009A00020919100286020939100209191002F7E4A
:1009B00020939100209190002C7F2093900029811A
:1009C0003A81215031093093990020939800209169
:1009D000710022602093710088309105D9F058F49D
:1009E000019779F580919100897F809391008091A2
:1009F0009100816017C080349105D1F0811591403C
:100A000001F5809191008460809391008091910024
:100A10008C7F08C0809191008A7F809391008091A3
:100A2000910082608093910081E02296E4E009C603
:100A3000809191008B7F80939100809191008360E1
:100A4000F1CF809191008560809391008091910019
:100A50008D7FE8CF80E090E0AEDC823479F034F432
:100A60008134B1F48091710082600FC0833451F001
:100A70008F3471F480917100816007C080917100A2
:100A8000846003C080917100886080937100089534
:100A900080E090E090DC823479F034F48134B1F479
:100AA000809171008D7F0FC0833451F08F3471F4C9
:100AB000809171008E7F07C0809171008B7F03C091
:100AC00080917100877F80937100089580E090E0AD
:100AD00072DC8F929F92AF92BF92CF92DF92EF9291
:100AE000FF926B017C0120E030E040E854E442D604
:100AF00087FF09C08091C100817F8093C1008091F0
:100B0000C10081606EC120E030E040E05FE3C701DA
:100B1000B601C4D74B015C0120E030E040E854E46A
:100B200029D687FF09C08091C100827F8093C100D0
:100B30008091C10082602EC120E030E040E85EE399
:100B4000C701B601ABD74B015C0120E030E040E8C3
:100B500054E410D687FF0EC08091C100837F80933C
:100B6000C1008091C10082608093C1008091C1006A
:100B7000816010C120E030E040E05EE3C701B601D3
:100B80008DD720E030E040E854E4F4D587FF09C079
:100B90008091C100837F8093C1008091C1008360F8
:100BA000F9C020E030E040E85DE3C701B60176D748
:100BB0004B015C0120E030E040E854E4DBD587FFE6
:100BC00009C08091C10084608093C1008091C10000
:100BD000847FE0C020E030E040E05DE3C701B60183
:100BE0005DD74B015C0120E030E040E854E4C2D521
:100BF00087FF09C08091C100857F8093C1008091EB
:100C0000C1008560C7C020E030E040E85CE3C70178
:100C1000B60144D74B015C0120E030E040E854E4E9
:100C2000A9D587FF09C08091C100867F8093C1004C
:100C30008091C1008660AEC020E030E040E05CE31F
:100C4000C701B6012BD74B015C0120E030E040E842
:100C500054E490D587FF09C08091C100877F8093BD
:100C6000C1008091C100876095C020E030E040E87D
:100C70005BE3C701B60112D74B015C0120E030E015
:100C800040E854E477D587FF09C08091C1008860AF
:100C90008093C1008091C100887F7CC020E030E05B
:100CA00040E05BE3C701B601F9D64B015C0120E0EF
:100CB00030E040E854E45ED587FF09C08091C10070
:100CC00089608093C1008091C100897F63C020E06A
:100CD00030E040E85AE3C701B601E0D64B015C01C1
:100CE00020E030E040E854E445D587FF09C080911A
:100CF000C1008B7F8093C1008091C1008B604AC08E
:100D000020E030E040E05AE3C701B601C7D64B010E
:100D10005C0120E030E040E854E42CD587FF09C0B6
:100D20008091C1008C608093C1008091C1008C7F54
:100D300031C020E030E040E859E3C701B601AED64B
:100D40004B015C0120E030E040E854E413D587FF1C
:100D500009C08091C1008D608093C1008091C10065
:100D60008D7F18C020E030E040E059E3C701B601B4
:100D700095D64B015C0120E030E040E854E4FAD421
:100D800087FF17C08091C1008E608093C100809161
:100D9000C1008E7F8093C100C501B40191D5CB0104
:100DA000FF90EF90DF90CF90BF90AF909F908F908B
:100DB000089520E030E040E858E3C701B6016ED660
:100DC0006B017C0120E030E040E854E4D3D487FF9D
:100DD0000DC08091C1008C608093C1008091C100E2
:100DE00083608093C100C701B601D8CF80E090E056
:100DF000E2DAA2E0B0E0EEEFF6E007C48C011A827E
:100E0000198236DA8091C0008F7C8093C000809177
:100E1000C0008F738093C0008091C0008C7F80934E
:100E2000C0008091C2008E7F8093C2008091C2007A
:100E3000837F8093C2008091C3008C7F8093C30026
:100E4000B801660F771F80E090E066D59B01AC018A
:100E500060E070E08AE794E491D49B01AC0160E02B
:100E600074E284E79CE48AD434DE9A83898389819E
:100E70009A819093BF0089819A818093D100898162
:100E80009A819093BF0089819A818093D2001092B9
:100E9000BF001092BF001092BE0029813A8181E00C
:100EA000232B09F480E02296E4E0CBC3CF92DF92BB
:100EB000EF92FF921F93CF93DF9300D000D0CDB776
:100EC000DEB7142F69837A838B839C83D1D92091D9
:100ED000C00020622093C0002091C0002F7E20938C
:100EE000C0002091C00021602093C0002091C30069
:100EF0002D7F2093C3002091C30021602093C30065
:100F000069817A818B819C819B01AC0160E074E2F4
:100F100084E79CE433D4DDDD9093BF008093D1005F
:100F2000153630F5BC0180E090E0F6D46B017C0111
:100F3000612F70E080E090E0EFD49B01AC01C7012D
:100F4000B601ACD520E030E048EC52E417D4B8D478
:100F50007093BF006093D0000F900F900F900F9090
:100F6000DF91CF911F91FF90EF90DF90CF90089588
:100F70008091C100837F8093C1008091C1008C7FEC
:100F80008093C10080E090E016DA823479F034F486
:100F90008134B1F48091720080640FC0843451F0C8
:100FA0008F3471F480917200846007C08091720068
:100FB000806203C0809172008068809372000895FF
:100FC00080E090E0F8D9823479F034F48134B1F4DF
:100FD000809172008F7B0FC0843451F08F3471F494
:100FE000809172008B7F07C0809172008F7D03C05B
:100FF000809172008F7780937200089580E090E076
:10100000DAD990916800916090936800883018F068
:1010100080E090E0D0D990916B0021E030E001C0F9
:10102000220F8A95EAF7922B90936B0081E0089546
:10103000909168009E7F90936800883070F4909142
:101040006B0021E030E0082E01C0220F0A94EAF77D
:101050002095292320936B00089580E090E0ABD980
:10106000109248011092470110927C0110927B016E
:101070001092140110920F0110920E0110921101A2
:101080001092100110921301109212010895109203
:1010900048011092470110927C0110927B01089543
:1010A000809115018093CE0081E0809348010895DE
:1010B000CF93DF93EC0180911401833018F082E02C
:1010C00090E079D980910E0190910F01892B79F0F0
:1010D0008091100190911101892B61F08091120192
:1010E00090911301892BA9F422E030E005C020E0A3
:1010F00030E002C021E030E0F901EE0FFF1FE25FB7
:10110000FE4FD183C083809114018F5F80931401BF
:1011100002C023E030E0822FDF91CF910895E82FC5
:10112000F0E0EE0FFF1FE25FFE4F11821082E4E15C
:10113000F1E08081815080830895009719F0019734
:10114000A1F029C0CB010197029748F48091C90012
:1011500080618093C9006230710519F01AC0672B55
:10116000C1F48091C900886012C0CB010197029739
:1011700048F48091C9008F7E8093C9006230710568
:1011800019F007C0672B29F48091C900877F8093ED
:10119000C90081E0089580E00895CF93DF93EC01CA
:1011A0005FDF8091CA008F7C8093CA008091CA0063
:1011B000877F8093CA008091C9008B7F8093C9008C
:1011C0008091CA0086608093CA008091C9008C7F9C
:1011D0008093C9008091CA008E7F8093CA0080915D
:1011E000CB008C7F8093CB00209761F0219729F56D
:1011F00080E190E09093CD008093CC008091C80076
:10120000826009C087E090E09093CD008093CC008D
:101210008091C8008D7F8093C8008091C8008E7F28
:101220008093C8008091CA008F738093CA0062E0E7
:1012300070E080E090E081DF01C080E0DF91CF913D
:1012400008958091C80085FFFCCFE0917B01F0E01C
:10125000E75BFE4F80818093CE000895E9ECF0E0DB
:101260008081806C808381E00895E9ECF0E08081EA
:101270008F73808381E00895A2E0B0E0E1E4F9E0BB
:10128000C5C1182F8091C90089839A83EEDFE12FB1
:101290009A81F92F8191882339F09091C80095FFA8
:1012A000FCCF8093CE00F6CF89818093C90022962F
:1012B000E3E0C8C11F920F920FB60F9211242F9333
:1012C0003F934F935F936F937F938F939F93AF93CE
:1012D000BF93CF93DF93EF93FF9380917B01823392
:1012E00010F010927B018091CE00E0917B01F0E044
:1012F000E75BFE4F8083A5DF90917B01E92FF0E053
:10130000E75BFE4F80818D3011F08A30E9F4108266
:1013100080911401882309F1C0E0D0E0FE01EE0FB6
:10132000FF1FE25FFE4F80819181892B41F0019088
:10133000F081E02D6BE771E089E491E00995219659
:10134000C330D10559F709C0883011F08F3711F437
:10135000915001C09F5F90937B01FF91EF91DF91CE
:10136000CF91BF91AF919F918F917F916F915F913D
:101370004F913F912F910F900FBE0F901F90189596
:101380001F920F920FB60F9211248F939F93EF939A
:10139000FF938091480190914701891750F4E82FFD
:1013A000F0E0EB5EFE4F90819093CE008F5F8093D4
:1013B0004801FF91EF919F918F910F900FBE0F9079
:1013C0001F9018958F929F92AF92BF92CF92EF92FB
:1013D0000F931F93CF93DF93CDB7DEB7FC0111823C
:1013E00010821482138216821582C282808A918AA8
:1013F000A28AB38A72876187468727871487038703
:10140000E58682E090E090878783DF91CF911F91FE
:101410000F91EF90CF90BF90AF909F908F900895D5
:10142000FC01A185B28586859C91892321E030E06D
:1014300011F420E030E0A185B28547858C914823E6
:1014400081E090E011F480E090E04581568124171E
:10145000350731F0408151814F5F5F4F51834083A9
:10146000438154814817590731F0408151814150DF
:101470005109518340833483238396838583089560
:10148000FC0187819085A385B4858617970721F491
:1014900095858C91892B04C0958590958C91892395
:1014A0008C930895E0919401F09195010995089528
:1014B00090939501809394010895CF93DF93EC016D
:1014C00080E0F0DF88EE93E099838883EB85FC85EC
:1014D0009D858081892B808389E1E4DF2FEF89E678
:1014E00098E1215080409040E1F700C0000080E08A
:1014F000D9DF88819981893E23E0920718F0188608
:101500001F820CC0883E934029F081E090E09887CC
:101510008F8304C081E090E00E94DB01DF91CF91D6
:101520000895FC01118210821482138216821582A2
:1015300022E030E030872783C0CFA4E1B0E0E2EAC8
:10154000FAE061C00E94A9010E94A1000E94C800A7
:1015500078948DE791E0E5DF36E0E32E31E0F32E7D
:101560008E010F5F1F4F80917D0190917E01893C1C
:101570009840B8F480917D0190917E019F938F9364
:10158000FF92EF921F930F9313D4C80175DE89E089
:1015900091E072DE0F900F900F900F900F900F90D0
:1015A000E2CFE0918801F091890190918A018081D8
:1015B0008927808380917D0190917E01892B99F20A
:1015C00080917D0190917E019F938F93FF92EF9286
:1015D0001F930F93EDD3C8014FDE89E091E04CDEFD
:1015E0000F900F900F900F900F900F90E3CF2F92CE
:1015F0003F924F925F926F927F928F929F92AF92A3
:10160000BF92CF92DF92EF92FF920F931F93CF93EF
:10161000DF93CDB7DEB7CA1BDB0B0FB6F894DEBF86
:101620000FBECDBF09942A88398848885F846E84AC
:101630007D848C849B84AA84B984C884DF80EE80F6
:10164000FD800C811B81AA81B981CE0FD11D0FB6FF
:10165000F894DEBF0FBECDBFED01089597FB10F8E3
:10166000169400080F93083098F00850232F342F59
:10167000452F562F672F782F892F902DF4CF059463
:1016800097958795779567955795479537952795BA
:101690000A95AAF70F9108952A153B054C055D059B
:1016A0006E057F058007910708955058BB27AA272C
:1016B0000ED0BAC1ABD130F0B0D120F031F49F3FA1
:1016C00011F41EF490C10EF4E095E7FB86C1E92FFA
:1016D000BCD180F3BA17620773078407950718F027
:1016E00071F49EF5D4C10EF4E0950B2EBA2FA02D07
:1016F0000B01B90190010C01CA01A0011124FF27BF
:10170000591B99F0593F50F4503E68F11A16F040B9
:10171000A22F232F342F4427585FF3CF46953795B8
:101720002795A795F0405395C9F77EF41F16BA0B7D
:10173000620B730B840BBAF09150A1F0FF0FBB1F2B
:10174000661F771F881FC2F70EC0BA0F621F731F74
:10175000841F48F4879577956795B795F7959E3FD1
:1017600008F0B3CF9395880F08F09927EE0F97955F
:10177000879508950ED108F481E008950CD054C1E6
:101780004CD140F043D130F021F45F3F19F025C136
:1017900051117EC128C159D198F39923C9F355231A
:1017A000B1F3951B550BBB27AA2762177307840754
:1017B00038F09F5F5F4F220F331F441FAA1FA9F30A
:1017C00033D00E2E3AF0E0E830D091505040E695FC
:1017D000001CCAF729D0FE2F27D0660F771F881F5D
:1017E000BB1F261737074807AB07B0E809F0BB0B4C
:1017F000802DBF01FF2793585F4F2AF09E3F510570
:1018000068F0EBC045C15F3FECF3983EDCF3869592
:1018100077956795B795F7959F5FC9F7880F911DE5
:101820009695879597F90895E1E0660F771F881FD1
:10183000BB1F621773078407BA0720F0621B730B84
:10184000840BBA0BEE1F88F7E0950895BEE304D031
:1018500008F490E80895BFE322273327A901FDD0BB
:1018600058F19F5740F1B91738F1BFE3B91B9927D9
:10187000B8503AF4660F771F881F991FB395D2F3BB
:1018800016C0B8504AF0232F342F452F562F672FFC
:10189000782F8827B850BAF7B85F49F086957795C2
:1018A00067955795479537952795BA95B9F70EF4EB
:1018B0009DD088940895889460E070E0CB010895ED
:1018C000CCD088F09F5790F0B92F9927B751A0F04E
:1018D000D1F0660F771F881F991F1AF0BA95C9F7C4
:1018E00012C0B13081F0D3D0B1E00895D0C0672FDD
:1018F000782F8827B85F39F0B93FCCF38695779574
:101900006795B395D9F73EF490958095709561955C
:101910007F4F8F4F9F4F0895E89409C097FB3EF487
:1019200090958095709561957F4F8F4F9F4F99232C
:10193000A9F0F92F96E9BB279395F69587957795AA
:101940006795B795F111F8CFFAF4BB0F11F460FF6A
:101950001BC06F5F7F4F8F4F9F4F16C0882311F0C2
:1019600096E911C0772321F09EE8872F762F05C0D6
:10197000662371F096E8862F70E060E02AF09A9571
:10198000660F771F881FDAF7880F9695879597F966
:101990000895990F0008550FAA0BE0E8FEEF161600
:1019A0001706E807F907C0F012161306E407F50753
:1019B00098F0621B730B840B950B39F40A2661F0C7
:1019C000232B242B252B21F408950A2609F4A1406A
:1019D000A6958FEF811D811D089597F99F6780E877
:1019E00070E060E008959FEF80EC089590958095F9
:1019F0007095609550954095309521953F4F4F4F8C
:101A00005F4F6F4F7F4F8F4F9F4F089500240A9471
:101A10001616170618060906089500240A941216C9
:101A20001306140605060895092E0394000C11F4FC
:101A3000882352F0BB0F40F4BF2B11F460FF04C0A9
:101A40006F5F7F4F8F4F9F4F089557FD9058440F02
:101A5000551F59F05F3F71F04795880F97FB991F0D
:101A600061F09F3F79F087950895121613061406CA
:101A7000551FF2CF4695F1DF08C016161706180657
:101A8000991FF1CF86957105610508940895E89432
:101A9000BB2766277727CB0197F908950BD0C4CFD2
:101AA000B5DF28F0BADF18F0952309F096CF9BCF69
:101AB0001124EECFCADFA0F3959FD1F3950F50E02C
:101AC000551F629FF001729FBB27F00DB11D639FF0
:101AD000AA27F00DB11DAA1F649F6627B00DA11D96
:101AE000661F829F2227B00DA11D621F739FB00D3C
:101AF000A11D621F839FA00D611D221F749F3327AC
:101B0000A00D611D231F849F600D211D822F762F44
:101B10006A2F11249F5750408AF0E1F088234AF041
:101B2000EE0FFF1FBB1F661F771F881F915050408D
:101B3000A9F79E3F510570F050CFAACF5F3FECF35D
:101B4000983EDCF3869577956795B795F795E79579
:101B50009F5FC1F7FE2B880F911D9695879597F98A
:101B60000895CF93DF938230910510F482E090E0E6
:101B7000E0919801F091990120E030E0A0E0B0E020
:101B8000309739F14081518148175907B8F048170B
:101B9000590771F482819381109729F013969C93D1
:101BA0008E9312972CC0909399018093980127C02F
:101BB0002115310531F04217530718F0A901DB0157
:101BC00001C0EF019A01BD01DF010280F381E02D28
:101BD000D7CF21153105F9F0281B390B24303105F9
:101BE00080F48A819B816115710521F0FB0193834B
:101BF000828304C09093990180939801FE013296EC
:101C000044C0FE01E20FF31F8193919322503109EA
:101C1000398328833AC02091960130919701232B74
:101C200041F42091020130910301309397012093F8
:101C3000960120910001309101012115310541F4F7
:101C40002DB73EB74091040150910501241B350B7F
:101C5000E0919601F0919701E217F307A0F42E1B93
:101C60003F0B2817390778F0AC014E5F5F4F241700
:101C7000350748F04E0F5F1F509397014093960130
:101C80008193919302C0E0E0F0E0CF01DF91CF912A
:101C90000895CF93DF93009709F487C0FC01329732
:101CA00013821282C0919801D0919901209781F4FA
:101CB00020813181280F391F8091960190919701E1
:101CC0008217930779F5F0939701E09396016DC021
:101CD000DE0120E030E0AE17BF0750F412964D91C0
:101CE0005C9113979D014115510509F1DA01F3CF7C
:101CF000B383A28340815181840F951F8A179B076C
:101D000071F48D919C911197840F951F0296918388
:101D1000808312968D919C911397938382832115D2
:101D2000310529F4F0939901E09398013EC0D9015F
:101D30001396FC93EE9312974D915D91A40FB51FEE
:101D4000EA17FB0779F480819181840F951F029631
:101D5000D90111969C938E938281938113969C93C3
:101D60008E931297E0E0F0E08A819B81009719F052
:101D7000FE01EC01F9CFCE01029628813981820F54
:101D8000931F20919601309197012817390769F424
:101D9000309729F4109299011092980102C0138291
:101DA0001282D0939701C0939601DF91CF9108954D
:101DB000AEE0B0E0EDEDFEE028CC0D891E8986E0B6
:101DC0008C831A8309838FEF9FE79E838D83AE01F7
:101DD000475E5F4F6F89788DCE01019608D0EF8105
:101DE000F885E00FF11F10822E96E4E02ACCACE0DB
:101DF000B0E0ECEFFEE0FBCB7C016B018A01FC0163
:101E000017821682838181FFB0C1CE0101964C01F9
:101E1000F7019381F60193FD859193FF81916F0105
:101E2000882309F49EC1853239F493FD859193FF8F
:101E300081916F01853221F4B70190E0B1D1E8CFF3
:101E4000512C312C20E02032A0F48B3269F030F498
:101E5000803259F0833269F420612CC08D3239F020
:101E6000803339F4216026C02260246023C02860BA
:101E700021C027FD27C030ED380F3A3078F426FF17
:101E800006C0FAE05F9E300D1124532E13C08AE085
:101E9000389E300D1124332E20620CC08E3221F476
:101EA00026FD5FC1206406C08C3611F4206802C094
:101EB000883641F4F60193FD859193FF81916F017E
:101EC0008111C1CF982F9F7D9554933028F40C5FDA
:101ED0001F4FFFE3F9830DC0833631F0833771F074
:101EE000833509F057C021C0F801808189830E5FD6
:101EF0001F4F44244394512C540114C03801F2E084
:101F00006F0E711CF801A080B18026FF03C0652D03
:101F100070E002C06FEF7FEFC5012C8736D12C0136
:101F200083012C852F77222E16C03801F2E06F0E28
:101F3000711CF801A080B18026FF03C0652D70E000
:101F400002C06FEF7FEFC5012C8714D12C012C85C7
:101F50002068222E830123FC19C0832D90E04816AF
:101F60005906A0F4B70180E290E01AD13A94F5CF77
:101F7000F50127FC859127FE81915F01B70190E073
:101F80000FD131103A94F1E04F1A51084114510425
:101F900079F7DEC0843611F0893631F5F80127FF74
:101FA00007C060817181828193810C5F1F4F08C0DF
:101FB00060817181882777FD8095982F0E5F1F4F74
:101FC0002F76B22E97FF09C09095809570956195F8
:101FD0007F4F8F4F9F4F2068B22E2AE030E0A40140
:101FE00011D1A82EA81843C0853729F42F7EB22E10
:101FF0002AE030E025C0F22FF97FBF2E8F36C1F0E6
:1020000018F4883579F0ADC0803719F0883721F0A1
:10201000A8C02F2F2061B22EB4FE0DC08B2D84607E
:10202000B82E09C024FF0AC09F2F9660B92E06C0A3
:1020300028E030E005C020E130E002C020E132E0DD
:10204000F801B7FE07C060817181828193810C5FC6
:102050001F4F06C06081718180E090E00E5F1F4FCE
:10206000A401D0D0A82EA818FB2DFF77BF2EB6FE56
:102070000BC02B2D2E7FA51450F4B4FE0AC0B2FC69
:1020800008C02B2D2E7E05C07A2C2B2D03C07A2C58
:1020900001C0752C24FF0DC0FE01EA0DF11D8081E9
:1020A000803311F4297E09C022FF06C07394739413
:1020B00004C0822F867809F0739423FD12C020FF9C
:1020C00006C05A2C731418F4530C5718732C73143D
:1020D00060F4B70180E290E02C8762D073942C8585
:1020E000F6CF731410F4371801C0312C24FF11C03F
:1020F000B70180E390E02C8753D02C8522FF16C0D7
:1021000021FF03C088E590E002C088E790E0B701B6
:102110000CC0822F867851F021FD02C080E201C000
:102120008BE227FD8DE2B70190E03AD0A51430F4A0
:10213000B70180E390E034D05A94F8CFAA94F40128
:10214000EA0DF11D8081B70190E02AD0A110F6CFF1
:10215000332009F45DCEB70180E290E021D03A94BB
:10216000F7CFF7018681978102C08FEF9FEF2C9602
:10217000E2E159CAFC010590615070400110D8F7A6
:10218000809590958E0F9F1F0895FC0161507040BF
:1021900001900110D8F7809590958E0F9F1F08959C
:1021A0000F931F93CF93DF93182F092FEB018B8190
:1021B00081FD03C08FEF9FEF20C082FF10C04E81D2
:1021C0005F812C813D81421753077CF4E881F981BE
:1021D0009F012F5F3F4F39832883108306C0E88516
:1021E000F985812F0995892B29F72E813F812F5F52
:1021F0003F4F3F832E83812F902FDF91CF911F91EF
:102200000F910895FA01AA27283051F1203181F168
:10221000E8946F936E7F6E5F7F4F8F4F9F4FAF4FEE
:10222000B1E03ED0B4E03CD0670F781F891F9A1F01
:10223000A11D680F791F8A1F911DA11D6A0F711DB5
:10224000811D911DA11D20D009F468943F912AE0C1
:10225000269F11243019305D3193DEF6CF010895A9
:10226000462F4770405D4193B3E00FD0C9F7F6CFDA
:10227000462F4F70405D4A3318F0495D31FD4052A2
:10228000419302D0A9F7EACFB4E0A6959795879538
:1022900077956795BA95C9F7009761057105089517
:1022A0009B01AC010A2E06945795479537952795C3
:1022B000BA95C9F7620F731F841F951FA01D08955B
:0422C000F894FFCFC0
:0E22C40000009A0120002575000D0A20000080
:00000001FF
