:1000000055C000006EC000006CC000006AC0000057
:1000100068C0000066C0000064C0000062C000004C
:1000200060C000005EC000005CC000005AC000005C
:1000300058C0000056C0000054C0000052C000006C
:1000400050C0000071C000004CC000004AC0000059
:1000500048C0000046C0000044C0000042C000008C
:1000600040C000003EC000003CC000003AC000009C
:1000700038C0000036C0000034C0000032C00000AC
:1000800030C000002EC000002CC000002AC00000BC
:1000900028C0000026C0000024C0000022C00000CC
:1000A00020C000001EC000001CC0000011241FBEA4
:1000B000CFEFDAE0DEBFCDBF11E0A0E0B1E0E0EDD0
:1000C000F2E002C005900D92A230B107D9F721E00D
:1000D000A2E0B1E001C01D92A930B207E1F7DDD086
:1000E000F5C08ECF1092850010928400E1E8F0E018
:1000F00080818860808380818F7E8083A0E8B0E0EB
:100100008C918C7F8C9384E294EF90938900809300
:100110008800AFE6B0E08C9182608C938081836030
:10012000808381E090E008951F920F920FB60F92A6
:1001300011248F939F93809107019091080101965C
:100140009093080180930701809105019091060129
:100150008130910539F020F0029741F45D9A06C094
:100160005D9804C08BB190E289278BB9809103011F
:10017000909104018130910539F020F0029789F4C3
:1001800047980FC0479A0DC08091070190910801D0
:10019000059738F088B1805888B9109208011092FC
:1001A00007019F918F910F900FBE0F901F90189590
:1001B00043B143FB882780F990E040910201413030
:1001C00009F5892B79F54FEF89EF90E04150804098
:1001D0009040E1F700C000001B9924C08091050108
:1001E0009091060101968330910528F490930601C1
:1001F0008093050104C0109206011092050110922F
:10020000020110C041110EC0019761F44FEF89EF58
:1002100090E0415080409040E1F700C0000081E054
:100220008093020183B1282F217030E0809100017A
:10023000813009F5232B81F52FEF49EF80E0215024
:1002400040408040E1F700C00000189925C080912F
:1002500003019091040101968330910528F4909355
:1002600004018093030104C0109204011092030161
:1002700010920001089581110FC02130310561F401
:100280009FEF29EF40E0915020404040E1F700C04F
:10029000000081E08093000108952FEF81EE94E04B
:1002A000215080409040E1F700C000003F9A559AED
:1002B00084B1867F84B985B1896085B96AEF70E0C1
:1002C00080E090E00FDF789473DFFECFF894FFCFEB
:0202D00001002B
:00000001FF
