:1000000055C000006EC000006CC000006AC0000057
:1000100068C0000066C0000064C0000062C000004C
:1000200060C0000017C100005CC000005AC00000A2
:1000300058C0000056C0000054C0000052C000006C
:1000400050C00000BDC100004CC000004AC000000C
:1000500048C0000046C0000044C0000042C000008C
:1000600040C000003EC000003CC000003AC000009C
:1000700038C0000036C0000034C0000032C00000AC
:1000800030C000002EC000002CC000002AC00000BC
:1000900028C0000026C0000024C0000022C00000CC
:1000A00020C000001EC000001CC0000011241FBEA4
:1000B000CFEFDAE0DEBFCDBF11E0A0E0B1E0E2E1DA
:1000C000F4E002C005900D92A230B107D9F721E00B
:1000D000A2E0B1E001C01D92A930B207E1F787D1DB
:1000E00096C18ECF2091030130910401280F391F52
:1000F0002230310591F038F421153105B1F021306D
:10010000310541F008952330310551F02430310597
:1001100061F008958BB190E105C088B1805808C0A6
:100120008BB190E289278BB9089588B190E4892733
:1001300088B9089588B18F7388B95D9A5C980895DD
:10014000479A5D9A2FEF43EC59E0215040405040D0
:10015000E1F700C000008CE090E030E228B12058C8
:1001600028B92BB123272BB92FEF41EE54E02150B2
:1001700040405040E1F700C000000197009771F740
:1001800047985D9A08952FEF81EE94E021508040CA
:100190009040E1F700C0000087B1806C87B98AB158
:1001A00080638AB984B1867F84B985B1896085B955
:1001B000C7CF1092850010928400E1E8F0E08081C2
:1001C0008860808380818F7E8083A0E8B0E08C91FE
:1001D0008C7F8C9384E294EF9093890080938800C5
:1001E000AFE6B0E08C9182608C93808183608083E5
:1001F00081E090E00895909168009160909368008C
:10020000883070F490916B0021E030E001C0220F43
:100210008A95EAF7922B90936B0081E090E0089525
:1002200080E090E00895F894209A009721F00197DB
:1002300011F45D9A01C0479A289AFFCF83E0DBDF73
:10024000892B19F480E090E0EEDF80E0D4DF892B89
:10025000C9F308951F920F920FB60F9211240F93B6
:100260001F932F933F934F935F936F937F938F933E
:100270009F93AF93BF93CF93DF93EF93FF9323B1FC
:1002800023FB882780F990E020910201213011F5AD
:10029000892B09F046C02FEF89EF90E02150804074
:1002A0009040E1F700C000001B993BC08091050120
:1002B0009091060101968430910528F490930601EF
:1002C0008093050104C0109206011092050110925E
:1002D000020127C0211125C0019719F52FEF89EFE1
:1002E00090E0215080409040E1F700C0000081E0A4
:1002F00080930201F8941EDF04E110E080E090E0BA
:10030000F1DE2FE78AE196E0215080409040E1F74E
:1003100000C00000015011090115110579F70ADF2D
:10032000789483B18170C82F20E0D22F8091000192
:10033000813009F5CD2B79F58FEF99EF20E08150D1
:1003400090402040E1F700C00000189924C080913F
:1003500003019091040101968430910528F4909353
:1003600004018093030104C0109204011092030160
:100370001092000110C081110EC0219761F48FEF1F
:1003800099EF20E0815090402040E1F700C000004C
:1003900081E080930001FF91EF91DF91CF91BF91B8
:1003A000AF919F918F917F916F915F914F913F910D
:1003B0002F911F910F910F900FBE0F901F901895C6
:1003C0001F920F920FB60F9211248F939F938091DB
:1003D000070190910801019690930801809307010D
:1003E0009F918F910F900FBE0F901F901895CBDEAD
:1003F00025DF789481E090E075DE2FEF83ED90E3C8
:10040000215080409040E1F700C00000F3CFF89405
:02041000FFCF1C
:020412000100E7
:00000001FF
