:100000000C94C3090C94E0090C94E0090C94E009E9
:100010000C94E0090C94E0090C94E0090C94E009BC
:100020000C94E0090C94980B0C94E0090C94E009F2
:100030000C94E0090C94E0090C94E0090C94E0099C
:100040000C94E0090C94E0090C94130B0C94E00957
:100050000C94E0090C94660A0C94E0090C94E009F5
:100060000C94E0090C943E120C94E0090C949F123D
:100070000C94E0090C94E0090C94E0090C94E0095C
:100080000C94520B0C94E0090C94E0090C94E009D8
:100090000C94E0090C94E0090C94E0090C94E0093C
:1000A0000C94E0090C94E0090C94E009EB12F012B6
:1000B000F512FA12FF1204130913504E4B453F3D3F
:1000C0003D3E40414347484C4E505C565A68716D26
:1000D0006663555668889EA09C9CAEB4BCC0BFB7F2
:1000E000ACA04450544B4441403F41414347484AEF
:1000F0004C4E4E5D5F53515E645D5E595157789F23
:10010000A5979BA5B1B7B7B4AFAE4D504D48474D7D
:10011000484241434345484A4C4C4B4D4E4D4A485A
:10012000505853575953536285A693979EA5ABAF2A
:10013000B2B6544D4A4F504A474643434545474857
:100140004A4A43393A4B544B474B5555595B524DEC
:10015000617F818A94989AA1AFC05E52515B5744E7
:10016000414A4745454747474848313A3E3E485748
:100170005447465A645B53575D5A59728C95929610
:10018000A8C389684E51544F4B4F4848474747478B
:100190004747343A3E3D4049545C45525C5B5656B5
:1001A0005D634752667E939FA4A99E896B59565BF7
:1001B00057524C4A484847474745433A3D484740CD
:1001C000495D5D4B43535E5A575E584B465A7A948D
:1001D00098977C9BA48360575651504E4C4A484791
:1001E0004747444849484D524C3E485C655440405E
:1001F0004F5C6A5D4D4B59748FA15C718EA0916EFE
:10020000534C59524C4747474440544F4C4F555814
:10021000554E4C4E5E6A57352D3D6768655C4D4FB7
:100220006C89645D657D908B75654F565A55504D50
:1002300049425255595B58575450474642475A65B0
:100240004F315A5860696D65605B605552637987BC
:10025000939C685E5D625D4E4C525058605F585290
:100260005152434B44373D576156313F5870797571
:100270006B616D66605E5C6684A3A37F584F5C65AE
:100280005F5656595A57535052534F4F4E4132337F
:100290004E6867392D577B7B72727A7168625B5743
:1002A0005E6B91A095694C57696B5E574D494B50F9
:1002B0005352604B404B4D413C43595B4F3E4B6D5D
:1002C0007B72746B686C6C6157546788AAA67E5702
:1002D000586C5B5145444A515451574F48494F4E11
:1002E00046402553756C4A3F5368998675747670FD
:1002F0006A6A6D5C6B9AAD9069584B4B4A4B4E4F96
:100300004F4F4A575A50484D555A5830417E7B38C6
:10031000234BEEBD8975777975725B6565647A9557
:1003200094813A465156514C4A4D5354575B5E5D49
:100330005956524D3B314F716340E4E2C48E6968B7
:100340006C6858575A5F616A84A17E6A616E6F5704
:10035000464243404148535C5F5C5E5C4F3A2D3EF1
:10036000668CE6DADBDAB77E636A715C535B615EEA
:10037000646E9E977651506765503E3E47555A567B
:10038000565B595C54412E2A3745E7E5EFF9EFC635
:100390009274696E6C61575454557B9AA5875A477D
:1003A000587062554A49545D5C575557594F423809
:1003B0003433E8F1EEE7EFF6D8AE7F78716D665E24
:1003C0005B5F6267809E966C535570766A514955A3
:1003D000605D535353535353514FE7E8E7E9E6E663
:1003E000EDF5CC946B727A6A5E655F53526F969F9F
:1003F0007B5255718477584750604F4D4B4D555A3D
:100400005A58E5E0E6EDEBE2E9FAECD4AD876D6130
:1004100064685560625C647C8F9167595E73765E38
:100420004F5446484E545D62625FE4E7E8E8EAEF05
:10043000EBE5E5F8F0BF8B76706B6565645F5D6436
:100440007C95956D525C6F716256474C545B626649
:100450006B6CE5E8EBE8E5E5ECF2F3E3E5F4E1A548
:10046000776A6F68615C5E64686C999F8B634E5CB1
:100470006E735456555453585F66E7E7E7E7E8E86C
:10048000EAECF2F2EEF2F8EBBA87686F7069676A2D
:10049000675E6F768C9976494A697158474D59590C
:1004A0005554E5E5E7E7E7E8E8EAEBEAE2E1EAF2F6
:1004B000E8D89C7E696D726A656A5D62748D978406
:1004C0005E3E5763604C444E5651E5E5E5E5E7E78F
:1004D000E7E8E1E8E9E5E8F0F5F4E8B982656D7888
:1004E0007264675E575F788D89795C5D60605B5090
:1004F0004844E6E6E6E6E6E6E8E8DCE6EDEDE8E4D4
:10050000E4E3EEF4DBA36F616A736B635C5B5F6CC7
:1005100089A5906D545B655E4D45E4E4E6E6E6E64C
:10052000E6E6E5E2E2E3E3E2E2E4EAF3FCECB982E8
:100530006A72686A6B6659576D89A29474554E5CED
:10054000635EE4E4E4E4E4E6E6E6F0E5DFE2E6E563
:10055000E4E6F5E5DFEDF5DAA377606E6F615458F8
:100560006874708B9E8F6E595F6BE5E5E5E5E5E598
:10057000E5E5F0E8E4EAEBE3E0E4E5EAE7E2E8ED0C
:10058000DBC07C76716F6D69686750658AA9A17E52
:100590006968E5E5E5E5E5E5E5E5E6DEDCE2E2DD21
:1005A000E5F1ECE5E3E9EAE6EAF6D897676C7B70FB
:1005B000666967595571A0B49566E0DFDEDDDDDC64
:1005C000DBDDE2E2E4E4E4E5E5E7E4E4E4E6E5E6F5
:1005D000E8E7E5E8BE785763634D575A5D60697D8B
:1005E00097ABE0E0DFDEDFDEDDDDE2E2E2E4E4E483
:1005F000E5E5E5E4E4E6E5E6E6E8DCE4EDD692539D
:100600004E6A665F5F6663607492E1E0E0DFDFE0A0
:10061000E0DFE2E2E2E2E4E4E4E5E3E5E5E4E6E5A6
:10062000E6E8F3EAEAEFE2B47C5A665C575D65649B
:100630006260DDDDDDDFDFE0E0E2DFDFE2E2E2E4B9
:10064000E4E4E3E3E3E5E4E6E5E6E9F2F1EBF2F224
:10065000C990605B5D66645A5A61DADADBDCDCDF24
:10066000E0E0DFDFDFE1E2E2E3E3E2E2E3E3E3E471
:10067000E6E6DAEDF6F1E9ECEBE6B17D585C665DB5
:100680005C68D3D4D5D8DADBDCDEDCDCDFDFDFE0AE
:10069000E2E2E1E1E2E2E3E3E4E4E4E8E7E6E9F20E
:1006A000F3EDFDCF8B5E5A6A6A5DCECFD0D2D4D641
:1006B000D9DADADCDCDDDFDFE0E0E0E0E1E1E1E156
:1006C000E3E3DFEDECE1E3EDEBDDF3FDE8AB7563D8
:1006D0006768CACBCDCFD1D4D6D6DADADADCDDDDA5
:1006E000DEDEDEDEDFDFE1E0E1E1E7E3DFE2E7E6F9
:1006F000DED5EEE2EDF7CD7F575E282928242222B1
:1007000025272929282827272626312B2F3E494807
:1007100044463D425A7E999F9F9FAFB0B0ADA9A479
:10072000A2A31C282F2A252628272929282827275D
:1007300027262837392D2B3A44404343404B6F9AA4
:10074000A394A2A9AFAFABA7A7AB23272724282E3A
:100750002E2829282828272726262C2B2D2C292A05
:10076000323A393F434343567A9CA2A3A7AAACAC82
:10077000ACAD272222282D2C292B292928282727F0
:1007800026262A1F2030372F282D3A393F443D395D
:100790004F6D929CA7AAA8A9AEB32F25253231226E
:1007A000212C29292828272726261C2528272F3CC5
:1007B0003729283D473E383E444165809FADABA870
:1007C000AEB7593821242B28272D2A292828272756
:1007D000262621272927272D373E27343E3D383A24
:1007E000414644557194ADB6B1A76C563A2A2A31A8
:1007F000312C2A292928282726272C24252E2B236B
:100800002A3E3F2B2535413D3C43453E43628CA863
:10081000A79B4A687353322A2C282A29292828287A
:100820002727282C2B292D332A1D273E47382628F9
:1008300037444C423A40567896A6283D5C6D5F3D61
:10084000261F2E2B2524252725212F2A272A303322
:10085000302C2B30415140221C2B4646453E333C28
:100860006186312A314B5D594436212B312F2B2A99
:100870002823272A2E302F2E2D2B2627273047548A
:100880004223403C3B3E3E3A3E472F221E2F4554DA
:100890005F69372E3039362A2830232B33312B2706
:1008A000282C202C2B202B47524A2328343D3D371F
:1008B00035393C352F2A28324F6D6F4B2823323D76
:1008C0003931292C2D2A2625292D2D3031281C217E
:1008D0003C585F2A10293F38333F4C41383127209C
:1008E00027345B6C62381F2C4044362F2521232887
:1008F0002B2C3B28212C3229252C504D36191A340B
:10090000433F493D373A382A1E1A2D5175744E2CF3
:100910002E423A2F2421262C2D2B312924272C2D11
:100920002721113E5F512D1E2C3F6F5A47434239FC
:10093000312F322334667C623D2E312F2E2E2D2C0A
:100940002928232E312720242F3438142B70722C81
:100950001130C4915B4443423C37202A2C30486715
:1009600068552530393B342B26262A2A2B30333242
:100970002E2B282C242A5073602ECCCAA9714B47E9
:1009800048412E29292B2C324C67402D2D424C3EBC
:100990003334342E28262828241F2B2F2C2424419E
:1009A000749BCEC2C0BF995E3F43473122272C299A
:1009B0002C36605C42252C4A503D2B292C332F24A9
:1009C0001D202A3031292025384CCFCDD5DED2A6A6
:1009D000714D40433F3024201F1E3E5F7159312628
:1009E0003D58493B2C25292D2821292F33312923F6
:1009F0002426D1D9D6CDD3D7B78A594F4740362CE4
:100A0000292B282F4C6D69452F324F54482C1F2815
:100A1000312E2E2D2C2E2E2F2E2DD3D1D0D0CCCA30
:100A2000CED4A96C41484D3B2F362A1E1E3D657021
:100A30004E252A485C4F2F1E27372F2B2624262889
:100A40002625D1CCCFD6D2C7CADACCB1885F4438FC
:100A5000383C242F2F2830485A5D342830494E39ED
:100A60002C312B2A292829282623D0D3D4D1D3D6F8
:100A7000D0C7C6D8CE9A664F49443936332C25297B
:100A800041595B371F2E484D43392D2E3130302EC2
:100A90002F30D2D5D7D4CECED3D7D8C5C6D5BF83E5
:100AA0005346473E33292727292B59625533253989
:100AB00050583838342C25252A30D4D4D4D4D4D422
:100AC000D3D3D9D7D3D4DACC9B6842474438302E1D
:100AD000261B2E3855674C252A4E533A272A333188
:100AE0002B28D4D4D3D3D3D3D3D2D4D1C9C6CFD740
:100AF000CDBA7B5B413F3E31272A1C253B5A6A5DBC
:100B00003B2035413F2C242F3530D2D2D3D3D2D203
:100B1000D2D3CCD0D2CECFD7DCDBC9985D3C3D441C
:100B200039282B241F2B4B63615336373C403E350D
:100B30002D29D2D2D2D2D3D3D3D3C7D1D8D8D4D0DF
:100B4000CDCCD2D5BA7E4633393F342C27282E3D22
:100B50005C7866452D37443E2F26D2D2D2D2D2D2EF
:100B6000D2D3D0CDCDCFCFCECED1D0D7DDCC965A2B
:100B70004144383939322523395574684A2B243396
:100B80003B37D1D1D1D1D1D2D2D2DCD2CCD0D4D476
:100B9000D3D5DBCBC5D1D6BA815237403F2D1E20ED
:100BA0002D38415B6D5D3A252B39D1D1D2D2D2D2CD
:100BB000D3D3DFD4D1D7D9D1CED3CDD2CFC8CED312
:100BC000BFA0574E443C352D27262132556F643E39
:100BD0002727D1D1D1D2D2D2D2D3D4CDCBD1D2CD5D
:100BE000D3DFD4CDCBD1D2CED0D7B6703A394132C3
:100BF000242536271E335D6E4D1ED2D1D0CFCDCCED
:100C0000CBCACFCFCFCFCFD0D0D0D0D0D0D1D0D0F3
:100C1000D0CFCCCDA35C3B4646302326282930429A
:100C20005C71D3D3D2D1CFCECDCDCFCFCFD0D0D09A
:100C3000D1D1D1D0D0D1D0D0D0D0C3CBD2BA7637C9
:100C4000314D352B2A2F2A253958D4D3D3D2D2D09F
:100C5000D1D0D1D1D1D1D1D1D1D2D1D1D1D0D1D086
:100C6000D0D0DBD1CFD4C598603E382B24292F2C8F
:100C70002826D2D2D2D3D3D4D4D4D1D1D2D2D2D3A3
:100C8000D3D4D0D1D1D1D0D0D0D0D1DAD8D0D7D739
:100C9000AC73352E2E353125232ACECED0D1D1D3EB
:100CA000D4D4D1D2D2D2D3D4D5D5D1D2D0D0D1D020
:100CB000D0D1C3D5DED7D0D1D0CB89552E30352B6E
:100CC0002731C8CACBCCCECFD1D2D0D0D2D2D2D37A
:100CD000D4D4D1D1D1D1D0D0D0D0CED1D1CED1D801
:100CE000D9D3DAAA66352F3C3828C2C3C4C7C9CBCA
:100CF000CDCECECFD0D1D1D2D3D3D1D1D0D1CFD0F0
:100D0000D0D0CBD7D6CACAD5D3C5D4DDC6864D3A46
:100D10003937BDBEC1C3C6C7CACBCDCECECED0D06B
:100D2000D1D2D1D1CFCFD0D0CFD0D4CECBCBD0CFCA
:100D3000C7BED3C7CFD7AB5A2D32151514100D0D22
:100D40000F1113131313131313130A040819262670
:100D5000262B27314E7798A3A4A79FA5AEB6BBBD7F
:100D6000C0BF09151B1610111211131313131313FF
:100D700013130615170B0B1C27252E3133416B99C6
:100D8000A3969BA4AFB6B7B7B8BA0C100F0C0F1749
:100D900016101113131313131414131313120F0F2C
:100DA000172121293133374C7295A5A7ABADB0AED1
:100DB000ADAA0C07060C1311101111111313141402
:100DC00014141A0F0F1C221711142021272E282764
:100DD0003E5C9BA3AAA9A29EA0A30F040612130423
:100DE00004111011131314141616141D1D181F28A6
:100DF00022100F222C231E242A27677F9CA59D9753
:100E00009BA5351400020A0809100F1011131414C1
:100E100016161A20211B171C22250C1721201B1C1B
:100E2000232B364661829BA7A39C422E1204050EFB
:100E30000F0C0D0F101113141616241919201A0E69
:100E40001325240E081826222229241E274B7B9CBA
:100E5000A39C1C3D4729090409070A0D0F10111313
:100E60001414171B1814161A12030D232E200E1219
:100E700023301D161525477399AF000E2E423515E8
:100E800000000D0B090A0D100E0C15100D0E141795
:100E9000140F11172C3D30130F20181B2225253756
:100EA000648F0000021D322F1C10000A11110F1058
:100EB0000E0A06090D0F0E0E0D0F0C1013203A4BE3
:100EC0003A1D1C1A1F293031384200000000172932
:100ED0003641110A0E18160C0A1200060E0F0906EA
:100EE000080E0615171120404F461118242D2D27E6
:100EF00024260A03000000042444472604000F1A95
:100F0000170F080B0C090504090F10171C181016F1
:100F100035515F27091E2F23171F1C1108010000E0
:100F2000000932433A100005191D1D130905060B6F
:100F30000E0E1F0E08171E17151D534F34110A1ED3
:100F4000261E180D090C0A00000003264A4A240137
:100F500003172A1F110D0E12110D130B060A12137F
:100F60000E08103C59471E0B1626402B1815140C62
:100F70000402050007384E330E002A2823201D18CE
:100F8000110C030D100600030D122B091F646520C0
:100F9000062695622C1615150F0A000000021A3855
:100FA0003926232B333126180E0A0A0706090C0BA3
:100FB00007041519141B466D5C2D9896763E1A167B
:100FC0001A1503000106070F2944180505192416F0
:100FD0000E10130F0E0F1517151103090A08103202
:100FE0006997988E8D8C682D11161C0600020704D7
:100FF00009133834190004232A1A0A0A111C1A1278
:101000000E11040B100D0A162E4599979FAB9F7574
:1010100040201318140800000000163748300A005A
:101020001834291D110D141B1710040C1516151456
:10103000181E99A3A0979DA4855A29221A150C025F
:10104000000200062345431E0B102E362B120813F8
:101050001C190C0D1014181D20209A99989896941C
:1010600099A2773C1219210F030A000000133D4A90
:10107000290309283F3316071020120E0A0B1014FB
:1010800015159893979E9A8F95A5977F562E1307BF
:10109000090D00030400082035391308112C321DF6
:1010A0001217110F0F101212100D979A9B999B9EF9
:1010B000989091A39966321B15100A0A0701000245
:1010C0001A353816000F282F241A15151715141164
:1010D0001213999C9E9B96969B9FA08E8F9E894DE6
:1010E0001D10170F040000000305364034110417CB
:1010F0002D36201F1A100605090F9B9B9B9B9B9B5F
:101100009B9BA19F9B9DA39564311217150A050413
:10111000000008143043270106293A1F0A09110E5E
:1011200006039C9C9C9C9C9C9C9C9C99918E979F4C
:101130009583492910101004000100001432443630
:10114000130018231E0900080E099F9F9E9E9E9E55
:101150009E9C959A9A96979FA4A396662B0B0D1624
:101160000C0001000002203937291414181C191032
:101170000804A2A2A2A2A0A0A09F939AA1A19B97BB
:1011800095949CA0884C15030911070000000211DA
:10119000304C3C1B060F1D1A0C05A3A3A3A3A3A24E
:1011A000A2A09D999998989797989AA1A897642931
:1011B000101408090B0400000B2744391D0100120C
:1011C0001E1BA6A6A4A4A4A3A3A2AC9F999B9F9C0C
:1011D0009B9DA5958F9BA1854C1E06100F000000BE
:1011E000000A0B273D3316071423A8A8A7A7A7A515
:1011F000A4A4AEA49EA4A49C999B979C9992989D0C
:10120000896B231A110A06000000000023454225BD
:101210001418A8A8A8A7A7A5A5A4A59C989E9D98C2
:101220009EAA9E97959B9C989AA2813C07071002C4
:1012300000000000000A3C563C12AEADACABA9A8C1
:10124000A7A7AEAEAFAFAFB0B0B0A0A0A09E9D9C20
:101250009A9994946A200009090000020304091B6A
:101260003447ADADACABAAA9A9A9ACACACADADADA2
:10127000AEAEA1A0A09E9D9C9C9A8B93997E3A00B5
:1012800000100F0605080300112EAEADADACACABDF
:10129000AAA9AAAAAAAAABABABACA2A2A1A09E9DE6
:1012A0009C9CA599979B8C5C24020F03000006036D
:1012B0000000ACACACABABACACAAA7A7A7A7A7A8E7
:1012C000A8A6A3A2A2A2A0A09D9C9DA4A0989E9E19
:1012D000733A0A03020906000000AAAAAAABABAB44
:1012E000ACAAA7A6A6A4A5A4A5A5A6A4A3A3A2A1AB
:1012F000A09E91A1A8A19899989259250001070054
:101300000006A8A8A9AAAAABABAAA6A6A6A4A4A5AB
:10131000A4A4A7A7A6A6A3A3A1A19E9F9D9A9BA2B2
:10132000A39DA8783404000D0A00A6A7A8A9ABAB1A
:10133000ABAAAAA9A8A7A7A6A7A7AAAAA9A7A6A52C
:10134000A3A39CA7A69898A19F919DA891521C0920
:101350000A09A7A8A9ABABADAEADADACACAAAAAA21
:10136000ABAAABABAAAAA9A6A6A5A7A19C9DA09F24
:10137000958C9B8F98A2762800036364696E6F70CA
:10138000737578585B0011241FBECFEFDAE0DEBF23
:10139000CDBF15E0A0E0B1E0E6E2FDE302C00590BC
:1013A0000D92AC31B107D9F726E0ACE1B5E001C050
:1013B0001D92A938B207E1F70E94A8140C94911E5F
:1013C0000C9400001092990510929A0510929B05BA
:1013D00010929C0510929D0510929E0510929F05FB
:1013E0001092A00510928E0510928F051092900514
:1013F0001092910510929205109293051092940507
:101400001092950510928C0581E090E090939705DD
:101410008093960510928D051092980584E690E0D1
:101420009093A2058093A10524E030E03093A605B7
:101430002093A5059093A4058093A305089585B1F5
:1014400090E1892785B9089583E0F6D68823E1F0F5
:10145000EBD78823C9F081E090E0F6D28823A1F091
:1014600082E46AD442E360E070E080EA90E4B5D3BD
:10147000882351F089E190E08DD4882329F081E020
:1014800090E077D7811103C080E090E015C2089505
:1014900085B1806585B95E9A479A5D98089585B152
:1014A0008F7A85B95E9847985D9A08958BDF84B1ED
:1014B000806584B9569AECDF2FEF83ED90E32150DD
:1014C00080409040E1F700C00000E9CF1F920F92EA
:1014D0000FB60F921124AF92BF92CF92DF92EF928C
:1014E000FF920F931F932F933F934F935F936F93AD
:1014F0007F938F939F93AF93BF93CF93DF93EF939C
:10150000FF932091990530919A0540919B05509148
:101510009C0560919D0570919E0580919F0590911D
:10152000A005A1E00E94B6152093990530939A0575
:1015300040939B0550939C0560939D0570939E0579
:1015400080939F059093A005D0919905C0919A052D
:10155000B0919B05A0919C05F0919D05E0919E05A1
:1015600080919F059091A0050091A1051091A20581
:101570005801C12CD12CE12CF12C00E010E02D2FD2
:101580003C2F4B2F5A2F6F2F7E2F0E940315A0E068
:101590000E94CB1519F481E080938D05D0919905B7
:1015A000C0919A05B0919B05A0919C05F0919D0575
:1015B000E0919E0580919F059091A0050091A30563
:1015C0001091A4055801C12CD12CE12CF12C00E084
:1015D00010E02D2F3C2F4B2F5A2F6F2F7E2F0E9464
:1015E0000315A0E00E94CB1519F481E080939805C3
:1015F000FF91EF91DF91CF91BF91AF919F918F912B
:101600007F916F915F914F913F912F911F910F911A
:10161000FF90EF90DF90CF90BF90AF900F900FBEF4
:101620000F901F9018951F920F920FB60F921124D2
:101630002F933F934F935F936F937F938F939F93DA
:10164000AF9320918E0530918F0540919005509178
:101650009105609192057091930580919405909108
:101660009505A1E00E94B61520938E0530938F0555
:101670004093900550939105609392057093930564
:101680008093940590939505AF919F918F917F9151
:101690006F915F914F913F912F910F900FBE0F90DF
:1016A0001F9018951F920F920FB60F9211242F932F
:1016B0003F934F935F936F937F938F939F93AF93DA
:1016C000BF93EF93FF9380918C058F5F80938C0580
:1016D00080918C0590E06091A5057091A6050E940F
:1016E000D614892B21F48BB190E489278BB90E9401
:1016F0007C1865E070E00E94EA14049741F4479A70
:101700008FE19EE40197F1F700C000004798FF9138
:10171000EF91BF91AF919F918F917F916F915F9169
:101720004F913F912F910F900FBE0F901F901895E2
:101730001F920F920FB60F9211242F933F934F9346
:101740005F936F937F938F939F93AF93BF93EF9329
:10175000FF9323B123FB882780F990E02091960521
:10176000309197052130310591F4009781F42FEFE6
:1017700089EF90E0215080409040E1F700C00000E8
:101780001B9926C0109297051092960521C02091B2
:10179000960530919705232BD9F40197C9F42FEFC3
:1017A00089EF90E0215080409040E1F700C00000B8
:1017B00081E090E090939705809396056BD076D06A
:1017C00083E051D578949AD75FD06AD083E034D53E
:1017D000FF91EF91BF91AF919F918F917F916F9109
:1017E0005F914F913F912F910F900FBE0F901F90DF
:1017F000189582B7806882BF82B7806282BF82B745
:101800008F7E82BF82B78A6082BF82B78A7F82BFA3
:1018100089B58F7E89BD89B5826089BD0895479A53
:101820005D9A2FEF43EC59E0215040405040E1F7E2
:1018300000C000008CE090E030E228B1205828B9C8
:101840002BB123272BB92FEF41EE54E0215040401C
:101850005040E1F700C000000197009771F74798EA
:101860005D9A08952FEF81EE94E0215080409040E2
:10187000E1F700C000003F9A559A84B1867F84B991
:1018800085B1896085B9CBCFEEE6F0E080818260DA
:1018900080830895EEE6F0E080818D7F8083089557
:1018A000E1E7F0E08081826080830895E1E7F0E085
:1018B00080818D7F80830895F894209A009721F08D
:1018C000019719F45D9A01C0479A2898FFCFAAE0C2
:1018D000B0E0EDE6FCE00C94611578876F83690158
:1018E0007A01BC0180E090E00E940E179B01AC01E0
:1018F00060E070E08AE794E40E9440169B01AC012E
:1019000060E074E284E79BE40E9440160E94AD16FA
:10191000F22FE32F49875A876B837C838D839E83C5
:1019200016012701612C712C430156016201E12C43
:10193000F12C00E010E00E94C21548F4CF01AF8105
:10194000B8859C9311968C9381E090E079C02F2FFD
:101950003E2F49855A856B817C818D819E8103E074
:101960000E949A15D90151016201E12CF12C00E08D
:1019700010E00E94C21538F4EF81F885A083B1838E
:1019800088E090E05DC02F2F3E2F49855A856B81FE
:101990007C818D819E8106E00E949A15D9015101BA
:1019A0006201E12CF12C00E010E00E94C21550F41D
:1019B0009A2F8B2FAF81B8859C9311968C9380E4DE
:1019C00090E03EC02F2F3E2F49855A856B817C8148
:1019D0008D819E8108E00E949A15D9015101620112
:1019E000E12CF12C00E010E00E94C21538F4EF81E8
:1019F000F885A083B18380E091E022C02F2F3E2F95
:101A000049855A856B817C818D819E810AE00E9487
:101A10009A15F22FE32F51016201E12CF12C00E025
:101A200010E00E94C21548F4CF01AF81B8859C93A5
:101A300011968C9380E094E003C080E090E03CDF5E
:101A40002A96E2E10C947D15A2E0B0E0EAE2FDE026
:101A50000C94711520E031E040E050E0BE016F5F72
:101A60007F4F35DF009709F444C016BC24B52F73AF
:101A700024BD25B5277F25BD24B5226024BD24B50E
:101A80002E7F24BD2981215027BD20916E00226028
:101A900020936E0088309105A9F040F4019719F564
:101AA00085B5897F85BD85B5816011C0803491057C
:101AB000A1F081159140B9F485B5846085BD85B5E7
:101AC0008C7F05C085B58A7F85BD85B5826085BD63
:101AD00081E02296E2E00C948D1585B58B7F85BD63
:101AE00085B58360F4CF85B5856085BD85B58D7F6F
:101AF000EECF80E090E0E0DEA2E0B0E0E1E8FDE0E3
:101B0000F0C720E030E041E050E0BE016F5F7F4F62
:101B1000DEDE009709F45EC010928500109284000A
:101B200020918100286020938100209181002F7EE8
:101B300020938100209180002C7F209380002981B8
:101B40003A812150310930938900209388002091F7
:101B50006F00226020936F0088309105D9F058F40F
:101B6000019779F580918100897F80938100809130
:101B70008100816017C080349105D1F081159140BA
:101B800001F58091810084608093810080918100C3
:101B90008C7F08C0809181008A7F80938100809132
:101BA000810082608093810081E02296E2E0B5C7E7
:101BB000809181008B7F8093810080918100836080
:101BC000F1CF8091810085608093810080918100B8
:101BD0008D7FE8CF80E090E06FDEA2E0B0E0E2EF42
:101BE000FDE078C7B42E9B01AC01E2D79B01AC01AC
:101BF00060E070E08AE794E40E9440160E94E216DA
:101C0000DC01CB0120E030E041E050E0BE016F5F3D
:101C10007F4F5DDE8C01009709F46BC080918100DD
:101C2000887F8093810010928500109284008091BB
:101C3000810080618093810080918100877F809303
:101C40008100809180008C7F8093800089819A81BF
:101C500090938700809386008091800080718093AC
:101C600080008091800080628093800084E68B15E4
:101C700008F43FC069817A8180E090E00E940E17ED
:101C80006B017C016B2D70E080E090E00E940E17EC
:101C90009B01AC01C701B6010E94D01720E030E0E3
:101CA00048EC52E4EDD70E94E21670938B006093EB
:101CB0008A000830110501F160F40130110571F559
:101CC00080918100897F8093810080918100816073
:101CD0002DC000341105C9F0011581E01807F1F499
:101CE00080918100846080938100809181008C7F4D
:101CF0001DC080E090E0E0DD809181008A7F8093CC
:101D0000810080918100826011C0809181008B7F71
:101D10008093810080918100836008C08091810060
:101D2000856080938100809181008D7F8093810008
:101D300081E02296E9E0EAC6823441F0833451F032
:101D4000813471F480916F00826007C080916F00D0
:101D5000846003C080916F00886080936F00089555
:101D600080E090E0A9DD823441F0833451F0813489
:101D700071F480916F008D7F07C080916F008B7F21
:101D800003C080916F00877F80936F00089580E08B
:101D900090E092DDA2E0B0E0EFECFEE0A2C620E031
:101DA00030E041E050E0BE016F5F7F4F90DD009773
:101DB00009F45EC010929500109294002091910059
:101DC000286020939100209191002F7E2093910014
:101DD000209190002C7F2093900029813A812150FE
:101DE000310930939900209398002091710022606E
:101DF0002093710088309105D9F058F4019779F556
:101E000080919100897F8093910080919100816001
:101E100017C080349105D1F08115914001F5809172
:101E20009100846080939100809191008C7F08C024
:101E3000809191008A7F80939100809191008260CF
:101E40008093910081E02296E2E067C68091910044
:101E50008B7F80939100809191008360F1CF80917E
:101E60009100856080939100809191008D7FE8CFF3
:101E700080E090E021DD8F929F92AF92BF92CF924F
:101E8000DF92EF92FF92CF93C42F9B01AC0160E0F1
:101E900074E284E79CE4F4D66B017C01AADC8091B7
:101EA000C00080628093C0008091C0008F7E8093CC
:101EB000C0008091C00081608093C0008091C30009
:101EC0008D7F8093C3008091C30081608093C300A5
:101ED00020E030E040E854E4C701B601CDD687FFEA
:101EE00009C08091C100817F8093C1008091C100B1
:101EF000816067C120E030E040E05FE3C701B601E8
:101F00000E94D0174B015C0120E030E040E854E42F
:101F1000B3D687FF09C08091C100827F8093C10042
:101F20008091C100826030C120E030E040E85EE393
:101F3000C701B6010E94D0174B015C0120E030E0E0
:101F400040E854E499D687FF0EC08091C100837F9A
:101F50008093C1008091C10082608093C100809114
:101F6000C100816011C120E030E040E05EE3C701C4
:101F7000B6010E94D01720E030E040E854E47CD65F
:101F800087FF09C08091C100837F8093C100809149
:101F9000C1008360F9C020E030E040E85DE3C701A4
:101FA000B601FED74B015C0120E030E040E854E48C
:101FB00063D687FF09C08091C10084608093C1000F
:101FC0008091C100847FE0C020E030E040E05DE32C
:101FD000C701B601E5D74B015C0120E030E040E8E5
:101FE00054E44AD687FF09C08091C100857F809361
:101FF000C1008091C1008560C7C020E030E040E8AA
:102000005CE3C701B601CCD74B015C0120E030E0B6
:1020100040E854E431D687FF09C08091C100867F33
:102020008093C1008091C1008660AEC020E030E0A6
:1020300040E05CE3C701B601B3D74B015C0120E08F
:1020400030E040E854E418D687FF09C08091C10011
:10205000877F8093C1008091C100876095C020E098
:1020600030E040E85BE3C701B6019AD74B015C0161
:1020700020E030E040E854E4FFD587FF09C08091BC
:10208000C10088608093C1008091C100887F7CC0BE
:1020900020E030E040E05BE3C701B60181D74B01AF
:1020A0005C0120E030E040E854E4E6D587FF09C059
:1020B0008091C10089608093C1008091C100897FB7
:1020C00063C020E030E040E85AE3C701B60168D7BA
:1020D0004B015C0120E030E040E854E4CDD587FFBF
:1020E00009C08091C1008B7F8093C1008091C100A5
:1020F0008B604AC020E030E040E05AE3C701B601FF
:102100004FD74B015C0120E030E040E854E4B4D507
:1021100087FF09C08091C1008C608093C1008091CD
:10212000C1008C7F31C020E030E040E859E3C701B6
:10213000B60136D74B015C0120E030E040E854E4C2
:102140009BD587FF09C08091C1008D608093C1003D
:102150008091C1008D7F18C020E030E040E059E35D
:10216000C701B6011DD74B015C0120E030E040E81B
:1021700054E482D587FF0DC08091C1008E608093AA
:10218000C1008091C1008E7F8093C100C501B40160
:102190001CC020E030E040E858E3C701B60100D79A
:1021A0006B017C0120E030E040E854E465D587FF16
:1021B00040C08091C1008C608093C1008091C100BB
:1021C00083608093C100C701B601FCD57093BF0046
:1021D0006093D100C53618F580E090E01FD66B0102
:1021E0007C016C2F70E080E090E018D69B01AC0180
:1021F000C701B601D5D620E030E048EC52E440D526
:10220000E1D57093BF006093D000CF91FF90EF9025
:10221000DF90CF90BF90AF909F908F900895809166
:10222000C100837F8093C1008091C1008C7F809327
:10223000C10080E090E040DB909168009160909355
:102240006800883018F080E090E036DB90916B00F9
:1022500021E030E001C0220F8A95EAF7922B90939B
:102260006B0081E00895909168009E7F90936800D4
:10227000883070F490916B0021E030E0082E01C0AE
:10228000220F0A94EAF72095292320936B000895E2
:1022900080E090E011DB10925605109255051092E7
:1022A0008A0510928905109222050895109256050C
:1022B0001092550510928A05109289050895809113
:1022C00023058093CE0081E0809356050895CF9337
:1022D000DF93EC0180912205833018F081E090E0DB
:1022E000EBDAE0912205F0E0EE0FFF1FE45EFA4F1B
:1022F000D183C0838091220591E0980F90932205AD
:10230000DF91CF910895E2E2F5E0808181508083F2
:102310000895009719F00197A1F029C0CB0101970A
:10232000029748F48091C90080618093C9006230AF
:10233000710519F01AC0672BC1F48091C90088603B
:1023400012C0CB010197029748F48091C9008F7E9B
:102350008093C9006230710519F007C0672B29F41A
:102360008091C900877F8093C90081E0089580E053
:102370000895CF93DF93EC018EDF8091CA008F7CAC
:102380008093CA008091CA00877F8093CA008091A1
:10239000C9008B7F8093C9008091CA0086608093BA
:1023A000CA008091C9008C7F8093C9008091CA00C7
:1023B0008E7F8093CA008091CB008C7F8093CB006E
:1023C000209761F02197F9F480E190E09093CD009F
:1023D0008093CC008091C800826009C087E090E0C3
:1023E0009093CD008093CC008091C8008D7F809326
:1023F000C8008091C8008E7F8093C8008091CA0079
:102400008F738093CA0062E070E080E090E081DF2B
:10241000DF91CF910895E0918905F0E0E95AFA4FF4
:1024200080818093CE000895E9ECF0E08081806C9B
:10243000808381E00895E9ECF0E080818F738083F0
:1024400081E00895A1E0B0E0E7E2F2E148C3182F8F
:102450000091C9009983EFDFE12F9981F92F8191D4
:10246000882339F09091C80095FFFCCF8093CE006F
:10247000F6CF0093C9002196E4E04DC31F920F925E
:102480000FB60F9211242F933F934F935F936F9347
:102490007F938F939F93AF93BF93CF93EF93FF93CC
:1024A00080918905823310F0109289058091CE00C9
:1024B000E0918905F0E0E95AFA4F8083ACDF909112
:1024C0008905E92FF0E0E95AFA4F80818D3011F04B
:1024D0008A30D1F41082809122058823F1F0C0E087
:1024E00080912205C817C8F4EC2FF0E0EE0FFF1F13
:1024F000E45EFA4F0190F081E02D69E875E087E530
:1025000095E00995CF5FECCF883011F08F3711F44B
:10251000915001C09F5F90938905FF91EF91CF91FA
:10252000BF91AF919F918F917F916F915F914F91EB
:102530003F912F910F900FBE0F901F9018951F92F3
:102540000F920FB60F9211248F939F93EF93FF93E7
:102550008091560590915505891750F4E82FF0E0C9
:10256000ED5DFA4F90819093CE008F5F809356057A
:10257000FF91EF919F918F910F900FBE0F901F9041
:1025800018951F93CF93DF931092A7051092A8057B
:102590001092AA051092A9051092AC051092AB05F5
:1025A0000E94E209C0E0D0E01BE11C9FF0011D9FEA
:1025B000F00D1124E955FA4F10A2178EFE01319744
:1025C000E730F10518F4EA5AFF4F17C264E071E0F2
:1025D0008DEA95E022C06AE171E088EC95E01DC0CB
:1025E00069E271E083EE95E018C06BE371E08EEF75
:1025F00095E013C060E571E089E196E00EC065E604
:1026000071E084E396E009C069E771E08FE496E049
:1026100004C06FE871E08AE696E07CD52196C83068
:10262000D10519F6DF91CF911F910895A4E1B0E093
:10263000EBE1F3E14DC285EA91E004DF83ED91E047
:1026400001DF8091A9059091AA059F938F9387EE52
:1026500091E09F938F938E010F5F1F4F1F930F93F6
:1026600060D5C801EFDE84E294E0ECDE8DEAC82E8E
:1026700085E0D82E0F900F900F900F900F900F9035
:10268000E12CF12C9BE1992E27EEA22E21E0B22E17
:10269000C601D8DE9E9CF0019F9CF00D1124E955E7
:1026A000FA4F878D90A19F938F93BF92AF921F9304
:1026B0000F9337D5C801C6DE84E294E0C3DE8FEF06
:1026C000E81AF80A8BE1C80ED11C0F900F900F90FA
:1026D0000F900F900F9088E0E816F104C9F6649609
:1026E000EBE012C281E08093A8058091A90590914A
:1026F000AA059093AC058093AB0508951F93CF93E3
:10270000DF9362E070E080E090E003DE83EE93E12F
:10271000DEDDD82F8AEE91E095DEC0E018E28091F0
:102720008B05811113C08C2F612F34D1911103C0FF
:1027300086EF93E087DE2FEF89E698E12150804015
:102740009040E1F700C00000CF5FE9CF8D2FDBDDC7
:1027500010928B05DF91CF911F910895A1E0B0E019
:10276000E3EBF3E1BEC189830CDF8981813021F085
:1027700020F1893028F121C08093A70580E69AEEE8
:102780009093AA058093A9058AEF90E09093A20503
:102790008093A1058AE090E09093A6058093A5051B
:1027A00084E690E09093A4058093A30542E360E063
:1027B00070E080E090E411DA03C082E090E07CD821
:1027C0002196E2E0AAC1A3E0B0E0E8EEF3E187C120
:1027D000182F092F61E070E081E090E09ADD83E13D
:1027E00094E030DE812F902F2DDE83E294E02ADE0C
:1027F0009E012F5F3F4F3F932F932E5F3F4F3F939D
:102800002F9329E234E03F932F930F931F93A8D483
:102810000FB6F894DEBF0FBECDBF181619060CF028
:1028200064C02B812037B1F054F42536C1F027362F
:1028300009F05BC057DF82ED94E004DE40C0223730
:1028400009F10CF43CC02A3709F04FC09ADE85EB41
:1028500094E04DC08FE294E0F5DDE8DE36C00297EB
:1028600009F043C089819A819C01215031092830A7
:10287000310520F08AE594E0E5DD37C06FDF80E7C1
:1028800094E035C0029789F569817A81CB0101977F
:102890008236904178F7882777FD8095982FC0D2AF
:1028A0009B01AC0185D19B01AC0160E070E08AE73F
:1028B00094E4E6D142E391D986E994E018C088EE29
:1028C00094E0C0DD81E080938B0580918B058111C0
:1028D00008C086EF93E0B6DD61E070E080E090E054
:1028E00018DDE4DC2396E4E016C18BEF94E0AADD6A
:1028F000ECCF1F93CF93DF93A1E0B0E0681B790B7F
:10290000481B590B9C01C8E2D0E0F9011491FB016E
:10291000E20FF31FE491FA01E20FF31FE491219714
:102920002A0F3B1F209789F71196A932B10551F75D
:102930008BED9FE0A9E4B0E4809385069093860632
:10294000A0938706B0938806DF91CF911F910895D9
:102950000E94320C0E94560A0E94240A78948091A8
:102960008D05882321F00E941F0A10928D05809109
:1029700098058823A1F3C4E1D0E04AEF56E06AEB62
:1029800070E08AE39DE0B5DF21972097B1F71092C0
:102990009805E5CF991B79E004C0991F961708F0B8
:1029A000961B881F7A95C9F780950895AA1BBB1BB3
:1029B00051E107C0AA1FBB1FA617B70710F0A61B3F
:1029C000B70B881F991F5A95A9F780959095BC0160
:1029D000CD01089597FB072E16F4009406D077FDDD
:1029E00008D0E4DF07FC05D03EF4909581959F4F19
:1029F0000895709561957F4F0895EE0FFF1F059024
:102A0000F491E02D0994689401C0E8948F929F920C
:102A1000CF93DF9305D0DF91CF919F908F90089552
:102A200088249924F401E401B0E49F93AA279A151D
:102A30008B049C04ED05FE05CF05D007A10798F493
:102A4000AD2FDC2FCF2FFE2FE92D982C892E982F1C
:102A5000872F762F652F542F432F322F2227B850E0
:102A600031F7BF9127C01B2EBF91BB27220F331F09
:102A7000441F551F661F771F881F991F881C991CAC
:102A8000EE1FFF1FCC1FDD1FAA1FBB1F8A149B0454
:102A9000EC05FD05CE05DF05A007B10748F08A1853
:102AA0009B08EC09FD09CE09DF09A00BB10B2160E1
:102AB0001A94E1F62EF49401AF01BE01CD01000C91
:102AC00008952F923F924F925F926F927F928F92D2
:102AD0009F92AF92BF92CF92DF92EF92FF920F93AD
:102AE0001F93CF93DF93CDB7DEB7CA1BDB0B0FB6B7
:102AF000F894DEBF0FBECDBF09942A883988488874
:102B00005F846E847D848C849B84AA84B984C88409
:102B1000DF80EE80FD800C811B81AA81B981CE0F00
:102B2000D11D0FB6F894DEBF0FBECDBFED010895E5
:102B300097FB10F8169400080F93083098F008508F
:102B4000232F342F452F562F672F782F892F902D25
:102B5000F4CF059497958795779567955795479501
:102B6000379527950A95AAF70F9108950024A7FD98
:102B700000942A0F301D401D501D601D701D801DCA
:102B8000901D08952A153B054C055D056E057F05D2
:102B90008007910708950024A7FD00942A173005A7
:102BA0004005500560057005800590050895505852
:102BB000BB27AA270ED0BAC1ABD130F0B0D120F0DC
:102BC00031F49F3F11F41EF490C10EF4E095E7FB41
:102BD00086C1E92FBCD180F3BA1762077307840757
:102BE000950718F071F49EF5D4C10EF4E0950B2E04
:102BF000BA2FA02D0B01B90190010C01CA01A0014F
:102C00001124FF27591B99F0593F50F4503E68F1A9
:102C10001A16F040A22F232F342F4427585FF3CFEA
:102C2000469537952795A795F0405395C9F77EF4BB
:102C30001F16BA0B620B730B840BBAF09150A1F004
:102C4000FF0FBB1F661F771F881FC2F70EC0BA0F8A
:102C5000621F731F841F48F4879577956795B79512
:102C6000F7959E3F08F0B3CF9395880F08F099270A
:102C7000EE0F9795879508950ED108F481E0089599
:102C80000CD054C14CD140F043D130F021F45F3F1F
:102C900019F025C151117EC128C159D198F399234A
:102CA000C9F35523B1F3951B550BBB27AA27621710
:102CB0007307840738F09F5F5F4F220F331F441F55
:102CC000AA1FA9F333D00E2E3AF0E0E830D091508D
:102CD0005040E695001CCAF729D0FE2F27D0660F7A
:102CE000771F881FBB1F261737074807AB07B0E8B9
:102CF00009F0BB0B802DBF01FF2793585F4F2AF0CF
:102D00009E3F510568F0EBC045C15F3FECF3983E34
:102D1000DCF3869577956795B795F7959F5FC9F72B
:102D2000880F911D9695879597F90895E1E0660FB4
:102D3000771F881FBB1F621773078407BA0720F02D
:102D4000621B730B840BBA0BEE1F88F7E095089596
:102D5000BEE304D008F490E80895BFE322273327A8
:102D6000A901FDD058F19F5740F1B91738F1BFE3E1
:102D7000B91B9927B8503AF4660F771F881F991F1F
:102D8000B395D2F316C0B8504AF0232F342F452FF5
:102D9000562F672F782F8827B850BAF7B85F49F0B9
:102DA0008695779567955795479537952795BA9561
:102DB000B9F70EF49DD088940895889460E070E08F
:102DC000CB010895CCD088F09F5790F0B92F992768
:102DD000B751A0F0D1F0660F771F881F991F1AF026
:102DE000BA95C9F712C0B13081F0D3D0B1E00895DF
:102DF000D0C0672F782F8827B85F39F0B93FCCF360
:102E0000869577956795B395D9F73EF4909580951B
:102E1000709561957F4F8F4F9F4F0895E89409C03B
:102E200097FB3EF490958095709561957F4F8F4FFD
:102E30009F4F9923A9F0F92F96E9BB279395F69513
:102E4000879577956795B795F111F8CFFAF4BB0F91
:102E500011F460FF1BC06F5F7F4F8F4F9F4F16C0F5
:102E6000882311F096E911C0772321F09EE8872F7F
:102E7000762F05C0662371F096E8862F70E060E03B
:102E80002AF09A95660F771F881FDAF7880F9695B4
:102E9000879597F90895990F0008550FAA0BE0E858
:102EA000FEEF16161706E807F907C0F0121613060C
:102EB000E407F50798F0621B730B840B950B39F44C
:102EC0000A2661F0232B242B252B21F408950A26B2
:102ED00009F4A140A6958FEF811D811D089597F9F2
:102EE0009F6780E870E060E008959FEF80EC0895B0
:102EF0009095809570956095509540953095219569
:102F00003F4F4F4F5F4F6F4F7F4F8F4F9F4F0895F2
:102F100000240A94161617061806090608950024B8
:102F20000A9412161306140605060895092E039432
:102F3000000C11F4882352F0BB0F40F4BF2B11F4A6
:102F400060FF04C06F5F7F4F8F4F9F4F089557FD05
:102F50009058440F551F59F05F3F71F04795880F07
:102F600097FB991F61F09F3F79F08795089512169E
:102F700013061406551FF2CF4695F1DF08C016164A
:102F800017061806991FF1CF8695710561050894FB
:102F90000895E894BB2766277727CB0197F9089512
:102FA0000BD0C4CFB5DF28F0BADF18F0952309F0B5
:102FB00096CF9BCF1124EECFCADFA0F3959FD1F31C
:102FC000950F50E0551F629FF001729FBB27F00DD7
:102FD000B11D639FAA27F00DB11DAA1F649F66272C
:102FE000B00DA11D661F829F2227B00DA11D621F7B
:102FF000739FB00DA11D621F839FA00D611D221F35
:10300000749F3327A00D611D231F849F600D211D18
:10301000822F762F6A2F11249F5750408AF0E1F0BB
:1030200088234AF0EE0FFF1FBB1F661F771F881F04
:1030300091505040A9F79E3F510570F050CFAACF54
:103040005F3FECF3983EDCF3869577956795B795EF
:10305000F795E7959F5FC1F7FE2B880F911D969519
:10306000879597F908958F929F92AF92BF92CF92D2
:10307000DF92EF92FF92CF93DF93EC016881798129
:103080008A819B81611571058105910521F464E2B6
:1030900079ED8BE597E02DE133EF41E050E0E4D5A9
:1030A00049015A019B01AC01A7EAB1E4F9D56B01D2
:1030B0007C01ACEEB4EFA5019401FED5C60ED71E7F
:1030C000E81EF91EF7FE06C081E0C81AD108E10823
:1030D00080E8F80AC882D982EA82FB82C6019F771B
:1030E000DF91CF91FF90EF90DF90CF90BF90AF90A6
:1030F0009F908F900895B7CF80E091E0B4CFA0E08B
:10310000B0E08093000190930101A0930201B0937D
:1031100003010895FB01DC0101900D920020E1F70D
:103120000895AEE0B0E0E6E9F8E1D9CC0D891E895A
:1031300086E08C831A8309838FEF9FE79E838D83BC
:10314000AE01475E5F4F6F89788DCE0101961ED02C
:10315000EF81F885E00FF11F10822E96E4E0DBCCC2
:10316000AEE0B0E0E5EBF8E1BCCC85E08C838B8988
:103170009C899A838983AE01495E5F4F6D897E8900
:10318000CE01019635D32E96E2E0C7CCACE0B0E09C
:10319000EBECF8E196CC7C016B018A01FC01178213
:1031A0001682838181FFB0C1CE0101964C01F701E7
:1031B0009381F60193FD859193FF81916F0188239F
:1031C00009F49EC1853239F493FD859193FF819175
:1031D0006F01853221F4B70190E09AD4E8CF512CE9
:1031E000312C20E02032A0F48B3269F030F48032B0
:1031F00059F0833269F420612CC08D3239F080336C
:1032000039F4216026C02260246023C0286021C0D8
:1032100027FD27C030ED380F3A3078F426FF06C07E
:10322000FAE05F9E300D1124532E13C08AE0389EC1
:10323000300D1124332E20620CC08E3221F426FD75
:103240005FC1206406C08C3611F4206802C0883645
:1032500041F4F60193FD859193FF81916F018111F6
:10326000C1CF982F9F7D9554933028F40C5F1F4F4A
:10327000FFE3F9830DC0833631F0833771F0833576
:1032800009F057C021C0F801808189830E5F1F4F6C
:1032900044244394512C540114C03801F2E06F0EC1
:1032A000711CF801A080B18026FF03C0652D70E07D
:1032B00002C06FEF7FEFC5012C87E1D32C018301A2
:1032C0002C852F77222E16C03801F2E06F0E711C6C
:1032D000F801A080B18026FF03C0652D70E002C018
:1032E0006FEF7FEFC5012C87BFD32C012C852068A1
:1032F000222E830123FC19C0832D90E04816590625
:10330000A0F4B70180E290E003D43A94F5CFF50140
:1033100027FC859127FE81915F01B70190E0F8D3EA
:1033200031103A94F1E04F1A51084114510479F7E1
:10333000DEC0843611F0893631F5F80127FF07C069
:1033400060817181828193810C5F1F4F08C0608111
:103350007181882777FD8095982F0E5F1F4F2F76FC
:10336000B22E97FF09C090958095709561957F4F1B
:103370008F4F9F4F2068B22E2AE030E0A40113D473
:10338000A82EA81843C0853729F42F7EB22E2AE034
:1033900030E025C0F22FF97FBF2E8F36C1F018F430
:1033A000883579F0ADC0803719F0883721F0A8C092
:1033B0002F2F2061B22EB4FE0DC08B2D8460B82E4D
:1033C00009C024FF0AC09F2F9660B92E06C028E0CE
:1033D00030E005C020E130E002C020E132E0F80139
:1033E000B7FE07C060817181828193810C5F1F4F9E
:1033F00006C06081718180E090E00E5F1F4FA401E4
:10340000D2D3A82EA818FB2DFF77BF2EB6FE0BC077
:103410002B2D2E7FA51450F4B4FE0AC0B2FC08C0B8
:103420002B2D2E7E05C07A2C2B2D03C07A2C01C0AB
:10343000752C24FF0DC0FE01EA0DF11D8081803343
:1034400011F4297E09C022FF06C07394739404C04E
:10345000822F867809F0739423FD12C020FF06C0E6
:103460005A2C731418F4530C5718732C731460F4FB
:10347000B70180E290E02C874BD373942C85F6CF74
:10348000731410F4371801C0312C24FF11C0B70198
:1034900080E390E02C873CD32C8522FF16C021FFCF
:1034A00003C088E590E002C088E790E0B7010CC057
:1034B000822F867851F021FD02C080E201C08BE2AC
:1034C00027FD8DE2B70190E023D3A51430F4B701B6
:1034D00080E390E01DD35A94F8CFAA94F401EA0D4A
:1034E000F11D8081B70190E013D3A110F6CF3320F6
:1034F00009F45DCEB70180E290E00AD33A94F7CFA9
:10350000F7018681978102C08FEF9FEF2C96E2E151
:10351000F4CA20FD09C0FC0123FD05C022FF02C042
:103520007383628351834083089544FD10C046FD38
:1035300010C0DB01FC01AA0FBB1FEE1FFF1F109480
:10354000D1F76A0F7B1F8E1F9F1F31E003C033E04E
:1035500001C034E0660F771F881F991F3150D1F7E3
:10356000620F711D811D911D08950F931F93CF93BD
:10357000DF938C01C8018ED2EC0197FD06C061D2A9
:10358000892BC1F7B801CE01F5D2CE01DF91CF91E1
:103590001F910F9108958F929F92AF92CF92DF92D9
:1035A000EF92FF920F931F93CF93DF93EC01A62E20
:1035B0004A01022F6FD2AC0155274B32510521F041
:1035C0004D32510549F40068AA9411F480E060C0BE
:1035D000CE0160D297FDFACF102F1D7F302F3073B0
:1035E000F1F48033E1F4FF24FA94FA0C09F43DC0BD
:1035F000CE0150D297FD39C0382F3F7D383549F480
:103600001264AA94AA9489F1CE0144D297FF07C00C
:103610002CC006FF02C0126001C01261AF2CC12C89
:10362000D12C760120ED280F283078F014FF03C04C
:10363000BE01A0D217C02A3040F016FFF9CF2F7D6F
:103640003FEE320F3630A0F72750412FC701B601A9
:103650006CDF6B017C011260AA9451F0CE011AD28A
:1036600097FFE0CF11FD04C0B1CFC12CD12C760162
:1036700017FF08C0F094E094D094C094C11CD11CF2
:10368000E11CF11C212FB701A601C40142DF81E03A
:10369000DF91CF911F910F91FF90EF90DF90CF902E
:1036A000AF909F908F900895A1E2B0E0E9E5FBE133
:1036B0000DCA5C017A018E010F5F1F4F680180E225
:1036C000D8011D928A95E9F7F501738040E050E03A
:1036D000812CB0E0912C81E090E0F90173FCA59180
:1036E00073FEA1918F017A2F9F01A11103C080E089
:1036F00090E07BC0AE3519F44115510559F1E92D23
:10370000F0E0E417F5073CF4AD3569F1AD3219F49A
:10371000BB2319F103C0B11101C08A2EE72FE69532
:10372000E695E69586010E0F111DF801A72FA770EB
:103730008C0102C0000F111FAA95E2F7D801B081D9
:10374000BA2BB083781559F0781510F47F5FE6CF67
:103750007150E4CF9924939403C0B1E001C0B0E06C
:103760004F5F5F4FBACFBB2319F08E8180628E838B
:10377000911003C09924939415C0F601CE0181964F
:10378000208120952193E817F907D1F7F3CFE114B1
:10379000F10429F0D7018C93F70131967F01615034
:1037A000F1F0912CC50169A375D169A197FD15C0F0
:1037B000282F269526952695F601E20FF11D2081EA
:1037C00030E0AC014770552702C0359527954A95E2
:1037D000E2F720FDDCCFB501CDD1911088CFE11407
:1037E000F10411F0D7011C92C801A196EDE08AC93D
:1037F0004F925F927F928F929F92AF92BF92CF92A1
:10380000DF92EF92FF920F931F93CF93DF931F925C
:10381000CDB7DEB78C012B017A01FC01178216822D
:10382000A12CF801D380F201D3FC8591D3FE8191C4
:10383000382F2F01882309F4EEC090E0398301D19D
:103840003981892B19F0C80190DEEBCF353241F474
:10385000F201D3FC3591D3FE31912F01353259F469
:10386000C801398317D1398197FDD3C03817C9F200
:10387000B80180D1D0C03A3241F4D3FC3591D3FEA7
:1038800031912F01BB24B39401C0B12C712C20EDD8
:10389000230F2A3088F4FB2DF260BF2E672D70E0D5
:1038A00080E090E040E241DE762EF201D3FC3591DB
:1038B000D3FE31912F01EBCFB1FE03C0711003C0D5
:1038C000AAC077247A94383619F03C3661F014C0D7
:1038D000F201D3FC3591D3FE31912F01383661F4DA
:1038E000FB2DF860BF2E8B2D8460B82EF201D3FC27
:1038F0003591D3FE31912F01332309F48CC0632F0E
:1039000070E08AE793E13983A4D03981892B09F4E7
:1039100082C0B0FC07C0F701C080D180C701029609
:103920007C0102C0C12CD12C3E3649F4F8014681FD
:10393000578160E070E02B2DC601EBDD72CF33368E
:1039400099F4B1FC02C077247394C801A3D097FD09
:1039500060C0C114D10429F0F6018083C60101962C
:103960006C017A9491F751C03B3551F49201A60154
:10397000672DC80199DE2C01009709F046C040C0B0
:10398000C8013983F2DD398197FD43C03F3651F1DB
:1039900028F4343619F1393661F128C0333769F02B
:1039A0003537E1F023C0C114D10429F0F60180823B
:1039B000C60101966C017A9459F0C8016BD04C0194
:1039C00097FD06C03ED0892B71F3B801C401D2D057
:1039D000C114D104D1F0F601108217C0FB2DF062A2
:1039E000BF2E07C08B2D8061B82E03C09B2D906425
:1039F000B92E2B2DA601672DC801CDDD811105C083
:103A0000F8018381807329F406C0B0FC0ACFA39427
:103A100008CFAA2019F08A2D90E002C08FEF9FEF07
:103A20000F90DF91CF911F910F91FF90EF90DF905A
:103A3000CF90BF90AF909F908F907F905F904F906E
:103A4000089591110EC1803219F089508550D0F738
:103A50000895FC010590061621F00020D9F7C00159
:103A600008953197CF010895FC0105906150704091
:103A70000110D8F7809590958E0F9F1F0895FC0137
:103A80006150704001900110D8F7809590958E0F8D
:103A90009F1F0895CF93DF93EC012B8120FF33C04C
:103AA00026FF0AC02F7B2B838E819F8101969F83E7
:103AB0008E838A8190E029C022FF0FC0E881F981BE
:103AC0008081992787FD9095009719F420622B83B8
:103AD0001AC03196F983E8830EC0EA85FB85099503
:103AE00097FF09C02B81019611F480E101C080E2AB
:103AF000822B8B8308C02E813F812F5F3F4F3F83F6
:103B00002E83992702C08FEF9FEFDF91CF91089509
:103B10000F931F93CF93DF93182F092FEB018B8106
:103B200081FD03C08FEF9FEF20C082FF10C04E8148
:103B30005F812C813D81421753077CF4E881F98134
:103B40009F012F5F3F4F39832883108306C0E8858C
:103B5000F985812F0995892B29F72E813F812F5FC8
:103B60003F4F3F832E83812F902FDF91CF911F9165
:103B70000F910895FB01238120FF12C026FD10C084
:103B80008F3F3FEF930761F082832F7D2064238373
:103B9000268137812150310937832683992708955B
:103BA0008FEF9FEF0895FA01AA27283051F12031B5
:103BB00081F1E8946F936E7F6E5F7F4F8F4F9F4FC1
:103BC000AF4FB1E03ED0B4E03CD0670F781F891F03
:103BD0009A1FA11D680F791F8A1F911DA11D6A0FD1
:103BE000711D811D911DA11D20D009F468943F9184
:103BF0002AE0269F11243019305D3193DEF6CF0183
:103C00000895462F4770405D4193B3E00FD0C9F748
:103C1000F6CF462F4F70405D4A3318F0495D31FDB5
:103C20004052419302D0A9F7EACFB4E0A695979508
:103C3000879577956795BA95C9F7009761057105DE
:103C400008959B01AC010A2E069457954795379528
:103C50002795BA95C9F7620F731F841F951FA01D82
:103C60000895992788270895052E97FB16F4009448
:103C70000FD057FD05D024D007FC02D046F408C071
:103C800050954095309521953F4F4F4F5F4F089588
:103C900090958095709561957F4F8F4F9F4F0895B8
:103CA00031D0A59F900DB49F900DA49F800D911DC4
:103CB00011240895B7FFF4CFF3DF821B930B08950F
:103CC000A1E21A2EAA1BBB1BFD010DC0AA1FBB1F20
:103CD000EE1FFF1FA217B307E407F50720F0A21B92
:103CE000B30BE40BF50B661F771F881F991F1A94FF
:103CF00069F760957095809590959B01AC01BD0129
:103D0000CF010895A29FB001B39FC001A39F700D82
:103D1000811D1124911DB29F700D811D1124911DD3
:063D20000895F894FFCFA6
:103D260001000000313A2054696D65206B656570AD
:103D36006572207461736B3A2000323A20436F6DCE
:103D46006D207461736B3A2000333A20526564200B
:103D56004C4544207461736B3A2000343A2059650F
:103D66006C6C6F77204C4544207461736B3A20006D
:103D7600353A204A6974746572204C454420746152
:103D8600736B3A2000363A20477265656E204C45C3
:103D960044207461736B3A2000373A204772656598
:103DA6006E20636F756E74207461736B3A200038F1
:103DB6003A20486F756768207472616E732074616B
:103DC600736B3A20000D0A4578706572696D656EF1
:103DD600746174696F6E2064617461202D204D6971
:103DE6007373656420646561646C696E65733A20FB
:103DF6000D0A000D0A54696D652072756E20286DD6
:103E060073293A200D0A00257500200D0A0D0A2D8A
:103E16002D2D2D2D2D2D2D2D2D2D2D2D2D2D2D2DCC
:103E26002D2D2D2D2D2D2D2D2D2D2D2D2D2D2D2DBC
:103E36002D2D2D2D2D2D2D2D2D2D2D2D2D2D2D2DAC
:103E46002D2D2D2D2D2D2D2D2D2D2D0D0A20202006
:103E560020202020202020202020202020455850CF
:103E66004552494D454E544154494F4E204D454EBD
:103E760055200D0A2D2D2D2D2D2D2D2D2D2D2D2D94
:103E86002D2D2D2D2D2D2D2D2D2D2D2D2D2D2D2D5C
:103E96002D2D2D2D2D2D2D2D2D2D2D2D2D2D2D2D4C
:103EA6002D2D2D2D2D2D2D2D2D2D2D2D2D2D2D2D3C
:103EB6000D0A7020202020202020202D3E20507228
:103EC600696E7420636F6C6C6563746564206578D5
:103ED600706572696D656E7420646174610D0A6542
:103EE600203C6E756D3E20202D3E20536574757006
:103EF600206578706572696D656E74206E756D6289
:103F06006572203C6E756D3E28312D38290D0A727A
:103F1600203C6E756D3E20202D3E20536574207426
:103F2600686520677265656E204C45442074617330
:103F36006B20746F203C6E756D3E28312D343139FF
:103F46003429206D730D0A7A20202020202020207D
:103F56002D3E20526573657420616C6C2065787007
:103F66006572696D656E746174696F6E20646174E3
:103F7600610D0A6720202020202020202D3E20537E
:103F86007461727420746865206578706572696DF5
:103F9600656E74206A75737420636F6E66696775E3
:103FA6007265640D0A7120202020202020202D3EDD
:103FB6002051756974206D656E7520616E64206789
:103FC6006F206261636B20746F206E6F726D616C1F
:103FD600206D6F64650D0A2D2D2D2D2D2D2D2D2D6A
:103FE6002D2D2D2D2D2D2D2D2D2D2D2D2D2D2D2DFB
:103FF6002D2D2D2D2D2D2D2D2D2D2D2D2D2D2D2DEB
:104006002D2D2D2D2D2D2D2D2D2D2D2D2D2D2D2DDA
:104016002D2D2D0D0A000D0A57616974696E6720F2
:10402600666F72207573657220696E7075742E2EB8
:104036002E20000D0A596F75722063686F696365DB
:104046003A20002020200D0A002563202564002D3B
:104056002D2D2D2D205072696E74696E6720616C4E
:104066006C206578706572696D656E742064617424
:1040760061202D2D2D2D2D0D0A003C6E756D3E20D7
:104086006F7574206F662072616E67652E0D0A006B
:104096004578706572696D656E7420697320736505
:1040A600747570202620726561647920746F2072A1
:1040B600756E2E0D0A005265636F6E6669677572BE
:1040C600656420677265656E204C45442074617393
:1040D6006B2E0D0A00416C6C206578706572696DF7
:1040E600656E7420646174612072657365742E0D4B
:1040F6000A004578706572696D656E742073746127
:10410600727465642E0D0A005175697474696E6760
:10411600206D656E752E2E2E0D0A00496E76616C29
:104126006964207573657220696E7075742C2074CD
:0C413600727920616761696E2E0D0A002D
:00000001FF
