:10000000BEC10000D9C10000D7C10000D5C10000A9
:10001000D3C10000D1C10000CFC10000CDC100009C
:10002000CBC10000CDC30000C7C10000C5C10000A6
:10003000C3C10000C1C10000BFC10000BDC10000BC
:10004000BBC10000B9C1000025C30000B5C100005C
:10005000B3C100004CC20000AFC10000ADC1000040
:10006000ABC100000C94D40AA7C100000C943A0B59
:10007000A3C10000A1C100009FC100009DC10000FC
:1000800052C3000099C1000097C1000095C1000053
:1000900093C1000091C100008FC100008DC100001C
:1000A0008BC1000089C1000087C10000200D0A0D2E
:1000B0000A2D2D2D2D2D2D2D2D2D2D2D2D2D2D2D93
:1000C0002D2D2D2D2D2D2D2D2D2D2D2D2D2D2D2D60
:1000D0002D2D2D2D2D2D2D2D2D2D2D2D2D2D2D2D50
:1000E0002D2D2D2D2D2D2D2D2D2D2D2D2D0D0A2090
:1000F00020202020202020202020202020202045DB
:1001000058504552494D454E544154494F4E204D4B
:10011000454E55200D0A2D2D2D2D2D2D2D2D2D2DFE
:100120002D2D2D2D2D2D2D2D2D2D2D2D2D2D2D2DFF
:100130002D2D2D2D2D2D2D2D2D2D2D2D2D2D2D2DEF
:100140002D2D2D2D2D2D2D2D2D2D2D2D2D2D2D2DDF
:100150002D2D0D0A7020202020202020202D3E2033
:100160005072696E7420636F6C6C65637465642093
:100170006578706572696D656E7420646174610D77
:100180000A65203C6E756D3E20202D3E205365741F
:100190007570206578706572696D656E74206E7516
:1001A0006D626572203C6E756D3E28312D38290DCB
:1001B0000A72203C6E756D3E20202D3E20536574E2
:1001C0002074686520677265656E204C4544207414
:1001D00061736B20746F203C6E756D3E28312D3439
:1001E00031393429206D730D0A7A202020202020F7
:1001F00020202D3E20526573657420616C6C206553
:1002000078706572696D656E746174696F6E206473
:100210006174610D0A6720202020202020202D3EBF
:1002200020537461727420746865206578706572FB
:10023000696D656E74206A75737420636F6E66698C
:1002400067757265640D0A7120202020202020200F
:100250002D3E2051756974206D656E7520616E6448
:1002600020676F206261636B20746F206E6F726D08
:10027000616C206D6F64650D0A2D2D2D2D2D2D2D9A
:100280002D2D2D2D2D2D2D2D2D2D2D2D2D2D2D2D9E
:100290002D2D2D2D2D2D2D2D2D2D2D2D2D2D2D2D8E
:1002A0002D2D2D2D2D2D2D2D2D2D2D2D2D2D2D2D7E
:1002B0002D2D2D2D2D0D0A005C03440332031D034B
:1002C0000803F402DE02C802383A20486F756768F6
:1002D000207472616E73207461736B3A0900373A4F
:1002E00020477265656E20636F756E74207461734C
:1002F0006B3A0900363A20477265656E204C4544DA
:10030000207461736B3A0900353A204A6974746548
:1003100072204C4544207461736B3A0900343A20D2
:1003200059656C6C6F77204C4544207461736B3A4F
:100330000900333A20526564204C454420746173AF
:100340006B3A0900323A20436F6D6D756E696361D7
:1003500074696F6E207461736B3A0900313A2054EE
:10036000696D65206B6565706572207461736B3AA9
:1003700009006364696E6F70737578585B001124AF
:100380001FBECFEFDAE0DEBFCDBF12E0A0E0B1E0EC
:10039000E4E2FFE202C005900D92A439B107D9F75B
:1003A00023E0A4E9B2E001C01D92A535B207E1F750
:1003B0000E94980D0C94901723CE10924503109232
:1003C000460310924703109248031092490310927B
:1003D0004A0310924B0310924C0310923B0310926D
:1003E0003C0310923D0310923E0310923F03109283
:1003F000400310924103109242031092380310926E
:100400003A0310923903109244031092430381E49B
:100410008093320383E290E090933403809333031C
:1004200088E08093350381E090E0909337038093D8
:10043000360384E690E090934E0380934D0324E0CE
:1004400030E03093520320935103909350038093F4
:100450004F0342E360E070E080EA90E41BC485B1A2
:1004600090E1892785B9089583E04DD78823E9F085
:100470000E94AA0A8823C9F081E090E040D3882333
:10048000A1F082E4B9D442E360E070E080EA90E455
:1004900001D4882351F089E190E0DCD4882329F04D
:1004A00081E090E0FCD7811103C080E090E05FC262
:1004B000089585B1806585B95E9A479A5D980895DB
:1004C00085B18F7A85B95E9847985D9A089584B111
:1004D000806584B9569AEDDF2FEF83ED90E32150CC
:1004E00080409040E1F700C00000EADF66CF1F9235
:1004F0000F920FB60F921124AF92BF92CF92DF925C
:10050000EF92FF920F931F932F933F934F935F931D
:100510006F937F938F939F93AF93BF93CF93DF930B
:10052000EF93FF9320914503309146034091470399
:10053000509148036091490370914A0380914B03A5
:1005400090914C03A1E00E94B50E20934503309397
:1005500046034093470350934803609349037093C5
:100560004A0380934B0390934C030E94670C80E0F6
:1005700090E00E948A0BD0914503C0914603B09150
:100580004703A0914803F0914903E0914A03809109
:100590004B0390914C0300914D0310914E03580171
:1005A000C12CD12CE12CF12C00E010E02D2F3C2FA0
:1005B0004B2F5A2F6F2F7E2F0E94020EA0E00E9419
:1005C000CA0E99F48091390390913A03892B21F056
:1005D00082E090E00E949C0B8091390390913A0355
:1005E000019690933A0380933903D0914503C091CB
:1005F0004603B0914703A0914803F0914903E0916D
:100600004A0380914B0390914C0300914F0310914A
:1006100050035801C12CD12CE12CF12C00E010E04A
:100620002D2F3C2F4B2F5A2F6F2F7E2F0E94020E03
:10063000A0E00E94CA0E99F4809143039091440374
:10064000892B21F087E090E00E949C0B809143036E
:100650009091440301969093440380934303FF9148
:10066000EF91DF91CF91BF91AF919F918F917F914A
:100670006F915F914F913F912F911F910F91FF903B
:10068000EF90DF90CF90BF90AF900F900FBE0F9084
:100690001F9018951F920F920FB60F9211242F934F
:1006A0003F934F935F936F937F938F939F93AF93FA
:1006B000BF93EF93FF9386E090E00E948A0B209116
:1006C0003B0330913C0340913D0350913E036091C8
:1006D0003F03709140038091410390914203A1E058
:1006E0000E94B50E20933B0330933C0340933D039F
:1006F00050933E0360933F03709340038093410304
:1007000090934203FF91EF91BF91AF919F918F9191
:100710007F916F915F914F913F912F910F900FBEFD
:100720000F901F9018951F920F920FB60F921124E1
:100730002F933F934F935F936F937F938F939F93E9
:10074000AF93BF93EF93FF93809138038F5F8093B4
:1007500038038091380390E0609151037091520307
:100760000E94DB0D892B39F483E090E0D3D78BB165
:1007700090E489278BB90E947B1165E070E00E94AC
:10078000EF0D049761F484E090E0C4D77894479A21
:100790008FE19EE40197F1F700C000004798FF91B8
:1007A000EF91BF91AF919F918F917F916F915F91E9
:1007B0004F913F912F910F900FBE0F901F90189562
:1007C0001F920F920FB60F9211242F933F934F93C6
:1007D0005F936F937F938F939F93AF93BF93EF93A9
:1007E000FF93E0913303F09134032081809135032E
:1007F000282381E090E011F480E090E0209136031E
:100800003091370321303105C9F40097B9F42FEF47
:1008100089EF90E0215080409040E1F700C0000057
:10082000E0913303F0913403808190913503892363
:1008300051F5109237031092360325C020913603EC
:1008400030913703232BF9F40197E9F42FEF89EF67
:1008500090E0215080409040E1F700C0000081E02E
:1008600090E090933703809336036FD07AD083E083
:1008700061D581E090E04ED778940E947E0C5FD0E5
:100880006AD083E040D5FF91EF91BF91AF919F91E6
:100890008F917F916F915F914F913F912F910F9029
:1008A0000FBE0F901F90189582B7806882BF82B7E5
:1008B000806282BF82B78F7E82BF82B78A6082BF2A
:1008C00082B78A7F82BF89B58F7E89BD89B58260F4
:1008D00089BD0895479A5D9A2FEF43EC59E0215066
:1008E00040405040E1F700C000008CE090E030E272
:1008F00028B1205828B92BB123272BB92FEF41EE6F
:1009000054E0215040405040E1F700C00000019702
:10091000009771F747985D9A08952FEF81EE94E064
:10092000215080409040E1F700C000003F9A559A66
:1009300084B1867F84B985B1896085B9CBCFEEE675
:10094000F0E08081826080830895EEE6F0E08081AF
:100950008D7F80830895E1E7F0E08081826080836D
:100960000895E1E7F0E080818D7F80830895F89419
:10097000209A009721F0019719F45D9A01C0479AD7
:100980002898FFCFAAE0B0E0E8ECF4E00C94600E09
:1009900078876F8369017A01BC0180E090E00E9452
:1009A0000D109B01AC0160E070E08AE794E40E94C6
:1009B0003F0F9B01AC0160E074E284E79BE40E947E
:1009C0003F0F0E94AC0FF22FE32F49875A876B83AA
:1009D0007C838D839E8316012701612C712C43013A
:1009E00056016201E12CF12C00E010E00E94C10EE2
:1009F00048F4CF01AF81B8859C9311968C9381E028
:100A000090E079C02F2F3E2F49855A856B817C81DC
:100A10008D819E8103E00E94990ED90151016201EE
:100A2000E12CF12C00E010E00E94C10E38F4EF81BF
:100A3000F885A083B18388E090E05DC02F2F3E2F22
:100A400049855A856B817C818D819E8106E00E945B
:100A5000990ED90151016201E12CF12C00E010E066
:100A60000E94C10E50F49A2F8B2FAF81B8859C93B2
:100A700011968C9380E490E03EC02F2F3E2F498545
:100A80005A856B817C818D819E8108E00E94990E40
:100A9000D90151016201E12CF12C00E010E00E942B
:100AA000C10E38F4EF81F885A083B18380E091E036
:100AB00022C02F2F3E2F49855A856B817C818D81E5
:100AC0009E810AE00E94990EF22FE32F51016201EC
:100AD000E12CF12C00E010E00E94C10E48F4CF019F
:100AE000AF81B8859C9311968C9380E094E003C00D
:100AF00080E090E03CDF2A96E2E10C947C0EA2E0DC
:100B0000B0E0E5E8F5E00C94700E20E031E040E064
:100B100050E0BE016F5F7F4F35DF009709F444C09E
:100B200016BC24B52F7324BD25B5277F25BD24B55C
:100B3000226024BD24B52E7F24BD2981215027BDEC
:100B400020916E00226020936E0088309105A9F0FC
:100B500040F4019719F585B5897F85BD85B581601C
:100B600011C080349105A1F081159140B9F485B58B
:100B7000846085BD85B58C7F05C085B58A7F85BDC0
:100B800085B5826085BD81E02296E2E00C948C0EF2
:100B900085B58B7F85BD85B58360F4CF85B58560D0
:100BA00085BD85B58D7FEECF80E090E0E0DEA2E0F0
:100BB000B0E0EDEDF5E00C94700E20E030E041E0A7
:100BC00050E0BE016F5F7F4FDDDE009709F45FC02C
:100BD000109285001092840020918100286020935B
:100BE0008100209181002F7E209381002091800040
:100BF0002C7F2093800029813A8121503109309344
:100C000089002093880020916F00226020936F005C
:100C100088309105D9F058F4019781F580918100D1
:100C2000897F8093810080918100816017C080342A
:100C30009105D9F08115914009F58091810084607A
:100C400080938100809181008C7F08C08091810019
:100C50008A7F8093810080918100826080938100EF
:100C600081E02296E2E00C948C0E809181008B7FD3
:100C700080938100809181008360F0CF809181001A
:100C8000856080938100809181008D7FE7CF80E037
:100C900090E06DDEA2E0B0E0E0E5F6E00C94690ED5
:100CA000B42E9B01AC010E94D70E9B01AC0160E009
:100CB00070E08AE794E40E943F0F0E94E10FDC019C
:100CC000CB0120E030E041E050E0BE016F5F7F4F9C
:100CD00059DE8C01009709F46CC080918100887FF7
:100CE0008093810010928500109284008091810091
:100CF00080618093810080918100877F8093810053
:100D0000809180008C7F8093800089819A8190936C
:100D1000870080938600809180008071809380009E
:100D20008091800080628093800084E68B1508F4B7
:100D300040C069817A8180E090E00E940D106B01D3
:100D40007C016B2D70E080E090E00E940D109B0113
:100D5000AC01C701B6010E94CF1020E030E048ECA2
:100D600052E40E943F0F0E94E10F70938B0060934A
:100D70008A000830110501F160F40130110571F5A8
:100D800080918100897F80938100809181008160C2
:100D90002DC000341105C9F0011581E01807F1F4E8
:100DA00080918100846080938100809181008C7F9C
:100DB0001DC080E090E0DBDD809181008A7F809320
:100DC000810080918100826011C0809181008B7FC1
:100DD0008093810080918100836008C080918100B0
:100DE000856080938100809181008D7F8093810058
:100DF00081E02296E9E089C7823441F0833451F0E2
:100E0000813471F480916F00826007C080916F001F
:100E1000846003C080916F00886080936F000895A4
:100E200080E090E0A4DD823441F0833451F08134DD
:100E300071F480916F008D7F07C080916F008B7F70
:100E400003C080916F00877F80936F00089580E0DA
:100E500090E08DDDA2E0B0E0EFE2F7E041C720E0F6
:100E600030E041E050E0BE016F5F7F4F8BDD0097C7
:100E700009F45EC0109295001092940020919100A8
:100E8000286020939100209191002F7E2093910063
:100E9000209190002C7F2093900029813A8121504D
:100EA00031093093990020939800209171002260BD
:100EB0002093710088309105D9F058F4019779F5A5
:100EC00080919100897F8093910080919100816051
:100ED00017C080349105D1F08115914001F58091C2
:100EE0009100846080939100809191008C7F08C074
:100EF000809191008A7F809391008091910082601F
:100F00008093910081E02296E2E006C780919100F3
:100F10008B7F80939100809191008360F1CF8091CD
:100F20009100856080939100809191008D7FE8CF42
:100F300080E090E01CDD8F929F92AF92BF92CF92A3
:100F4000DF92EF92FF92CF93C42F9B01AC0160E040
:100F500074E284E79CE493D76B017C01A5DC80916B
:100F6000C00080628093C0008091C0008F7E80931B
:100F7000C0008091C00081608093C0008091C30058
:100F80008D7F8093C3008091C30081608093C300F4
:100F900020E030E040E854E4C701B6016CD787FF99
:100FA00009C08091C100817F8093C1008091C10000
:100FB00081606EC120E030E040E05FE3C701B60130
:100FC0000E94CF104B015C0120E030E040E854E487
:100FD00052D787FF09C08091C100827F8093C100F2
:100FE0008091C100826037C120E030E040E85EE3DC
:100FF000C701B6010E94CF104B015C0120E030E038
:1010000040E854E438D787FF0EC08091C100837F49
:101010008093C1008091C10082608093C100809163
:10102000C100816018C120E030E040E05EE3C7010C
:10103000B6010E94CF1020E030E040E854E41BD716
:1010400087FF09C08091C100837F8093C100809198
:10105000C100836000C120E030E040E85DE3C701EB
:10106000B6010E94CF104B015C0120E030E040E867
:1010700054E401D787FF09C08091C1008460809348
:10108000C1008091C100847FE6C020E030E040E0F4
:101090005DE3C701B6010E94CF104B015C0120E067
:1010A00030E040E854E4E7D687FF09C08091C100F2
:1010B000857F8093C1008091C1008560CCC020E015
:1010C00030E040E85CE3C701B6010E94CF104B015D
:1010D0005C0120E030E040E854E4CDD687FF09C051
:1010E0008091C100867F8093C1008091C10086609D
:1010F000B2C020E030E040E05CE3C701B6010E94EE
:10110000CF104B015C0120E030E040E854E4B3D65E
:1011100087FF09C08091C100877F8093C1008091C3
:10112000C100876098C020E030E040E85BE3C70181
:10113000B6010E94CF104B015C0120E030E040E896
:1011400054E499D687FF09C08091C10088608093DC
:10115000C1008091C100887F7EC020E030E040E087
:101160005BE3C701B6010E94CF104B015C0120E098
:1011700030E040E854E47FD687FF09C08091C10089
:1011800089608093C1008091C100897F64C020E0A4
:1011900030E040E85AE3C701B6010E94CF104B018E
:1011A0005C0120E030E040E854E465D687FF09C0E8
:1011B0008091C1008B7F8093C1008091C1008B60C2
:1011C0004AC020E030E040E05AE3C701B601E7D76B
:1011D0004B015C0120E030E040E854E44CD687FF4E
:1011E00009C08091C1008C608093C1008091C100D2
:1011F0008C7F31C020E030E040E859E3C701B60100
:10120000CED74B015C0120E030E040E854E433D617
:1012100087FF09C08091C1008D608093C1008091DB
:10122000C1008D7F18C020E030E040E059E3C701E5
:10123000B601B5D74B015C0120E030E040E854E452
:101240001AD687FF0DC08091C1008E608093C100C7
:101250008091C1008E7F8093C100C501B4011CC084
:1012600020E030E040E858E3C701B60198D76B01B1
:101270007C0120E030E040E854E4FDD587FF40C029
:101280008091C1008C608093C1008091C100836017
:101290008093C100C701B60194D67093BF006093DC
:1012A000D100C53618F580E090E0B7D66B017C011F
:1012B0006C2F70E080E090E0B0D69B01AC01C701DC
:1012C000B6016DD720E030E048EC52E4D8D579D6AD
:1012D0007093BF006093D000CF91FF90EF90DF90AC
:1012E000CF90BF90AF909F908F9008958091C10054
:1012F000837F8093C1008091C1008C7F8093C10067
:1013000080E090E034DB90916800916090936800F9
:10131000883018F080E090E02ADB90916B0021E0AB
:1013200030E001C0220F8A95EAF7922B90936B0070
:1013300081E00895909168009E7F909368008830C6
:1013400070F490916B0021E030E0082E01C0220F74
:101350000A94EAF72095292320936B00089580E0F2
:1013600090E005DB1092CE021092CD0210920203A3
:101370001092010310929A02109295021092940218
:10138000109297021092960210929902109298026F
:1013900008951092CE021092CD0210920203109284
:1013A0000103089580919B028093CE0081E0809399
:1013B000CE020895CF93DF93EC0180919A0283309F
:1013C00018F082E090E0D3DA809194029091950237
:1013D000892B79F08091960290919702892B61F088
:1013E0008091980290919902892BA9F422E030E033
:1013F00005C020E030E002C021E030E0F901EE0F4E
:10140000FF1FEC56FD4FD183C08380919A028F5FFE
:1014100080939A0202C023E030E0822FDF91CF91C7
:101420000895E82FF0E0EE0FFF1FEC56FD4F1182FC
:101430001082EAE9F2E0808181508083089500976C
:1014400019F00197A1F029C0CB010197029748F448
:101450008091C90080618093C9006230710519F0E4
:101460001AC0672BC1F48091C900886012C0CB01FB
:101470000197029748F48091C9008F7E8093C9003C
:101480006230710519F007C0672B29F48091C900FB
:10149000877F8093C90081E0089580E00895CF930D
:1014A000DF93EC015FDF8091CA008F7C8093CA00DC
:1014B0008091CA00877F8093CA008091C9008B7F8A
:1014C0008093C9008091CA0086608093CA00809191
:1014D000C9008C7F8093C9008091CA008E7F809361
:1014E000CA008091CB008C7F8093CB00209761F065
:1014F0002197F9F480E190E09093CD008093CC00A7
:101500008091C800826009C087E090E09093CD0090
:101510008093CC008091C8008D7F8093C80080911B
:10152000C8008E7F8093C8008091CA008F7380931B
:10153000CA0062E070E080E090E081DFDF91CF914F
:101540000895E0910103F0E0E153FD4F8081809325
:10155000CE000895E9ECF0E08081806C808381E02A
:101560000895E9ECF0E080818F73808381E0089535
:10157000A1E0B0E0EDEBFAE0B1C3182F0091C90093
:101580009983EFDFE12F9981F92F8191882339F039
:101590009091C80095FFFCCF8093CE00F6CF0093CA
:1015A000C9002196E4E0B6C31F920F920FB60F92C6
:1015B00011242F933F934F935F936F937F938F9358
:1015C0009F93AF93BF93CF93DF93EF93FF9380915C
:1015D0000103823310F0109201038091CE00E0915C
:1015E0000103F0E0E153FD4F8083ABDF90910103F5
:1015F000E92FF0E0E153FD4F80818D3011F08A300A
:10160000E9F4108280919A02882309F1C0E0D0E0C9
:10161000FE01EE0FFF1FEC56FD4F80819181892B5B
:1016200041F00190F081E02D61E073E08FEC92E0F9
:1016300009952196C330D10559F709C0883011F0BA
:101640008F3711F4915001C09F5F90930103FF9178
:10165000EF91DF91CF91BF91AF919F918F917F914A
:101660006F915F914F913F912F910F900FBE0F900F
:101670001F9018951F920F920FB60F9211248F93FF
:101680009F93EF93FF938091CE029091CD028917A3
:1016900050F4E82FF0E0E556FD4F90819093CE0096
:1016A0008F5F8093CE02FF91EF919F918F910F906A
:1016B0000FBE0F901F901895109203031092040311
:1016C000109206031092050310920803109207036C
:1016D0000E94DD0180E090E025E0289FF001299F35
:1016E000F00D1124ED5FFC4F1086178212861186D3
:1016F000868301968830910581F7089581E0809373
:10170000040380910503909106039093080380934E
:101710000703089520910403222369F025E0289F00
:10172000F001299FF00D1124ED5FFC4F818592851A
:10173000019692878187089520910403222369F0FE
:1017400025E0289FF001299FF00D1124ED5FFC4F4B
:10175000878190850196908787830895209105035E
:10176000309106038091070390910803281B390BE1
:101770006091530370915403E0912A03F0912B037D
:10178000C90119D26E1B7F0B1616170624F470932D
:101790002903609328036091530370915403C90196
:1017A0000AD270932603609325030895ADE2B0E05A
:1017B000EBEDFBE088C2D2DF84E091E0D9DE8091DE
:1017C00003031F928F9388E1E82E81E0F82EFF92A9
:1017D000EF928E01065E1F4F1F930F93A1D5C80194
:1017E000C7DE8BE191E0C4DE809105039091060392
:1017F0002091070330910803821B930B9F938F93D3
:10180000FF92EF921F930F938BD5C801B1DE89E34E
:1018100091E0AEDE98EB692E92E0792E0FB6F89447
:10182000DEBF0FBECDBFE12CF12C25E0522E3EE4F1
:10183000832E31E0932E48E1A42E41E0B42EF30133
:1018400065917491CE01019664D5CE01019690DE2A
:1018500082E491E08DDE5E9C60015F9CD00C1124DF
:10186000F601ED5FFC4F6F01818592859F938F9309
:101870009F928F921F930F9353D5C80179DE82E513
:1018800091E076DE85E591E073DEF6018781908553
:101890009F938F93BF92AF921F930F9341D5C8012F
:1018A00067DE8DE391E064DEFFEFEF1AFF0A82E06E
:1018B000680E711C0FB6F894DEBF0FBECDBFF8E006
:1018C000EF16F10409F0BBCFAD96EFE018C280919E
:1018D0000403882391F08091070390910803892BDA
:1018E00051F08091070390910803019790930803AA
:1018F000809307030895109204030895A5E0B0E0D3
:10190000E3E8FCE0EAC145DD62E070E080E090E001
:1019100096DD82E09DE04EDDF82E1A820CEA10E0A2
:10192000F80184918983CE01019622DE0F5F1F4F5B
:10193000F2E0073B1F07A1F710E00CE380913103B1
:10194000811113C0812F602F2AD1911103C08BE622
:1019500091E00EDE2FEF89E698E121508040904023
:10196000E1F700C000001F5FE9CF8F2D5ADD109214
:1019700031032596E5E0CDC1A1E0B0E0E1ECFCE06B
:10198000AFC1898399DE8981813021F0A0F189304E
:10199000B0F131C08093030380E69AEE9093060382
:1019A0008093050384EF91E090934E0380934D0361
:1019B00024E130E0309352032093510324E630E0D9
:1019C0003093500320934F03909354038093530319
:1019D0006091530370915403660F771F80E090E08D
:1019E0001CD39B01AC0160E070E08AE794E447D22D
:1019F00042E350D904C082E090E00E94B7042196EF
:101A0000E2E08AC1A3E0B0E0E7E0FDE067C1182FA3
:101A1000092F61E070E081E090E011DD88E891E05D
:101A2000A7DD812F902FA4DD88E991E0A1DD9E0143
:101A30002F5F3F4F3F932F932E5F3F4F3F932F9347
:101A40002EE931E03F932F930F931F9388D40FB665
:101A5000F894DEBF0FBECDBF181619060CF064C097
:101A60002B812037B1F054F42536C1F0273609F028
:101A70005BC044DE89E492E07BDD40C0223709F19F
:101A80000CF43CC02A3709F04FC016DE8CE292E01D
:101A90004DC084EA91E06CDD89DE36C0029709F022
:101AA00043C089819A819C01215031092830310538
:101AB00020F081ED91E05CDD37C05EDF87EE91E0E4
:101AC00035C0029789F569817A81CB010197823609
:101AD000904178F7882777FD8095982FA0D29B01B9
:101AE000AC0165D19B01AC0160E070E08AE794E451
:101AF000C6D142E3CFD88DE092E018C08FE592E0E6
:101B000037DD81E08093310380913103811108C07A
:101B10008BE691E02DDD61E070E080E090E08FDC0D
:101B200038DC2396E4E0F6C082E792E021DDECCFDA
:101B30000E948D040E9467020E9434027894809172
:101B4000390390913A03892B71F00E942F0282E0B1
:101B500090E0E0DD8091390390913A0301979093F2
:101B60003A03809339038091430390914403892B76
:101B700031F32FE78FEA92E0215080409040E1F767
:101B800000C0000087E090E0C5DD809143039091A4
:101B9000440301979093440380934303D0CF991B50
:101BA00079E004C0991F961708F0961B881F7A9554
:101BB000C9F780950895AA1BBB1B51E107C0AA1F56
:101BC000BB1FA617B70710F0A61BB70B881F991FDE
:101BD0005A95A9F780959095BC01CD01089597FB82
:101BE000072E16F4009406D077FD08D0E4DF07FC3A
:101BF00005D03EF4909581959F4F0895709561951D
:101C00007F4F0895689401C0E8948F929F92CF937C
:101C1000DF9305D0DF91CF919F908F900895882416
:101C20009924F401E401B0E49F93AA279A158B0448
:101C30009C04ED05FE05CF05D007A10798F4AD2F54
:101C4000DC2FCF2FFE2FE92D982C892E982F872F50
:101C5000762F652F542F432F322F2227B85031F77C
:101C6000BF9127C01B2EBF91BB27220F331F441FDC
:101C7000551F661F771F881F991F881C991CEE1F10
:101C8000FF1FCC1FDD1FAA1FBB1F8A149B04EC057E
:101C9000FD05CE05DF05A007B10748F08A189B08AF
:101CA000EC09FD09CE09DF09A00BB10B21601A94E4
:101CB000E1F62EF49401AF01BE01CD01000C0895B0
:101CC0002F923F924F925F926F927F928F929F924C
:101CD000AF92BF92CF92DF92EF92FF920F931F933A
:101CE000CF93DF93CDB7DEB7CA1BDB0B0FB6F894EB
:101CF000DEBF0FBECDBF09942A88398848885F842B
:101D00006E847D848C849B84AA84B984C884DF809B
:101D1000EE80FD800C811B81AA81B981CE0FD11D7F
:101D20000FB6F894DEBF0FBECDBFED01089597FB4F
:101D300010F8169400080F93083098F00850232FDD
:101D4000342F452F562F672F782F892F902DF4CFC2
:101D50000594979587957795679557954795379506
:101D600027950A95AAF70F9108950024A7FD0094DE
:101D70002A0F301D401D501D601D701D801D901DBF
:101D800008952A153B054C055D056E057F05800706
:101D9000910708950024A7FD00942A1730054005F7
:101DA0005005600570058005900508955058BB27C3
:101DB000AA270ED0BAC1ABD130F0B0D120F031F4A7
:101DC0009F3F11F41EF490C10EF4E095E7FB86C12D
:101DD000E92FBCD180F3BA17620773078407950710
:101DE00018F071F49EF5D4C10EF4E0950B2EBA2FC5
:101DF000A02D0B01B90190010C01CA01A001112411
:101E0000FF27591B99F0593F50F4503E68F11A16BC
:101E1000F040A22F232F342F4427585FF3CF46954D
:101E200037952795A795F0405395C9F77EF41F166F
:101E3000BA0B620B730B840BBAF09150A1F0FF0F39
:101E4000BB1F661F771F881FC2F70EC0BA0F621F25
:101E5000731F841F48F4879577956795B795F79515
:101E60009E3F08F0B3CF9395880F08F09927EE0FA7
:101E70009795879508950ED108F481E008950CD0C8
:101E800054C14CD140F043D130F021F45F3F19F000
:101E900025C151117EC128C159D198F39923C9F3A5
:101EA0005523B1F3951B550BBB27AA276217730760
:101EB000840738F09F5F5F4F220F331F441FAA1F14
:101EC000A9F333D00E2E3AF0E0E830D091505040D4
:101ED000E695001CCAF729D0FE2F27D0660F771F82
:101EE000881FBB1F261737074807AB07B0E809F064
:101EF000BB0B802DBF01FF2793585F4F2AF09E3FF9
:101F0000510568F0EBC045C15F3FECF3983EDCF350
:101F1000869577956795B795F7959F5FC9F7880F71
:101F2000911D9695879597F90895E1E0660F771FC3
:101F3000881FBB1F621773078407BA0720F0621B54
:101F4000730B840BBA0BEE1F88F7E0950895BEE380
:101F500004D008F490E80895BFE322273327A901AD
:101F6000FDD058F19F5740F1B91738F1BFE3B91BC5
:101F70009927B8503AF4660F771F881F991FB395B9
:101F8000D2F316C0B8504AF0232F342F452F562FC6
:101F9000672F782F8827B850BAF7B85F49F0869531
:101FA000779567955795479537952795BA95B9F7DA
:101FB0000EF49DD088940895889460E070E0CB0181
:101FC0000895CCD088F09F5790F0B92F9927B7513A
:101FD000A0F0D1F0660F771F881F991F1AF0BA95ED
:101FE000C9F712C0B13081F0D3D0B1E00895D0C0AC
:101FF000672F782F8827B85F39F0B93FCCF38695E3
:1020000077956795B395D9F73EF49095809570953F
:1020100061957F4F8F4F9F4F0895E89409C097FBBC
:102020003EF490958095709561957F4F8F4F9F4FAF
:102030009923A9F0F92F96E9BB279395F6958795F3
:1020400077956795B795F111F8CFFAF4BB0F11F4B6
:1020500060FF1BC06F5F7F4F8F4F9F4F16C088235D
:1020600011F096E911C0772321F09EE8872F762F93
:1020700005C0662371F096E8862F70E060E02AF0D4
:102080009A95660F771F881FDAF7880F96958795C0
:1020900097F90895990F0008550FAA0BE0E8FEEF95
:1020A00016161706E807F907C0F012161306E4071C
:1020B000F50798F0621B730B840B950B39F40A2615
:1020C00061F0232B242B252B21F408950A2609F4F3
:1020D000A140A6958FEF811D811D089597F99F67F7
:1020E00080E870E060E008959FEF80EC089590959F
:1020F00080957095609550954095309521953F4F0E
:102100004F4F5F4F6F4F7F4F8F4F9F4F089500246A
:102110000A941616170618060906089500240A944C
:1021200012161306140605060895092E0394000CD2
:1021300011F4882352F0BB0F40F4BF2B11F460FF61
:1021400004C06F5F7F4F8F4F9F4F089557FD90588A
:10215000440F551F59F05F3F71F04795880F97FB6B
:10216000991F61F09F3F79F0879508951216130625
:102170001406551FF2CF4695F1DF08C01616170654
:102180001806991FF1CF8695710561050894089589
:10219000E894BB2766277727CB0197F908950BD0E2
:1021A000C4CFB5DF28F0BADF18F0952309F096CF39
:1021B0009BCF1124EECFCADFA0F3959FD1F3950FEB
:1021C00050E0551F629FF001729FBB27F00DB11DBB
:1021D000639FAA27F00DB11DAA1F649F6627B00D4B
:1021E000A11D661F829F2227B00DA11D621F739F34
:1021F000B00DA11D621F839FA00D611D221F749F42
:102200003327A00D611D231F849F600D211D822F88
:10221000762F6A2F11249F5750408AF0E1F08823CF
:102220004AF0EE0FFF1FBB1F661F771F881F9150DC
:102230005040A9F79E3F510570F050CFAACF5F3FA5
:10224000ECF3983EDCF3869577956795B795F7950F
:10225000E7959F5FC1F7FE2B880F911D9695879597
:1022600097F908958F929F92AF92BF92CF92DF928B
:10227000EF92FF92CF93DF93EC01688179818A819D
:102280009B81611571058105910521F464E279ED69
:102290008BE597E02DE133EF41E050E0E4D54901D3
:1022A0005A019B01AC01A7EAB1E4F9D56B017C01AD
:1022B000ACEEB4EFA5019401FED5C60ED71EE81E04
:1022C000F91EF7FE06C081E0C81AD108E10880E8CF
:1022D000F80AC882D982EA82FB82C6019F77DF9121
:1022E000CF91FF90EF90DF90CF90BF90AF909F90F5
:1022F0008F900895B7CF80E091E0B4CFA0E0B0E038
:102300008093000190930101A0930201B093030117
:102310000895FB01DC0105900D920020E1F708957E
:10232000AEE0B0E0E5E9F1E1D9CC0D891E8986E0A7
:102330008C831A8309838FEF9FE79E838D83AE0181
:10234000475E5F4F6F89788DCE0101961ED0EF8179
:10235000F885E00FF11F10822E96E4E0DBCCAEE0B2
:10236000B0E0E4EBF1E1BCCC85E08C838B899C8907
:102370009A838983AE01495E5F4F6D897E89CE0164
:10238000019635D32E96E2E0C7CCACE0B0E0EAECA3
:10239000F1E196CC7C016B018A01FC011782168267
:1023A000838181FFB0C1CE0101964C01F701938179
:1023B000F60193FD859193FF81916F01882309F4C4
:1023C0009EC1853239F493FD859193FF81916F0110
:1023D000853221F4B70190E09AD4E8CF512C312C0A
:1023E00020E02032A0F48B3269F030F4803259F0D2
:1023F000833269F420612CC08D3239F0803339F496
:10240000216026C02260246023C0286021C027FDEF
:1024100027C030ED380F3A3078F426FF06C0FAE0D6
:102420005F9E300D1124532E13C08AE0389E300D6C
:102430001124332E20620CC08E3221F426FD5FC1A0
:10244000206406C08C3611F4206802C0883641F43E
:10245000F60193FD859193FF81916F018111C1CFA9
:10246000982F9F7D9554933028F40C5F1F4FFFE306
:10247000F9830DC0833631F0833771F0833509F06D
:1024800057C021C0F801808189830E5F1F4F44240B
:102490004394512C540114C03801F2E06F0E711CAA
:1024A000F801A080B18026FF03C0652D70E002C056
:1024B0006FEF7FEFC5012C87E1D32C0183012C85C1
:1024C0002F77222E16C03801F2E06F0E711CF80132
:1024D000A080B18026FF03C0652D70E002C06FEFC1
:1024E0007FEFC5012C87BFD32C012C852068222EBD
:1024F000830123FC19C0832D90E048165906A0F4EF
:10250000B70180E290E003D43A94F5CFF50127FCBF
:10251000859127FE81915F01B70190E0F8D33110DA
:102520003A94F1E04F1A51084114510479F7DEC092
:10253000843611F0893631F5F80127FF07C0608134
:102540007181828193810C5F1F4F08C0608171810E
:10255000882777FD8095982F0E5F1F4F2F76B22E1C
:1025600097FF09C090958095709561957F4F8F4F2B
:102570009F4F2068B22E2AE030E0A40113D4A82E89
:10258000A81843C0853729F42F7EB22E2AE030E008
:1025900025C0F22FF97FBF2E8F36C1F018F4883591
:1025A00079F0ADC0803719F0883721F0A8C02F2FFF
:1025B0002061B22EB4FE0DC08B2D8460B82E09C0F0
:1025C00024FF0AC09F2F9660B92E06C028E030E095
:1025D00005C020E130E002C020E132E0F801B7FEA2
:1025E00007C060817181828193810C5F1F4F06C09B
:1025F0006081718180E090E00E5F1F4FA401D2D313
:10260000A82EA818FB2DFF77BF2EB6FE0BC02B2DD2
:102610002E7FA51450F4B4FE0AC0B2FC08C02B2DC6
:102620002E7E05C07A2C2B2D03C07A2C01C0752C70
:1026300024FF0DC0FE01EA0DF11D8081803311F4ED
:10264000297E09C022FF06C07394739404C0822FB0
:10265000867809F0739423FD12C020FF06C05A2C1F
:10266000731418F4530C5718732C731460F4B701D7
:1026700080E290E02C874BD373942C85F6CF7314B3
:1026800010F4371801C0312C24FF11C0B70180E3CA
:1026900090E02C873CD32C8522FF16C021FF03C07D
:1026A00088E590E002C088E790E0B7010CC0822F77
:1026B000867851F021FD02C080E201C08BE227FD47
:1026C0008DE2B70190E023D3A51430F4B70180E385
:1026D00090E01DD35A94F8CFAA94F401EA0DF11DAD
:1026E0008081B70190E013D3A110F6CF332009F415
:1026F0005DCEB70180E290E00AD33A94F7CFF701BC
:102700008681978102C08FEF9FEF2C96E2E1F4CA99
:1027100020FD09C0FC0123FD05C022FF02C0738318
:10272000628351834083089544FD10C046FD10C06C
:10273000DB01FC01AA0FBB1FEE1FFF1F1094D1F796
:102740006A0F7B1F8E1F9F1F31E003C033E001C063
:1027500034E0660F771F881F991F3150D1F7620F41
:10276000711D811D911D08950F931F93CF93DF93CA
:102770008C01C8018ED2EC0197FD06C061D2892B75
:10278000C1F7B801CE01F5D2CE01DF91CF911F91F3
:102790000F9108958F929F92AF92CF92DF92EF9216
:1027A000FF920F931F93CF93DF93EC01A62E4A0164
:1027B000022F6FD2AC0155274B32510521F04D321B
:1027C000510549F40068AA9411F480E060C0CE017C
:1027D00060D297FDFACF102F1D7F302F3073F1F4A8
:1027E0008033E1F4FF24FA94FA0C09F43DC0CE01E1
:1027F00050D297FD39C0382F3F7D383549F41264E7
:10280000AA94AA9489F1CE0144D297FF07C02CC0A4
:1028100006FF02C0126001C01261AF2CC12CD12C86
:10282000760120ED280F283078F014FF03C0BE0198
:10283000A0D217C02A3040F016FFF9CF2F7D3FEE0F
:10284000320F3630A0F72750412FC701B6016CDF99
:102850006B017C011260AA9451F0CE011AD297FF4D
:10286000E0CF11FD04C0B1CFC12CD12C760117FFF0
:1028700008C0F094E094D094C094C11CD11CE11C19
:10288000F11C212FB701A601C40142DF81E0DF91D5
:10289000CF911F910F91FF90EF90DF90CF90AF906D
:1028A0009F908F900895A1E2B0E0E8E5F4E10DCAB1
:1028B0005C017A018E010F5F1F4F680180E2D80131
:1028C0001D928A95E9F7F501738040E050E0812C74
:1028D000B0E0912C81E090E0F90173FCA59173FECA
:1028E000A1918F017A2F9F01A11103C080E090E098
:1028F0007BC0AE3519F44115510559F1E92DF0E0D1
:10290000E417F5073CF4AD3569F1AD3219F4BB239A
:1029100019F103C0B11101C08A2EE72FE695E695A3
:10292000E69586010E0F111DF801A72FA7708C01E7
:1029300002C0000F111FAA95E2F7D801B081BA2B8F
:10294000B083781559F0781510F47F5FE6CF715099
:10295000E4CF9924939403C0B1E001C0B0E04F5F8D
:102960005F4FBACFBB2319F08E8180628E839110A6
:1029700003C09924939415C0F601CE01819620815D
:1029800020952193E817F907D1F7F3CFE114F1046B
:1029900029F0D7018C93F70131967F016150F1F056
:1029A000912CC50169A375D169A197FD15C0282F88
:1029B000269526952695F601E20FF11D208130E03F
:1029C000AC014770552702C0359527954A95E2F727
:1029D00020FDDCCFB501CDD1911088CFE114F104F9
:1029E00011F0D7011C92C801A196EDE08AC94F925F
:1029F0005F927F928F929F92AF92BF92CF92DF921F
:102A0000EF92FF920F931F93CF93DF931F92CDB757
:102A1000DEB78C012B017A01FC0117821682A12CF2
:102A2000F801D380F201D3FC8591D3FE8191382F38
:102A30002F01882309F4EEC090E0398301D1398158
:102A4000892B19F0C80190DEEBCF353241F4F20149
:102A5000D3FC3591D3FE31912F01353259F4C801A1
:102A6000398317D1398197FDD3C03817C9F2B8011E
:102A700080D1D0C03A3241F4D3FC3591D3FE3191AC
:102A80002F01BB24B39401C0B12C712C20ED230F76
:102A90002A3088F4FB2DF260BF2E672D70E080E0B5
:102AA00090E040E241DE762EF201D3FC3591D3FE78
:102AB00031912F01EBCFB1FE03C0711003C0AAC04A
:102AC00077247A94383619F03C3661F014C0F2015C
:102AD000D3FC3591D3FE31912F01383661F4FB2DB3
:102AE000F860BF2E8B2D8460B82EF201D3FC359197
:102AF000D3FE31912F01332309F48CC0632F70E092
:102B000082E793E03983A4D03981892B09F482C00C
:102B1000B0FC07C0F701C080D180C70102967C01DC
:102B200002C0C12CD12C3E3649F4F80146815781B0
:102B300060E070E02B2DC601EBDD72CF333699F4E7
:102B4000B1FC02C077247394C801A3D097FD60C084
:102B5000C114D10429F0F6018083C60101966C01ED
:102B60007A9491F751C03B3551F49201A601672D3B
:102B7000C80199DE2C01009709F046C040C0C80189
:102B80003983F2DD398197FD43C03F3651F128F496
:102B9000343619F1393661F128C0333769F03537E9
:102BA000E1F023C0C114D10429F0F6018082C601EE
:102BB00001966C017A9459F0C8016BD04C0197FDD5
:102BC00006C03ED0892B71F3B801C401D2D0C11424
:102BD000D104D1F0F601108217C0FB2DF062BF2E98
:102BE00007C08B2D8061B82E03C09B2D9064B92E39
:102BF0002B2DA601672DC801CDDD811105C0F8017F
:102C00008381807329F406C0B0FC0ACFA39408CF57
:102C1000AA2019F08A2D90E002C08FEF9FEF0F904D
:102C2000DF91CF911F910F91FF90EF90DF90CF90A8
:102C3000BF90AF909F908F907F905F904F9008953E
:102C400091110EC1803219F089508550D0F7089546
:102C5000FC010590061621F00020D9F7C001089567
:102C60003197CF010895FC0105906150704001102B
:102C7000D8F7809590958E0F9F1F0895FC016150A5
:102C8000704001900110D8F7809590958E0F9F1F8E
:102C90000895CF93DF93EC012B8120FF33C026FFF3
:102CA0000AC02F7B2B838E819F8101969F838E8309
:102CB0008A8190E029C022FF0FC0E881F9818081DC
:102CC000992787FD9095009719F420622B831AC0ED
:102CD0003196F983E8830EC0EA85FB85099597FF55
:102CE00009C02B81019611F480E101C080E2822BA2
:102CF0008B8308C02E813F812F5F3F4F3F832E8300
:102D0000992702C08FEF9FEFDF91CF9108950F9326
:102D10001F93CF93DF93182F092FEB018B8181FD38
:102D200003C08FEF9FEF20C082FF10C04E815F81F4
:102D30002C813D81421753077CF4E881F9819F0182
:102D40002F5F3F4F39832883108306C0E885F985BC
:102D5000812F0995892B29F72E813F812F5F3F4FC6
:102D60003F832E83812F902FDF91CF911F910F9161
:102D70000895FB01238120FF12C026FD10C08F3F64
:102D80003FEF930761F082832F7D206423832681A8
:102D900037812150310937832683992708958FEF92
:102DA0009FEF0895FA01AA27283051F1203181F1CF
:102DB000E8946F936E7F6E5F7F4F8F4F9F4FAF4F43
:102DC000B1E03ED0B4E03CD0670F781F891F9A1F56
:102DD000A11D680F791F8A1F911DA11D6A0F711D0A
:102DE000811D911DA11D20D009F468943F912AE016
:102DF000269F11243019305D3193DEF6CF010895FE
:102E0000462F4770405D4193B3E00FD0C9F7F6CF2E
:102E1000462F4F70405D4A3318F0495D31FD4052F6
:102E2000419302D0A9F7EACFB4E0A695979587958C
:102E300077956795BA95C9F700976105710508956B
:102E40009B01AC010A2E0694579547953795279517
:102E5000BA95C9F7620F731F841F951FA01D0895AF
:102E6000992788270895052E97FB16F400940FD014
:102E700057FD05D024D007FC02D046F408C0509579
:102E80004095309521953F4F4F4F5F4F0895909556
:102E90008095709561957F4F8F4F9F4F089531D0EA
:102EA000A59F900DB49F900DA49F800D911D11249E
:102EB0000895B7FFF4CFF3DF821B930B0895A1E2CF
:102EC0001A2EAA1BBB1BFD010DC0AA1FBB1FEE1FA4
:102ED000FF1FA217B307E407F50720F0A21BB30BEF
:102EE000E40BF50B661F771F881F991F1A9469F76B
:102EF00060957095809590959B01AC01BD01CF01C7
:102F00000895A29FB001B39FC001A39F700D811DC2
:102F10001124911DB29F700D811D1124911D0895E2
:042F2000F894FFCF53
:102F2400010000004578706572696D656E74206EED
:102F3400756D6265723A20002575002C2045787005
:102F44006572696D656E746174696F6E2074696D04
:102F54006520286D73293A200020200D0A20200DB9
:102F64000A0074696D65732072756E3A2000253706
:102F740075002020007C20206D69737365642064D3
:102F84006561646C696E65733A20000D0A57616966
:102F940074696E6720666F72207573657220696E3E
:102FA4007075742E2E2E20000D0A596F75722063D1
:102FB400686F6963653A20002020200D0A002563AC
:102FC400202564000D0A2D2D2D2D2D205072696EA3
:102FD40074696E6720616C6C206578706572696DC8
:102FE400656E742064617461202D2D2D2D2D0D0AC4
:102FF400003C6E756D3E206F7574206F66207261A3
:103004006E67652E0D0A004578706572696D656E90
:10301400742069732073657475702026207265614D
:10302400647920746F2072756E2E0D0A00526563E8
:103034006F6E6669677572656420677265656E2078
:103044004C4544207461736B2E0D0A00416C6C2056
:103054006578706572696D656E7420646174612051
:1030640072657365742E0D0A004578706572696D1A
:10307400656E7420737461727465642E0D0A005158
:1030840075697474696E67206D656E752E2E2E0DCC
:103094000A00496E76616C696420757365722069F3
:1030A4006E7075742C2074727920616761696E2E5C
:0430B4000D0A000001
:00000001FF
