:10000000ACC20000C7C20000C5C20000C3C20000ED
:10001000C1C20000BFC20000BDC20000BBC20000E0
:10002000B9C20000DBC40000B5C20000B3C20000CA
:10003000B1C20000AFC20000ADC20000ABC2000000
:10004000A9C20000A7C200008BC30000A3C2000029
:10005000A1C200009FC200009DC200006AC3000050
:1000600099C200000C94560D95C200000C94BC0D72
:1000700091C200008FC200008DC200008BC2000040
:10008000AAC3000087C2000085C2000083C200002E
:1000900081C200007FC200007DC200007BC2000060
:1000A00004C4000077C2000075C20000D30F031023
:1000B00008100D101A101F102410311005A84CCD77
:1000C000B2D44EB93836A9020C50B9918688083C92
:1000D000A6AAAA2ABE000000803F07634236B79B4B
:1000E000D8A71A39685618AEBAAB558C1D3CB7CC98
:1000F0005763BD6DEDFD753EF6177231BF00000010
:10010000803F08000000BE922449123EABAAAA2AF2
:10011000BECDCCCC4C3E00000080BEABAAAAAA3E0D
:1001200000000000BF000000803F00000000000849
:100130004178D3BB4387D1133D190E3CC3BD4282E6
:10014000AD2B3E68EC8276BED98FE1A93E4C80EFA4
:10015000FFBE01C4FF7F3F0000000000504E4B4532
:100160003F3D3D3E40414450544B4441403F41415E
:100170004D504D48474D48424143544D4A4F504AD7
:10018000474643435E52515B5744414A474589685D
:100190004E51544F4B4F48489E896B59565B5752AE
:1001A0004C4A7C9BA48360575651504E5C718EA084
:1001B000916E534C5952645D657D908B75654F56B9
:1001C000282928242222252729291C282F2A2526C8
:1001D0002827292923272724282E2E2829282722A3
:1001E00022282D2C292B29292F2525323122212C7B
:1001F0002929593821242B28272D2A296C563A2AB7
:100200002A31312C2A294A687353322A2C282A2968
:10021000283D5C6D5F3D261F2E2B312A314B5D59E9
:100220004436212B151514100D0D0F11131309153C
:100230001B161011121113130C100F0C0F171610A0
:1002400011130C07060C1311101111110F040612D3
:10025000130404111011351400020A0809100F10BC
:10026000422E1204050E0F0C0D0F1C3D47290904E8
:1002700009070A0D000E2E42351500000D0B000077
:10028000021D322F1C10000A200D0A0D0A2D2D2DE3
:100290002D2D2D2D2D2D2D2D2D2D2D2D2D2D2D2D8E
:1002A0002D2D2D2D2D2D2D2D2D2D2D2D2D2D2D2D7E
:1002B0002D2D2D2D2D2D2D2D2D2D2D2D2D2D2D2D6E
:1002C0002D2D2D2D2D2D2D2D2D0D0A2020202020E2
:1002D000202020202020202020202045585045523A
:1002E000494D454E544154494F4E204D454E5520A1
:1002F0000D0A2D2D2D2D2D2D2D2D2D2D2D2D2D2D71
:100300002D2D2D2D2D2D2D2D2D2D2D2D2D2D2D2D1D
:100310002D2D2D2D2D2D2D2D2D2D2D2D2D2D2D2D0D
:100320002D2D2D2D2D2D2D2D2D2D2D2D2D2D0D0A40
:100330007020202020202020202D3E205072696E29
:100340007420636F6C6C6563746564206578706598
:1003500072696D656E7420646174610D0A65203C7C
:100360006E756D3E20202D3E20536574757020659E
:1003700078706572696D656E74206E756D626572F8
:10038000203C6E756D3E28312D38290D0A72203CB7
:100390006E756D3E20202D3E205365742074686577
:1003A00020677265656E204C4544207461736B2034
:1003B000746F203C6E756D3E28312D3431393429EF
:1003C000206D730D0A7A20202020202020202D3E31
:1003D00020526573657420616C6C2065787065725D
:1003E000696D656E746174696F6E20646174610D0E
:1003F0000A6720202020202020202D3E20537461D9
:10040000727420746865206578706572696D656EB8
:1004100074206A75737420636F6E666967757265A0
:10042000640D0A7120202020202020202D3E205104
:10043000756974206D656E7520616E6420676F202C
:100440006261636B20746F206E6F726D616C206DE2
:100450006F64650D0A2D2D2D2D2D2D2D2D2D2D2D5E
:100460002D2D2D2D2D2D2D2D2D2D2D2D2D2D2D2DBC
:100470002D2D2D2D2D2D2D2D2D2D2D2D2D2D2D2DAC
:100480002D2D2D2D2D2D2D2D2D2D2D2D2D2D2D2D9C
:100490002D0D0A00380520050E05F904E404D004EA
:1004A000BA04A404383A20486F75676820747261F2
:1004B0006E73207461736B3A0900373A2047726596
:1004C000656E20636F756E74207461736B3A0900FA
:1004D000363A20477265656E204C4544207461733E
:1004E0006B3A0900353A204A6974746572204C45AC
:1004F00044207461736B3A0900343A2059656C6C7E
:100500006F77204C4544207461736B3A0900333A8D
:1005100020526564204C4544207461736B3A090095
:10052000323A20436F6D6D756E69636174696F6EE9
:10053000207461736B3A0900313A2054696D65206B
:100540006B6565706572207461736B3A0900636452
:10055000696E6F70737578585B0011241FBECFEF02
:10056000DAE0DEBFCDBF12E0A0E0B1E0ECE3F0E402
:1005700002C005900D92A439B107D9F723E0A4E990
:10058000B2E001C01D92A536B207E1F70E948813C0
:100590000C941C2035CD85B190E1892785B908954B
:1005A00016BC109246031092470310924803109213
:1005B000490310924A0310924B0310924C0310927D
:1005C0004D031092380384E690E09093510380939A
:1005D000500324E030E0309355032093540390936C
:1005E00053038093520390935703809356031092C2
:1005F0004F0310924E031092580310925903109219
:100600005A0310925B0310925C0310925D031092E8
:100610005E0310925F031092600342E360E070E0BB
:1006200080EA90E491C4BCDF109245031092440329
:1006300010923B0310923C0310923D0310923E0334
:1006400010923F0310924003109241031092420314
:1006500081E48093320383E290E0909334038093AB
:10066000330388E08093350381E090E09093370373
:1006700080933603089583E00E94030C882309F4D5
:1006800037C00E942A0D882399F181E090E00E94F2
:10069000CF0C882369F180E075D2882349F18FE47B
:1006A000B2D36091560370915703660F771F80E0B5
:1006B00090E00E9495169B01AC0160E070E08AE733
:1006C00094E40E94C21542E33FD4882389F082E477
:1006D000EED489E190E027D5882351F081E496D5C6
:1006E00081E090E07DD7882319F084E40C94C70B57
:1006F00080E090E068C285B1806585B95E9A479ACE
:100700005D98089585B18F7A85B95E9847985D9A0E
:10071000089584B1806584B9569AEDDF2FEF83ED9B
:1007200090E3215080409040E1F700C00000EADFF4
:100730007ACF1F920F920FB60F9211248F939F932F
:100740008091390390913A03019690933A038093F4
:1007500039039F918F910F900FBE0F901F901895A6
:100760001F920F920FB60F9211242F933F934F9326
:100770005F936F937F938F939F93AF93BF93EF9309
:10078000FF9386E090E00E94240E40915803509120
:10079000590360915A0370915B0380E090E0DC01A3
:1007A00084179507A607B70729F000000196A11D39
:1007B000B11DF6CFFF91EF91BF91AF919F918F91B6
:1007C0007F916F915F914F913F912F910F900FBE4D
:1007D0000F901F9018951F920F920FB60F92112431
:1007E0002F933F934F935F936F937F938F939F9339
:1007F000AF93BF93EF93FF93809138038F5F809304
:1008000038038091380390E0609154037091550350
:100810000E944C14892BB1F00E94051A65E070E02B
:100820000E946014049781F584E090E00E94240EF9
:100830007894479A8FE19EE40197F1F700C0000099
:10084000479822C080916003882309F0789483E060
:1008500090E00E94240E8BB190E489278BB94091DF
:100860005C0350915D0360915E0370915F0380E0D3
:1008700090E0DC0184179507A607B70769F200002E
:100880000196A11DB11DF6CFFF91EF91BF91AF91E0
:100890009F918F917F916F915F914F913F912F9198
:1008A0000F900FBE0F901F9018951F920F920FB6CA
:1008B0000F921124AF92BF92CF92DF92EF92FF92EC
:1008C0000F931F932F933F934F935F936F937F9358
:1008D0008F939F93AF93BF93CF93DF93EF93FF9348
:1008E00020914603309147034091480350914903BA
:1008F00060914A0370914B0380914C0390914D039A
:10090000A1E00E942C1520934603309347034093A7
:1009100048035093490360934A0370934B038093B9
:100920004C0390934D030E94480E80E090E00E949B
:10093000240ED0914603C0914703B0914803A09183
:100940004903F0914A03E0914B0380914C0390914D
:100950004D0300915203109153035801C12CD12C27
:10096000E12CF12C00E010E02D2F3C2F4B2F5A2FC3
:100970006F2F7E2F0E947914A0E00E944A1599F4EF
:100980008091440390914503892B21F087E090E00A
:100990000E94360E809144039091450301969093F6
:1009A000450380934403FF91EF91DF91CF91BF9175
:1009B000AF919F918F917F916F915F914F913F91F7
:1009C0002F911F910F91FF90EF90DF90CF90BF90EC
:1009D000AF900F900FBE0F901F9018951F920F921F
:1009E0000FB60F9211242F933F934F935F936F9302
:1009F0007F938F939F93AF93BF93EF93FF93E09178
:100A00003303F0913403208180913503282381E062
:100A100090E011F480E090E02091360330913703AC
:100A200021303105D1F40097C1F42FEF89EF90E028
:100A3000215080409040E1F700C00000E091330376
:100A4000F0913403808190913503892309F03AC0F5
:100A5000109237031092360335C02091360330913F
:100A60003703232B79F5019769F52FEF89EF90E094
:100A7000215080409040E1F700C0000081E090E00C
:100A8000909337038093360379D08FE4D3D182E4F7
:100A90002CD381E4D9D384E498D683E0CBD681E00B
:100AA00090E00E94240E78940E947B0F86B56AD055
:100AB0008FE4A9D182E4FBD281E4A8D384E467D691
:100AC00083E0A1D6FF91EF91BF91AF919F918F915C
:100AD0007F916F915F914F913F912F910F900FBE3A
:100AE0000F901F90189582B7806882BF82B780628E
:100AF00082BF82B78F7E82BF82B78A6082BF82B791
:100B00008A7F82BF89B58F7E89BD89B5826089BDA4
:100B10000895479A5D9A2FEF43EC59E021504040E9
:100B20005040E1F700C000008CE090E030E228B1D6
:100B3000205828B92BB123272BB92FEF41EE54E0D1
:100B4000215040405040E1F700C00000019700975D
:100B500071F747985D9A08952FEF81EE94E0215048
:100B600080409040E1F700C000003F9A559A84B160
:100B7000867F84B985B1896085B9CBCF85B5887FFB
:100B800085BD0895A1E0B0E0E8ECF5E00C94E71431
:100B90008983F4DF898186BD84B58F7384BD85B573
:100BA000877F85BD84B58C7F84BDEEE6F0E08081D3
:100BB00081608083579885B5876085BD81E02196E7
:100BC000E2E00C940315F894209A009721F0019725
:100BD00019F45D9A01C0479A2898FFCFAAE0B0E0C7
:100BE000E4EFF5E00C94D71478876F8369017A01FC
:100BF000BC0180E090E00E9495169B01AC0160E092
:100C000070E08AE794E40E94C2159B01AC0160E0A9
:100C100074E284E79BE40E94C2150E942F16F22F13
:100C2000E32F49875A876B837C838D839E831601CC
:100C30002701612C712C430156016201E12CF12C3A
:100C400000E010E00E94411548F4CF01AF81B88563
:100C50009C9311968C9381E090E079C02F2F3E2FCA
:100C600049855A856B817C818D819E8103E00E943C
:100C70001015D90151016201E12CF12C00E010E0C6
:100C80000E94411538F4EF81F885A083B18388E094
:100C900090E05DC02F2F3E2F49855A856B817C8166
:100CA0008D819E8106E00E941015D90151016201DB
:100CB000E12CF12C00E010E00E94411550F49A2F35
:100CC0008B2FAF81B8859C9311968C9380E490E034
:100CD0003EC02F2F3E2F49855A856B817C818D81A7
:100CE0009E8108E00E941015D90151016201E12C9A
:100CF000F12C00E010E00E94411538F4EF81F885F6
:100D0000A083B18380E091E022C02F2F3E2F498540
:100D10005A856B817C818D819E810AE00E9410152D
:100D2000F22FE32F51016201E12CF12C00E010E0E1
:100D30000E94411548F4CF01AF81B8859C9311966C
:100D40008C9380E094E003C080E090E03CDF2A9642
:100D5000E2E10C94F314A2E0B0E0E1EBF6E00C94D5
:100D6000E71420E031E040E050E0BE016F5F7F4FCC
:100D700035DF009709F444C016BC24B52F7324BD99
:100D800025B5277F25BD24B5226024BD24B52E7F3F
:100D900024BD2981215027BD20916E00226020931F
:100DA0006E0088309105A9F040F4019719F585B5DA
:100DB000897F85BD85B5816011C080349105A1F022
:100DC00081159140B9F485B5846085BD85B58C7F6A
:100DD00005C085B58A7F85BD85B5826085BD81E00A
:100DE0002296E2E00C94031585B58B7F85BD85B511
:100DF0008360F4CF85B5856085BD85B58D7FEECFE9
:100E000080E090E0E0DE823441F08F3451F08134B4
:100E100071F480916E00826007C080916E008460E2
:100E200003C080916E00816080936E00089580E021
:100E300090E0C9DE823441F08F3451F0813471F496
:100E400080916E008D7F07C080916E008B7F03C004
:100E500080916E008E7F80936E00089580E090E018
:100E6000B2DEA2E0B0E0E7E3F7E00C94E71420E0A4
:100E700030E041E050E0BE016F5F7F4FAFDE009792
:100E800009F45FC0109285001092840020918100C7
:100E9000286020938100209181002F7E2093810083
:100EA000209180002C7F2093800029813A8121505D
:100EB0003109309389002093880020916F002260CF
:100EC00020936F0088309105D9F058F4019781F58F
:100ED00080918100897F8093810080918100816071
:100EE00017C080349105D9F08115914009F58091A2
:100EF0008100846080938100809181008C7F08C094
:100F0000809181008A7F809381008091810082603E
:100F10008093810081E02296E2E00C940315809199
:100F200081008B7F80938100809181008360F0CF6E
:100F300080918100856080938100809181008D7F08
:100F4000E7CF80E090E03FDEA2E0B0E0EAEAF7E041
:100F50000C94E014B42E9B01AC010E9457159B0128
:100F6000AC0160E070E08AE794E40E94C2150E9440
:100F70006916DC01CB0120E030E041E050E0BE0129
:100F80006F5F7F4F2BDE8C01009709F46CC080915E
:100F90008100887F809381001092850010928400E8
:100FA0008091810080618093810080918100877FA2
:100FB00080938100809180008C7F80938000898164
:100FC0009A81909387008093860080918000807141
:100FD000809380008091800080628093800084E60E
:100FE0008B1508F440C069817A8180E090E00E940E
:100FF00095166B017C016B2D70E080E090E00E9403
:1010000095169B01AC01C701B6010E94941720E020
:1010100030E048EC52E40E94C2150E9469167093B9
:101020008B0060938A000830110501F160F40130F3
:10103000110571F580918100897F809381008091F5
:10104000810081602DC000341105C9F0011581E0D7
:101050001807F1F480918100846080938100809171
:1010600081008C7F1DC080E090E0ADDD809181002B
:101070008A7F8093810080918100826011C080917D
:1010800081008B7F8093810080918100836008C004
:1010900080918100856080938100809181008D7FA7
:1010A0008093810081E02296E9E00C94FC14823464
:1010B00079F034F48134B1F480916F0082600FC014
:1010C000833451F08F3471F480916F00816007C0D8
:1010D00080916F00846003C080916F00886080936E
:1010E0006F00089580E090E06EDD823479F034F492
:1010F0008134B1F480916F008D7F0FC0833451F043
:101100008F3471F480916F008E7F07C080916F00E3
:101110008B7F03C080916F00877F80936F0008955D
:1011200080E090E050DDA2E0B0E0E9E9F8E00C9466
:10113000E71420E030E041E050E0BE016F5F7F4FF8
:101140004DDD009709F45FC0109295001092940055
:1011500020919100286020939100209191002F7E92
:1011600020939100209190002C7F20939000298162
:101170003A812150310930939900209398002091B1
:10118000710022602093710088309105D9F058F4E5
:10119000019781F580919100897F809391008091E2
:1011A0009100816017C080349105D9F0811591407C
:1011B00009F5809191008460809391008091910065
:1011C0008C7F08C0809191008A7F809391008091EC
:1011D000910082608093910081E02296E2E00C947D
:1011E0000315809191008B7F8093910080919100F5
:1011F0008360F0CF80919100856080939100809111
:1012000091008D7FE7CF80E090E0DDDC823479F0E3
:1012100034F48134B1F48091710082600FC0833462
:1012200051F08F3471F480917100816007C080911A
:101230007100846003C080917100886080937100A8
:10124000089580E090E0BFDC823479F034F481349A
:10125000B1F4809171008D7F0FC0833451F08F34D1
:1012600071F4809171008E7F07C0809171008B7F37
:1012700003C080917100877F80937100089580E0A2
:1012800090E0A1DC8F929F92AF92BF92CF92DF92BB
:10129000EF92FF926B017C0120E030E040E854E4E3
:1012A0000E94BB1587FF09C08091C100817F809398
:1012B000C1008091C10081608BC120E030E040E03E
:1012C0005FE3C701B6010E9494174B015C0120E067
:1012D00030E040E854E40E94BB1587FF09C08091CC
:1012E000C100827F8093C1008091C100826046C1AD
:1012F00020E030E040E85EE3C701B6010E949417A9
:101300004B015C0120E030E040E854E40E94BB1552
:1013100087FF0EC08091C100837F8093C1008091C0
:10132000C10082608093C1008091C100816026C1AC
:1013300020E030E040E05EE3C701B6010E94941770
:1013400020E030E040E854E40E94BB1587FF09C06C
:101350008091C100837F8093C1008091C100836030
:101360000DC120E030E040E85DE3C701B6010E9416
:1013700094174B015C0120E030E040E854E40E9407
:10138000BB1587FF09C08091C10084608093C100B4
:101390008091C100847FF2C020E030E040E05DE356
:1013A000C701B6010E9494174B015C0120E030E0B8
:1013B00040E854E40E94BB1587FF09C08091C1003A
:1013C000857F8093C1008091C1008560D7C020E0F7
:1013D00030E040E85CE3C701B6010E9494174B017E
:1013E0005C0120E030E040E854E40E94BB1587FF38
:1013F00009C08091C100867F8093C1008091C100A7
:101400008660BCC020E030E040E05CE3C701B6018C
:101410000E9494174B015C0120E030E040E854E466
:101420000E94BB1587FF09C08091C100877F809310
:10143000C1008091C1008760A1C020E030E040E899
:101440005BE3C701B6010E9494174B015C0120E0E9
:1014500030E040E854E40E94BB1587FF09C080914A
:10146000C10088608093C1008091C100887F86C0E0
:1014700020E030E040E05BE3C701B6010E94941732
:101480004B015C0120E030E040E854E40E94BB15D1
:1014900087FF09C08091C10089608093C10080915D
:1014A000C100897F6BC020E030E040E85AE3C7010B
:1014B000B6010E9494174B015C0120E030E040E847
:1014C00054E40E94BB1587FF09C08091C1008B7F47
:1014D0008093C1008091C1008B6050C020E030E05B
:1014E00040E05AE3C701B6010E9494174B015C012A
:1014F00020E030E040E854E40E94BB1587FF09C0BB
:101500008091C1008C608093C1008091C1008C7F6C
:1015100035C020E030E040E859E3C701B6010E9441
:1015200094174B015C0120E030E040E854E40E9455
:10153000BB1587FF09C08091C1008D608093C100F9
:101540008091C1008D7F1AC020E030E040E059E377
:10155000C701B6010E9494174B015C0120E030E006
:1015600040E854E40E94BB1587FF18C08091C10079
:101570008E608093C1008091C1008E7F8093C100F6
:10158000C501B4010E946916CB01FF90EF90DF9076
:10159000CF90BF90AF909F908F90089520E030E063
:1015A00040E858E3C701B6010E9494176B017C0123
:1015B00020E030E040E854E40E94BB1587FF0DC0F6
:1015C0008091C1008C608093C1008091C1008360D4
:1015D0008093C100C701B601D5CF80E090E0F3DA77
:1015E000A2E0B0E0E6EFFAE00C94E5148C011A8278
:1015F000198279DA8091C0008F7C8093C00080913D
:10160000C0008F738093C0008091C0008C7F809356
:10161000C0008091C2008E7F8093C2008091C20082
:10162000837F8093C2008091C3008C7F8093C3002E
:10163000B801660F771F80E090E00E9495169B012D
:10164000AC0160E070E08AE794E40E94C2159B015F
:10165000AC0160E074E284E79CE40E94C21512DEF3
:101660009A83898389819A819093BF0089819A8125
:101670008093D10089819A819093BF0089819A815A
:101680008093D2001092BF001092BF001092BE0053
:1016900029813A8181E0232B09F480E02296E4E05D
:1016A0000C940115CF92DF92EF92FF921F93CF938C
:1016B000DF9300D000D0CDB7DEB7142F69837A83D3
:1016C0008B839C8310DA2091C00020622093C0009D
:1016D0002091C0002F7E2093C0002091C000216087
:1016E0002093C0002091C3002D7F2093C300209140
:1016F000C30021602093C30069817A818B819C8122
:101700009B01AC0160E074E284E79CE40E94C21596
:10171000B9DD9093BF008093D100153658F5BC0118
:1017200080E090E00E9495166B017C01612F70E0D3
:1017300080E090E00E9495169B01AC01C701B601C4
:101740000E94941720E030E048EC52E40E94C21559
:101750000E9469167093BF006093D0000F900F90A5
:101760000F900F90DF91CF911F91FF90EF90DF903E
:10177000CF9008958091C100837F8093C1008091B4
:10178000C1008C7F8093C10080E090E01CDA82343D
:1017900079F034F48134B1F48091720080640FC028
:1017A000843451F08F3471F480917200846007C0EA
:1017B00080917200806203C0809172008068809383
:1017C0007200089580E090E0FED9823479F034F41C
:1017D0008134B1F4809172008F7B0FC0843451F05A
:1017E0008F3471F4809172008B7F07C080917200FA
:1017F0008F7D03C0809172008F778093720008956F
:1018000080E090E0E0D9909168009160909368004A
:10181000883018F080E090E0D6D990916B0021E0FC
:1018200030E001C0220F8A95EAF7922B90936B006B
:1018300081E00895909168009E7F909368008830C1
:1018400070F490916B0021E030E0082E01C0220F6F
:101850000A94EAF72095292320936B00089580E0ED
:1018600090E0B1D91092CE021092CD0210920203F4
:101870001092010310929A02109295021092940213
:10188000109297021092960210929902109298026A
:1018900008951092CE021092CD021092020310927F
:1018A0000103089580919B028093CE0081E0809394
:1018B000CE020895CF93DF93EC0180919A0283309A
:1018C00018F082E090E07FD9809194029091950287
:1018D000892B79F08091960290919702892B61F083
:1018E0008091980290919902892BA9F422E030E02E
:1018F00005C020E030E002C021E030E0F901EE0F49
:10190000FF1FEC56FD4FD183C08380919A028F5FF9
:1019100080939A0202C023E030E0822FDF91CF91C2
:101920000895E82FF0E0EE0FFF1FEC56FD4F1182F7
:101930001082EAE9F2E08081815080830895009767
:1019400019F00197A1F029C0CB010197029748F443
:101950008091C90080618093C9006230710519F0DF
:101960001AC0672BC1F48091C900886012C0CB01F6
:101970000197029748F48091C9008F7E8093C90037
:101980006230710519F007C0672B29F48091C900F6
:10199000877F8093C90081E0089580E00895CF9308
:1019A000DF93EC015FDF8091CA008F7C8093CA00D7
:1019B0008091CA00877F8093CA008091C9008B7F85
:1019C0008093C9008091CA0086608093CA0080918C
:1019D000C9008C7F8093C9008091CA008E7F80935C
:1019E000CA008091CB008C7F8093CB00209761F060
:1019F0002197F9F480E190E09093CD008093CC00A2
:101A00008091C800826009C087E090E09093CD008B
:101A10008093CC008091C8008D7F8093C800809116
:101A2000C8008E7F8093C8008091CA008F73809316
:101A3000CA0062E070E080E090E081DFDF91CF914A
:101A40000895E0910103F0E0E153FD4F8081809320
:101A5000CE000895E9ECF0E08081806C808381E025
:101A60000895E9ECF0E080818F73808381E0089530
:101A7000A2E0B0E0EDE3FDE0A9C7182F8091C90016
:101A800089839A83EEDFE12F9A81F92F8191882350
:101A900039F09091C80095FFFCCF8093CE00F6CF2F
:101AA00089818093C9002296E3E0ACC71F920F9210
:101AB0000FB60F9211242F933F934F935F936F9321
:101AC0007F938F939F93AF93BF93CF93DF93EF93C6
:101AD000FF9380910103823310F0109201038091F3
:101AE000CE00E0910103F0E0E153FD4F8083A9DFD8
:101AF00090910103E92FF0E0E153FD4F80818D309B
:101B000011F08A30E9F4108280919A02882309F159
:101B1000C0E0D0E0FE01EE0FFF1FEC56FD4F8081CC
:101B20009181892B41F00190F081E02D61E073E01B
:101B30008FEC92E009952196C330D10559F709C081
:101B4000883011F08F3711F4915001C09F5F90934E
:101B50000103FF91EF91DF91CF91BF91AF919F91E1
:101B60008F917F916F915F914F913F912F910F9046
:101B70000FBE0F901F9018951F920F920FB60F92E5
:101B800011248F939F93EF93FF938091CE029091B6
:101B9000CD02891750F4E82FF0E0E556FD4F908113
:101BA0009093CE008F5F8093CE02FF91EF919F9133
:101BB0008F910F900FBE0F901F90189510920303F6
:101BC000109204031092060310920503109208036A
:101BD000109207030E94D00280E090E025E0289F49
:101BE000F001299FF00D1124ED5FFC4F1086178244
:101BF00012861186868301968830910581F70895B3
:101C000081E08093040380910503909106039093F3
:101C10000803809307036091560370915703660F82
:101C2000771F80E090E00E9495169B01AC0160E078
:101C300070E08AE794E4A6D742E386D916BC1092F6
:101C40004F0310924E03089520910403222369F05C
:101C500025E0289FF001299FF00D1124ED5FFC4F36
:101C6000818592850196928781870895209104034A
:101C7000222369F025E0289FF001299FF00D11240F
:101C8000ED5FFC4F8781908501969087878308954B
:101C900080910403882391F08091070390910803B9
:101CA000892B51F08091070390910803019790933D
:101CB0000803809307030895109204030895809108
:101CC0004E0390914F0326B5982F8827820F911DC0
:101CD0004091560350915703440F551F489F900160
:101CE000499F300D589F300D11248091050390912C
:101CF0000603821B930B9093080380930703609164
:101D0000500370915103E0911603F0911703C9013C
:101D1000C3D56E1B7F0B1616170624F4709315039C
:101D20006093140380910C0390910D03A901481B4B
:101D3000590BCA011816190624F450930B0340934B
:101D40000A036091560370915703E0912A03F091C2
:101D50002B03C901A1D56E1B7F0B1616170624F4A1
:101D60007093290360932803609152037091530389
:101D7000E0912F03F0913003C9018ED56E1B7F0BCC
:101D80001616170624F470932E0360932D036091AA
:101D9000540370915503E0911B03F0911C03C9019A
:101DA0007BD56E1B7F0B1616170624F470931A034F
:101DB000609319036091560370915703C9016CD564
:101DC00070932603609325030895ADE2B0E0EAEE38
:101DD000FEE0F0C574DF84E091E04ADE8091030309
:101DE0001F928F9378E1E72E71E0F72EFF92EF922A
:101DF0008E01065E1F4F1F930F930E941A1AC8018F
:101E000037DE8BE191E034DE80910503909106038B
:101E10002091070330910803821B930B9F938F93AC
:101E2000FF92EF921F930F930E941A1AC80120DEAF
:101E300089E391E01DDEE4E96E2EE4E07E2E0FB62C
:101E4000F894DEBF0FBECDBFE12CF12CF5E05F2E84
:101E5000AEE48A2EA1E09A2EB8E1AB2EB1E0BB2E03
:101E6000F30165917491CE0101960E94131ACE017F
:101E70000196FEDD82E491E0FBDD5E9C60015F9CEB
:101E8000D00C1124F601ED5FFC4F6F018185928526
:101E90009F938F939F928F921F930F930E941A1A72
:101EA000C801E6DD82E591E0E3DD85E591E0E0DD76
:101EB000F601878190859F938F93BF92AF921F9376
:101EC0000F930E941A1AC801D3DD8DE391E0D0DD93
:101ED000FFEFEF1AFF0A82E0680E711C0FB6F8944C
:101EE000DEBF0FBECDBFF8E0EF16F10409F0B8CFAA
:101EF000AD96EFE07BC5A2E0B0E0E0E8FFE064C5AE
:101F0000C8DC62E070E080E090E019DD88E490E1F8
:101F1000D1DCF82E1A8208E812E0F8018491898356
:101F2000CE010196A5DD0F5F1F4FF4E003391F07B7
:101F3000A1F710E00CE380913103811113C0812FD0
:101F4000602F9ED4911103C08BE691E091DD2FEFBD
:101F500089E698E1215080409040E1F700C0000000
:101F60001F5FE9CF8F2DDDDC109231032296E5E073
:101F700047C5A1E0B0E0EEEBFFE029C589831EDE96
:101F800089818093030328E93AE330930603209381
:101F9000050390E0FC013197E830F10508F071C0CD
:101FA000EA5AFF4FA0C480E69AEE9093060380930E
:101FB000050384EF91E0909351038093500324E153
:101FC00030E0309355032093540324E630E03093FF
:101FD00053032093520390935703809356036091C9
:101FE000560370915703660F771F80E090E09DD6EF
:101FF0009B01AC0160E070E08AE794E4C3D542E362
:102000000E94A40742C083EA91E7A0E0B0E009C0C3
:1020100083EA91E7A0E0B0E01BC084E79AEAA0E081
:10202000B0E08093580390935903A0935A03B09360
:102030005B032BC084E79AEAA0E0B0E009C087E91F
:1020400094E5A2E0B0E0EDCF87E994E5A2E0B0E04E
:1020500080935C0390935D03A0935E03B0935F0352
:1020600014C087E994E5A2E0B0E080935C0390930C
:102070005D03A0935E03B0935F0381E080936003F0
:1020800004C082E090E00E94E3052196E2E0BBC438
:10209000A3E0B0E0EDE4F0E198C4182F092F61E06F
:1020A00070E081E090E04BDC88E891E0E1DC812F9A
:1020B000902FDEDC88E991E0DBDC9E012F5F3F4F53
:1020C0003F932F932E5F3F4F3F932F932EE931E0A5
:1020D0003F932F930F931F930E94391A0FB6F894D2
:1020E000DEBF0FBECDBF181619060CF065C02B81E0
:1020F0002037B1F054F42536C1F0273609F05CC022
:102100007FDD89E492E0B4DC41C0223709F10CF4B0
:102110003DC02A3709F050C051DD8CE292E04EC03C
:1021200084EA91E0A5DC51DE37C0029709F044C093
:1021300089819A819C01215031092830310520F094
:1021400081ED91E095DC38C014DF87EE91E036C078
:10215000029791F569817A81CB010197823690418E
:1021600078F7882777FD8095982FE1D59B01AC0102
:102170009ED49B01AC0160E070E08AE794E402D554
:1021800042E30E94A4078DE092E018C08FE592E040
:102190006FDC81E08093310380913103811108C0AD
:1021A0008BE691E065DC61E070E080E090E0C7DB09
:1021B00070DB2396E4E025C482E792E059DCECCFA3
:1021C000A9E4B0E0E5EEF0E1F2C35C014B013A01B5
:1021D00080E090E08A189B086A187B088C010F5FEA
:1021E0001F4F7501C12CD12CE6E0E89FD001E99F7B
:1021F000B00D1124BCAFABAFF7016491F401EE0D4B
:10220000FF1D24912DABF301EE0DFF1D34913FAB6B
:1022100070E080E090E08BD520ED33EB49E55EE3A4
:1022200083D61B012C014FA9642F70E080E090E061
:102230007ED529E537E147E35FE376D69B01AC0124
:10224000C201B10134D41B012C01ADA96A2F70E089
:1022500080E090E06CD528E93DED43E95DE364D68C
:102260009B01AC01C201B10122D420E030E04FE774
:1022700053E488D429D5EBADFCADEC0DFD1D21E078
:1022800030E02C0F3D1FE20FF31F60833FEFC31AB6
:10229000D30AE00EF11E46E0C416D10409F0ACCF1B
:1022A000C8010630110509F099CF8BED9FE0A9E434
:1022B000B0E48093610390936203A0936303B093AF
:1022C000640300E010E0C12CD12C760136E0732EBF
:1022D000A12CB12C709E4001719E900C1124F40130
:1022E000EA0DFB1D21E030E02C0F3D1FE20FF31F34
:1022F0006081772767FD7095872F972F18D59B01F1
:10230000AC01C701B601D3D36B017C013FEFA31A27
:10231000B30A46E0A416B10411F70F5F1F4F063051
:102320001105B1F620E030E0A90125D4882309F198
:1023300080E090E066E071E020E030E0689FA0017E
:10234000699F500D1124FA01E20FF31FA1E0B0E0E4
:10235000AC0FBD1FEA0FFB1FA081B72FBA1BB083C4
:102360002F5F3F4F2630310571F70196863091057A
:1023700019F7212C312CB101882777FD8095982FF2
:10238000D6D420E030E040E450E490D320E030E0C8
:1023900040E05FE38CD32B013C019B01AC01C4D531
:1023A0006BAF7CAF8DAF9EAF00E010E026E0229DCA
:1023B000F001239DF00D11242696FFAFEEAF269776
:1023C000B80163507109882777FD8095982FAFD4A5
:1023D00020E030E040E05FE36AD36B017C019B01C9
:1023E000AC01A2D52BAD3CAD4DAD5EAD60D355D6A5
:1023F0009B01AC012696EEADFFAD2697E00FF11FD5
:1024000081E090E08C0F9D1FE80FF91F6081772716
:1024100067FD7095872F972F27962FAF27972896C0
:102420003FAF289729964FAF29972A965FAF2A97F3
:102430007ED427962FAD279728963FAD28972996CB
:102440004FAD29972A965FAD2A976ED53DD4249635
:102450006FAF24971EAA1DAAADA9BEA9BD018827EA
:1024600077FD8095982F63D46FAB78AF89AF9AAF23
:102470002BED3FE049EC5FE357D52BED3FE049E41E
:1024800050E414D34B015C017AD39B01AC01C5012C
:10249000B40127962FAF279728963FAF2897299604
:1024A0004FAF29972A965FAF2A97EDD523966CAF49
:1024B0007DAF8EAF9FAF239727962FAD2797289696
:1024C0003FAD289729964FAD29972A965FAD2A9759
:1024D000C701B60129D54B015C0123962CAD3DAD5A
:1024E0004EAD5FAD2397C301B2011ED59B01AC0178
:1024F000C501B401DCD24B015C0120E030E0A90150
:102500000FD587FD12C0C501B401DED3882777FD42
:102510008095982F0CD42EEC36EE48E75FE332D34B
:10252000D3D35B018DA99EA918C0C501B4019058F1
:102530002EEC36EE48E75FE325D3C6D35B0120E0FF
:1025400030E040E050E46FA978AD89AD9AADAFD2EC
:10255000BBD3CB0164E070E0B3D1F501EE0FFF1FF8
:10256000EE0FFF1F21E030E02C0F3D1FE20FF31FA5
:10257000E80FF91F84A124963FAD2497830F84A30D
:102580008DA99EA901969EAB8DAB049709F064CFEF
:102590000F5F1F4F0630110509F012CF9FEF291A68
:1025A000390AA6E02A16310409F0E5CE6DA1772795
:1025B00067FD7095872F972FBAD32B013C016DA132
:1025C000772767FD7095872F972FB1D36B017C011B
:1025D000812C912C00E010E05401AA0CBB1CAA0C29
:1025E000BB1C21E030E02C0F3D1FA20EB31EBEAA83
:1025F000ADAA1501200E311EF10164A1772767FDF8
:102600007095872F972F93D39B01AC01C301B20123
:10261000B2D287FF0BC0D10194966C91772767FDEA
:102620007095872F972F83D32B013C012DA83EA8AF
:10263000200E311EF10164A1772767FD7095872F69
:10264000972F75D39B01AC01C701B60169D4181649
:102650005CF4D10194966C91772767FD7095872F74
:10266000972F65D36B017C010F5F1F4F043011055D
:1026700009F0BFCFBFEF8B1A9B0AE4E08E169104DE
:1026800009F0A8CFA7019601C301B2010FD22B0117
:102690003C0100E010E01DAAA12CB12C4801880CDF
:1026A000991C880C991C81E090E08C0F9D1F880E6E
:1026B000991E14012A0C3B1CD10194966C9177272A
:1026C00067FD7095872F972F32D3A7019601EED122
:1026D000A301920157D220E030E040EC5FE387D4C1
:1026E000F3D2F10164A384A1FDA9F80FFDAB2FEF94
:1026F000A21AB20A34E0A316B104D9F60F5F1F4F35
:102700000430110549F68DA9C75BDF4FE2E16BC1CB
:10271000A8E0B0E0EDE8F3E14AC10E94AC050E94F8
:1027200089030E943B0378944090460350904703EE
:10273000609048037090490380904A0390904B0347
:1027400020904C0330904D03A0903B03B0903C038D
:10275000C0903D03D0903E03E0903F03F0904003D3
:1027600000914103109142039201A301B401C10100
:102770007FD1E0915003F09151035F01C12CD12C26
:10278000E12CF12C8701E983BA82CB82DC82ED82D5
:10279000FE820F831887C12CD12CE12CF12C00E094
:1027A00010E06FD1B0F00E94CB0282E090E04CDAF2
:1027B00040923B0350923C0360923D0370923E0373
:1027C00080923F0390924003209241033092420353
:1027D0001BC08091440390914503892BA9F040ECE4
:1027E00051E06CE571E084E292E0EADC809343031F
:1027F00087E090E029DA80914403909145030197A6
:10280000909345038093440300913B0310913C0354
:1028100020913D0330913E0340913F03509140038E
:10282000609141037091420380904603909047036A
:10283000A0904803B0904903C0904A03D0904B0346
:10284000E0904C03F0904D03081919091016110679
:102850000CF06ACF10923B0310923C0310923D03A0
:1028600010923E0310923F031092400310924103D6
:1028700010924203809143038F5F8093430354CFB0
:10288000991B79E004C0991F961708F0961B881FC2
:102890007A95C9F780950895AA1BBB1B51E107C023
:1028A000AA1FBB1FA617B70710F0A61BB70B881FE0
:1028B000991F5A95A9F780959095BC01CD0108956F
:1028C00097FB072E16F4009406D077FD08D0E4DFBE
:1028D00007FC05D03EF4909581959F4F0895709523
:1028E00061957F4F0895EE0FFF1F0590F491E02D45
:1028F0000994689401C0E8948F929F92CF93DF93DC
:1029000005D0DF91CF919F908F90089588249924CE
:10291000F401E401B0E49F93AA279A158B049C0468
:10292000ED05FE05CF05D007A10798F4AD2FDC2FEC
:10293000CF2FFE2FE92D982C892E982F872F762FB9
:10294000652F542F432F322F2227B85031F7BF91D4
:1029500027C01B2EBF91BB27220F331F441F551FBB
:10296000661F771F881F991F881C991CEE1FFF1F69
:10297000CC1FDD1FAA1FBB1F8A149B04EC05FD059D
:10298000CE05DF05A007B10748F08A189B08EC09BF
:10299000FD09CE09DF09A00BB10B21601A94E1F605
:1029A0002EF49401AF01BE01CD01000C08952F92C9
:1029B0003F924F925F926F927F928F929F92AF92CF
:1029C000BF92CF92DF92EF92FF920F931F93CF931C
:1029D000DF93CDB7DEB7CA1BDB0B0FB6F894DEBFB3
:1029E0000FBECDBF09942A88398848885F846E84D9
:1029F0007D848C849B84AA84B984C884DF80EE8023
:102A0000FD800C811B81AA81B981CE0FD11D0FB62B
:102A1000F894DEBF0FBECDBFED01089597FB10F80F
:102A2000169400080F93083098F00850232F342F85
:102A3000452F562F672F782F892F902DF4CF05948F
:102A400097958795779567955795479537952795E6
:102A50000A95AAF70F9108950024A7FD00942A0F64
:102A6000301D401D501D601D701D801D901D08955E
:102A70002A193B094C095D096E097F09800B910BEE
:102A800008952A153B054C055D056E057F058007F9
:102A9000910708950024A7FD00942A1730054005EA
:102AA0005005600570058005900508955058BB27B6
:102AB000AA270ED0EAC1B3D130F0B8D120F031F45A
:102AC0009F3F11F41EF498C10EF4E095E7FB8EC110
:102AD000E92FFDD180F3BA176207730784079507C2
:102AE00018F071F49EF515C20EF4E0950B2EBA2F76
:102AF000A02D0B01B90190010C01CA01A001112404
:102B0000FF27591B99F0593F50F4503E68F11A16AF
:102B1000F040A22F232F342F4427585FF3CF469540
:102B200037952795A795F0405395C9F77EF41F1662
:102B3000BA0B620B730B840BBAF09150A1F0FF0F2C
:102B4000BB1F661F771F881FC2F70EC0BA0F621F18
:102B5000731F841F48F4879577956795B795F79508
:102B60009E3F08F0B3CF9395880F08F09927EE0F9A
:102B700097958795089516D108F481E008955ED160
:102B8000E39594C10CD081C151D140F048D130F0CF
:102B900021F45F3F19F02AC15111BCC12DC197D159
:102BA00098F39923C9F35523B1F3951B550BBB2714
:102BB000AA2762177307840738F09F5F5F4F220FC1
:102BC000331F441FAA1FA9F333D00E2E3AF0E0E8BA
:102BD00030D091505040E695001CCAF729D0FE2F06
:102BE00027D0660F771F881FBB1F26173707480798
:102BF000AB07B0E809F0BB0B802DBF01FF2793584E
:102C00005F4F2AF09E3F510568F0F0C083C15F3FDF
:102C1000ECF3983EDCF3869577956795B795F79535
:102C20009F5FC9F7880F911D9695879597F908952D
:102C3000E1E0660F771F881FBB1F621773078407C9
:102C4000BA0720F0621B730B840BBA0BEE1F88F7D8
:102C5000E0950895BEE304D008F490E80895BFE33A
:102C600022273327A9013BD158F19F5740F1B917CB
:102C700038F1BFE3B91B9927B8503AF4660F771FB4
:102C8000881F991FB395D2F316C0B8504AF0232F6E
:102C9000342F452F562F672F782F8827B850BAF733
:102CA000B85F49F08695779567955795479537951D
:102CB0002795BA95B9F70EF4A2D088940895889410
:102CC00060E070E0CB01089504D06894B11122C196
:102CD000089505D188F09F5790F0B92F9927B751E3
:102CE000A0F0D1F0660F771F881F991F1AF0BA95D0
:102CF000C9F712C0B13081F00CD1B1E0089509C11B
:102D0000672F782F8827B85F39F0B93FCCF38695C5
:102D100077956795B395D9F73EF490958095709522
:102D200061957F4F8F4F9F4F0895E89409C097FB9F
:102D30003EF490958095709561957F4F8F4F9F4F92
:102D40009923A9F0F92F96E9BB279395F6958795D6
:102D500077956795B795F111F8CFFAF4BB0F11F499
:102D600060FF1BC06F5F7F4F8F4F9F4F16C0882340
:102D700011F096E911C0772321F09EE8872F762F76
:102D800005C0662371F096E8862F70E060E02AF0B7
:102D90009A95660F771F881FDAF7880F96958795A3
:102DA00097F90895990F0008550FAA0BE0E8FEEF78
:102DB00016161706E807F907C0F012161306E407FF
:102DC000F50798F0621B730B840B950B39F40A26F8
:102DD00061F0232B242B252B21F408950A2609F4D6
:102DE000A140A6958FEF811D811D089597F99F67DA
:102DF00080E870E060E008959FEF80EC0895909582
:102E000080957095609550954095309521953F4FF0
:102E10004F4F5F4F6F4F7F4F8F4F9F4F089500244D
:102E20000A941616170618060906089500240A942F
:102E300012161306140605060895DECF50D0E8F3E7
:102E4000E894E0E0BB279F57F0F02AED3FE049EC23
:102E500006C0EE0FBB0F661F771F881F28F0B23A1F
:102E600062077307840728F0B25A620B730B840B56
:102E7000E3959A9572F7803830F49A95BB0F661FE8
:102E8000771F881FD2F7904879C1092E0394000C50
:102E900011F4882352F0BB0F40F4BF2B11F460FFF4
:102EA00004C06F5F7F4F8F4F9F4F0895EF93E0FFF8
:102EB00006C0A2EA2AED3FE049EC5FEB09DEE5DF60
:102EC0000F90039401FC9058ECEBF0E08FC157FD9C
:102ED0009058440F551F59F05F3F71F04795880F88
:102EE00097FB991F61F09F3F79F08795089512161F
:102EF00013061406551FF2CF4695F1DF08C01616CB
:102F000017061806991FF1CF86957105610508947B
:102F10000895E894BB2766277727CB0197F9089592
:102F200041DF08F48FEF08950BD0AFCF78DF28F0A2
:102F30007DDF18F0952309F059CF5ECF1124EACF39
:102F4000C6DFA0F3959FD1F3950F50E0551F629F08
:102F5000F001729FBB27F00DB11D639FAA27F00DF2
:102F6000B11DAA1F649F6627B00DA11D661F829F19
:102F70002227B00DA11D621F739FB00DA11D621FFE
:102F8000839FA00D611D221F749F3327A00D611D1B
:102F9000231F849F600D211D822F762F6A2F1124FD
:102FA0009F5750408AF0E1F088234AF0EE0FFF1F50
:102FB000BB1F661F771F881F91505040A9F79E3F87
:102FC000510570F013CFA6CF5F3FECF3983EDCF3D2
:102FD000869577956795B795F795E7959F5FC1F7C4
:102FE000FE2B880F911D9695879597F90895FA0104
:102FF000EE0FFF1F30962105310599F1611571051E
:1030000061F48038BFE39B0749F1689490388105EB
:1030100061F08038BFEF9B0741F0992342F5FF3FF5
:10302000E1053105210511F1E8940894E795D901EE
:10303000AA2329F4AB2FBE2FF85FD0F310C0FF5F97
:1030400070F4A695E0F7F73950F019F0FF3A38F42C
:103050009F779F930CD00F9007FC905808953EF0F7
:10306000CBCE60E070E080E89FE308954FE79F7764
:103070005F934F933F932F930CD12F913F914F919B
:103080005F9152DF4DC09F93D9DE0F9007FCEE5F3A
:103090000DCF11F40EF4B0CE6FC021DFD0F3992321
:1030A000D9F3CEF39F57550B87FF74D00024A0E6C9
:1030B00040EA900180585695979528F4805C660FF9
:1030C000771F881F20F026173707480730F4621B48
:1030D000730B840B202931294A2BA695179407944A
:1030E000202531254A2758F7660F771F881F20F0C3
:1030F00026173707480730F4620B730B840B200D3B
:10310000311D411DA09581F7B901842F9158880F79
:1031100096958795089519F40EF068CEFACE6CCE88
:10312000DEDEC8F39638C0F707F80F92E8942BE379
:103130003AEA48EB5FE706DF0F920F920F924DB726
:103140005EB70F92E6D0EAEDF0E02BD04F915F91A1
:10315000EF91FF91E595EE1FFF1F49F0FE57E068E4
:103160004427EE0F441FFA95E1F74195550B58D0CF
:103170000F9007FE4CC008959F3F31F0915020F40E
:10318000879577956795B795880F911D9695879543
:1031900097F9089591505040660F771F881FD2F716
:1031A0000895DF93CF931F930F93FF92EF92DF92D7
:1031B0007B018C01689405C0DA2EEF01C1DEFE01AF
:1031C000E894A5912591359145915591AEF3EF0184
:1031D0007FDCFE019701A801DA9479F7DF90EF9088
:1031E000FF900F911F91CF91DF9108959F938F933F
:1031F0007F936F93FF93EF939B01AC0195DEEF916B
:10320000FF91CFDF2F913F914F915F918DCE9B0129
:10321000AC0160E070E080E89FE3B4CCE7CDACCFD8
:103220005EDEE8F39923D9F3940F511DBBF391505F
:10323000504094F059F0882332F0660F771F881FB2
:1032400091505040C1F79E3F510544F7880F911DA2
:103250009695879597F908955F3FACF0983E9CF05E
:10326000BB27869577956795B79508F4B1609395D8
:10327000C1F7BB0F58F711F460FFE8CF6F5F7F4FC6
:103280008F4F9F4FE3CF46CE0EF076CFB5CD6894EB
:10329000ADCD25DEC8F39923D1F3C6F3DF93CF93E9
:1032A0001F930F93FF92C92FDD2788232AF02197C0
:1032B000660F771F881FDAF720E030E040E85FEB09
:1032C0009FE3883920F0803E30F021968F77EFDB46
:1032D000E2E0F1E003C0EBDBEFE2F1E062DF8B0163
:1032E000BE01EC01FB2E6F5771097595771F880B96
:1032F000990B1DDD28E132E741E35FE321DEAF2DCD
:103300009801AE01FF900F911F91CF91DF91E0DB0B
:10331000BCCDFA01DC01AA0FBB1F9B01AC01BF575A
:1033200028F422273327442750781FC0B75188F448
:10333000AB2F0024469537952795011CA395D2F312
:10334000002069F0220F331F441FB395DAF30DD02C
:10335000ADCB61307105A0E88A07B94630F49B0116
:10336000AC016627772788279078309621F0208354
:1033700031834283538308958F929F92AF92BF927D
:10338000CF92DF92EF92FF92CF93DF93EC016881AF
:1033900079818A819B81611571058105910521F4EF
:1033A00064E279ED8BE597E02DE133EF41E050E009
:1033B000E6D549015A019B01AC01A7EAB1E4FBD56E
:1033C0006B017C01ACEEB4EFA501940100D6C60EF2
:1033D000D71EE81EF91EF7FE06C081E0C81AD10804
:1033E000E10880E8F80AC882D982EA82FB82C60135
:1033F0009F77DF91CF91FF90EF90DF90CF90BF90BC
:10340000AF909F908F900895B7CF80E091E0B4CFB8
:10341000A0E0B0E08093000190930101A09302012D
:10342000B09303010895FB01DC0105900D9200208B
:10343000E1F70895AEE0B0E0EFE1FAE1C6CA0D8928
:103440001E8986E08C831A8309838FEF9FE79E8312
:103450008D83AE01475E5F4F6F89788DCE010196F7
:103460001ED0EF81F885E00FF11F10822E96E4E068
:10347000C8CAAEE0B0E0EEE3FAE1A9CA85E08C8309
:103480008B899C899A838983AE01495E5F4F6D89E0
:103490007E89CE01019637D32E96E2E0B4CAACE025
:1034A000B0E0E4E5FAE183CA7C016B018A01FC012A
:1034B00017821682838181FFB0C1CE0101964C0133
:1034C000F7019381F60193FD859193FF81916F013F
:1034D000882309F49EC1853239F493FD859193FFC9
:1034E00081916F01853221F4B70190E09CD4E8CF3F
:1034F000512C312C20E02032A0F48B3269F030F4D2
:10350000803259F0833269F420612CC08D3239F059
:10351000803339F4216026C02260246023C02860F3
:1035200021C027FD27C030ED380F3A3078F426FF50
:1035300006C0FAE05F9E300D1124532E13C08AE0BE
:10354000389E300D1124332E20620CC08E3221F4AF
:1035500026FD5FC1206406C08C3611F4206802C0CD
:10356000883641F4F60193FD859193FF81916F01B7
:103570008111C1CF982F9F7D9554933028F40C5F13
:103580001F4FFFE3F9830DC0833631F0833771F0AD
:10359000833509F057C021C0F801808189830E5F0F
:1035A0001F4F44244394512C540114C03801F2E0BD
:1035B0006F0E711CF801A080B18026FF03C0652D3D
:1035C00070E002C06FEF7FEFC5012C87E3D32C01C1
:1035D00083012C852F77222E16C03801F2E06F0E62
:1035E000711CF801A080B18026FF03C0652D70E03A
:1035F00002C06FEF7FEFC5012C87C1D32C012C8552
:103600002068222E830123FC19C0832D90E04816E8
:103610005906A0F4B70180E290E005D43A94F5CFC2
:10362000F50127FC859127FE81915F01B70190E0AC
:10363000FAD331103A94F1E04F1A51084114510471
:1036400079F7DEC0843611F0893631F5F80127FFAD
:1036500007C060817181828193810C5F1F4F08C018
:1036600060817181882777FD8095982F0E5F1F4FAD
:103670002F76B22E97FF09C0909580957095619531
:103680007F4F8F4F9F4F2068B22E2AE030E0A40179
:1036900015D4A82EA81843C0853729F42F7EB22E42
:1036A0002AE030E025C0F22FF97FBF2E8F36C1F01F
:1036B00018F4883579F0ADC0803719F0883721F0DB
:1036C000A8C02F2F2061B22EB4FE0DC08B2D8460B8
:1036D000B82E09C024FF0AC09F2F9660B92E06C0DD
:1036E00028E030E005C020E130E002C020E132E017
:1036F000F801B7FE07C060817181828193810C5F00
:103700001F4F06C06081718180E090E00E5F1F4F07
:10371000A401D4D3A82EA818FB2DFF77BF2EB6FE88
:103720000BC02B2D2E7FA51450F4B4FE0AC0B2FCA2
:1037300008C02B2D2E7E05C07A2C2B2D03C07A2C91
:1037400001C0752C24FF0DC0FE01EA0DF11D808122
:10375000803311F4297E09C022FF06C0739473944C
:1037600004C0822F867809F0739423FD12C020FFD5
:1037700006C05A2C731418F4530C5718732C731476
:1037800060F4B70180E290E02C874DD373942C85D0
:10379000F6CF731410F4371801C0312C24FF11C078
:1037A000B70180E390E02C873ED32C8522FF16C022
:1037B00021FF03C088E590E002C088E790E0B701F0
:1037C0000CC0822F867851F021FD02C080E201C03A
:1037D0008BE227FD8DE2B70190E025D3A51430F4EC
:1037E000B70180E390E01FD35A94F8CFAA94F40174
:1037F000EA0DF11D8081B70190E015D3A110F6CF3D
:10380000332009F45DCEB70180E290E00CD33A9406
:10381000F7CFF7018681978102C08FEF9FEF2C963B
:10382000E2E1E1C820FD09C0FC0123FD05C022FF43
:1038300002C07383628351834083089544FD10C0A6
:1038400046FD10C0DB01FC01AA0FBB1FEE1FFF1FCE
:103850001094D1F76A0F7B1F8E1F9F1F31E003C0AA
:1038600033E001C034E0660F771F881F991F315085
:10387000D1F7620F711D811D911D08950F931F9344
:10388000CF93DF938C01C80190D2EC0197FD06C065
:1038900063D2892BC1F7B801CE01F7D2CE01DF91F7
:1038A000CF911F910F9108958F929F92AF92CF92D7
:1038B000DF92EF92FF920F931F93CF93DF93EC0170
:1038C000A62E4A01022F71D2AC0155274B32510569
:1038D00021F04D32510549F40068AA9411F480E0BA
:1038E00060C0CE0162D297FDFACF102F1D7F302F1E
:1038F0003073F1F48033E1F4FF24FA94FA0C09F404
:103900003DC0CE0152D297FD39C0382F3F7D3835AA
:1039100049F41264AA94AA9489F1CE0146D297FF81
:1039200007C02CC006FF02C0126001C01261AF2C9C
:10393000C12CD12C760120ED280F283078F014FF0F
:1039400003C0BE01A2D217C02A3040F016FFF9CF43
:103950002F7D3FEE320F3630A0F72750412FC701A1
:10396000B6016CDF6B017C011260AA9451F0CE01AC
:103970001CD297FFE0CF11FD04C0B1CFC12CD12CD8
:10398000760117FF08C0F094E094D094C094C11C55
:10399000D11CE11CF11C212FB701A601C40142DF9B
:1039A00081E0DF91CF911F910F91FF90EF90DF9019
:1039B000CF90AF909F908F900895A1E2B0E0E3EE9A
:1039C000FCE10C94DC145C017A018E010F5F1F4F47
:1039D000680180E2D8011D928A95E9F7F5017380AC
:1039E00040E050E0812CB0E0912C81E090E0F901C2
:1039F00073FCA59173FEA1918F017A2F9F01A111F4
:103A000003C080E090E07BC0AE3519F4411551054C
:103A100059F1E92DF0E0E417F5073CF4AD3569F113
:103A2000AD3219F4BB2319F103C0B11101C08A2EC4
:103A3000E72FE695E695E69586010E0F111DF80134
:103A4000A72FA7708C0102C0000F111FAA95E2F7E3
:103A5000D801B081BA2BB083781559F0781510F4DD
:103A60007F5FE6CF7150E4CF9924939403C0B1E017
:103A700001C0B0E04F5F5F4FBACFBB2319F08E811A
:103A800080628E83911003C09924939415C0F6012F
:103A9000CE018196208120952193E817F907D1F76F
:103AA000F3CFE114F10429F0D7018C93F70131969B
:103AB0007F016150F1F0912CC50169A376D169A114
:103AC00097FD15C0282F269526952695F601E20F1D
:103AD000F11D208130E0AC014770552702C03595BB
:103AE00027954A95E2F720FDDCCFB501CED19110A4
:103AF00088CFE114F10411F0D7011C92C801A196FE
:103B0000EDE00C94F8144F925F927F928F929F9207
:103B1000AF92BF92CF92DF92EF92FF920F931F93DB
:103B2000CF93DF931F92CDB7DEB78C012B017A01C3
:103B3000FC0117821682A12CF801D380F201D3FC7C
:103B40008591D3FE8191382F2F01882309F4EEC08F
:103B500090E0398301D13981892B19F0C8018EDEBB
:103B6000EBCF353241F4F201D3FC3591D3FE3191E4
:103B70002F01353259F4C801398317D1398197FDA6
:103B8000D3C03817C9F2B80180D1D0C03A3241F45D
:103B9000D3FC3591D3FE31912F01BB24B39401C0E6
:103BA000B12C712C20ED230F2A3088F4FB2DF2600C
:103BB000BF2E672D70E080E090E040E23FDE762E81
:103BC000F201D3FC3591D3FE31912F01EBCFB1FE41
:103BD00003C0711003C0AAC077247A94383619F054
:103BE0003C3661F014C0F201D3FC3591D3FE319123
:103BF0002F01383661F4FB2DF860BF2E8B2D8460C9
:103C0000B82EF201D3FC3591D3FE31912F0133232D
:103C100009F48CC0632F70E08EE495E03983A4D062
:103C20003981892B09F482C0B0FC07C0F701C0803C
:103C3000D180C70102967C0102C0C12CD12C3E3636
:103C400049F4F8014681578160E070E02B2DC601F0
:103C5000E9DD72CF333699F4B1FC02C07724739456
:103C6000C801A3D097FD60C0C114D10429F0F601AA
:103C70008083C60101966C017A9491F751C03B355F
:103C800051F49201A601672DC80197DE2C0100971F
:103C900009F046C040C0C8013983F0DD398197FD85
:103CA00043C03F3651F128F4343619F1393661F109
:103CB00028C0333769F03537E1F023C0C114D1048F
:103CC00029F0F6018082C60101966C017A9459F0C0
:103CD000C8016BD04C0197FD06C03ED0892B71F313
:103CE000B801C401D2D0C114D104D1F0F6011082C0
:103CF00017C0FB2DF062BF2E07C08B2D8061B82E40
:103D000003C09B2D9064B92E2B2DA601672DC801F1
:103D1000CBDD811105C0F8018381807329F406C0D1
:103D2000B0FC0ACFA39408CFAA2019F08A2D90E006
:103D300002C08FEF9FEF0F90DF91CF911F910F91F6
:103D4000FF90EF90DF90CF90BF90AF909F908F90BB
:103D50007F905F904F90089591110EC1803219F0BD
:103D600089508550D0F70895FC010590061621F082
:103D70000020D9F7C00108953197CF010895FC01C3
:103D80000590615070400110D8F7809590958E0F86
:103D90009F1F0895FC016150704001900110D8F7F9
:103DA000809590958E0F9F1F0895CF93DF93EC0120
:103DB0002B8120FF33C026FF0AC02F7B2B838E81EF
:103DC0009F8101969F838E838A8190E029C022FF84
:103DD0000FC0E881F9818081992787FD9095009730
:103DE00019F420622B831AC03196F983E8830EC040
:103DF000EA85FB85099597FF09C02B81019611F48F
:103E000080E101C080E2822B8B8308C02E813F813C
:103E10002F5F3F4F3F832E83992702C08FEF9FEF85
:103E2000DF91CF9108950F931F93CF93DF93182FB6
:103E3000092FEB018B8181FD03C08FEF9FEF20C025
:103E400082FF10C04E815F812C813D814217530754
:103E50007CF4E881F9819F012F5F3F4F39832883EC
:103E6000108306C0E885F985812F0995892B29F7EC
:103E70002E813F812F5F3F4F3F832E83812F902FD5
:103E8000DF91CF911F910F910895FB01238120FFB6
:103E900012C026FD10C08F3F3FEF930761F0828371
:103EA0002F7D206423832681378121503109378378
:103EB0002683992708958FEF9FEF0895FA01AA2787
:103EC000283051F1203181F1E8946F936E7F6E5F5D
:103ED0007F4F8F4F9F4FAF4FB1E03ED0B4E03CD00B
:103EE000670F781F891F9A1FA11D680F791F8A1FEE
:103EF000911DA11D6A0F711D811D911DA11D20D055
:103F000009F468943F912AE0269F11243019305D0E
:103F10003193DEF6CF010895462F4770405D4193FF
:103F2000B3E00FD0C9F7F6CF462F4F70405D4A334C
:103F300018F0495D31FD4052419302D0A9F7EACF14
:103F4000B4E0A6959795879577956795BA95C9F743
:103F500000976105710508959B01AC010A2E069436
:103F60005795479537952795BA95C9F7620F731FEF
:103F7000841F951FA01D0895992788270895052E51
:103F800097FB16F400940FD057FD05D024D007FC02
:103F900002D046F408C050954095309521953F4F8A
:103FA0004F4F5F4F089590958095709561957F4F25
:103FB0008F4F9F4F089531D0A59F900DB49F900DC6
:103FC000A49F800D911D11240895B7FFF4CFF3DF56
:103FD000821B930B0895A1E21A2EAA1BBB1BFD01A5
:103FE0000DC0AA1FBB1FEE1FFF1FA217B307E407D8
:103FF000F50720F0A21BB30BE40BF50B661F771F30
:10400000881F991F1A9469F760957095809590950F
:104010009B01AC01BD01CF010895A29FB001B39FE8
:10402000C001A39F700D811D1124911DB29F700DC1
:0C403000811D1124911D0895F894FFCF0C
:10403C00010000004578706572696D656E74206EC4
:10404C00756D6265723A20002575002C20457870DC
:10405C006572696D656E746174696F6E2074696DDB
:10406C006520286D73293A200020200D0A20200D90
:10407C000A0074696D65732072756E3A20002537DD
:10408C0075002020007C20206D69737365642064AA
:10409C006561646C696E65733A20000D0A5761693D
:1040AC0074696E6720666F72207573657220696E15
:1040BC007075742E2E2E20000D0A596F75722063A8
:1040CC00686F6963653A20002020200D0A00256383
:1040DC00202564000D0A2D2D2D2D2D205072696E7A
:1040EC0074696E6720616C6C206578706572696D9F
:1040FC00656E742064617461202D2D2D2D2D0D0A9B
:10410C00003C6E756D3E206F7574206F6620726179
:10411C006E67652E0D0A004578706572696D656E67
:10412C007420697320736574757020262072656124
:10413C00647920746F2072756E2E0D0A00526563BF
:10414C006F6E6669677572656420677265656E204F
:10415C004C4544207461736B2E0D0A00416C6C202D
:10416C006578706572696D656E7420646174612028
:10417C0072657365742E0D0A004578706572696DF1
:10418C00656E7420737461727465642E0D0A00512F
:10419C0075697474696E67206D656E752E2E2E0DA3
:1041AC000A00496E76616C696420757365722069CA
:1041BC006E7075742C2074727920616761696E2E33
:0441CC000D0A0000D8
:00000001FF
