:100000005BC0000075C0000073C0000071C000003C
:100010006FC000006DC000006BC0000069C0000030
:1000200067C00000DAC0000063C0000061C00000CB
:100030005FC000005DC000005BC0000059C0000050
:1000400057C0000028C1000053C0000051C000008C
:100050004FC000004DC000004BC0000049C0000070
:1000600047C00000DFC4000043C000003CC50000E2
:100070003FC000003DC000003BC0000039C0000090
:100080008CC1000035C0000033C0000031C000004A
:100090002FC000002DC000002BC0000029C00000B0
:1000A00027C0000025C0000023C000006364696E03
:1000B0006F70737578585B0011241FBECFEFDAE0C4
:1000C000DEBFCDBF13E0A0E0B1E0E4E5F7E102C0A0
:1000D00005900D92AC3DB107D9F724E0ACEDB3E04B
:1000E00001C01D92AF35B207E1F7B7D50C94A80B4C
:1000F00087CF10924D0410924E0410924F0410922C
:100100005004109251041092520410925304109211
:1001100054041092570410925804109259041092EB
:100120005A0410925B0410925C0410925D041092C9
:100130005E0410924C0481E090E09093560480930A
:100140005504089585B190E1892785B9089583E024
:1001500047D3882369F03CD4882351F081E090E0B4
:100160005DD2882329F089E190E0C9D2811103C0D2
:1001700080E090E09AC1089585B1806585B95E9A66
:10018000479A5D98089585B18F7A85B95E984798AA
:100190005D9A0895AEDF84B1806584B9569AECDF2C
:1001A0002FEF83ED90E3215080409040E1F700C0B5
:1001B0000000E9CF209184003091850040919400A7
:1001C000509195004223477002C0369527954A9575
:1001D000E2F7682F70E0C90178C51F920F920FB641
:1001E0000F9211242F933F934F935F936F937F93BD
:1001F0008F939F93AF93BF93EF93FF9323B123FB11
:10020000882780F990E020915504309156042130E0
:10021000310591F4009781F42FEF89EF90E02150A0
:1002200080409040E1F700C000001B9923C010926D
:100230005604109255041EC0209155043091560466
:10024000232BC1F40197B1F42FEF89EF90E02150F7
:1002500080409040E1F700C0000081E090E0909382
:100260005604809355040FD11AD183E0D0D27894EC
:10027000C4D46DDFFF91EF91BF91AF919F918F91AA
:100280007F916F915F914F913F912F910F900FBE92
:100290000F901F9018951F920F920FB60F92112476
:1002A000AF92BF92CF92DF92EF92FF920F931F9384
:1002B0002F933F934F935F936F937F938F939F936E
:1002C000AF93BF93EF93FF9320915704309158045D
:1002D0004091590450915A0460915B0470915C0400
:1002E00080915D0490915E04A1E0B6D520935704FF
:1002F000309358044093590450935A0460935B041C
:1003000070935C0480935D0490935E042091570485
:10031000309158044091590450915A0460915B0403
:1003200070915C0480915D0490915E04E4E6AE2ED1
:10033000B12CC12CD12CE12CF12C00E010E0D9D44F
:10034000A0E09FD589F481E080934D0410924E0483
:1003500010924F04109250041092510410925204C3
:100360001092530410925404FF91EF91BF91AF91FA
:100370009F918F917F916F915F914F913F912F91BD
:100380001F910F91FF90EF90DF90CF90BF90AF90B3
:100390000F900FBE0F901F9018951F920F920FB6DF
:1003A0000F9211242F933F934F935F936F937F93FB
:1003B0008F939F93AF93BF93EF93FF9380914C04E0
:1003C0008F5F80934C0480914C04837021F48BB137
:1003D00090E489278BB985E0EDDE843041F4479ABB
:1003E0008FE19EE40197F1F700C000004798FF916C
:1003F000EF91BF91AF919F918F917F916F915F919D
:100400004F913F912F910F900FBE0F901F90189515
:10041000479A5D9A2FEF43EC59E0215040405040FD
:10042000E1F700C000008CE090E030E228B12058F5
:1004300028B92BB123272BB92FEF41EE54E02150DF
:1004400040405040E1F700C000000197009771F76D
:1004500047985D9A08952FEF81EE94E021508040F7
:100460009040E1F700C000003F9A559A84B1867F22
:1004700084B985B1896085B9CBCFEFE6F0E08081A2
:10048000826080830895EFE6F0E080818D7F808335
:100490000895E1E7F0E08081826080830895E1E7DC
:1004A000F0E080818D7F80830895F894209A0097F2
:1004B00021F0019719F45D9A01C0479A289AFFCF5D
:1004C000AAE0B0E0E5E6F2E072C478876F836901E4
:1004D0007A01BC0180E090E082D59B01AC0160E034
:1004E00070E08AE794E4D9D49B01AC0160E074E247
:1004F00084E79BE4D2D43ED5F22FE32F49875A8775
:100500006B837C838D839E8316012701612C712C64
:10051000430156016201E12CF12C00E010E0A8D467
:1005200048F4CF01AF81B8859C9311968C9381E0FC
:1005300090E071C02F2F3E2F49855A856B817C81B9
:100540008D819E8103E06CD4D90151016201E12CBF
:10055000F12C00E010E08CD438F4EF81F885A08312
:10056000B18388E090E057C02F2F3E2F49855A85F0
:100570006B817C818D819E8106E052D4D90151012D
:100580006201E12CF12C00E010E072D450F49A2FBB
:100590008B2FAF81B8859C9311968C9380E490E06B
:1005A0003AC02F2F3E2F49855A856B817C818D81E2
:1005B0009E8108E035D4D90151016201E12CF12C72
:1005C00000E010E055D438F4EF81F885A083B183C2
:1005D00080E091E020C02F2F3E2F49855A856B8106
:1005E0007C818D819E810AE01BD4F22FE32F510183
:1005F0006201E12CF12C00E010E03AD448F4CF0184
:10060000AF81B8859C9311968C9380E094E003C0F1
:1006100080E090E04ADF2A96E2E1E5C3A2E0B0E0A4
:10062000E3E1F3E0D4C320E030E041E050E0BE017C
:100630006F5F7F4F45DF009709F45EC01092850021
:1006400010928400209181002860209381002091E5
:1006500081002F7E20938100209180002C7F2093A9
:10066000800029813A8121503109309389002093FB
:10067000880020916F00226020936F0088309105E0
:10068000D9F058F4019779F580918100897F8093A2
:10069000810080918100816017C080349105D1F084
:1006A0008115914001F580918100846080938100E3
:1006B000809181008C7F08C0809181008A7F809327
:1006C00081008091810082608093810081E0229688
:1006D000E2E099C3809181008B7F809381008091BB
:1006E00081008360F1CF80918100856080938100DB
:1006F000809181008D7FE8CF80E090E0D6DEA2E09F
:10070000B0E0E4E8F3E063C320E030E041E050E033
:10071000BE016F5F7F4FD4DE009709F45EC0109278
:1007200095001092940020919100286020939100F0
:10073000209191002F7E20939100209190002C7F9A
:100740002093900029813A812150310930939900FA
:1007500020939800209171002260209371008830CE
:100760009105D9F058F4019779F580919100897F2E
:100770008093910080919100816017C08034910531
:10078000D1F08115914001F58091910084608093B2
:100790009100809191008C7F08C0809191008A7FA8
:1007A000809391008091910082608093910081E01C
:1007B0002296E2E028C3809191008B7F8093910084
:1007C000809191008360F1CF80919100856080934A
:1007D0009100809191008D7FE8CF80E090E065DE10
:1007E00090916800916090936800883018F080E0E4
:1007F00090E05BDE90916B0021E030E001C0220FC1
:100800008A95EAF7922B90936B0081E0089590917E
:1008100068009E7F90936800883070F490916B0020
:1008200021E030E0082E01C0220F0A94EAF720955B
:10083000292320936B00089580E090E036DE10922B
:1008400016041092150410924A0410924904109252
:10085000E2030895109216041092150410924A04AF
:100860001092490408958091E3038093CE0081E0C3
:10087000809316040895CF93DF93EC018091E203F7
:10088000833018F081E090E010DEE091E203F0E0C8
:10089000EE0FFF1FE452FC4FD183C0838091E2032F
:1008A00091E0980F9093E203DF91CF910895E2EEEB
:1008B000F3E08081815080830895009719F00197BB
:1008C000A1F029C0CB010197029748F48091C9009B
:1008D00080618093C9006230710519F01AC0672BDE
:1008E000C1F48091C900886012C0CB0101970297C2
:1008F00048F48091C9008F7E8093C90062307105F1
:1009000019F007C0672B29F48091C900877F809375
:10091000C90081E0089580E00895CF93DF93EC0152
:100920008EDF8091CA008F7C8093CA008091CA00BC
:10093000877F8093CA008091C9008B7F8093C90014
:100940008091CA0086608093CA008091C9008C7F24
:100950008093C9008091CA008E7F8093CA008091E5
:10096000CB008C7F8093CB00209761F02197F9F426
:1009700080E190E09093CD008093CC008091C800FE
:10098000826009C087E090E09093CD008093CC0016
:100990008091C8008D7F8093C8008091C8008E7FB1
:1009A0008093C8008091CA008F738093CA0062E070
:1009B00070E080E090E081DFDF91CF910895E091D9
:1009C0004904F0E0E95EFB4F80818093CE000895FA
:1009D000E9ECF0E08081806C808381E00895E9ECAF
:1009E000F0E080818F73808381E00895A1E0B0E022
:1009F000EBEFF4E0EAC1182F0091C9009983EFDF13
:100A0000E12F9981F92F8191882339F09091C800C5
:100A100095FFFCCF8093CE00F6CF0093C9002196BE
:100A2000E4E0EFC11F920F920FB60F9211242F93A3
:100A30003F934F935F936F937F938F939F93AF9366
:100A4000BF93CF93EF93FF9380914904823310F0CB
:100A5000109249048091CE00E0914904F0E0E95EF3
:100A6000FB4F8083ACDF90914904E92FF0E0E95E11
:100A7000FB4F80818D3011F08A30D1F4108280914B
:100A8000E2038823F1F0C0E08091E203C817C8F4C4
:100A9000EC2FF0E0EE0FFF1FE452FC4F0190F081CD
:100AA000E02D69E474E087E194E00995CF5FECCF35
:100AB000883011F08F3711F4915001C09F5F9093EF
:100AC0004904FF91EF91CF91BF91AF919F918F9189
:100AD0007F916F915F914F913F912F910F900FBE3A
:100AE0000F901F9018951F920F920FB60F9211241E
:100AF0008F939F93EF93FF93809116049091150429
:100B0000891750F4E82FF0E0ED51FC4F908190935D
:100B1000CE008F5F80931604FF91EF919F918F918C
:100B20000F900FBE0F901F901895A3E0B0E0EAE978
:100B3000F5E04BC1182F092F61E070E081E090E0F3
:100B4000BCDE80E091E052DF812F902F4FDF80E10B
:100B500091E04CDF9E012F5F3F4F3F932F932E5F1D
:100B60003F4F3F932F9326E131E03F932F930F9315
:100B70001F93D3D20FB6F894DEBF0FBECDBF1816A9
:100B80001906BCF52B81203789F044F4253689F00D
:100B9000273679F58BE591E029DF15C0223771F012
:100BA00094F02A3731F58EE391E025C08CE191E095
:100BB00022C00297F1F481EA91E01DC00297C9F4C6
:100BC00087EC91E018C081E791E010DF81E080932D
:100BD0004B0480914B04811108C084E891E006DF4A
:100BE00061E070E080E090E068DE34DE2396E4E0CF
:100BF00008C186EE91E0FADEECCF1F93CF93DF932E
:100C000062E070E080E090E058DE85E995E033DE58
:100C1000D82F87E092E0EADEC0E018E280914B0432
:100C2000811113C08C2F612F44D0911103C084E82F
:100C300091E0DCDE2FEF89E698E121508040904082
:100C4000E1F700C00000CF5FE9CF8D2F30DE1092BA
:100C50004B04DF91CF911F910895FDDB78DA9ADA8A
:100C600081E090E05ADE789420914D0430914E045A
:100C700040914F045091500460915104709152047E
:100C80008091530490915404A0E0FBD069F35ADAA8
:100C900010924D0410924E0410924F041092500482
:100CA0001092510410925204109253041092540462
:100CB000DBCF991B79E004C0991F961708F0961BAB
:100CC000881F7A95C9F780950895AA1BBB1B51E12F
:100CD00007C0AA1FBB1FA617B70710F0A61BB70BAC
:100CE000881F991F5A95A9F780959095BC01CD0151
:100CF0000895689401C0E8948F929F92CF93DF93F8
:100D000005D0DF91CF919F908F90089588249924EA
:100D1000F401E401B0E49F93AA279A158B049C0484
:100D2000ED05FE05CF05D007A10798F4AD2FDC2F08
:100D3000CF2FFE2FE92D982C892E982F872F762FD5
:100D4000652F542F432F322F2227B85031F7BF91F0
:100D500027C01B2EBF91BB27220F331F441F551FD7
:100D6000661F771F881F991F881C991CEE1FFF1F85
:100D7000CC1FDD1FAA1FBB1F8A149B04EC05FD05B9
:100D8000CE05DF05A007B10748F08A189B08EC09DB
:100D9000FD09CE09DF09A00BB10B21601A94E1F621
:100DA0002EF49401AF01BE01CD01000C08952F92E5
:100DB0003F924F925F926F927F928F929F92AF92EB
:100DC000BF92CF92DF92EF92FF920F931F93CF9338
:100DD000DF93CDB7DEB7CA1BDB0B0FB6F894DEBFCF
:100DE0000FBECDBF09942A88398848885F846E84F5
:100DF0007D848C849B84AA84B984C884DF80EE803F
:100E0000FD800C811B81AA81B981CE0FD11D0FB647
:100E1000F894DEBF0FBECDBFED01089597FB10F82B
:100E2000169400080F93083098F00850232F342FA1
:100E3000452F562F672F782F892F902DF4CF0594AB
:100E40009795879577956795579547953795279502
:100E50000A95AAF70F9108950024A7FD00942A0F80
:100E6000301D401D501D601D701D801D901D08957A
:100E70002A153B054C055D056E057F05800791072A
:100E800008950024A7FD00942A1730054005500559
:100E9000600570058005900508950CD004C1FCD054
:100EA00040F0F3D030F021F45F3F19F0D5C051117C
:100EB0002EC1D8C009D198F39923C9F35523B1F3B2
:100EC000951B550BBB27AA2762177307840738F0B9
:100ED0009F5F5F4F220F331F441FAA1FA9F333D018
:100EE0000E2E3AF0E0E830D091505040E695001CCC
:100EF000CAF729D0FE2F27D0660F771F881FBB1F88
:100F0000261737074807AB07B0E809F0BB0B802D61
:100F1000BF01FF2793585F4F2AF09E3F510568F0AD
:100F20009BC0F5C05F3FECF3983EDCF38695779568
:100F30006795B795F7959F5FC9F7880F911D9695AF
:100F4000879597F90895E1E0660F771F881FBB1F0B
:100F5000621773078407BA0720F0621B730B840BB8
:100F6000BA0BEE1F88F7E0950895BEE304D008F4AD
:100F700090E80895BFE322273327A901ADD058F1A7
:100F80009F5740F1B91738F1BFE3B91B9927B85003
:100F90003AF4660F771F881F991FB395D2F316C0D6
:100FA000B8504AF0232F342F452F562F672F782F14
:100FB0008827B850BAF7B85F49F086957795679556
:100FC0005795479537952795BA95B9F70EF44DD0B3
:100FD00088940895889460E070E0CB010895E894C7
:100FE00009C097FB3EF490958095709561957F4F71
:100FF0008F4F9F4F9923A9F0F92F96E9BB2793951F
:10100000F695879577956795B795F111F8CFFAF42E
:10101000BB0F11F460FF1BC06F5F7F4F8F4F9F4F5F
:1010200016C0882311F096E911C0772321F09EE8BD
:10103000872F762F05C0662371F096E8862F70E023
:1010400060E02AF09A95660F771F881FDAF7880FFD
:101050009695879597F9089597F99F6780E870E0CE
:1010600060E008959FEF80EC0895909580957095CD
:10107000609550954095309521953F4F4F4F5F4F6C
:101080006F4F7F4F8F4F9F4F089500240A9416167D
:10109000170618060906089500240A941216130666
:1010A000140605060895092E0394000C11F48823F4
:1010B00052F0BB0F40F4BF2B11F460FF04C06F5F10
:1010C0007F4F8F4F9F4F089557FD9058440F551FE6
:1010D00059F05F3F71F04795880F97FB991F61F0BA
:1010E0009F3F79F087950895121613061406551F31
:1010F000F2CF4695F1DF08C0161617061806991F9D
:10110000F1CF86957105610508940895E894BB2791
:1011100066277727CB0197F90895AEE0B0E0E2E9C2
:10112000F8E055CE85E08C838B899C899A838983EE
:10113000AE01495E5F4F6D897E89CE01019672D105
:101140002E96E2E060CE20FD09C0FC0123FD05C023
:1011500022FF02C07383628351834083089544FD5C
:1011600010C046FD10C0DB01FC01AA0FBB1FEE1F23
:10117000FF1F1094D1F76A0F7B1F8E1F9F1F31E056
:1011800003C033E001C034E0660F771F881F991F4A
:101190003150D1F7620F711D811D911D08950F937C
:1011A0001F93CF93DF938C01C80178D2EC0197FD98
:1011B00006C061D2892BC1F7B801CE01ADD2CE01F4
:1011C000DF91CF911F910F9108958F929F92AF92CF
:1011D000CF92DF92EF92FF920F931F93CF93DF9303
:1011E000EC01A62E4A01022F59D2AC0155274B32F1
:1011F000510521F04D32510549F40068AA9411F4CB
:1012000080E060C0CE014AD297FDFACF102F1D7F3B
:10121000302F3073F1F48033E1F4FF24FA94FA0CA8
:1012200009F43DC0CE013AD297FD39C0382F3F7D39
:10123000383549F41264AA94AA9489F1CE012ED2C9
:1012400097FF07C02CC006FF02C0126001C01261E8
:10125000AF2CC12CD12C760120ED280F283078F04E
:1012600014FF03C0BE0158D217C02A3040F016FF49
:10127000F9CF2F7D3FEE320F3630A0F72750412FA8
:10128000C701B6016CDF6B017C011260AA9451F0BA
:10129000CE0104D297FFE0CF11FD04C0B1CFC12C25
:1012A000D12C760117FF08C0F094E094D094C0943C
:1012B000C11CD11CE11CF11C212FB701A601C401E6
:1012C00042DF81E0DF91CF911F910F91FF90EF906E
:1012D000DF90CF90AF909F908F900895A1E2B0E003
:1012E000E3E7F9E069CD5C017A018E010F5F1F4FE2
:1012F000680180E2D8011D928A95E9F7F5017380B3
:1013000040E050E0812CB0E0912C81E090E0F901C8
:1013100073FCA59173FEA1918F017A2F9F01A111FA
:1013200003C080E090E07BC0AE3519F44115510553
:1013300059F1E92DF0E0E417F5073CF4AD3569F11A
:10134000AD3219F4BB2319F103C0B11101C08A2ECB
:10135000E72FE695E695E69586010E0F111DF8013B
:10136000A72FA7708C0102C0000F111FAA95E2F7EA
:10137000D801B081BA2BB083781559F0781510F4E4
:101380007F5FE6CF7150E4CF9924939403C0B1E01E
:1013900001C0B0E04F5F5F4FBACFBB2319F08E8121
:1013A00080628E83911003C09924939415C0F60136
:1013B000CE018196208120952193E817F907D1F776
:1013C000F3CFE114F10429F0D7018C93F7013196A2
:1013D0007F016150F1F0912CC50169A35FD169A132
:1013E00097FD15C0282F269526952695F601E20F24
:1013F000F11D208130E0AC014770552702C03595C2
:1014000027954A95E2F720FDDCCFB50185D19110F3
:1014100088CFE114F10411F0D7011C92C801A19604
:10142000EDE0E6CC4F925F927F928F929F92AF92C7
:10143000BF92CF92DF92EF92FF920F931F93CF93C1
:10144000DF931F92CDB7DEB78C012B017A01FC012F
:1014500017821682A12CF801D380F201D3FC85916A
:10146000D3FE8191382F2F01882309F4EEC090E03C
:10147000398301D13981892B19F0C80190DEEBCF76
:10148000353241F4F201D3FC3591D3FE31912F0175
:10149000353259F4C801398301D1398197FDD3C060
:1014A0003817C9F2B80138D1D0C03A3241F4D3FC70
:1014B0003591D3FE31912F01BB24B39401C0B12CDF
:1014C000712C20ED230F2A3088F4FB2DF260BF2E03
:1014D000672D70E080E090E040E241DE762EF20180
:1014E000D3FC3591D3FE31912F01EBCFB1FE03C078
:1014F000711003C0AAC077247A94383619F03C36AC
:1015000061F014C0F201D3FC3591D3FE31912F016B
:10151000383661F4FB2DF860BF2E8B2D8460B82E19
:10152000F201D3FC3591D3FE31912F01332309F41D
:101530008CC0632F70E08CEA90E03983A4D03981AD
:10154000892B09F482C0B0FC07C0F701C080D180AC
:10155000C70102967C0102C0C12CD12C3E3649F451
:10156000F8014681578160E070E02B2DC601EBDD6C
:1015700072CF333699F4B1FC02C077247394C8015A
:101580008DD097FD60C0C114D10429F0F60180838D
:10159000C60101966C017A9491F751C03B3551F424
:1015A0009201A601672DC80199DE2C01009709F070
:1015B00046C040C0C8013983F2DD398197FD43C080
:1015C0003F3651F128F4343619F1393661F128C02B
:1015D000333769F03537E1F023C0C114D10429F065
:1015E000F6018082C60101966C017A9459F0C80117
:1015F00055D04C0197FD06C03ED0892B71F3B80140
:10160000C4018AD0C114D104D1F0F601108217C0F0
:10161000FB2DF062BF2E07C08B2D8061B82E03C05A
:101620009B2D9064B92E2B2DA601672DC801CDDD11
:10163000811105C0F8018381807329F406C0B0FCD4
:101640000ACFA39408CFAA2019F08A2D90E002C0F7
:101650008FEF9FEF0F90DF91CF911F910F91FF9030
:10166000EF90DF90CF90BF90AF909F908F907F9042
:101670005F904F900895911168C0803219F08950A1
:101680008550D0F70895FC010590061621F0002042
:10169000D9F7C00108953197CF010895CF93DF9313
:1016A000EC012B8120FF33C026FF0AC02F7B2B8348
:1016B0008E819F8101969F838E838A8190E029C0CD
:1016C00022FF0FC0E881F9818081992787FD9095DD
:1016D000009719F420622B831AC03196F983E883AE
:1016E0000EC0EA85FB85099597FF09C02B810196FD
:1016F00011F480E101C080E2822B8B8308C02E812F
:101700003F812F5F3F4F3F832E83992702C08FEF8A
:101710009FEFDF91CF910895FB01238120FF12C03D
:1017200026FD10C08F3F3FEF930761F082832F7D2E
:101730002064238326813781215031093783268312
:10174000992708958FEF9FEF089599278827089587
:04175000F894FFCF3B
:101754000D0A596F75722063686F6963653A2000DA
:101764002020200D0A002563202564005072696E34
:1017740074696E6720616C6C206578706572696D40
:10178400656E7420646174612E2E2E0D0A00416C06
:101794006C206578706572696D656E74206461741F
:1017A400612072657365742E0D0A00457870657248
:1017B400696D656E7420737461727465642E0D0AAC
:1017C400005175697474696E67206D656E752E2E8F
:1017D4002E0D0A000D0A57616974696E6720666FE1
:1017E40072207573657220696E7075742E2E2E20AA
:1017F400004578706572696D656E74206973207335
:1018040065747570202620726561647920746F2078
:1018140072756E2E0D0A005265636F6E6669677588
:1018240072656420677265656E204C45442074615E
:10183400736B2E0D0A00496E76616C6964207573B2
:10184400657220696E7075742C20747279206167DA
:1018540061696E2E0D0A00200D0A0D0A2D2D2D2D05
:101864002D2D2D2D2D2D2D2D2D2D2D2D2D2D2D2DA4
:101874002D2D2D2D2D2D2D2D2D2D2D2D2D2D2D2D94
:101884002D2D2D2D2D2D2D2D2D2D2D2D2D2D0D0AC7
:10189400202020204558504552494D454E5441542E
:1018A400494F4E204D454E55200D0A2D2D2D2D2DE1
:1018B4002D2D2D2D2D2D2D2D2D2D2D2D2D2D2D2D54
:1018C4002D2D2D2D2D2D2D2D2D2D2D2D2D2D2D2D44
:1018D4002D2D2D2D2D2D2D2D2D2D2D2D2D0D0A7034
:1018E40020202020202020202D3E207072696E743C
:1018F40020636F6C6C6563746564206578706572D1
:10190400696D656E7420646174610D0A65203C6EB6
:10191400756D3E20202D3E205365747570206578CA
:10192400706572696D656E74206E756D6265722086
:101934003C6E756D3E0D0A72203C6E756D3E202026
:101944002D3E205365742074686520677265656E4A
:10195400204C4544207461736B20746F203C6E7579
:101964006D3E206D730D0A7A202020202020202037
:101974002D3E20526573657420616C6C206578700F
:101984006572696D656E746174696F6E20646174EB
:10199400610D0A6720202020202020202D3E205386
:1019A4007461727420746865206578706572696DFD
:1019B400656E74206A75737420636F6E66696775EB
:1019C4007265640D0A7120202020202020202D3EE5
:1019D4002051756974206D656E7520616E64206791
:1019E4006F206261636B20746F206E6F726D616C27
:1019F400206D6F64650D0A2D2D2D2D2D2D2D2D2D72
:101A04002D2D2D2D2D2D2D2D2D2D2D2D2D2D2D2D02
:101A14002D2D2D2D2D2D2D2D2D2D2D2D2D2D2D2DF2
:0C1A24002D2D2D2D2D2D2D2D2D0D0A000A
:00000001FF
