:1000000055C000006EC000006CC000006AC0000057
:1000100068C0000066C0000064C0000062C000004C
:1000200060C0000077C000005CC000005AC0000043
:1000300058C0000056C0000054C0000052C000006C
:1000400050C000009FC000004CC000004AC000002B
:1000500048C0000046C0000044C0000042C000008C
:1000600040C0000052C200003CC00000AEC2000010
:1000700038C0000036C0000034C0000032C00000AC
:1000800030C000002EC000002CC000002AC00000BC
:1000900028C0000026C0000024C0000022C00000CC
:1000A00020C000001EC000001CC0000011241FBEA4
:1000B000CFEFDAE0DEBFCDBF12E0A0E0B1E0E2EAD0
:1000C000F9E002C005900D92A639B107D9F723E0F7
:1000D000A6E9B2E001C01D92AE30B207E1F7C3D28B
:1000E0005EC48ECFCF93DF9383E02AD1EC01E4D1BD
:1000F000CD2B51F080E024D1892B31F06AEF70E0F4
:1001000080E090E08BD003C080E090E0A9D0DF9148
:10011000CF9108951F920F920FB60F9211242F9333
:100120008F939F9323B1822F817090E020910001E3
:10013000213081F4892BF1F42FEF89EF90E02150E9
:1001400080409040E1F700C00000189913C0109261
:10015000000110C021110EC0019761F42FEF89EF4B
:1001600090E0215080409040E1F700C0000081E025
:10017000809300019F918F912F910F900FBE0F9050
:100180001F9018951F920F920FB60F9211248F9304
:100190009F9380919B0290919C02019690939C0268
:1001A00080939B029F918F910F900FBE0F901F9095
:1001B0001895479A5D9A2FEF43EC59E02150404043
:1001C0005040E1F700C000008CE090E030E228B140
:1001D000205828B92BB123272BB92FEF41EE54E03B
:1001E000215040405040E1F700C0000001970097C7
:1001F00071F747985D9A08952FEF81EE94E02150B2
:1002000080409040E1F700C000003F9A559A84B1C9
:10021000867F84B985B1896085B9CBCF109285007E
:1002200010928400E1E8F0E0808188608083808122
:100230008F7E8083A0E8B0E08C918C7F8C9384E2E9
:1002400094EF9093890080938800AFE6B0E08C91A2
:1002500082608C9380818360808381E090E0089548
:10026000F894209A009721F0019719F45D9A01C043
:10027000479A289AFFCFFF920F931F93CF93DF9354
:100280009B01AC0168EE73E080E090E0F4D1CA011C
:10029000B90184D220E034E244E75BE4EED249D2F3
:1002A0008901F92E2E3FEFEF3E074105510561050B
:1002B00071058105910591F188F1273FEFEF3E0728
:1002C000E7E04E075105610571058105910549F18A
:1002D00040F12F3BEFEF3E07EFE34E07510561057D
:1002E00071058105910501F1F8F02F3FEEEF3E0712
:1002F000EFEF4E0751056105710581059105B9F0D4
:10030000B0F02F3F3B4F4F4F5340610571058105C2
:10031000910581F078F080E090E0A2DF81E090E04C
:100320000BC088E090E008C080E490E005C080E069
:1003300091E002C080E094E0CDB7DEB7E5E0E6C131
:1003400090916800916090936800883018F080E088
:1003500090E086DF90916B0021E030E001C0220F39
:100360008A95EAF7922B90936B0081E090E00895D4
:100370001092D8021092D70210920C0310920B0325
:100380001092A4021092A30208958091A502809376
:10039000CE0081E08093D8020895CF93DF93EC01E3
:1003A0008091A302833018F081E090E059DFE09162
:1003B000A302F0E0EE0FFF1FE356FD4FD183C08391
:1003C0008091A30291E0980F9093A302DF91CF91C7
:1003D0000895E3EAF2E08081815080830895CF930D
:1003E000DF93EC01C5DF8091CA008F7C8093CA0047
:1003F0008091CA00877F8093CA008091C9008B7F5B
:100400008093C9008091CA0086608093CA00809161
:10041000C9008C7F8093C9008091CA008E7F809331
:10042000CA008091CB008C7F8093CB00209761F035
:100430002197F9F480E190E09093CD008093CC0077
:100440008091C800826009C087E090E09093CD0061
:100450008093CC008091C8008D7F8093C8008091EC
:10046000C8008E7F8093C8008091CA008F738093EC
:10047000CA008091C90088618093C90081E0DF9142
:10048000CF910895009731F0019759F48091C900F8
:10049000877E03C08091C90088618093C90081E094
:1004A000089580E00895E0910B03F0E0E852FD4FDD
:1004B00080818093CE000895E9ECF0E08081806C2B
:1004C00080830895E9ECF0E080818F738083089544
:1004D000A2E0B0E0EDE6F2E0FFC01091C900898330
:1004E0009A83F0DF8981E82F9A81F92F81918823FF
:1004F00039F09091C80095FFFCCF8093CE00F6CFE5
:100500001093C9002296E3E003C11F920F920FB629
:100510000F9211242F933F934F935F936F937F9389
:100520008F939F93AF93BF93EF93FF9380910B03B0
:10053000823310F010920B03E0910B03F0E08091F6
:10054000CE00E752FD4F8083E0910B03F0E0E752CD
:10055000FD4F80818D3041F0E0910B03F0E0E752D8
:10056000FD4F80818A3021F481E08093A4021BC07A
:10057000E0910B03F0E0E752FD4F8081883041F0BD
:10058000E0910B03F0E0E752FD4F80818F3731F4AB
:100590001092A40280910B03815003C080910B0341
:1005A0008F5F80930B037FDFFF91EF91BF91AF913E
:1005B0009F918F917F916F915F914F913F912F917B
:1005C0000F900FBE0F901F9018951F920F920FB6AD
:1005D0000F9211248F939F93EF93FF939091D802E2
:1005E0008091D702981768F4E091D802F0E0EB55BB
:1005F000FD4F80818093CE008091D8028F5F8093E1
:10060000D8021092A402FF91EF919F918F910F90C9
:100610000FBE0F901F90189581E080930D030895F1
:10062000CF9380E090E02EDF8CE093E0B6DEC82F21
:1006300081E091E04DDF80910D03811110C088E7CA
:1006400092E046DF24E53DEC8DE293E0215030401E
:1006500080409040D9F700C000C00000ECCF8C2F44
:10066000B8DECF910895C8DD81E090E0B8DE3ADDD4
:100670007894D6DFFFCFA1E21A2EAA1BBB1BFD0187
:100680000DC0AA1FBB1FEE1FFF1FA217B307E40771
:10069000F50720F0A21BB30BE40BF50B661F771FC9
:1006A000881F991F1A9469F76095709580959095A9
:1006B0009B01AC01BD01CF0108952F923F924F9253
:1006C0005F926F927F928F929F92AF92BF92CF92E2
:1006D000DF92EF92FF920F931F93CF93DF93CDB7EB
:1006E000DEB7CA1BDB0B0FB6F894DEBF0FBECDBF63
:1006F00009942A88398848885F846E847D848C8434
:100700009B84AA84B984C884DF80EE80FD800C813C
:100710001B81AA81B981CE0FD11D0FB6F894DEBF1F
:100720000FBECDBFED010895BEE304D008F490E8FC
:100730000895BFE322273327A90185D058F19F5799
:1007400040F1B91738F1BFE3B91B9927B8503AF413
:10075000660F771F881F991FB395D2F316C0B85044
:100760004AF0232F342F452F562F672F782F8827B5
:10077000B850BAF7B85F49F0869577956795579561
:10078000479537952795BA95B9F70EF444D08894D4
:100790000895889460E070E0CB010895E89409C062
:1007A00097FB3EF490958095709561957F4F8F4FA4
:1007B0009F4F9923A9F0F92F96E9BB279395F695BA
:1007C000879577956795B795F111F8CFFAF4BB0F38
:1007D00011F460FF1BC06F5F7F4F8F4F9F4F16C09C
:1007E000882311F096E911C0772321F09EE8872F26
:1007F000762F05C0662371F096E8862F70E060E0E2
:100800002AF09A95660F771F881FDAF7880F96955A
:10081000879597F908959095809570956095509576
:100820004095309521953F4F4F4F5F4F6F4F7F4F12
:100830008F4F9F4F089557FD9058440F551F59F003
:100840005F3F71F04795880F97FB991F61F09F3FBD
:1008500079F087950895121613061406551FF2CFE6
:100860004695F1DF08C0161617061806991FF1CF36
:10087000869571056105089408950BD078C069D0FC
:1008800028F06ED018F0952309F05AC05FC01124EB
:1008900080C0D1DFA0F3959FD1F3950F50E0551F95
:1008A000629FF001729FBB27F00DB11D639FAA27C5
:1008B000F00DB11DAA1F649F6627B00DA11D661F14
:1008C000829F2227B00DA11D621F739FB00DA11D35
:1008D000621F839FA00D611D221F749F3327A00DEF
:1008E000611D231F849F600D211D822F762F6A2F8B
:1008F00011249F5750408AF0E1F088234AF0EE0F10
:10090000FF1FBB1F661F771F881F91505040A9F71C
:100910009E3F510570F014C03CC05F3FECF3983E21
:10092000DCF3869577956795B795F795E7959F5F83
:10093000C1F7FE2B880F911D9695879597F908951D
:1009400097F99F6780E870E060E008959FEF80EC82
:10095000089500240A941616170618060906089525
:1009600000240A9412161306140605060895092E8B
:100970000394000C11F4882352F0BB0F40F4BF2BFA
:1009800011F460FF04C06F5F7F4F8F4F9F4F08953A
:10099000E894BB2766277727CB0197F90895F89449
:0209A000FFCF87
:1009A200012D2D2D2D2D2D2D2D2D2D2D2D2D2D2DA1
:1009B2002D2D2D2D2D2D2D2D2D2D2D2D2D2D2D2D65
:1009C2002D2D2D2D2D2D0D0A20202020455850454E
:1009D20052494D454E544154494F4E204D454E5576
:1009E200200D0A2D2D2D2D2D2D2D2D2D2D2D2D2D85
:1009F2002D2D2D2D2D2D2D2D2D2D2D2D2D2D2D2D25
:100A02002D2D2D2D2D2D2D2D0D0A70202020202055
:100A12002020202D3E207072696E7420636F6C6CF2
:100A22006563746564206578706572696D656E745E
:100A320020646174610D0A65203C6E756D3E202054
:100A42002D3E205374617274206578706572696DF1
:100A5200656E74206E756D626572203C6E756D3EBA
:100A62000D0A72203C6E756D3E20202D3E2053658E
:100A7200742074686520677265656E204C45442059
:100A82007461736B20746F203C6E756D3E206D73C4
:100A92000D0A7A20202020202020202D3E20526581
:100AA20073657420616C6C206578706572696D6520
:100AB2006E746174696F6E20646174610D0A6720DF
:100AC200202020202020202D3E205374617274208B
:100AD200746865206578706572696D656E74206AE8
:100AE20075737420636F6E666967757265640D0A4B
:100AF2002D2D2D2D2D2D2D2D2D2D2D2D2D2D2D2D24
:100B02002D2D2D2D2D2D2D2D2D2D2D2D2D2D2D2D13
:100B12002D2D2D2D2D0D0A000D0A57616974696E58
:100B22006720666F72207573657220696E707574C6
:060B32002E2E2E20000013
:00000001FF
