:100000000C94C3090C94E0090C94E0090C94E009E9
:100010000C94E0090C94E0090C94E0090C94E009BC
:100020000C94E0090C94EB0B0C94E0090C94E0099F
:100030000C94E0090C94E0090C94E0090C94E0099C
:100040000C94E0090C94E0090C94500B0C94E0091A
:100050000C94E0090C947D0A0C94E0090C94E009DE
:100060000C94E0090C94E1120C94E0090C944713F1
:100070000C94E0090C94E0090C94E0090C94E0095C
:100080000C949D0B0C94E0090C94E0090C94E0098D
:100090000C94E0090C94E0090C94E0090C94E0093C
:1000A0000C94E0090C94E0090C94E00995139A1360
:1000B0009F13A413A913AE13B313504E4B453F3DEA
:1000C0003D3E40414347484C4E505C565A68716D26
:1000D0006663555668889EA09C9CAEB4BCC0BFB7F2
:1000E000ACA04450544B4441403F41414347484AEF
:1000F0004C4E4E5D5F53515E645D5E595157789F23
:10010000A5979BA5B1B7B7B4AFAE4D504D48474D7D
:10011000484241434345484A4C4C4B4D4E4D4A485A
:10012000505853575953536285A693979EA5ABAF2A
:10013000B2B6544D4A4F504A474643434545474857
:100140004A4A43393A4B544B474B5555595B524DEC
:10015000617F818A94989AA1AFC05E52515B5744E7
:10016000414A4745454747474848313A3E3E485748
:100170005447465A645B53575D5A59728C95929610
:10018000A8C389684E51544F4B4F4848474747478B
:100190004747343A3E3D4049545C45525C5B5656B5
:1001A0005D634752667E939FA4A99E896B59565BF7
:1001B00057524C4A484847474745433A3D484740CD
:1001C000495D5D4B43535E5A575E584B465A7A948D
:1001D00098977C9BA48360575651504E4C4A484791
:1001E0004747444849484D524C3E485C655440405E
:1001F0004F5C6A5D4D4B59748FA15C718EA0916EFE
:10020000534C59524C4747474440544F4C4F555814
:10021000554E4C4E5E6A57352D3D6768655C4D4FB7
:100220006C89645D657D908B75654F565A55504D50
:1002300049425255595B58575450474642475A65B0
:100240004F315A5860696D65605B605552637987BC
:10025000939C685E5D625D4E4C525058605F585290
:100260005152434B44373D576156313F5870797571
:100270006B616D66605E5C6684A3A37F584F5C65AE
:100280005F5656595A57535052534F4F4E4132337F
:100290004E6867392D577B7B72727A7168625B5743
:1002A0005E6B91A095694C57696B5E574D494B50F9
:1002B0005352604B404B4D413C43595B4F3E4B6D5D
:1002C0007B72746B686C6C6157546788AAA67E5702
:1002D000586C5B5145444A515451574F48494F4E11
:1002E00046402553756C4A3F5368998675747670FD
:1002F0006A6A6D5C6B9AAD9069584B4B4A4B4E4F96
:100300004F4F4A575A50484D555A5830417E7B38C6
:10031000234BEEBD8975777975725B6565647A9557
:1003200094813A465156514C4A4D5354575B5E5D49
:100330005956524D3B314F716340E4E2C48E6968B7
:100340006C6858575A5F616A84A17E6A616E6F5704
:10035000464243404148535C5F5C5E5C4F3A2D3EF1
:10036000668CE6DADBDAB77E636A715C535B615EEA
:10037000646E9E977651506765503E3E47555A567B
:10038000565B595C54412E2A3745E7E5EFF9EFC635
:100390009274696E6C61575454557B9AA5875A477D
:1003A000587062554A49545D5C575557594F423809
:1003B0003433E8F1EEE7EFF6D8AE7F78716D665E24
:1003C0005B5F6267809E966C535570766A514955A3
:1003D000605D535353535353514FE7E8E7E9E6E663
:1003E000EDF5CC946B727A6A5E655F53526F969F9F
:1003F0007B5255718477584750604F4D4B4D555A3D
:100400005A58E5E0E6EDEBE2E9FAECD4AD876D6130
:1004100064685560625C647C8F9167595E73765E38
:100420004F5446484E545D62625FE4E7E8E8EAEF05
:10043000EBE5E5F8F0BF8B76706B6565645F5D6436
:100440007C95956D525C6F716256474C545B626649
:100450006B6CE5E8EBE8E5E5ECF2F3E3E5F4E1A548
:10046000776A6F68615C5E64686C999F8B634E5CB1
:100470006E735456555453585F66E7E7E7E7E8E86C
:10048000EAECF2F2EEF2F8EBBA87686F7069676A2D
:10049000675E6F768C9976494A697158474D59590C
:1004A0005554E5E5E7E7E7E8E8EAEBEAE2E1EAF2F6
:1004B000E8D89C7E696D726A656A5D62748D978406
:1004C0005E3E5763604C444E5651E5E5E5E5E7E78F
:1004D000E7E8E1E8E9E5E8F0F5F4E8B982656D7888
:1004E0007264675E575F788D89795C5D60605B5090
:1004F0004844E6E6E6E6E6E6E8E8DCE6EDEDE8E4D4
:10050000E4E3EEF4DBA36F616A736B635C5B5F6CC7
:1005100089A5906D545B655E4D45E4E4E6E6E6E64C
:10052000E6E6E5E2E2E3E3E2E2E4EAF3FCECB982E8
:100530006A72686A6B6659576D89A29474554E5CED
:10054000635EE4E4E4E4E4E6E6E6F0E5DFE2E6E563
:10055000E4E6F5E5DFEDF5DAA377606E6F615458F8
:100560006874708B9E8F6E595F6BE5E5E5E5E5E598
:10057000E5E5F0E8E4EAEBE3E0E4E5EAE7E2E8ED0C
:10058000DBC07C76716F6D69686750658AA9A17E52
:100590006968E5E5E5E5E5E5E5E5E6DEDCE2E2DD21
:1005A000E5F1ECE5E3E9EAE6EAF6D897676C7B70FB
:1005B000666967595571A0B49566E0DFDEDDDDDC64
:1005C000DBDDE2E2E4E4E4E5E5E7E4E4E4E6E5E6F5
:1005D000E8E7E5E8BE785763634D575A5D60697D8B
:1005E00097ABE0E0DFDEDFDEDDDDE2E2E2E4E4E483
:1005F000E5E5E5E4E4E6E5E6E6E8DCE4EDD692539D
:100600004E6A665F5F6663607492E1E0E0DFDFE0A0
:10061000E0DFE2E2E2E2E4E4E4E5E3E5E5E4E6E5A6
:10062000E6E8F3EAEAEFE2B47C5A665C575D65649B
:100630006260DDDDDDDFDFE0E0E2DFDFE2E2E2E4B9
:10064000E4E4E3E3E3E5E4E6E5E6E9F2F1EBF2F224
:10065000C990605B5D66645A5A61DADADBDCDCDF24
:10066000E0E0DFDFDFE1E2E2E3E3E2E2E3E3E3E471
:10067000E6E6DAEDF6F1E9ECEBE6B17D585C665DB5
:100680005C68D3D4D5D8DADBDCDEDCDCDFDFDFE0AE
:10069000E2E2E1E1E2E2E3E3E4E4E4E8E7E6E9F20E
:1006A000F3EDFDCF8B5E5A6A6A5DCECFD0D2D4D641
:1006B000D9DADADCDCDDDFDFE0E0E0E0E1E1E1E156
:1006C000E3E3DFEDECE1E3EDEBDDF3FDE8AB7563D8
:1006D0006768CACBCDCFD1D4D6D6DADADADCDDDDA5
:1006E000DEDEDEDEDFDFE1E0E1E1E7E3DFE2E7E6F9
:1006F000DED5EEE2EDF7CD7F575E282928242222B1
:1007000025272929282827272626312B2F3E494807
:1007100044463D425A7E999F9F9FAFB0B0ADA9A479
:10072000A2A31C282F2A252628272929282827275D
:1007300027262837392D2B3A44404343404B6F9AA4
:10074000A394A2A9AFAFABA7A7AB23272724282E3A
:100750002E2829282828272726262C2B2D2C292A05
:10076000323A393F434343567A9CA2A3A7AAACAC82
:10077000ACAD272222282D2C292B292928282727F0
:1007800026262A1F2030372F282D3A393F443D395D
:100790004F6D929CA7AAA8A9AEB32F25253231226E
:1007A000212C29292828272726261C2528272F3CC5
:1007B0003729283D473E383E444165809FADABA870
:1007C000AEB7593821242B28272D2A292828272756
:1007D000262621272927272D373E27343E3D383A24
:1007E000414644557194ADB6B1A76C563A2A2A31A8
:1007F000312C2A292928282726272C24252E2B236B
:100800002A3E3F2B2535413D3C43453E43628CA863
:10081000A79B4A687353322A2C282A29292828287A
:100820002727282C2B292D332A1D273E47382628F9
:1008300037444C423A40567896A6283D5C6D5F3D61
:10084000261F2E2B2524252725212F2A272A303322
:10085000302C2B30415140221C2B4646453E333C28
:100860006186312A314B5D594436212B312F2B2A99
:100870002823272A2E302F2E2D2B2627273047548A
:100880004223403C3B3E3E3A3E472F221E2F4554DA
:100890005F69372E3039362A2830232B33312B2706
:1008A000282C202C2B202B47524A2328343D3D371F
:1008B00035393C352F2A28324F6D6F4B2823323D76
:1008C0003931292C2D2A2625292D2D3031281C217E
:1008D0003C585F2A10293F38333F4C41383127209C
:1008E00027345B6C62381F2C4044362F2521232887
:1008F0002B2C3B28212C3229252C504D36191A340B
:10090000433F493D373A382A1E1A2D5175744E2CF3
:100910002E423A2F2421262C2D2B312924272C2D11
:100920002721113E5F512D1E2C3F6F5A47434239FC
:10093000312F322334667C623D2E312F2E2E2D2C0A
:100940002928232E312720242F3438142B70722C81
:100950001130C4915B4443423C37202A2C30486715
:1009600068552530393B342B26262A2A2B30333242
:100970002E2B282C242A5073602ECCCAA9714B47E9
:1009800048412E29292B2C324C67402D2D424C3EBC
:100990003334342E28262828241F2B2F2C2424419E
:1009A000749BCEC2C0BF995E3F43473122272C299A
:1009B0002C36605C42252C4A503D2B292C332F24A9
:1009C0001D202A3031292025384CCFCDD5DED2A6A6
:1009D000714D40433F3024201F1E3E5F7159312628
:1009E0003D58493B2C25292D2821292F33312923F6
:1009F0002426D1D9D6CDD3D7B78A594F4740362CE4
:100A0000292B282F4C6D69452F324F54482C1F2815
:100A1000312E2E2D2C2E2E2F2E2DD3D1D0D0CCCA30
:100A2000CED4A96C41484D3B2F362A1E1E3D657021
:100A30004E252A485C4F2F1E27372F2B2624262889
:100A40002625D1CCCFD6D2C7CADACCB1885F4438FC
:100A5000383C242F2F2830485A5D342830494E39ED
:100A60002C312B2A292829282623D0D3D4D1D3D6F8
:100A7000D0C7C6D8CE9A664F49443936332C25297B
:100A800041595B371F2E484D43392D2E3130302EC2
:100A90002F30D2D5D7D4CECED3D7D8C5C6D5BF83E5
:100AA0005346473E33292727292B59625533253989
:100AB00050583838342C25252A30D4D4D4D4D4D422
:100AC000D3D3D9D7D3D4DACC9B6842474438302E1D
:100AD000261B2E3855674C252A4E533A272A333188
:100AE0002B28D4D4D3D3D3D3D3D2D4D1C9C6CFD740
:100AF000CDBA7B5B413F3E31272A1C253B5A6A5DBC
:100B00003B2035413F2C242F3530D2D2D3D3D2D203
:100B1000D2D3CCD0D2CECFD7DCDBC9985D3C3D441C
:100B200039282B241F2B4B63615336373C403E350D
:100B30002D29D2D2D2D2D3D3D3D3C7D1D8D8D4D0DF
:100B4000CDCCD2D5BA7E4633393F342C27282E3D22
:100B50005C7866452D37443E2F26D2D2D2D2D2D2EF
:100B6000D2D3D0CDCDCFCFCECED1D0D7DDCC965A2B
:100B70004144383939322523395574684A2B243396
:100B80003B37D1D1D1D1D1D2D2D2DCD2CCD0D4D476
:100B9000D3D5DBCBC5D1D6BA815237403F2D1E20ED
:100BA0002D38415B6D5D3A252B39D1D1D2D2D2D2CD
:100BB000D3D3DFD4D1D7D9D1CED3CDD2CFC8CED312
:100BC000BFA0574E443C352D27262132556F643E39
:100BD0002727D1D1D1D2D2D2D2D3D4CDCBD1D2CD5D
:100BE000D3DFD4CDCBD1D2CED0D7B6703A394132C3
:100BF000242536271E335D6E4D1ED2D1D0CFCDCCED
:100C0000CBCACFCFCFCFCFD0D0D0D0D0D0D1D0D0F3
:100C1000D0CFCCCDA35C3B4646302326282930429A
:100C20005C71D3D3D2D1CFCECDCDCFCFCFD0D0D09A
:100C3000D1D1D1D0D0D1D0D0D0D0C3CBD2BA7637C9
:100C4000314D352B2A2F2A253958D4D3D3D2D2D09F
:100C5000D1D0D1D1D1D1D1D1D1D2D1D1D1D0D1D086
:100C6000D0D0DBD1CFD4C598603E382B24292F2C8F
:100C70002826D2D2D2D3D3D4D4D4D1D1D2D2D2D3A3
:100C8000D3D4D0D1D1D1D0D0D0D0D1DAD8D0D7D739
:100C9000AC73352E2E353125232ACECED0D1D1D3EB
:100CA000D4D4D1D2D2D2D3D4D5D5D1D2D0D0D1D020
:100CB000D0D1C3D5DED7D0D1D0CB89552E30352B6E
:100CC0002731C8CACBCCCECFD1D2D0D0D2D2D2D37A
:100CD000D4D4D1D1D1D1D0D0D0D0CED1D1CED1D801
:100CE000D9D3DAAA66352F3C3828C2C3C4C7C9CBCA
:100CF000CDCECECFD0D1D1D2D3D3D1D1D0D1CFD0F0
:100D0000D0D0CBD7D6CACAD5D3C5D4DDC6864D3A46
:100D10003937BDBEC1C3C6C7CACBCDCECECED0D06B
:100D2000D1D2D1D1CFCFD0D0CFD0D4CECBCBD0CFCA
:100D3000C7BED3C7CFD7AB5A2D32151514100D0D22
:100D40000F1113131313131313130A040819262670
:100D5000262B27314E7798A3A4A79FA5AEB6BBBD7F
:100D6000C0BF09151B1610111211131313131313FF
:100D700013130615170B0B1C27252E3133416B99C6
:100D8000A3969BA4AFB6B7B7B8BA0C100F0C0F1749
:100D900016101113131313131414131313120F0F2C
:100DA000172121293133374C7295A5A7ABADB0AED1
:100DB000ADAA0C07060C1311101111111313141402
:100DC00014141A0F0F1C221711142021272E282764
:100DD0003E5C9BA3AAA9A29EA0A30F040612130423
:100DE00004111011131314141616141D1D181F28A6
:100DF00022100F222C231E242A27677F9CA59D9753
:100E00009BA5351400020A0809100F1011131414C1
:100E100016161A20211B171C22250C1721201B1C1B
:100E2000232B364661829BA7A39C422E1204050EFB
:100E30000F0C0D0F101113141616241919201A0E69
:100E40001325240E081826222229241E274B7B9CBA
:100E5000A39C1C3D4729090409070A0D0F10111313
:100E60001414171B1814161A12030D232E200E1219
:100E700023301D161525477399AF000E2E423515E8
:100E800000000D0B090A0D100E0C15100D0E141795
:100E9000140F11172C3D30130F20181B2225253756
:100EA000648F0000021D322F1C10000A11110F1058
:100EB0000E0A06090D0F0E0E0D0F0C1013203A4BE3
:100EC0003A1D1C1A1F293031384200000000172932
:100ED0003641110A0E18160C0A1200060E0F0906EA
:100EE000080E0615171120404F461118242D2D27E6
:100EF00024260A03000000042444472604000F1A95
:100F0000170F080B0C090504090F10171C181016F1
:100F100035515F27091E2F23171F1C1108010000E0
:100F2000000932433A100005191D1D130905060B6F
:100F30000E0E1F0E08171E17151D534F34110A1ED3
:100F4000261E180D090C0A00000003264A4A240137
:100F500003172A1F110D0E12110D130B060A12137F
:100F60000E08103C59471E0B1626402B1815140C62
:100F70000402050007384E330E002A2823201D18CE
:100F8000110C030D100600030D122B091F646520C0
:100F9000062695622C1615150F0A000000021A3855
:100FA0003926232B333126180E0A0A0706090C0BA3
:100FB00007041519141B466D5C2D9896763E1A167B
:100FC0001A1503000106070F2944180505192416F0
:100FD0000E10130F0E0F1517151103090A08103202
:100FE0006997988E8D8C682D11161C0600020704D7
:100FF00009133834190004232A1A0A0A111C1A1278
:101000000E11040B100D0A162E4599979FAB9F7574
:1010100040201318140800000000163748300A005A
:101020001834291D110D141B1710040C1516151456
:10103000181E99A3A0979DA4855A29221A150C025F
:10104000000200062345431E0B102E362B120813F8
:101050001C190C0D1014181D20209A99989896941C
:1010600099A2773C1219210F030A000000133D4A90
:10107000290309283F3316071020120E0A0B1014FB
:1010800015159893979E9A8F95A5977F562E1307BF
:10109000090D00030400082035391308112C321DF6
:1010A0001217110F0F101212100D979A9B999B9EF9
:1010B000989091A39966321B15100A0A0701000245
:1010C0001A353816000F282F241A15151715141164
:1010D0001213999C9E9B96969B9FA08E8F9E894DE6
:1010E0001D10170F040000000305364034110417CB
:1010F0002D36201F1A100605090F9B9B9B9B9B9B5F
:101100009B9BA19F9B9DA39564311217150A050413
:10111000000008143043270106293A1F0A09110E5E
:1011200006039C9C9C9C9C9C9C9C9C99918E979F4C
:101130009583492910101004000100001432443630
:10114000130018231E0900080E099F9F9E9E9E9E55
:101150009E9C959A9A96979FA4A396662B0B0D1624
:101160000C0001000002203937291414181C191032
:101170000804A2A2A2A2A0A0A09F939AA1A19B97BB
:1011800095949CA0884C15030911070000000211DA
:10119000304C3C1B060F1D1A0C05A3A3A3A3A3A24E
:1011A000A2A09D999998989797989AA1A897642931
:1011B000101408090B0400000B2744391D0100120C
:1011C0001E1BA6A6A4A4A4A3A3A2AC9F999B9F9C0C
:1011D0009B9DA5958F9BA1854C1E06100F000000BE
:1011E000000A0B273D3316071423A8A8A7A7A7A515
:1011F000A4A4AEA49EA4A49C999B979C9992989D0C
:10120000896B231A110A06000000000023454225BD
:101210001418A8A8A8A7A7A5A5A4A59C989E9D98C2
:101220009EAA9E97959B9C989AA2813C07071002C4
:1012300000000000000A3C563C12AEADACABA9A8C1
:10124000A7A7AEAEAFAFAFB0B0B0A0A0A09E9D9C20
:101250009A9994946A200009090000020304091B6A
:101260003447ADADACABAAA9A9A9ACACACADADADA2
:10127000AEAEA1A0A09E9D9C9C9A8B93997E3A00B5
:1012800000100F0605080300112EAEADADACACABDF
:10129000AAA9AAAAAAAAABABABACA2A2A1A09E9DE6
:1012A0009C9CA599979B8C5C24020F03000006036D
:1012B0000000ACACACABABACACAAA7A7A7A7A7A8E7
:1012C000A8A6A3A2A2A2A0A09D9C9DA4A0989E9E19
:1012D000733A0A03020906000000AAAAAAABABAB44
:1012E000ACAAA7A6A6A4A5A4A5A5A6A4A3A3A2A1AB
:1012F000A09E91A1A8A19899989259250001070054
:101300000006A8A8A9AAAAABABAAA6A6A6A4A4A5AB
:10131000A4A4A7A7A6A6A3A3A1A19E9F9D9A9BA2B2
:10132000A39DA8783404000D0A00A6A7A8A9ABAB1A
:10133000ABAAAAA9A8A7A7A6A7A7AAAAA9A7A6A52C
:10134000A3A39CA7A69898A19F919DA891521C0920
:101350000A09A7A8A9ABABADAEADADACACAAAAAA21
:10136000ABAAABABAAAAA9A6A6A5A7A19C9DA09F24
:10137000958C9B8F98A2762800036364696E6F70CA
:10138000737578585B0011241FBECFEFDAE0DEBF23
:10139000CDBF15E0A0E0B1E0E0E7FFE302C00590BB
:1013A0000D92A434B107D9F726E0A4E4B5E001C05A
:1013B0001D92A73CB207E1F70E94B5150C94B61F29
:1013C0000C9400001092B5061092B6061092B70663
:1013D0001092B8061092B9061092BA061092BB0687
:1013E0001092BC061092AB061092AC061092AD069D
:1013F0001092AE061092AF061092B0061092B1068F
:101400001092B2061092A8061092AA061092A9068F
:101410001092B4061092B30681E48093A20683B1C1
:1014200090E09093A4068093A30688E08093A5069D
:1014300081E090E09093A7068093A60684E690E072
:101440009093BE068093BD0624E030E03093C20640
:101450002093C1069093C0068093BF0642E360E0EC
:1014600070E080EA90E422C485B190E1892785B9D3
:10147000089583E055D78823F1F00E94B71288239E
:10148000D1F081E090E047D38823A9F082E4C0D472
:1014900042E360E070E080EA90E408D4882359F0E9
:1014A00089E190E0E3D4882331F081E090E00E946C
:1014B0005C12811103C080E090E065C2089585B19F
:1014C000806585B95E9A479A5D98089585B18F7A4F
:1014D00085B95E9847985D9A089574DF84B18065F8
:1014E00084B9569AECDF2FEF83ED90E321508040D2
:1014F0009040E1F700C00000E9CF1F920F920FB6B5
:101500000F921124AF92BF92CF92DF92EF92FF928F
:101510000F931F932F933F934F935F936F937F93FB
:101520008F939F93AF93BF93CF93DF93EF93FF93EB
:101530002091B5063091B6064091B7065091B80695
:101540006091B9067091BA068091BB069091BC0675
:10155000A1E00E94DB162093B5063093B6064093B7
:10156000B7065093B8066093B9067093BA06809395
:10157000BB069093BC060E94721480E090E00E942B
:101580004E14D091B506C091B606B091B706A091A1
:10159000B806F091B906E091BA068091BB06909129
:1015A000BC060091BD061091BE065801C12CD12C7D
:1015B000E12CF12C00E010E02D2F3C2F4B2F5A2F67
:1015C0006F2F7E2F0E942816A0E00E94F01699F43B
:1015D0008091A9069091AA06892B21F082E090E0E3
:1015E0000E9460148091A9069091AA06019690939A
:1015F000AA068093A906D091B506C091B606B0910F
:10160000B706A091B806F091B906E091BA068091AC
:10161000BB069091BC060091BF061091C006580110
:10162000C12CD12CE12CF12C00E010E02D2F3C2F0F
:101630004B2F5A2F6F2F7E2F0E942816A0E00E945A
:10164000F01699F48091B3069091B406892B21F09D
:1016500087E090E00E9460148091B3069091B406F8
:1016600001969093B4068093B306FF91EF91DF91BA
:10167000CF91BF91AF919F918F917F916F915F912A
:101680004F913F912F911F910F91FF90EF90DF901D
:10169000CF90BF90AF900F900FBE0F901F901895F6
:1016A0001F920F920FB60F9211242F933F934F93D7
:1016B0005F936F937F938F939F93AF93BF93EF93BA
:1016C000FF9385E090E00E944E1486E090E00E9437
:1016D0004E142091AB063091AC064091AD0650916E
:1016E000AE066091AF067091B0068091B106909100
:1016F000B206A1E00E94DB162093AB063093AC0645
:101700004093AD065093AE066093AF067093B0065B
:101710008093B1069093B206FF91EF91BF91AF9184
:101720009F918F917F916F915F914F913F912F91F9
:101730000F900FBE0F901F9018951F920F920FB62B
:101740000F9211242F933F934F935F936F937F9347
:101750008F939F93AF93BF93EF93FF938091A806CE
:101760008F5F8093A8068091A80690E06091C106E3
:101770007091C2060E94FB15892B41F483E090E032
:101780000E944E148BB190E489278BB90E94A11955
:1017900065E070E00E940F16049761F484E090E029
:1017A0000E944E14479A8FE19EE40197F1F700C022
:1017B00000004798FF91EF91BF91AF919F918F915A
:1017C0007F916F915F914F913F912F910F900FBE3D
:1017D0000F901F9018951F920F920FB60F92112421
:1017E0002F933F934F935F936F937F938F939F9329
:1017F000AF93BF93EF93FF93E091A306F091A406FC
:101800002091A5068081282381E090E011F480E0FA
:1018100090E02091A6063091A70621303105C9F449
:101820000097B9F42FEF89EF90E02150804090406D
:10183000E1F700C00000E091A306F091A4068091BA
:10184000A5069081892359F51092A7061092A60645
:1018500026C02091A6063091A706232B01F50197FB
:10186000F1F42FEF89EF90E0215080409040E1F7B4
:1018700000C0000081E090E09093A7068093A60648
:1018800070D07BD083E063D581E090E00E944E145D
:1018900078940E9489145FD06AD083E041D5FF918B
:1018A000EF91BF91AF919F918F917F916F915F91D8
:1018B0004F913F912F910F900FBE0F901F90189551
:1018C00082B7806882BF82B7806282BF82B78F7E14
:1018D00082BF82B78A6082BF82B78A7F82BF89B5A2
:1018E0008F7E89BD89B5826089BD0895479A5D9ACA
:1018F0002FEF43EC59E0215040405040E1F700C049
:1019000000008CE090E030E228B1205828B92BB1DB
:1019100023272BB92FEF41EE54E021504040504097
:10192000E1F700C000000197009771F747985D9AB2
:1019300008952FEF81EE94E0215080409040E1F730
:1019400000C000003F9A559A84B1867F84B985B162
:10195000896085B9CBCFEEE6F0E08081826080833C
:101960000895EEE6F0E080818D7F80830895E1E7C1
:10197000F0E08081826080830895E1E7F0E080817B
:101980008D7F80830895F894209A009721F0019725
:1019900019F45D9A01C0479A2898FFCFAAE0B0E0F9
:1019A000E4EDFCE00C94861678876F8369017A0178
:1019B000BC0180E090E00E9433189B01AC0160E024
:1019C00070E08AE794E40E9465179B01AC0160E037
:1019D00074E284E79BE40E9465170E94D217F22FFD
:1019E000E32F49875A876B837C838D839E831601FF
:1019F0002701612C712C430156016201E12CF12C6D
:101A000000E010E00E94E71648F4CF01AF81B885EE
:101A10009C9311968C9381E090E079C02F2F3E2FFC
:101A200049855A856B817C818D819E8103E00E946E
:101A3000BF16D90151016201E12CF12C00E010E048
:101A40000E94E71638F4EF81F885A083B18388E01F
:101A500090E05DC02F2F3E2F49855A856B817C8198
:101A60008D819E8106E00E94BF16D901510162015D
:101A7000E12CF12C00E010E00E94E71650F49A2FC0
:101A80008B2FAF81B8859C9311968C9380E490E066
:101A90003EC02F2F3E2F49855A856B817C818D81D9
:101AA0009E8108E00E94BF16D90151016201E12C1C
:101AB000F12C00E010E00E94E71638F4EF81F88581
:101AC000A083B18380E091E022C02F2F3E2F498573
:101AD0005A856B817C818D819E810AE00E94BF16B0
:101AE000F22FE32F51016201E12CF12C00E010E014
:101AF0000E94E71648F4CF01AF81B8859C931196F8
:101B00008C9380E094E003C080E090E03CDF2A9674
:101B1000E2E10C94A216A2E0B0E0E1E9FDE00C9451
:101B2000961620E031E040E050E0BE016F5F7F4F4D
:101B300035DF009709F444C016BC24B52F7324BDCB
:101B400025B5277F25BD24B5226024BD24B52E7F71
:101B500024BD2981215027BD20916E002260209351
:101B60006E0088309105A9F040F4019719F585B50C
:101B7000897F85BD85B5816011C080349105A1F054
:101B800081159140B9F485B5846085BD85B58C7F9C
:101B900005C085B58A7F85BD85B5826085BD81E03C
:101BA0002296E2E00C94B21685B58B7F85BD85B593
:101BB0008360F4CF85B5856085BD85B58D7FEECF1B
:101BC00080E090E0E0DEA2E0B0E0E9EEFDE00C9421
:101BD000961620E030E041E050E0BE016F5F7F4F9D
:101BE000DDDE009709F45FC010928500109284003A
:101BF00020918100286020938100209181002F7E18
:101C000020938100209180002C7F209380002981E7
:101C10003A81215031093093890020938800209126
:101C20006F00226020936F0088309105D9F058F43E
:101C3000019781F580918100897F80938100809157
:101C40008100816017C080349105D9F081159140E1
:101C500009F58091810084608093810080918100EA
:101C60008C7F08C0809181008A7F80938100809161
:101C7000810082608093810081E02296E2E00C94F2
:101C8000B216809181008B7F8093810080918100CA
:101C90008360F0CF80918100856080938100809186
:101CA00081008D7FE7CF80E090E06DDEA2E0B0E0C4
:101CB000ECE5FEE00C948F16B42E9B01AC010E9463
:101CC000FD169B01AC0160E070E08AE794E40E949D
:101CD00065170E940718DC01CB0120E030E041E0ED
:101CE00050E0BE016F5F7F4F59DE8C01009709F411
:101CF0006CC080918100887F809381001092850064
:101D00001092840080918100806180938100809195
:101D10008100877F80938100809180008C7F8093F9
:101D2000800089819A8190938700809386008091BA
:101D30008000807180938000809180008062809319
:101D4000800084E68B1508F440C069817A8180E0C8
:101D500090E00E9433186B017C016B2D70E080E0F5
:101D600090E00E9433189B01AC01C701B6010E94AC
:101D7000F51820E030E048EC52E40E9465170E941C
:101D8000071870938B0060938A000830110501F1E9
:101D900060F40130110571F580918100897F809395
:101DA00081008091810081602DC000341105C9F04F
:101DB000011581E01807F1F480918100846080931F
:101DC0008100809181008C7F1DC080E090E0DBDD90
:101DD000809181008A7F8093810080918100826060
:101DE00011C0809181008B7F809381008091810060
:101DF000836008C08091810085608093810080911C
:101E000081008D7F8093810081E02296E9E0A3C765
:101E1000823441F0833451F0813471F480916F0049
:101E2000826007C080916F00846003C080916F0062
:101E3000886080936F00089580E090E0A4DD823494
:101E400041F0833451F0813471F480916F008D7FC3
:101E500007C080916F008B7F03C080916F00877FE8
:101E600080936F00089580E090E08DDDA2E0B0E007
:101E7000EBE3FFE05BC720E030E041E050E0BE0173
:101E80006F5F7F4F8BDD009709F45EC01092950065
:101E9000109294002091910028602093910020914D
:101EA00091002F7E20939100209190002C7F209311
:101EB000900029813A812150310930939900209373
:101EC0009800209171002260209371008830910564
:101ED000D9F058F4019779F580919100897F80932A
:101EE000910080919100816017C080349105D1F0FC
:101EF0008115914001F5809191008460809391005B
:101F0000809191008C7F08C0809191008A7F80939E
:101F100091008091910082608093910081E02296EF
:101F2000E2E020C7809191008B7F809391008091A7
:101F300091008360F1CF8091910085608093910042
:101F4000809191008D7FE8CF80E090E01CDD8F9242
:101F50009F92AF92BF92CF92DF92EF92FF92CF9378
:101F6000C42F9B01AC0160E074E284E79CE4ADD730
:101F70006B017C01A5DC8091C00080628093C00071
:101F80008091C0008F7E8093C0008091C0008160EE
:101F90008093C0008091C3008D7F8093C3008091A7
:101FA000C30081608093C30020E030E040E854E447
:101FB000C701B60186D787FF09C08091C100817F24
:101FC0008093C1008091C10081606FC120E030E04A
:101FD00040E05FE3C701B6010E94F5184B015C01C8
:101FE00020E030E040E854E46CD787FF09C08091DE
:101FF000C100827F8093C1008091C100826038C19E
:1020000020E030E040E85EE3C701B6010E94F51829
:102010004B015C0120E030E040E854E452D787FFF8
:102020000EC08091C100837F8093C1008091C10068
:1020300082608093C1008091C100816019C120E05D
:1020400030E040E05EE3C701B6010E94F51820E0F1
:1020500030E040E854E435D787FF09C08091C100E3
:10206000837F8093C1008091C100836001C120E023
:1020700030E040E85DE3C701B6010E94F5184B016E
:102080005C0120E030E040E854E41BD787FF09C042
:102090008091C10084608093C1008091C100847FE1
:1020A000E7C020E030E040E05DE3C701B6010E94F8
:1020B000F5184B015C0120E030E040E854E401D722
:1020C00087FF09C08091C100857F8093C100809106
:1020D000C1008560CDC020E030E040E85CE3C7018E
:1020E000B6010E94F5184B015C0120E030E040E8A9
:1020F00054E4E7D687FF09C08091C100867F8093B2
:10210000C1008091C1008660B3C020E030E040E0B3
:102110005CE3C701B6010E94F5184B015C0120E0A9
:1021200030E040E854E4CDD687FF09C08091C1007B
:10213000877F8093C1008091C100876099C020E0B3
:1021400030E040E85BE3C701B6010E94F5184B019F
:102150005C0120E030E040E854E4B3D687FF09C0DA
:102160008091C10088608093C1008091C100887F08
:102170007FC020E030E040E05BE3C701B6010E9491
:10218000F5184B015C0120E030E040E854E499D6BA
:1021900087FF09C08091C10089608093C100809150
:1021A000C100897F65C020E030E040E85AE3C70104
:1021B000B6010E94F5184B015C0120E030E040E8D8
:1021C00054E47FD687FF09C08091C1008B7F809344
:1021D000C1008091C1008B604BC020E030E040E046
:1021E0005AE3C701B6010E94F5184B015C0120E0DB
:1021F00030E040E854E465D687FF09C08091C10013
:102200008C608093C1008091C1008C7F31C020E040
:1022100030E040E859E3C701B601E7D74B015C0164
:1022200020E030E040E854E44CD687FF09C08091BC
:10223000C1008D608093C1008091C1008D7F18C066
:1022400020E030E040E059E3C701B601CED74B01B2
:102250005C0120E030E040E854E433D687FF0DC055
:102260008091C1008E608093C1008091C1008E7FFB
:102270008093C100C501B4011CC020E030E040E8FB
:1022800058E3C701B601B1D76B017C0120E030E013
:1022900040E854E416D687FF40C08091C1008C60AE
:1022A0008093C1008091C10083608093C100C70109
:1022B000B601ADD67093BF006093D100C53618F556
:1022C00080E090E0D0D66B017C016C2F70E080E064
:1022D00090E0C9D69B01AC01C701B60186D720E0CA
:1022E00030E048EC52E4F1D592D67093BF00609391
:1022F000D000CF91FF90EF90DF90CF90BF90AF9044
:102300009F908F9008958091C100837F8093C1003A
:102310008091C1008C7F8093C10080E090E033DB2E
:1023200090916800916090936800883018F080E088
:1023300090E029DB90916B0021E030E001C0220F9A
:102340008A95EAF7922B90936B0081E00895909123
:1023500068009E7F90936800883070F490916B00C5
:1023600021E030E0082E01C0220F0A94EAF7209500
:10237000292320936B00089580E090E004DB109205
:102380007E0510927D051092B2051092B105109253
:102390004A05109245051092440510924705109287
:1023A00046051092490510924805089510927E0541
:1023B00010927D051092B2051092B105089580919A
:1023C0004B058093CE0081E080937E050895CF93E6
:1023D000DF93EC0180914A05833018F081E090E0B2
:1023E000D2DA8091440590914505892B79F080914E
:1023F000460590914705892B61F0809148059091A1
:102400004905892B81F422E030E005C020E030E06E
:1024100002C021E030E0F901EE0FFF1FEC5BFA4F44
:10242000D183C08302C023E030E080914A058F5FF2
:1024300080934A05822FDF91CF910895E82FF0E035
:10244000EE0FFF1FEC5BFA4F11821082EAE4F5E019
:102450008081815080830895009719F00197A1F041
:1024600029C0CB010197029748F48091C90080618F
:102470008093C9006230710519F01AC0672BC1F44E
:102480008091C900886012C0CB010197029748F47F
:102490008091C9008F7E8093C9006230710519F068
:1024A00007C0672B29F48091C900877F8093C900FA
:1024B00081E0089580E00895CF93DF93EC015FDF22
:1024C0008091CA008F7C8093CA008091CA00877F68
:1024D0008093CA008091C9008B7F8093C90080914E
:1024E000CA0086608093CA008091C9008C7F809367
:1024F000C9008091CA008E7F8093CA008091CB0072
:102500008C7F8093CB00209761F02197F9F480E1D4
:1025100090E09093CD008093CC008091C8008260C1
:1025200009C087E090E09093CD008093CC0080912B
:10253000C8008D7F8093C8008091C8008E7F8093F3
:10254000C8008091CA008F738093CA0062E070E077
:1025500080E090E081DFDF91CF910895E091B105B7
:10256000F0E0E158FA4F80818093CE000895E9ECC5
:10257000F0E08081806C808381E00895E9ECF0E0F8
:1025800080818F73808381E00895A1E0B0E0EAEC60
:10259000F2E1CAC3182F0091C9009983EFDFE12F40
:1025A0009981F92F8191882339F09091C80095FF86
:1025B000FCCF8093CE00F6CF0093C9002196E4E0D3
:1025C000CFC31F920F920FB60F9211242F933F93F8
:1025D0004F935F936F937F938F939F93AF93BF932B
:1025E000CF93DF93EF93FF938091B105823310F087
:1025F0001092B1058091CE00E091B105F0E0E15874
:10260000FA4F8083ABDF9091B105E92FF0E0E158FC
:10261000FA4F80818D3011F08A30E9F41082809178
:102620004A05882309F1C0E0D0E0FE01EE0FFF1F4C
:10263000EC5BFA4F80819181892B41F00190F08110
:10264000E02D61EB75E08FE795E009952196C330A9
:10265000D10559F709C0883011F08F3711F4915026
:1026600001C09F5F9093B105FF91EF91DF91CF91F2
:10267000BF91AF919F918F917F916F915F914F919A
:102680003F912F910F900FBE0F901F9018951F92A2
:102690000F920FB60F9211248F939F93EF93FF9396
:1026A00080917E0590917D05891750F4E82FF0E028
:1026B000E55BFA4F90819093CE008F5F80937E050B
:1026C000FF91EF919F918F910F900FBE0F901F90F0
:1026D00018951F93CF93DF931092B3051092B40512
:1026E0001092B6051092B5051092B8051092B70574
:1026F0000E94E209C0E0D0E01DE11C9FF0011D9F97
:10270000F00D1124ED54FA4F10A2178E12A211A24F
:10271000FE013197E730F10518F4EA5AFF4F92C2F3
:1027200064E071E089EB95E022C06AE171E086ED3A
:1027300095E01DC062E371E083EF95E018C064E4AA
:1027400071E080E196E013C069E571E08DE296E00A
:102750000EC06EE671E08AE496E009C062E871E0BE
:1027600087E696E004C068E971E084E896E0F7D572
:102770002196C830D10509F0C0CFDF91CF911F91CC
:102780000895A4E1B0E0E6ECF3E1C5C28EEA91E081
:10279000FCDE8091B3051F928F9382ECE82E81E0DE
:1027A000F82EFF92EF928E010F5F1F4F1F930F9332
:1027B000DDD5C801EADE85EC91E0E7DE8091B50564
:1027C0009091B6052091B7053091B805821B930B07
:1027D0009F938F93FF92EF921F930F93C7D5C801DA
:1027E000D4DE83EE91E0D1DE99EB892E95E0992E2F
:1027F0000FB6F894DEBF0FBECDBFC12CD12C2DE19A
:10280000722EC401C2DE8CEE91E0BFDE7C9C5001D2
:102810007D9CB00C1124F501ED54FA4F5F0181A1AC
:1028200092A19F938F93FF92EF921F930F939ED548
:10283000C801ABDE82E491E0A8DE88EF91E0A5DE7E
:10284000F501878D90A19F938F93FF92EF921F9335
:102850000F938CD5C80199DE87EE91E096DEFFEFED
:10286000CF1ADF0A8DE1880E911C0FB6F894DEBFF7
:102870000FBECDBFF8E0CF16D10409F0C2CF6496E9
:10288000EDE065C281E08093B4058091B50590913B
:10289000B6059093B8058093B70508952091B405C7
:1028A000222369F02DE1289FF001299FF00D1124CA
:1028B000ED54FA4F81A192A1019692A381A30895AC
:1028C0002091B405222369F02DE1289FF001299F72
:1028D000F00D1124ED54FA4F878D90A1019690A32D
:1028E000878F08958091B405882391F08091B70572
:1028F0009091B805892B51F08091B7059091B8055A
:1029000001979093B8058093B70508951092B40588
:1029100008951F93CF93DF9349DD62E070E080E07C
:1029200090E09ADD80EF94E152DDD82F8FE092E0C5
:102930002CDEC0E01CE38091A106811113C08C2F16
:10294000612F4DD1911103C08BE194E01EDE2FEF7A
:1029500089E698E1215080409040E1F700C00000F6
:10296000CF5FE9CF8D2F6ADD1092A106DF91CF9165
:102970001F910895A1E0B0E0EFEBF4E1D7C18983A6
:10298000A8DE8981813021F020F1893030F121C029
:102990008093B30580E69AEE9093B6058093B505D3
:1029A0008AEF90E09093BE068093BD068AE090E0A7
:1029B0009093C2068093C10684E690E09093C0068F
:1029C0008093BF0642E360E070E080E090E46ED95F
:1029D00004C082E090E00E94C30C2196E2E0C2C1F4
:1029E000A3E0B0E0E5EFF4E19FC1182F092F61E00B
:1029F00070E081E090E030DD88E394E0C6DD812F77
:102A0000902FC3DD88E494E0C0DD9E012F5F3F4F2F
:102A10003F932F932E5F3F4F3F932F932EE434E04D
:102A20003F932F930F931F93C0D40FB6F894DEBF3C
:102A30000FBECDBF181619060CF064C02B812037CD
:102A4000B1F054F42536C1F0273609F05BC01ADF27
:102A500089EF94E09ADD40C0223709F10CF43CC0C4
:102A60002A3709F04FC035DE8CED94E04DC084E587
:102A700094E08BDD86DE36C0029709F043C0898181
:102A80009A819C01215031092830310520F081E8DC
:102A900094E07BDD37C06EDF87E994E035C00297B4
:102AA00089F569817A81CB0101978236904178F767
:102AB000882777FD8095982FD8D29B01AC019DD1B6
:102AC0009B01AC0160E070E08AE794E4FED142E350
:102AD000EDD88DEB94E018C08FE095E056DD81E0F5
:102AE0008093A1068091A106811108C08BE194E03A
:102AF0004CDD61E070E080E090E0AEDC57DC2396D6
:102B0000E4E02EC182E295E040DDECCF1F93CF934D
:102B1000DF93A1E0B0E0681B790B481B590B9C01C7
:102B2000C8E2D0E0F9011491FB01E20FF31FE49138
:102B3000FA01E20FF31FE49121972A0F3B1F209720
:102B400089F71196A932B10551F78BED9FE0A9E401
:102B5000B0E48093C3069093C406A093C506B093D7
:102B6000C606DF91CF911F9108950E94990C0E9493
:102B70006D0A0E94390A78948091A9069091AA065C
:102B8000892B71F00E94340A82E090E087DE809108
:102B9000A9069091AA0601979093AA068093A90688
:102BA0008091B3069091B406892B31F3C4E1D0E053
:102BB0004AEF56E06AEB70E08AE39DE0A7DF2197D9
:102BC0002097B1F787E090E069DE8091B30690919D
:102BD000B40601979093B4068093B306CDCF991BAA
:102BE00079E004C0991F961708F0961B881F7A9504
:102BF000C9F780950895AA1BBB1B51E107C0AA1F06
:102C0000BB1FA617B70710F0A61BB70B881F991F8D
:102C10005A95A9F780959095BC01CD01089597FB31
:102C2000072E16F4009406D077FD08D0E4DF07FCE9
:102C300005D03EF4909581959F4F089570956195CC
:102C40007F4F0895EE0FFF1F0590F491E02D09943A
:102C5000689401C0E8948F929F92CF93DF9305D040
:102C6000DF91CF919F908F90089588249924F4014B
:102C7000E401B0E49F93AA279A158B049C04ED0508
:102C8000FE05CF05D007A10798F4AD2FDC2FCF2F7D
:102C9000FE2FE92D982C892E982F872F762F652FC0
:102CA000542F432F322F2227B85031F7BF9127C01E
:102CB0001B2EBF91BB27220F331F441F551F661FBA
:102CC000771F881F991F881C991CEE1FFF1FCC1FA0
:102CD000DD1FAA1FBB1F8A149B04EC05FD05CE0552
:102CE000DF05A007B10748F08A189B08EC09FD0929
:102CF000CE09DF09A00BB10B21601A94E1F62EF486
:102D00009401AF01BE01CD01000C08952F923F92B6
:102D10004F925F926F927F928F929F92AF92BF92EB
:102D2000CF92DF92EF92FF920F931F93CF93DF9397
:102D3000CDB7DEB7CA1BDB0B0FB6F894DEBF0FBEF4
:102D4000CDBF09942A88398848885F846E847D8441
:102D50008C849B84AA84B984C884DF80EE80FD8043
:102D60000C811B81AA81B981CE0FD11D0FB6F894B9
:102D7000DEBF0FBECDBFED01089597FB10F816948E
:102D800000080F93083098F00850232F342F452F58
:102D9000562F672F782F892F902DF4CF0594979574
:102DA00087957795679557954795379527950A9510
:102DB000AAF70F9108950024A7FD00942A0F301D53
:102DC000401D501D601D701D801D901D08952A1509
:102DD0003B054C055D056E057F058007910708954D
:102DE0000024A7FD00942A17300540055005600512
:102DF00070058005900508955058BB27AA270ED06E
:102E0000BAC1ABD130F0B0D120F031F49F3F11F412
:102E10001EF490C10EF4E095E7FB86C1E92FBCD10A
:102E200080F3BA17620773078407950718F071F4E7
:102E30009EF5D4C10EF4E0950B2EBA2FA02D0B01F8
:102E4000B90190010C01CA01A0011124FF27591BEF
:102E500099F0593F50F4503E68F11A16F040A22FF5
:102E6000232F342F4427585FF3CF46953795279566
:102E7000A795F0405395C9F77EF41F16BA0B620B65
:102E8000730B840BBAF09150A1F0FF0FBB1F661FAC
:102E9000771F881FC2F70EC0BA0F621F731F841FEF
:102EA00048F4879577956795B795F7959E3F08F015
:102EB000B3CF9395880F08F09927EE0F97958795D4
:102EC00008950ED108F481E008950CD054C14CD17E
:102ED00040F043D130F021F45F3F19F025C151118A
:102EE0007EC128C159D198F39923C9F35523B1F371
:102EF000951B550BBB27AA2762177307840738F069
:102F00009F5F5F4F220F331F441FAA1FA9F333D0C7
:102F10000E2E3AF0E0E830D091505040E695001C7B
:102F2000CAF729D0FE2F27D0660F771F881FBB1F37
:102F3000261737074807AB07B0E809F0BB0B802D11
:102F4000BF01FF2793585F4F2AF09E3F510568F05D
:102F5000EBC045C15F3FECF3983EDCF38695779577
:102F60006795B795F7959F5FC9F7880F911D96955F
:102F7000879597F90895E1E0660F771F881FBB1FBB
:102F8000621773078407BA0720F0621B730B840B68
:102F9000BA0BEE1F88F7E0950895BEE304D008F45D
:102FA00090E80895BFE322273327A901FDD058F107
:102FB0009F5740F1B91738F1BFE3B91B9927B850B3
:102FC0003AF4660F771F881F991FB395D2F316C086
:102FD000B8504AF0232F342F452F562F672F782FC4
:102FE0008827B850BAF7B85F49F086957795679506
:102FF0005795479537952795BA95B9F70EF49DD013
:1030000088940895889460E070E0CB010895CCD056
:1030100088F09F5790F0B92F9927B751A0F0D1F0C1
:10302000660F771F881F991F1AF0BA95C9F712C04B
:10303000B13081F0D3D0B1E00895D0C0672F782FA0
:103040008827B85F39F0B93FCCF3869577956795B7
:10305000B395D9F73EF490958095709561957F4F23
:103060008F4F9F4F0895E89409C097FB3EF49095C9
:103070008095709561957F4F8F4F9F4F9923A9F051
:10308000F92F96E9BB279395F695879577956795E0
:10309000B795F111F8CFFAF4BB0F11F460FF1BC024
:1030A0006F5F7F4F8F4F9F4F16C0882311F096E9B7
:1030B00011C0772321F09EE8872F762F05C0662365
:1030C00071F096E8862F70E060E02AF09A95660F1E
:1030D000771F881FDAF7880F9695879597F90895D7
:1030E000990F0008550FAA0BE0E8FEEF1616170619
:1030F000E807F907C0F012161306E407F50798F081
:10310000621B730B840B950B39F40A2661F0232B99
:10311000242B252B21F408950A2609F4A140A69515
:103120008FEF811D811D089597F99F6780E870E0FA
:1031300060E008959FEF80EC0895909580957095DC
:10314000609550954095309521953F4F4F4F5F4F7B
:103150006F4F7F4F8F4F9F4F089500240A9416168C
:10316000170618060906089500240A941216130675
:10317000140605060895092E0394000C11F4882303
:1031800052F0BB0F40F4BF2B11F460FF04C06F5F1F
:103190007F4F8F4F9F4F089557FD9058440F551FF5
:1031A00059F05F3F71F04795880F97FB991F61F0C9
:1031B0009F3F79F087950895121613061406551F40
:1031C000F2CF4695F1DF08C0161617061806991FAC
:1031D000F1CF86957105610508940895E894BB27A1
:1031E00066277727CB0197F908950BD0C4CFB5DFB9
:1031F00028F0BADF18F0952309F096CF9BCF112461
:10320000EECFCADFA0F3959FD1F3950F50E0551F85
:10321000629FF001729FBB27F00DB11D639FAA272B
:10322000F00DB11DAA1F649F6627B00DA11D661F7A
:10323000829F2227B00DA11D621F739FB00DA11D9B
:10324000621F839FA00D611D221F749F3327A00D55
:10325000611D231F849F600D211D822F762F6A2FF1
:1032600011249F5750408AF0E1F088234AF0EE0F76
:10327000FF1FBB1F661F771F881F91505040A9F783
:103280009E3F510570F050CFAACF5F3FECF3983EC0
:10329000DCF3869577956795B795F795E7959F5FEA
:1032A000C1F7FE2B880F911D9695879597F9089584
:1032B0008F929F92AF92BF92CF92DF92EF92FF9246
:1032C000CF93DF93EC01688179818A819B816115BD
:1032D00071058105910521F464E279ED8BE597E0B4
:1032E0002DE133EF41E050E0E4D549015A019B0163
:1032F000AC01A7EAB1E4F9D56B017C01ACEEB4EF07
:10330000A5019401FED5C60ED71EE81EF91EF7FED4
:1033100006C081E0C81AD108E10880E8F80AC8822E
:10332000D982EA82FB82C6019F77DF91CF91FF901D
:10333000EF90DF90CF90BF90AF909F908F900895C7
:10334000B7CF80E091E0B4CFA0E0B0E0809300017F
:1033500090930101A0930201B09303010895FB0132
:10336000DC0101900D920020E1F70895AEE0B0E09D
:10337000EBEBF9E1D9CC0D891E8986E08C831A83A9
:1033800009838FEF9FE79E838D83AE01475E5F4F7A
:103390006F89788DCE0101961ED0EF81F885E00F00
:1033A000F11F10822E96E4E0DBCCAEE0B0E0EAED57
:1033B000F9E1BCCC85E08C838B899C899A838983D5
:1033C000AE01495E5F4F6D897E89CE01019635D38E
:1033D0002E96E2E0C7CCACE0B0E0E0EFF9E196CCAD
:1033E0007C016B018A01FC0117821682838181FFB7
:1033F000B0C1CE0101964C01F7019381F60193FD16
:10340000859193FF81916F01882309F49EC18532D4
:1034100039F493FD859193FF81916F01853221F4F9
:10342000B70190E09AD4E8CF512C312C20E0203223
:10343000A0F48B3269F030F4803259F0833269F4B1
:1034400020612CC08D3239F0803339F4216026C0E0
:103450002260246023C0286021C027FD27C030EDF2
:10346000380F3A3078F426FF06C0FAE05F9E300D40
:103470001124532E13C08AE0389E300D1124332EB0
:1034800020620CC08E3221F426FD5FC1206406C08C
:103490008C3611F4206802C0883641F4F60193FDA1
:1034A000859193FF81916F018111C1CF982F9F7DED
:1034B0009554933028F40C5F1F4FFFE3F9830DC040
:1034C000833631F0833771F0833509F057C021C05E
:1034D000F801808189830E5F1F4F44244394512C4F
:1034E000540114C03801F2E06F0E711CF801A08085
:1034F000B18026FF03C0652D70E002C06FEF7FEF43
:10350000C5012C87E1D32C0183012C852F77222E36
:1035100016C03801F2E06F0E711CF801A080B18076
:1035200026FF03C0652D70E002C06FEF7FEFC5017D
:103530002C87BFD32C012C852068222E830123FCED
:1035400019C0832D90E048165906A0F4B70180E217
:1035500090E003D43A94F5CFF50127FC859127FE3E
:1035600081915F01B70190E0F8D331103A94F1E016
:103570004F1A51084114510479F7DEC0843611F016
:10358000893631F5F80127FF07C06081718182819A
:1035900093810C5F1F4F08C060817181882777FD80
:1035A0008095982F0E5F1F4F2F76B22E97FF09C080
:1035B00090958095709561957F4F8F4F9F4F2068B4
:1035C000B22E2AE030E0A40113D4A82EA81843C0DC
:1035D000853729F42F7EB22E2AE030E025C0F22F65
:1035E000F97FBF2E8F36C1F018F4883579F0ADC061
:1035F000803719F0883721F0A8C02F2F2061B22E14
:10360000B4FE0DC08B2D8460B82E09C024FF0AC003
:103610009F2F9660B92E06C028E030E005C020E15B
:1036200030E002C020E132E0F801B7FE07C060815F
:103630007181828193810C5F1F4F06C0608171810F
:1036400080E090E00E5F1F4FA401D2D3A82EA818EF
:10365000FB2DFF77BF2EB6FE0BC02B2D2E7FA514A2
:1036600050F4B4FE0AC0B2FC08C02B2D2E7E05C05B
:103670007A2C2B2D03C07A2C01C0752C24FF0DC091
:10368000FE01EA0DF11D8081803311F4297E09C00D
:1036900022FF06C07394739404C0822F867809F0C9
:1036A000739423FD12C020FF06C05A2C731418F423
:1036B000530C5718732C731460F4B70180E290E038
:1036C0002C874BD373942C85F6CF731410F43718D2
:1036D00001C0312C24FF11C0B70180E390E02C879A
:1036E0003CD32C8522FF16C021FF03C088E590E063
:1036F00002C088E790E0B7010CC0822F867851F0B5
:1037000021FD02C080E201C08BE227FD8DE2B701FE
:1037100090E023D3A51430F4B70180E390E01DD3EB
:103720005A94F8CFAA94F401EA0DF11D8081B701F3
:1037300090E013D3A110F6CF332009F45DCEB7018A
:1037400080E290E00AD33A94F7CFF701868197811F
:1037500002C08FEF9FEF2C96E2E1F4CA20FD09C072
:10376000FC0123FD05C022FF02C0738362835183E5
:103770004083089544FD10C046FD10C0DB01FC01EC
:10378000AA0FBB1FEE1FFF1F1094D1F76A0F7B1FFC
:103790008E1F9F1F31E003C033E001C034E0660F8D
:1037A000771F881F991F3150D1F7620F711D811D3E
:1037B000911D08950F931F93CF93DF938C01C80140
:1037C0008ED2EC0197FD06C061D2892BC1F7B801FA
:1037D000CE01F5D2CE01DF91CF911F910F910895C7
:1037E0008F929F92AF92CF92DF92EF92FF920F93C0
:1037F0001F93CF93DF93EC01A62E4A01022F6FD2C5
:10380000AC0155274B32510521F04D32510549F499
:103810000068AA9411F480E060C0CE0160D297FDE8
:10382000FACF102F1D7F302F3073F1F48033E1F485
:10383000FF24FA94FA0C09F43DC0CE0150D297FD52
:1038400039C0382F3F7D383549F41264AA94AA94C0
:1038500089F1CE0144D297FF07C02CC006FF02C0F9
:10386000126001C01261AF2CC12CD12C760120ED69
:10387000280F283078F014FF03C0BE01A0D217C073
:103880002A3040F016FFF9CF2F7D3FEE320F363051
:10389000A0F72750412FC701B6016CDF6B017C01F7
:1038A0001260AA9451F0CE011AD297FFE0CF11FD19
:1038B00004C0B1CFC12CD12C760117FF08C0F09401
:1038C000E094D094C094C11CD11CE11CF11C212FA8
:1038D000B701A601C40142DF81E0DF91CF911F91C2
:1038E0000F91FF90EF90DF90CF90AF909F908F90CF
:1038F0000895A1E2B0E0EEE7FCE10DCA5C017A01B7
:103900008E010F5F1F4F680180E2D8011D928A95DA
:10391000E9F7F501738040E050E0812CB0E0912C94
:1039200081E090E0F90173FCA59173FEA1918F01F4
:103930007A2F9F01A11103C080E090E07BC0AE35DB
:1039400019F44115510559F1E92DF0E0E417F50797
:103950003CF4AD3569F1AD3219F4BB2319F103C064
:10396000B11101C08A2EE72FE695E695E69586010E
:103970000E0F111DF801A72FA7708C0102C0000FB8
:10398000111FAA95E2F7D801B081BA2BB083781540
:1039900059F0781510F47F5FE6CF7150E4CF992489
:1039A000939403C0B1E001C0B0E04F5F5F4FBACF66
:1039B000BB2319F08E8180628E83911003C09924FD
:1039C000939415C0F601CE01819620812095219314
:1039D000E817F907D1F7F3CFE114F10429F0D70183
:1039E0008C93F70131967F016150F1F0912CC50164
:1039F00069A375D169A197FD15C0282F2695269535
:103A00002695F601E20FF11D208130E0AC014770F0
:103A1000552702C0359527954A95E2F720FDDCCF62
:103A2000B501CDD1911088CFE114F10411F0D70187
:103A30001C92C801A196EDE08AC94F925F927F92D5
:103A40008F929F92AF92BF92CF92DF92EF92FF92AE
:103A50000F931F93CF93DF931F92CDB7DEB78C01E7
:103A60002B017A01FC0117821682A12CF801D38068
:103A7000F201D3FC8591D3FE8191382F2F01882349
:103A800009F4EEC090E0398301D13981892B19F016
:103A9000C80190DEEBCF353241F4F201D3FC359111
:103AA000D3FE31912F01353259F4C801398317D132
:103AB000398197FDD3C03817C9F2B80180D1D0C081
:103AC0003A3241F4D3FC3591D3FE31912F01BB241E
:103AD000B39401C0B12C712C20ED230F2A3088F44F
:103AE000FB2DF260BF2E672D70E080E090E040E299
:103AF00041DE762EF201D3FC3591D3FE31912F01B8
:103B0000EBCFB1FE03C0711003C0AAC077247A9432
:103B1000383619F03C3661F014C0F201D3FC35910F
:103B2000D3FE31912F01383661F4FB2DF860BF2EA2
:103B30008B2D8460B82EF201D3FC3591D3FE3191E8
:103B40002F01332309F48CC0632F70E08AE793E1DF
:103B50003983A4D03981892B09F482C0B0FC07C015
:103B6000F701C080D180C70102967C0102C0C12C40
:103B7000D12C3E3649F4F8014681578160E070E06F
:103B80002B2DC601EBDD72CF333699F4B1FC02C0A8
:103B900077247394C801A3D097FD60C0C114D104E9
:103BA00029F0F6018083C60101966C017A9491F7A1
:103BB00051C03B3551F49201A601672DC80199DE31
:103BC0002C01009709F046C040C0C8013983F2DDDE
:103BD000398197FD43C03F3651F128F4343619F14D
:103BE000393661F128C0333769F03537E1F023C049
:103BF000C114D10429F0F6018082C60101966C013E
:103C00007A9459F0C8016BD04C0197FD06C03ED0A4
:103C1000892B71F3B801C401D2D0C114D104D1F001
:103C2000F601108217C0FB2DF062BF2E07C08B2D4E
:103C30008061B82E03C09B2D9064B92E2B2DA60158
:103C4000672DC801CDDD811105C0F8018381807326
:103C500029F406C0B0FC0ACFA39408CFAA2019F01B
:103C60008A2D90E002C08FEF9FEF0F90DF91CF91F0
:103C70001F910F91FF90EF90DF90CF90BF90AF908A
:103C80009F908F907F905F904F90089591110EC1FB
:103C9000803219F089508550D0F70895FC010590C5
:103CA000061621F00020D9F7C00108953197CF0101
:103CB0000895FC010590615070400110D8F780957F
:103CC00090958E0F9F1F0895FC01615070400190E8
:103CD0000110D8F7809590958E0F9F1F0895CF9370
:103CE000DF93EC012B8120FF33C026FF0AC02F7B1E
:103CF0002B838E819F8101969F838E838A8190E0A2
:103D000029C022FF0FC0E881F9818081992787FDB2
:103D10009095009719F420622B831AC03196F9838D
:103D2000E8830EC0EA85FB85099597FF09C02B81C2
:103D3000019611F480E101C080E2822B8B8308C0E0
:103D40002E813F812F5F3F4F3F832E83992702C0F3
:103D50008FEF9FEFDF91CF9108950F931F93CF9334
:103D6000DF93182F092FEB018B8181FD03C08FEFAB
:103D70009FEF20C082FF10C04E815F812C813D816A
:103D8000421753077CF4E881F9819F012F5F3F4F71
:103D900039832883108306C0E885F985812F09952A
:103DA000892B29F72E813F812F5F3F4F3F832E8341
:103DB000812F902FDF91CF911F910F910895FB01DB
:103DC000238120FF12C026FD10C08F3F3FEF9307D5
:103DD00061F082832F7D20642383268137812150E7
:103DE000310937832683992708958FEF9FEF089530
:103DF000FA01AA27283051F1203181F1E8946F931C
:103E00006E7F6E5F7F4F8F4F9F4FAF4FB1E03ED0C1
:103E1000B4E03CD0670F781F891F9A1FA11D680F5F
:103E2000791F8A1F911DA11D6A0F711D811D911D92
:103E3000A11D20D009F468943F912AE0269F112407
:103E40003019305D3193DEF6CF010895462F47706B
:103E5000405D4193B3E00FD0C9F7F6CF462F4F70C6
:103E6000405D4A3318F0495D31FD4052419302D024
:103E7000A9F7EACFB4E0A6959795879577956795CA
:103E8000BA95C9F700976105710508959B01AC01CA
:103E90000A2E06945795479537952795BA95C9F7F1
:103EA000620F731F841F951FA01D089599278827EF
:103EB0000895052E97FB16F400940FD057FD05D0FA
:103EC00024D007FC02D046F408C0509540953095A8
:103ED00021953F4F4F4F5F4F089590958095709576
:103EE00061957F4F8F4F9F4F089531D0A59F900DC3
:103EF000B49F900DA49F800D911D11240895B7FFCC
:103F0000F4CFF3DF821B930B0895A1E21A2EAA1BB4
:103F1000BB1BFD010DC0AA1FBB1FEE1FFF1FA21779
:103F2000B307E407F50720F0A21BB30BE40BF50B76
:103F3000661F771F881F991F1A9469F760957095FF
:103F4000809590959B01AC01BD01CF010895A29F82
:103F5000B001B39FC001A39F700D811D1124911D5D
:103F6000B29F700D811D1124911D0895F894FFCF0B
:103F700001000000313A2054696D65206B65657061
:103F80006572207461736B3A0900323A20436F6D99
:103F90006D756E69636174696F6E207461736B3ADD
:103FA0000900333A20526564204C45442074617303
:103FB0006B3A0900343A2059656C6C6F77204C4598
:103FC00044207461736B3A0900353A204A6974746D
:103FD0006572204C4544207461736B3A0900363A8F
:103FE00020477265656E204C4544207461736B3ABE
:103FF0000900373A20477265656E20636F756E74ED
:10400000207461736B3A0900383A20486F7567680D
:10401000207472616E73207461736B3A0900457885
:10402000706572696D656E74206E756D6265723A49
:1040300020002575002C204578706572696D656ECD
:10404000746174696F6E2074696D6520286D7329C1
:104050003A200020200D0A20200D0A0074696D65A9
:10406000732072756E3A20007C2020206D69737376
:10407000656420646561646C696E65733A20002034
:104080000D0A0D0A2D2D2D2D2D2D2D2D2D2D2D2DE6
:104090002D2D2D2D2D2D2D2D2D2D2D2D2D2D2D2D50
:1040A0002D2D2D2D2D2D2D2D2D2D2D2D2D2D2D2D40
:1040B0002D2D2D2D2D2D2D2D2D2D2D2D2D2D2D2D30
:1040C0000D0A202020202020202020202020202019
:1040D00020204558504552494D454E544154494F72
:1040E0004E204D454E55200D0A2D2D2D2D2D2D2DBB
:1040F0002D2D2D2D2D2D2D2D2D2D2D2D2D2D2D2DF0
:104100002D2D2D2D2D2D2D2D2D2D2D2D2D2D2D2DDF
:104110002D2D2D2D2D2D2D2D2D2D2D2D2D2D2D2DCF
:104120002D2D2D2D2D0D0A70202020202020202027
:104130002D3E205072696E7420636F6C6C656374E1
:104140006564206578706572696D656E7420646160
:1041500074610D0A65203C6E756D3E20202D3E2059
:104160005365747570206578706572696D656E74DD
:10417000206E756D626572203C6E756D3E28312D26
:1041800038290D0A72203C6E756D3E20202D3E2090
:104190005365742074686520677265656E204C45B0
:1041A00044207461736B20746F203C6E756D3E28E3
:1041B000312D3431393429206D730D0A7A202020B5
:1041C00020202020202D3E20526573657420616CD4
:1041D0006C206578706572696D656E746174696F65
:1041E0006E20646174610D0A672020202020202049
:1041F000202D3E20537461727420746865206578A8
:10420000706572696D656E74206A75737420636F72
:104210006E666967757265640D0A71202020202022
:104220002020202D3E2051756974206D656E75200B
:10423000616E6420676F206261636B20746F206E13
:104240006F726D616C206D6F64650D0A2D2D2D2DC3
:104250002D2D2D2D2D2D2D2D2D2D2D2D2D2D2D2D8E
:104260002D2D2D2D2D2D2D2D2D2D2D2D2D2D2D2D7E
:104270002D2D2D2D2D2D2D2D2D2D2D2D2D2D2D2D6E
:104280002D2D2D2D2D2D2D2D0D0A000D0A57616977
:1042900074696E6720666F72207573657220696E2F
:1042A0007075742E2E2E20000D0A596F75722063C2
:1042B000686F6963653A20002020200D0A0025639D
:1042C000202564000D0A2D2D2D2D2D205072696E94
:1042D00074696E6720616C6C206578706572696DB9
:1042E000656E742064617461202D2D2D2D2D0D0AB5
:1042F000003C6E756D3E206F7574206F6620726194
:104300006E67652E0D0A004578706572696D656E81
:10431000742069732073657475702026207265613E
:10432000647920746F2072756E2E0D0A00526563D9
:104330006F6E6669677572656420677265656E2069
:104340004C4544207461736B2E0D0A00416C6C2047
:104350006578706572696D656E7420646174612042
:1043600072657365742E0D0A004578706572696D0B
:10437000656E7420737461727465642E0D0A005149
:1043800075697474696E67206D656E752E2E2E0DBD
:104390000A00496E76616C696420757365722069E4
:1043A0006E7075742C2074727920616761696E2E4D
:0443B0000D0A0000F2
:00000001FF
