:10000000FDC0000018C1000016C1000014C10000AE
:1000100012C1000010C100000EC100000CC10000A0
:100020000AC1000096C2000006C1000004C1000021
:1000300002C1000000C10000FEC00000FCC00000C2
:10004000FAC00000F8C00000F6C00000F4C00000D4
:10005000F2C00000F0C00000EEC00000ECC00000E4
:10006000EAC000000C94280BE6C000000C948E0B34
:10007000E2C00000E0C00000DEC00000DCC0000004
:10008000DAC00000D8C00000D6C00000D4C0000014
:10009000D2C00000D0C00000CEC00000CCC0000024
:1000A000CAC00000C8C00000C6C000006364696E1A
:1000B0006F70737578585B65666745464700616E7B
:1000C000006E66696E69747900CDCCCC3D0AD72389
:1000D0003C17B7D13877CC2B329595E6241FB14F1A
:1000E0000A000020410000C84200401C4620BCBE5F
:1000F0004CCA1B0E5AAEC59D746E616E00696E6669
:100100000000407A10F35A00A0724E18090010A5A2
:10011000D4E80000E87648170000E40B5402000021
:10012000CA9A3B000000E1F50500008096980000A7
:100130000040420F000000A08601000000102700D0
:10014000000000E803000000006400000000000A56
:1001500000000000000100000000002C76D888DCC0
:10016000674F0823DFC1DFAE59E1B1B796E5E3E49D
:1001700053C63AE651997696E8E6C28426EB898C16
:100180009B62ED407C6FFCEFBC9C9F40F2BAA56F78
:10019000A5F490055A2AF75C936B6CF9676DC11B47
:1001A000FCE0E40D47FEF520E6B500D0ED902E030F
:1001B00000943577050080841E080000204E0A0058
:1001C0000000C80C333333330F986E12831141EFA4
:1001D0008D2114893BE65516CFFEE6DB18D1844B02
:1001E000381BF77C1D901DA4BBE424203284725E72
:1001F000228100C9F124ECA1E53D270011241FBE96
:10020000CFEFDAE0DEBFCDBF11E0A0E0B1E0E0E388
:10021000F4E302C005900D92AC30B107D9F721E0AC
:10022000ACE0B1E001C01D92AB3FB207E1F70E9424
:100230006C0C0C94161AE4CEA0E0B0E0E2E2F1E01F
:100240000C948D16EC01088119816115710551F02E
:100250006130710569F4088119818A819B81081BCD
:10026000190B06C0888199810A811B81080F191F0B
:10027000888199815801A81AB90AB7FE03C0B194C0
:10028000A194B108CE010E94FF0BA114B10499F111
:10029000888199815801A81AB90AB7FE03C0B194A0
:1002A000A194B1088A809B80B501882777FD80954D
:1002B000982F0E9464156B017C01B40180E090E0EE
:1002C0000E9462159B01AC01C701B6010E94941403
:1002D00020E030E048EC51E40E9424160E943615DC
:1002E000862F6A3120F4653018F485E001C089E179
:1002F0000E94110CCACF80E00E94110CCDB7DEB76E
:10030000ECE00C94A916CF93DF93DC01AC59BF4FFE
:100310002C91253688F4FC01EA59FF4F2081EC012D
:10032000C20FD11D688380818F5F8083843608F07F
:1003300010828C918F5F8C93DF91CF910895A1E013
:10034000B0E0E5EAF1E00C9497169E012F5F3F4F75
:100350003F932F9326E031E03F932F939F938F930A
:100360000E9485190F900F900F900F900F900F9093
:10037000181619065CF48981863621F0823731F42B
:1003800061E001C060E08EE891E0BDDF89E091E0CE
:100390000E94080B0E94130A2196E2E00C94B31607
:1003A000CF93DF93DC01AC59BF4F2C91222391F006
:1003B000FC01EB59FF4F2081EC01C20FD11D888158
:1003C00090819F5F9083943608F010829C919150A9
:1003D0009C9301C08FEFDF91CF910895FC01EA5902
:1003E000FF4F108231971082319710820895CF927B
:1003F000DF92EF920F931F9388EE95E00E94250CF9
:1004000088ECC82E88E0D82E94E0E92E0EE210E0A9
:1004100020E240E163E270E08DE791E00E94B00BE2
:100420001F910F91EF90DF90CF900895E0DF109231
:10043000F4011092F3011092F201089583E0ADD718
:10044000882309F180E0A9D78823E9F081E090E0D2
:100450000E94990A8823B9F00E94FA0A882399F029
:100460008FE991E0F1D740E060E070E48CE996E438
:1004700000D3882341F084E090D7882321F085E0E1
:100480008CD7811103C080E090E02DC10895479A78
:100490005D98089547985D9A0895269A6A9A84B15E
:1004A0008F7C84B9F4DF2FEF83ED90E321508040FF
:1004B0009040E1F700C00000EDDFB8CF0F931F932D
:1004C000CF93DF93C091F501D091F60101E010E0E8
:1004D000E981FA8120818B81282381E090E011F469
:1004E00080E090E02C813D8121303105E1F4892BC1
:1004F00031F58FE39CE90197F1F700C00000E98135
:10050000FA8180819B818923D1F48881813421F013
:10051000833431F461E001C060E08EE891E0F3DE05
:100520001D821C820CC0232B51F4019741F48FE3F0
:100530009CE90197F1F700C000001D830C830E8039
:10054000DF81C02D209721F6DF91CF911F910F9170
:1005500008951F920F920FB60F9211242F933F937D
:100560004F935F936F937F938F939F93AF93BF93BB
:10057000EF93FF93A3DF8DE791E00E94CF0BFF91F4
:10058000EF91BF91AF919F918F917F916F915F910B
:100590004F913F912F910F900FBE0F901F90189584
:1005A00082B7806882BF82B7806282BF82B78F7E47
:1005B00082BF82B78A6082BF82B78A7F82BF89B5D5
:1005C0008F7E89BD89B5826089BD0895EF92FF92C3
:1005D0000F931F93CF93DF9384B1867F84B985B146
:1005E000896085B988E090E00E94E516EC0190935F
:1005F000F6018093F50181E4888383E2E82EF12CF3
:10060000FA82E98288E08B8301E010E01D830C838D
:1006100088E090E00E94E516FC019F838E8383E4CE
:100620008083F282E18281E08383158304831782D1
:100630001682CDB7DEB7E6E00C94AF16479A5D9A06
:100640002FEF43EC59E0215040405040E1F700C00B
:1006500000008CE090E030E228B1205828B92BB19E
:1006600023272BB92FEF41EE54E02150404050405A
:10067000E1F700C000000197009771F747985D9A75
:1006800008952FEF81EE94E0215080409040E1F7F3
:1006900000C000003F9A559A99DFD0CF85B5887F7A
:1006A00085BD0895A1E0B0E0E8E5F3E00C9497166D
:1006B0008983F4DF898186BD84B58F7384BD85B558
:1006C000877F85BD84B58C7F84BDEEE6F0E08081B8
:1006D00081608083579885B5876085BD81E02196CC
:1006E000E2E00C94B316F894209A009721F0019759
:1006F00019F45D9801C0479A2898FFCFAAE0B0E0AE
:10070000E4E8F3E00C94871658874F836801790179
:100710009B01AC0160E070E08AE794E40E949414CD
:100720009B01AC0160E074E284E79BE40E949414B6
:100730000E940115F22FE32F49875A876B837C8330
:100740008D839E8316012701612C712C4301560174
:100750006201E12CF12C00E010E00E94DC1648F46C
:10076000CF01AF81B8859C9311968C9381E090E086
:1007700079C02F2F3E2F49855A856B817C818D81D1
:100780009E8103E00E94C016D90151016201E12C53
:10079000F12C00E010E00E94DC1638F4EF81F885BF
:1007A000A083B18388E090E05DC02F2F3E2F498564
:1007B0005A856B817C818D819E8106E00E94C016E6
:1007C000D90151016201E12CF12C00E010E00E94FE
:1007D000DC1650F49A2F8B2FAF81B8859C9311961D
:1007E0008C9380E490E03EC02F2F3E2F49855A85A0
:1007F0006B817C818D819E8108E00E94C016D901A9
:1008000051016201E12CF12C00E010E00E94DC16A5
:1008100038F4EF81F885A083B18380E091E022C0B5
:100820002F2F3E2F49855A856B817C818D819E813A
:100830000AE00E94C016F22FE32F51016201E12C61
:10084000F12C00E010E00E94DC1648F4CF01AF81EB
:10085000B8859C9311968C9380E094E003C080E06F
:1008600090E041DF2A96E2E10C94A316A2E0B0E00A
:10087000ECE3F4E00C949516BC0180E090E00E945B
:10088000621500E011E020E030E0AE014F5F5F4F05
:1008900035DF009709F444C016BC24B52F7324BD7E
:1008A00025B5277F25BD24B5226024BD24B52E7F24
:1008B00024BD2981215027BD20916E002260209304
:1008C0006E0088309105A9F040F4019719F585B5BF
:1008D000897F85BD85B5816011C080349105A1F007
:1008E00081159140B9F485B5846085BD85B58C7F4F
:1008F00005C085B58A7F85BD85B5826085BD81E0EF
:100900002296E4E00C94B11685B58B7F85BD85B544
:100910008360F4CF85B5856085BD85B58D7FEECFCD
:1009200080E090E0E0DE823441F08F3451F0813499
:1009300071F480916E00826007C080916E008460C7
:1009400003C080916E00816080936E00089580E006
:1009500090E0C9DE823441F08F3451F0813471F47B
:1009600080916E008D7F07C080916E008B7F03C0E9
:1009700080916E008E7F80936E00089580E090E0FD
:10098000B2DEA2E0B0E0E7ECF4E00C949516BC0116
:1009900080E090E00E94621500E010E021E030E08D
:1009A000AE014F5F5F4FAADE009709F45FC010925F
:1009B000850010928400209181002860209381009E
:1009C000209181002F7E20938100209180002C7F38
:1009D0002093800029813A81215031093093890088
:1009E0002093880020916F00226020936F00883050
:1009F0009105D9F058F4019781F580918100897FA4
:100A00008093810080918100816017C080349105BE
:100A1000D9F08115914009F580918100846080931F
:100A20008100809181008C7F08C0809181008A7F45
:100A3000809381008091810082608093810081E0B9
:100A40002296E4E00C94B116809181008B7F809314
:100A50008100809181008360F0CF8091810085606A
:100A600080938100809181008D7FE7CF80E090E0CE
:100A70003ADEA2E0B0E0EFE3F5E00C949016B42E7D
:100A80009B01AC010E942C149B01AC0160E070E062
:100A90008AE794E40E94941400E010E021E030E042
:100AA000AE014F5F5F4F2ADE8C01009709F46CC0E6
:100AB00080918100887F8093810010928500109240
:100AC0008400809181008061809381008091810009
:100AD000877F80938100809180008C7F809380004D
:100AE00089819A819093870080938600809180000D
:100AF000807180938000809180008062809380006C
:100B000084E68B1508F440C069817A8180E090E02A
:100B10000E9462156B017C016B2D70E080E090E01B
:100B20000E9462159B01AC01C701B6010E94241608
:100B300020E030E048EC52E40E9494140E94361504
:100B400070938B0060938A000830110501F160F406
:100B50000130110571F580918100897F80938100BA
:100B60008091810081602DC000341105C9F001150C
:100B700081E01807F1F48091810084608093810006
:100B8000809181008C7F1DC080E090E0ACDD809181
:100B900081008A7F8093810080918100826011C0F2
:100BA000809181008B7F80938100809181008360A0
:100BB00008C08091810085608093810080918100D0
:100BC0008D7F8093810081E02296E9E00C94AC1641
:100BD000CF92DF92EF92FF92CF93C82F853648F5E0
:100BE0002091860030918700B90180E090E00E945A
:100BF00062156B017C016C2F70E080E090E00E9438
:100C000062159B01AC01C701B6010E94241620E0C9
:100C100030E048EC52E40E9494140E943615709320
:100C20008B0060938A00CF91FF90EF90DF90CF9080
:100C3000089580E090E057DD823479F034F4813417
:100C4000B1F480916F0082600FC0833451F08F3413
:100C500071F480916F00816007C080916F008460A3
:100C600003C080916F00886080936F00089580E0DA
:100C700090E039DD823479F034F48134B1F480913C
:100C80006F008D7F0FC0833451F08F3471F48091E9
:100C90006F008E7F07C080916F008B7F03C08091B3
:100CA0006F00877F80936F00089580E090E01BDDE8
:100CB000A2E0B0E0EEE5F6E00C949516BC0180E011
:100CC00090E00E94621500E010E021E030E0AE010B
:100CD0004F5F5F4F13DD009709F45FC010929500DE
:100CE000109294002091910028602093910020910F
:100CF00091002F7E20939100209190002C7F2093D3
:100D0000900029813A812150310930939900209334
:100D10009800209171002260209371008830910525
:100D2000D9F058F4019781F580919100897F8093E3
:100D3000910080919100816017C080349105D9F0B5
:100D40008115914009F58091910084608093910014
:100D5000809191008C7F08C0809191008A7F809360
:100D600091008091910082608093910081E02296B1
:100D7000E4E00C94B116809191008B7F80939100F8
:100D8000809191008360F0CF809191008560809385
:100D90009100809191008D7FE7CF80E090E0A3DC0F
:100DA000823479F034F48134B1F48091710082603E
:100DB0000FC0833451F08F3471F4809171008160E1
:100DC00007C080917100846003C0809171008860C9
:100DD00080937100089580E090E085DC823479F0A2
:100DE00034F48134B1F4809171008D7F0FC083346D
:100DF00051F08F3471F4809171008E7F07C0809123
:100E000071008B7F03C080917100877F8093710098
:100E1000089580E090E067DC8F929F92AF92BF923E
:100E2000CF92DF92EF92FF926B017C0120E030E0E5
:100E300040E854E40E94901487FF09C08091C100EB
:100E4000817F8093C1008091C10081608BC120E0CF
:100E500030E040E05FE3C701B6010E9424164B0179
:100E60005C0120E030E040E854E40E94901487FFE9
:100E700009C08091C100827F8093C1008091C10030
:100E8000826046C120E030E040E85EE3C701B60181
:100E90000E9424164B015C0120E030E040E854E45D
:100EA0000E94901487FF0EC08091C100837F8093C1
:100EB000C1008091C10082608093C1008091C10017
:100EC000816026C120E030E040E05EE3C701B6016A
:100ED0000E94241620E030E040E854E40E94901480
:100EE00087FF09C08091C100837F8093C1008091FA
:100EF000C10083600DC120E030E040E85DE3C70140
:100F0000B6010E9424164B015C0120E030E040E86D
:100F100054E40E94901487FF09C08091C10084604E
:100F20008093C1008091C100847FF2C020E030E056
:100F300040E05DE3C701B6010E9424164B015C014D
:100F400020E030E040E854E40E94901487FF09C09C
:100F50008091C100857F8093C1008091C100856030
:100F6000D7C020E030E040E85CE3C701B6010E9452
:100F700024164B015C0120E030E040E854E40E947C
:100F8000901487FF09C08091C100867F8093C100C3
:100F90008091C1008660BCC020E030E040E05CE3AE
:100FA000C701B6010E9424164B015C0120E030E02D
:100FB00040E854E40E94901487FF09C08091C1006A
:100FC000877F8093C1008091C1008760A1C020E02D
:100FD00030E040E85BE3C701B6010E9424164B01F4
:100FE0005C0120E030E040E854E40E94901487FF68
:100FF00009C08091C10088608093C1008091C100C8
:10100000887F86C020E030E040E05BE3C701B601A6
:101010000E9424164B015C0120E030E040E854E4DB
:101020000E94901487FF09C08091C100896080935D
:10103000C1008091C100897F6BC020E030E040E8B2
:101040005AE3C701B6010E9424164B015C0120E05F
:1010500030E040E854E40E94901487FF09C080917A
:10106000C1008B7F8093C1008091C1008B6050C014
:1010700020E030E040E05AE3C701B6010E942416A8
:101080004B015C0120E030E040E854E40E94901401
:1010900087FF09C08091C1008C608093C10080915E
:1010A000C1008C7F35C020E030E040E859E3C70143
:1010B000B6010E9424164B015C0120E030E040E8BC
:1010C00054E40E94901487FF09C08091C1008D6094
:1010D0008093C1008091C1008D7F1AC020E030E074
:1010E00040E059E3C701B6010E9424164B015C01A0
:1010F00020E030E040E854E40E94901487FF18C0DC
:101100008091C1008E608093C1008091C1008E7F6C
:101110008093C100C501B4010E943615CB01FF9038
:10112000EF90DF90CF90BF90AF909F908F900895F9
:1011300020E030E040E858E3C701B6010E942416E1
:101140006B017C0120E030E040E854E40E94901400
:1011500087FF0DC08091C1008C608093C100809199
:10116000C10083608093C100C701B601D5CF80E084
:1011700090E0B9DAA2E0B0E0E0ECF8E00C9495166B
:101180008C011A8219820CDA8091C0008F7C8093C6
:10119000C0008091C0008F738093C0008091C00018
:1011A0008C7F8093C0008091C2008E7F8093C200AC
:1011B0008091C200837F8093C2008091C3008C7FA6
:1011C0008093C300B801660F771F80E090E00E9413
:1011D00062159B01AC0160E070E08AE794E40E9434
:1011E00094149B01AC0160E074E284E79CE40E94EB
:1011F000941412DE9A83898389819A819093BF0027
:1012000089819A818093D10089819A819093BF00CE
:1012100089819A818093D2001092BF001092BF0002
:101220001092BE0029813A8181E0232B09F480E0ED
:101230002296E4E00C94B116CF92DF92EF92FF92E7
:101240001F93CF93DF9300D000D0CDB7DEB7142F1C
:1012500069837A838B839C83A3D92091C000206209
:101260002093C0002091C0002F7E2093C0002091C9
:10127000C00021602093C0002091C3002D7F2093E7
:10128000C3002091C30021602093C30069817A814B
:101290008B819C819B01AC0160E074E284E79CE45B
:1012A0000E949414B9DD9093BF008093D10015364D
:1012B00058F5BC0180E090E00E9462156B017C0152
:1012C000612F70E080E090E00E9462159B01AC010C
:1012D000C701B6010E94241620E030E048EC52E439
:1012E0000E9494140E9436157093BF006093D00042
:1012F0000F900F900F900F90DF91CF911F91FF9063
:10130000EF90DF90CF9008958091C100837F80930C
:10131000C1008091C1008C7F8093C10080E090E08B
:10132000E2D9823479F034F48134B1F480917200DE
:1013300080640FC0843451F08F3471F48091720056
:10134000846007C080917200806203C08091720047
:10135000806880937200089580E090E0C4D9823460
:1013600079F034F48134B1F4809172008F7B0FC036
:10137000843451F08F3471F4809172008B7F07C0F8
:10138000809172008F7D03C0809172008F7780936F
:101390007200089580E090E0A6D990916800916075
:1013A00090936800883018F080E090E09CD990918C
:1013B0006B0021E030E001C0220F8A95EAF7922B02
:1013C00090936B0081E00895909168009E7F9093C8
:1013D0006800883070F490916B0021E030E0082EB6
:1013E00001C0220F0A94EAF72095292320936B006D
:1013F000089580E090E077D910924601109245015F
:1014000010927A01109279011092120110920D013E
:1014100010920C0110920F0110920E011092110106
:1014200010921001089510924601109245011092F9
:101430007A01109279010895809113018093CE0072
:1014400081E0809346010895CF93DF93EC01809172
:101450001201833018F082E090E045D980910C01B0
:1014600090910D01892B79F080910E0190910F01DF
:10147000892B61F08091100190911101892BA9F4C1
:1014800022E030E005C020E030E002C021E030E0A2
:10149000F901EE0FFF1FE45FFE4FD183C0838091FF
:1014A00012018F5F8093120102C023E030E0822F8F
:1014B000DF91CF910895E82FF0E0EE0FFF1FE45F7A
:1014C000FE4F11821082E2E1F1E080818150808341
:1014D0000895009719F00197A1F029C0CB01019759
:1014E000029748F48091C90080618093C9006230FE
:1014F000710519F01AC0672BC1F48091C90088608A
:1015000012C0CB010197029748F48091C9008F7EE9
:101510008093C9006230710519F007C0672B29F468
:101520008091C900877F8093C90081E0089580E0A1
:101530000895CF93DF93EC015FDF8091CA008F7C29
:101540008093CA008091CA00877F8093CA008091EF
:10155000C9008B7F8093C9008091CA008660809308
:10156000CA008091C9008C7F8093C9008091CA0015
:101570008E7F8093CA008091CB008C7F8093CB00BC
:10158000209761F0219729F580E190E09093CD00BC
:101590008093CC008091C800826009C087E090E011
:1015A0009093CD008093CC008091C8008D7F809374
:1015B000C8008091C8008E7F8093C8008091CA00C7
:1015C0008F738093CA0062E070E080E090E081DF7A
:1015D00001C080E0DF91CF9108958091C80085FF20
:1015E000FCCFE0917901F0E0E95BFE4F80818093D0
:1015F000CE000895E9ECF0E08081806C808381E08A
:101600000895E9ECF0E080818F73808381E0089594
:10161000A2E0B0E0EEE0FBE00C949616182F80916B
:10162000C90089839A83EDDFE12F9A81F92F819197
:10163000882339F09091C80095FFFCCF8093CE00AD
:10164000F6CF89818093C9002296E3E00C94B2160C
:101650001F920F920FB60F9211242F933F934F9327
:101660005F936F937F938F939F93AF93BF93CF932A
:10167000DF93EF93FF9380917901823310F0109202
:1016800079018091CE00E0917901F0E0E95BFE4FB5
:101690008083A3DF90917901E92FF0E0E95BFE4FB1
:1016A00080818D3011F08A30E9F41082809112012E
:1016B000882309F1C0E0D0E0FE01EE0FFF1FE45FD8
:1016C000FE4F80819181892B41F00190F081E02DC6
:1016D00069E771E087E491E009952196C330D1056F
:1016E00059F709C0883011F08F3711F4915001C0BB
:1016F0009F5F90937901FF91EF91DF91CF91BF911F
:10170000AF919F918F917F916F915F914F913F9199
:101710002F910F900FBE0F901F9018951F920F9250
:101720000FB60F9211248F939F93EF93FF938091A5
:10173000460190914501891750F4E82FF0E0ED5EE5
:10174000FE4F90819093CE008F5F80934601FF9172
:10175000EF919F918F910F900FBE0F901F90189552
:10176000CF92DF92EF920F931F93FC0111821082B0
:101770001582148217821682D382C282738762878F
:101780004787208B15870487E68682E090E0918763
:1017900080871F910F91EF90DF90CF900895FC010B
:1017A000A285B38587859C91892321E030E011F4DF
:1017B00020E030E0A285B38540898C91482381E008
:1017C00090E011F480E090E04681578124173507BE
:1017D00031F0408151814F5F5F4F5183408344819D
:1017E00055814817590731F04081518141505109C5
:1017F0005183408335832483978386830895FC0136
:1018000080859185A485B5858617970721F49685EF
:101810008C91892B04C0968590958C9189238C930B
:101820000895CF93C82F20917B0130917C01232B09
:1018300021F482E090E00E947303E0917B01F0913B
:101840007C018C2F0995CF91089590937C01809312
:101850007B010895CF93DF93EC0180E0E2DF88EE17
:1018600093E099838883EC85FD859E858081892B13
:10187000808389E1D6DF2FEF89E698E1215080400F
:101880009040E1F700C0000080E0CBDF88819981C3
:10189000893E23E0920718F0198618860CC0883E0E
:1018A000934029F081E090E09987888704C081E027
:1018B00090E00E94730319821882DF91CF910895FE
:1018C000FC0111821082158214821782168222E096
:1018D00030E031872087BECF0E9441030E941E0264
:1018E0000E944D0278948DE791E0EADF8EE891E066
:1018F0000E94D0018F3FD1F3682F70E08DE791E017
:101900000E941C01F3CF20FD09C0FC0123FD05C08E
:1019100022FF02C07383628351834083089544FD94
:1019200010C046FD10C0DB01FC01AA0FBB1FEE1F5B
:10193000FF1F1094D1F76A0F7B1F8E1F9F1F31E08E
:1019400003C033E001C034E0660F771F881F991F82
:101950003150D1F7620F711D811D911D08950F93B4
:101960001F93CF93DF938C01C8010E941519EC01DE
:1019700097FD08C00E94E418892BB1F7B801CE0189
:101980000E949C19CE01DF91CF911F910F91089574
:101990006F927F929F92AF92BF92CF92DF92EF921F
:1019A000FF920F931F93CF93DF931F92CDB7DEB7B4
:1019B0008C013B015A0129830E941519AC0155275E
:1019C00029814B32510521F04D32510581F42068B7
:1019D00031E0631A71086114710411F480E07DC074
:1019E000C80129830E941519298197FDF7CFE22F9D
:1019F000ED7F9E2E322F307379F5803369F57301B8
:101A0000F1E0EF1AF108E114F10409F453C0C80140
:101A100029830E941519298197FD4CC0382F3F7DDD
:101A2000383581F4292D2264922E32E0631A710830
:101A30006114710409F43EC0C8010E94151997FF92
:101A40000BC038C026FF04C0E92DE2609E2E03C003
:101A5000F92DF2619F2E3701C12CD12C760120ED9A
:101A6000280F283080F094FE04C0B8010E949C1911
:101A70001EC02A3040F096FEF8CF2F7D3FEE320F89
:101A8000363098F72750492DC701B60148DF6B0162
:101A90007C01292D2260922E31E0631A71086114B5
:101AA000710459F0C8010E94151997FFD8CF91FC15
:101AB00004C094CFC12CD12C760197FE08C0F094BD
:101AC000E094D094C094C11CD11CE11CF11C292DC0
:101AD000B701A601C50117DF81E00F90DF91CF911B
:101AE0001F910F91FF90EF90DF90CF90BF90AF903C
:101AF0009F907F906F900895A0E2B0E0E2E8FDE053
:101B00000C9489165C014B017A018E010F5F1F4F07
:101B1000680180E2F80111928A95E9F7F501638086
:101B200080E090E0712C412CB0E041E050E0F90100
:101B300063FC559063FE51908F01A52D9F015110BC
:101B400003C080E090E07FC0FEE55F1202C0009716
:101B500061F16B2F70E0681779074CF46DE556164C
:101B600061F1EDE25E1203C0442009F103C04110AF
:101B700001C0752C6A2F669566956695F601E60F8D
:101B8000F11D6A2F67708A0102C0000F111F6A954C
:101B9000E2F7B8017081762B7083A71559F0A7156D
:101BA00010F4AF5FE7CFA150E5CFB1E004C044240B
:101BB000439401C0412C0196BACF442019F08E8184
:101BC00080628E83B11103C07724739419C0F6012B
:101BD000CE018196208120952193E817F907D1F74E
:101BE000F3CFE114F10429F0F7018083C7010196D6
:101BF0007C0191E0891A910881149104F1F0712C13
:101C0000C5010E94151997FD16C0282F2695269507
:101C10002695F601E20FF11D208130E0AC014770FE
:101C2000552702C0359527954A95E2F720FDD9CF73
:101C3000B5010E949C19711084CFE114F10411F0D8
:101C4000F7011082C801A096E0E10C94A5162F922E
:101C50003F924F925F926F927F929F92AF92BF920C
:101C6000CF92DF92EF92FF920F931F93CF93DF9368
:101C700000D000D000D0CDB7DEB76C018B011A01C7
:101C80000E9415199E838D8399278B32910529F027
:101C90008D9799F480E8982E01C0912C015011097C
:101CA0000115110511F480E032C1C6010E94151919
:101CB0009E838D8397FF02C0F6CF912C8D819E81EC
:101CC0000E94EC188936910541F08E369105D9F5C0
:101CD000BEEB6B2EB0E07B2E04C0A1EC6A2EA0E020
:101CE0007A2E8FEF681A780AF3013197B490BB20EF
:101CF000F1F0015011090115110571F0C6010E94A2
:101D000015197C0197FD08C00E94EC18B81649F31C
:101D1000B601C7010E949C1924EC621620E07206ED
:101D200009F0C1CF80E090E0A0E8BFE709C091ECE6
:101D3000691690E07906B1F780E090E0A0ECBFE78B
:101D4000BC01CD01D4C0412C512C3201E12CF12C2D
:101D50002D8120532A3020F5E92DE260BE2E892DF9
:101D6000887092FE06C0811122C0FFEFEF1AFF0AB1
:101D70001EC0882319F081E0E81AF10840E2C3018F
:101D8000B201CDDD2B013C0198E9491699E95906CC
:101D9000690699E1790658F0E92DE660BE2E07C084
:101DA0002E3FA1F493FC12C0F92DF860BF2E015014
:101DB00011090115110549F0C6010E9415199E83EC
:101DC0008D839B2C97FD02C0C3CF9B2C91FE6BCFC4
:101DD0008D818F7D853409F055C0580121E0A21A0C
:101DE000B108A114B10409F45ECFC6010E9415190F
:101DF0009E838D8397FD57CF99278B32910529F0CC
:101E00008D9781F4892D8061982E580192E0A91A4E
:101E1000B108A114B10409F446CFC6010E941519F6
:101E20009E838D838D819E81C0970A9708F03BCF5A
:101E30008501A12CB12CB501882777FD8095982FBD
:101E40002D81205340E26BDDAB01BC015A010150F2
:101E500011090115110571F0C60149835A836B837D
:101E60007C830E9415199E838D83C09749815A8176
:101E70000A9708F394FE04C0AA24BB24A41AB50A46
:101E8000EA0CFB1C012B41F0ED81FE81F7FD04C043
:101E9000B601CF010E949C19C301B20113D6F7FE0F
:101EA00008C0F194E194F108FDEDAF2EF0E0BF2EF3
:101EB00004C0E5EFAE2EE0E0BE2E6501F8E1CF1ADA
:101EC000D10800E210E0E016F10648F0F501259196
:101ED000359145915491B8D6E01AF10AF4CF24E037
:101EE000A21AB10816950795AC14BD0461F797FEC8
:101EF00005C0DC01CB01B058BC01CD012114310477
:101F000029F0F101608371838283938381E02696B7
:101F10000FB6F894DEBF0FBECDBFDF91CF911F91FA
:101F20000F91FF90EF90DF90CF90BF90AF909F9078
:101F30007F906F905F904F903F902F900895A1E019
:101F4000B0E0E4EAFFE0E5C68C012B017A01FC0178
:101F500017821682A12CF801D380F201D3FC85915F
:101F6000D3FE8191382F2F01882309F40FC190E00F
:101F700039830E94E4183981892B19F0C801EFDCFC
:101F8000EACF353241F4F201D3FC3591D3FE3191E1
:101F90002F01353269F4C80139830E94151939813E
:101FA00097FDF2C03817B9F2B8010E949C19EEC033
:101FB0003A3241F4D3FC3591D3FE31912F01BB2449
:101FC000B39401C0B12C812C912C20ED230F2A3029
:101FD00080F4FB2DF260BF2EB40180E090E040E27F
:101FE0009EDC4B01F201D3FC3591D3FE31912F01E0
:101FF000ECCFB1FE04C08114910421F4C7C0882441
:102000008A94982C383619F03C3661F014C0F201ED
:10201000D3FC3591D3FE31912F01383661F4FB2D7D
:10202000F860BF2E8B2D8460B82EF201D3FC359161
:10203000D3FE31912F01332309F4A8C0632F70E040
:102040008CEA90E039830E94F4183981892B09F4D5
:102050009DC0B0FC07C0F701C080D180C7010296C7
:102060007C0102C0C12CD12C3E3649F4F8014681D6
:10207000578160E070E02B2DC60145DC6CCF333614
:10208000C9F4B1FC03C088248394912CC8010E9438
:10209000151997FD79C0C114D10429F0F601808388
:1020A000C60101966C0191E0891A9108811491048E
:1020B00069F766C03B3551F49201A601B401C8012D
:1020C0001BDD2C01009709F05BC055C0C8013983A6
:1020D00046DC398197FD58C03F36F1F140F4343683
:1020E000B9F13936E1F1383509F03FC02DC0333749
:1020F000B9F018F4303741F138C0353749F1383785
:1021000019F133C0C114D10429F0F6016082C6016F
:1021100001966C0191E0891A91088114910471F083
:10212000C8010E9415193C0197FD08C00E94E418DF
:10213000892B41F3B801C3010E949C19C114D10439
:10214000F9F0F60110821CC0FB2DF064BF2E07C011
:102150008B2D8062B82E03C09B2D9061B92E2B2D44
:10216000A601B401C80114DC04C0A601B401C80171
:102170006EDD811105C0F8018381807329F406C0EA
:10218000B0FCE9CEA394E7CEAA2019F08A2D90E006
:1021900002C08FEF9FEF2196E0E1D7C5A3E1B0E049
:1021A000E3EDF0E1B4C57C011B016A01FC0117827B
:1021B0001682838181FF4AC3BE016F5F7F4F4B014F
:1021C000F7019381F10193FD859193FF81911F01A7
:1021D000882309F437C3853239F493FD859193FF41
:1021E00081911F01853239F4B70190E00E945319A3
:1021F00056016501E5CF10E0512C20E02032A0F41B
:102200008B3269F030F4803259F0833269F4206106
:102210002CC08D3239F0803339F4216026C0226021
:10222000246023C0286021C027FD27C030ED380F6F
:102230003A3078F426FF06C0FAE01F9F300D1124D3
:10224000132F13C06AE0569E300D1124532E2062C6
:102250000CC08E3221F426FDF5C2206406C08C36F7
:1022600011F4206802C0883641F4F10193FD859194
:1022700093FF81911F018111C1CF9BEB980F933088
:1022800018F42061805E06C09BE9980F933008F037
:102290009AC12F7E26FF16E02F73722E853621F409
:1022A000F22FF0647F2E08C0863621F4622F60681A
:1022B000762E02C01111115077FE07C01C3348F46E
:1022C00044244394410E27E00BC0183030F4212FF2
:1022D00006C027E04CE3442E03C027E017E0412C62
:1022E000560174E0A70EB11CF601608171818281F4
:1022F0009381042DA40190D66C01098100FF02C0D6
:1023000003FF06C071FC07C072FC08C0612C08C046
:102310003DE2632E05C02BE2622E02C090E2692EE0
:10232000802F8C7081F1662011F084E001C083E081
:10233000851510F0512C0AC0581A73FC07C0B7015C
:1023400080E290E0B0D75A94D1F7F4CF662021F024
:10235000B701862D90E0A7D703FD03C00DEF10E075
:1023600002C009EF10E0F72DF0717F2EF801849183
:10237000882309F45EC271108052B70190E093D7B0
:102380000F5F1F4FF3CF77FE0FC04C0C04FF04C04C
:102390008A81813309F44A94141474F5F8E0F41531
:1023A00078F588E0482E2CC076FC2AC0812F90E07A
:1023B0008C159D059CF06CEFC6166FEFD60674F079
:1023C000772D7068772E0AC0E2E0F0E0EC0FFD1F79
:1023D000E10FF11D8081803319F411501111F4CFF8
:1023E00077FE0EC044244394410E812F90E0C8161E
:1023F000D9062CF41C1904C04424439401C010E0F5
:1024000077FE07C01C141D043CF496012F5F3F4F5C
:1024100005C025E030E002C021E030E0662011F088
:102420002F5F3F4F112331F0412F50E04F5F5F4F3F
:10243000240F351F452D50E02417350714F4521A88
:1024400001C0512C872D897041F4552031F0B7011E
:1024500080E290E028D75A94F8CF662021F0B701A7
:10246000862D90E020D773FC08C0552031F0B701CD
:1024700080E390E018D75A94F8CF77FE5DC09C2D8A
:102480008D2DD7FE02C090E080E0692E782E40E0CE
:1024900050E0C601841991099D878C879601261901
:1024A0003709280D391D812F90E0EE27FF27E81B03
:1024B000F90BFF87EE87FFEF6F167F0661F4B70118
:1024C0008EE290E02B8B3A8B488B598BECD6598956
:1024D00048893A892B89C614D70454F06C857D85C8
:1024E000661577052CF4F901E40FF51F818101C011
:1024F00080E371E0671A71084F5F5F4FEE85FF85DB
:102500006E167F0664F0B70190E02B8B3A8B488BF8
:10251000598BC9D62B893A8948895989CCCF6C14F3
:102520007D0439F49A81963318F4953311F404FF3D
:1025300081E3B70190E045C08A81813309F00F7EC5
:10254000B70190E0B0D6111105C074FE16C085E445
:1025500090E015C0B7018EE290E0A5D682E0662437
:102560006394680EF401E80FF11D8081B70190E0DB
:102570009AD6115051F3862DF2CF85E690E0B7013F
:1025800092D6D7FC05C0C114D10439F404FF05C0AC
:10259000D194C194D1088DE201C08BE2B70190E0E3
:1025A00082D680E36AE0C616D1042CF08F5FFAE091
:1025B000CF1AD108F7CFB70190E075D6B701C601A1
:1025C000C09671D636C1833631F0833779F08335C2
:1025D00009F054C020C0560172E0A70EB11CF601EC
:1025E0008081898301E010E0640113C05601F2E0AC
:1025F000AF0EB11CF601C080D18026FF03C0612F51
:1026000070E002C06FEF7FEFC6012B8B03D68C0109
:102610002B892F7714C05601F2E0AF0EB11CF601E2
:10262000C080D18026FF03C0612F70E002C06FEF31
:102630007FEFC6012B8BE3D58C012B892068722E8E
:1026400023FD18C0852D90E00817190798F4B701ED
:1026500080E290E028D65A94F5CFF60177FC859178
:1026600077FE81916F01B70190E01DD651105A9409
:10267000015011090115110581F7DBC0843611F0F5
:10268000893649F5560127FF09C0F4E0AF0EB11CA9
:10269000F60160817181828193810AC0F2E0AF0E00
:1026A000B11CF60160817181882777FD8095982F94
:1026B000022F0F7697FF08C09095809570956195D1
:1026C0007F4F8F4F9F4F00682AE030E0A4014DD626
:1026D000C82EC8183DC0022F853721F40F7E2AE08E
:1026E00030E01DC0097F8F3691F018F4883559F01D
:1026F000A9C0803719F0883711F0A4C0006104FF29
:1027000009C0046007C024FF08C0066006C028E0B6
:1027100030E005C020E130E002C020E132E05601A7
:1027200007FF09C0F4E0AF0EB11CF60160817181B2
:102730008281938108C0F2E0AF0EB11CF601608186
:10274000718180E090E0A40110D6C82EC8180F77E0
:1027500006FF0BC0202F2E7FC11650F404FF0AC0C5
:1027600002FD08C0202F2E7E05C0DC2C202F03C0C8
:10277000DC2C01C0D12E24FF0DC0FE01EC0DF11D9B
:102780008081803311F4297E09C022FF06C0D394D2
:10279000D39404C0822F867809F0D39423FD12C00D
:1027A00020FF06C01C2DD51418F4150D1D19D52CAD
:1027B000D51460F4B70180E290E02B8B74D5D394EC
:1027C0002B89F6CFD51410F45D1801C0512C24FFCD
:1027D00011C0B70180E390E02B8B65D52B8922FFD8
:1027E00016C021FF03C088E590E002C088E790E0B2
:1027F000B7010CC0822F867851F021FD02C080E223
:1028000001C08BE227FD8DE2B70190E04CD5C116E7
:1028100030F4B70180E390E046D51150F8CFCA9468
:10282000F401EC0DF11D8081B70190E03CD5C110A1
:10283000F6CF552009F4DDCCB70180E290E033D526
:102840005A94F7CFF7018681978102C08FEF9FEFEF
:102850006396E2E178C25058BB27AA270ED0BAC1CE
:10286000ABD130F0B0D120F031F49F3F11F41EF421
:1028700090C10EF4E095E7FB86C1E92FBCD180F34F
:10288000BA17620773078407950718F071F49EF56D
:10289000D4C10EF4E0950B2EBA2FA02D0B01B90177
:1028A00090010C01CA01A0011124FF27591B99F0C6
:1028B000593F50F4503E68F11A16F040A22F232FD2
:1028C000342F4427585FF3CF469537952795A79522
:1028D000F0405395C9F77EF41F16BA0B620B730BC9
:1028E000840BBAF09150A1F0FF0FBB1F661F771F3A
:1028F000881FC2F70EC0BA0F621F731F841F48F4EF
:10290000879577956795B795F7959E3F08F0B3CF74
:102910009395880F08F09927EE0F9795879508955E
:102920000ED108F481E008950CD054C14CD140F090
:1029300043D130F021F45F3F19F025C151117EC120
:1029400028C159D198F39923C9F35523B1F3951BA5
:10295000550BBB27AA2762177307840738F09F5FC0
:102960005F4F220F331F441FAA1FA9F333D00E2E2F
:102970003AF0E0E830D091505040E695001CCAF79C
:1029800029D0FE2F27D0660F771F881FBB1F261761
:1029900037074807AB07B0E809F0BB0B802DBF0134
:1029A000FF2793585F4F2AF09E3F510568F0EBC018
:1029B00045C15F3FECF3983EDCF3869577956795CC
:1029C000B795F7959F5FC9F7880F911D96958795E5
:1029D00097F90895E1E0660F771F881FBB1F621704
:1029E00073078407BA0720F0621B730B840BBA0BC2
:1029F000EE1F88F7E0950895BEE304D008F490E850
:102A00000895BFE322273327A901FDD058F19F572E
:102A100040F1B91738F1BFE3B91B9927B8503AF420
:102A2000660F771F881F991FB395D2F316C0B85051
:102A30004AF0232F342F452F562F672F782F8827C2
:102A4000B850BAF7B85F49F086957795679557956E
:102A5000479537952795BA95B9F70EF49DD0889488
:102A60000895889460E070E0CB010895CCD088F0A0
:102A70009F5790F0B92F9927B751A0F0D1F0660F6A
:102A8000771F881F991F1AF0BA95C9F712C0B13085
:102A900081F0D3D0B1E00895D0C0672F782F882778
:102AA000B85F39F0B93FCCF3869577956795B395C4
:102AB000D9F73EF490958095709561957F4F8F4F33
:102AC0009F4F0895E89409C097FB3EF49095809538
:102AD000709561957F4F8F4F9F4F9923A9F0F92FE4
:102AE00096E9BB279395F695879577956795B79562
:102AF000F111F8CFFAF4BB0F11F460FF1BC06F5F48
:102B00007F4F8F4F9F4F16C0882311F096E911C059
:102B1000772321F09EE8872F762F05C0662371F07A
:102B200096E8862F70E060E02AF09A95660F771F8E
:102B3000881FDAF7880F9695879597F90895990F6A
:102B40000008550FAA0BE0E8FEEF16161706E80777
:102B5000F907C0F012161306E407F50798F0621B98
:102B6000730B840B950B39F40A2661F0232B242B6D
:102B7000252B21F408950A2609F4A140A6958FEF8C
:102B8000811D811D089597F99F6780E870E060E0DE
:102B900008959FEF80EC08959095809570956095CD
:102BA00050954095309521953F4F4F4F5F4F6F4F58
:102BB0007F4F8F4F9F4F089500240A9416161706D3
:102BC00018060906089500240A941216130614061E
:102BD00005060895092E0394000C11F4882352F081
:102BE000BB0F40F4BF2B11F460FF04C06F5F7F4F39
:102BF0008F4F9F4F089557FD9058440F551F59F020
:102C00005F3F71F04795880F97FB991F61F09F3FD9
:102C100079F087950895121613061406551FF2CF02
:102C20004695F1DF08C0161617061806991FF1CF52
:102C300086957105610508940895E894BB27662779
:102C40007727CB0197F908950BD0C4CFB5DF28F0D3
:102C5000BADF18F0952309F096CF9BCF1124EECF61
:102C6000CADFA0F3959FD1F3950F50E0551F629FE7
:102C7000F001729FBB27F00DB11D639FAA27F00DD5
:102C8000B11DAA1F649F6627B00DA11D661F829FFC
:102C90002227B00DA11D621F739FB00DA11D621FE1
:102CA000839FA00D611D221F749F3327A00D611DFE
:102CB000231F849F600D211D822F762F6A2F1124E0
:102CC0009F5750408AF0E1F088234AF0EE0FFF1F33
:102CD000BB1F661F771F881F91505040A9F79E3F6A
:102CE000510570F050CFAACF5F3FECF3983EDCF374
:102CF000869577956795B795F795E7959F5FC1F7A7
:102D0000FE2B880F911D9695879597F908952F9220
:102D10003F924F925F926F927F928F929F92AF926B
:102D2000BF92CF92DF92EF92FF920F931F93CF93B8
:102D3000DF93CDB7DEB7CA1BDB0B0FB6F894DEBF4F
:102D40000FBECDBF09942A88398848885F846E8475
:102D50007D848C849B84AA84B984C884DF80EE80BF
:102D6000FD800C811B81AA81B981CE0FD11D0FB6C8
:102D7000F894DEBF0FBECDBFED01089597FB10F8AC
:102D8000169400080F93083098F00850232F342F22
:102D9000452F562F672F782F892F902DF4CF05942C
:102DA0009795879577956795579547953795279583
:102DB0000A95AAF70F9108952A153B054C055D0564
:102DC0006E057F05800791070895CF93DF938230CA
:102DD000910510F482E090E0E091F901F091FA01A0
:102DE00020E030E0A0E0B0E0309739F1408151813F
:102DF00048175907B8F04817590771F48281938131
:102E0000109729F013969C938E9312972CC0909351
:102E1000FA018093F90127C02115310531F04217DD
:102E2000530718F0A901DB0101C0EF019A01BD01B0
:102E3000DF010280F381E02DD7CF21153105F9F0B4
:102E4000281B390B2430310580F48A819B81611560
:102E5000710521F0FB019383828304C09093FA01F2
:102E60008093F901FE01329644C0FE01E20FF31F88
:102E70008193919322503109398328833AC020915C
:102E8000F7013091F801232B41F420910201309198
:102E900003013093F8012093F70120910001309154
:102EA00001012115310541F42DB73EB740910401D0
:102EB00050910501241B350BE091F701F091F801C9
:102EC000E217F307A0F42E1B3F0B2817390778F001
:102ED000AC014E5F5F4F2417350748F04E0F5F1F60
:102EE0005093F8014093F7018193919302C0E0E081
:102EF000F0E0CF01DF91CF910895CF93DF9300975A
:102F000009F487C0FC01329713821282C091F90143
:102F1000D091FA01209781F420813181280F391F47
:102F20008091F7019091F8018217930779F5F0935A
:102F3000F801E093F7016DC0DE0120E030E0AE174C
:102F4000BF0750F412964D915C9113979D01411566
:102F5000510509F1DA01F3CFB383A2834081518196
:102F6000840F951F8A179B0771F48D919C9111977F
:102F7000840F951F02969183808312968D919C9168
:102F80001397938382832115310529F4F093FA0175
:102F9000E093F9013EC0D9011396FC93EE9312978A
:102FA0004D915D91A40FB51FEA17FB0779F480815D
:102FB0009181840F951F0296D90111969C938E934F
:102FC0008281938113969C938E931297E0E0F0E0B8
:102FD0008A819B81009719F0FE01EC01F9CFCE01A7
:102FE000029628813981820F931F2091F701309139
:102FF000F8012817390769F4309729F41092FA017B
:103000001092F90102C013821282D093F801C0938A
:10301000F701DF91CF910895283008F027E033279A
:10302000DA01990F311D87FD9160009661057105E8
:1030300039F432602E5F3D9330E32A95E1F708952D
:103040009F3F30F080387105610509F03C5F3C5FBF
:103050003D93913008F08068911DDF93CF931F93CB
:103060000F93FF92EF92192F987F9695E92F9695DF
:103070009695E90FFF27E55AFE4F99273327EE244F
:10308000FF24A701E70105900894079428F4360F60
:10309000E71EF81E491F511D660F771F881F991FD5
:1030A0000694A1F70590079428F4E70EF81E491F2F
:1030B000561FC11D770F881F991F661F0694A1F721
:1030C0000590079428F4F80E491F561FC71FD11DFD
:1030D000880F991F661F771F0694A1F70590079424
:1030E00020F4490F561FC71FD81F990F661F771F5F
:1030F000881F0694A9F784911095177041F0D69512
:10310000C79557954795F794E7941A95C1F7E1E06D
:10311000F1E0689415901591359165919591059020
:103120007FE27395E118F10A430B560BC90BD009E6
:10313000C0F7E10CF11E431F561FC91FD01D7EF4BE
:10314000703311F48A95E6CFE894015030F0080FFF
:103150000AF40027021708F4202F2395022F7A3350
:1031600028F079E37D932A95E9F710C07D932A959D
:1031700089F6069497956795379517951794E118F2
:10318000F10A430B560BC90BD00998F023957E9199
:1031900073957A3308F070E37C932013B8F77E912F
:1031A00070617D9330F0839571E37D9370E32A9590
:1031B000E1F71124EF90FF900F911F91CF91DF91D4
:1031C000992787FD9095089591112DC1803219F0AE
:1031D00089508550D0F708959111089581548A51EE
:1031E00008F4805E855A0895FC010590061621F0CA
:1031F0000020D9F7C00108953197CF010895FC014F
:103200000590615070400110D8F7809590958E0F11
:103210009F1F0895FC016150704001900110D8F784
:10322000809590958E0F9F1F0895CF93DF93EC01AB
:103230002B8120FF33C026FF0AC02F7B2B838E817A
:103240009F8101969F838E838A8190E029C022FF0F
:103250000FC0E881F9818081992787FD90950097BB
:1032600019F420622B831AC03196F983E8830EC0CB
:10327000EA85FB85099597FF09C02B81019611F41A
:1032800080E101C080E2822B8B8308C02E813F81C8
:103290002F5F3F4F3F832E83992702C08FEF9FEF11
:1032A000DF91CF9108950F931F93CF93DF93182F42
:1032B000092FEB018B8181FD03C08FEF9FEF20C0B1
:1032C00082FF10C04E815F812C813D8142175307E0
:1032D0007CF4E881F9819F012F5F3F4F3983288378
:1032E000108306C0E885F985812F0995892B29F778
:1032F0002E813F812F5F3F4F3F832E83812F902F61
:10330000DF91CF911F910F910895AEE0B0E0EAE810
:10331000F9E10DCD85E08C838B899C899A83898323
:10332000AE01495E5F4F6D897E89CE0101960E9494
:103330009F0F2E96E2E017CDFB01238120FF12C0E4
:1033400026FD10C08F3F3FEF930761F082832F7DF2
:1033500020642383268137812150310937832683D6
:10336000992708958FEF9FEF0895FA01AA27283033
:1033700051F1203181F1E8946F936E7F6E5F7F4F42
:103380008F4F9F4FAF4FB1E03ED0B4E03CD0670FBE
:10339000781F891F9A1FA11D680F791F8A1F911D11
:1033A000A11D6A0F711D811D911DA11D20D009F461
:1033B00068943F912AE0269F11243019305D3193A3
:1033C000DEF6CF010895462F4770405D4193B3E08C
:1033D0000FD0C9F7F6CF462F4F70405D4A3318F033
:1033E000495D31FD4052419302D0A9F7EACFB4E0E4
:1033F000A6959795879577956795BA95C9F700979C
:103400006105710508959B01AC010A2E069457953C
:10341000479537952795BA95C9F7620F731F841F93
:10342000951FA01D0895992788270895F894FFCF28
:0C3430000000FB0120002563000D0A00D5
:00000001FF
