:100000001EC2000039C2000037C2000035C2000025
:1000100033C2000031C200002FC200002DC2000018
:100020002BC200008EC3000027C2000025C20000C2
:1000300023C2000021C200001FC200001DC2000038
:100040001BC2000019C2000017C2000015C2000048
:1000500013C2000011C200000FC200000DC2000058
:100060000BC200000C947E0C07C200000C94E40C40
:1000700003C2000001C20000FFC10000FDC100007A
:10008000FBC10000F9C10000F7C10000F5C100008C
:10009000F3C10000F1C10000EFC10000EDC100009C
:1000A00076C30000E9C10000E7C10000200D0A206E
:1000B0002D2D2D2D2D2D2D2D2D2D2D2D2D2D2D2D70
:1000C0002D2D2D2D2D2D2D2D2D2D2D2D2D2D2D2D60
:1000D0002D2D2D2D2D2D2D2D2D2D2D2D2D2D2D2D50
:1000E0002D2D2D2D2D2D2D2D2D2D2D2D0D0A20209D
:1000F0002020202020202020202020202020202000
:100100002050494420434F4E54524F4C204D454EB1
:1001100055200D0A2D2D2D2D2D2D2D2D2D2D2D2D37
:100120002D2D2D2D2D2D2D2D2D2D2D2D2D2D2D2DFF
:100130002D2D2D2D2D2D2D2D2D2D2D2D2D2D2D2DEF
:100140002D2D2D2D2D2D2D2D2D2D2D2D2D2D2D2DDF
:100150000D0A722F52203C6E756D3E202D3E2053AD
:100160006574207265666572656E636520706F7375
:100170006974696F6E20746F203C6E756D3E2065EA
:100180006E636F64657220636F756E74730D0A50D1
:10019000203C6E756D3E2020202D3E20496E6372FE
:1001A00065617365204B70206279203C6E756D3EF1
:1001B00020616D6F756E740D0A70203C6E756D3E1A
:1001C0002020202D3E204465637265617365204BBD
:1001D00070206279203C6E756D3E20616D6F756E8A
:1001E000740D0A44203C6E756D3E2020202D3E206B
:1001F000496E637265617365204B64206279203CAF
:100200006E756D3E20616D6F756E740D0A64203CD5
:100210006E756D3E2020202D3E2044656372656121
:100220007365204B64206279203C6E756D3E2061C1
:100230006D6F756E740D0A762F56202020202020B9
:10024000202D3E205669657720746865206375729D
:1002500072656E74204B702C204B642C20566D2CD4
:100260002050722C20506D20616E6420540D0A7451
:100270002020202020202020202D3E20457865634E
:100280007574652074686520736574207472616A82
:100290006563746F72790D0A712020202020202060
:1002A00020202D3E2051756974206D656E750D0AF4
:1002B0002D2D2D2D2D2D2D2D2D2D2D2D2D2D2D2D6E
:1002C0002D2D2D2D2D2D2D2D2D2D2D2D2D2D2D2D5E
:1002D0002D2D2D2D2D2D2D2D2D2D2D2D2D2D2D2D4E
:1002E0002D2D2D2D2D2D2D2D2D2D2D2D0D0A006378
:1002F00064696E6F70737578585B656667454647CD
:1003000000616E006E66696E69747900CDCCCC3D7B
:100310000AD7233C17B7D13877CC2B329595E624F2
:100320001FB14F0A000020410000C84200401C4697
:1003300020BCBE4CCA1B0E5AAEC59D746E616E00C9
:10034000696E660000407A10F35A00A0724E1809D8
:100350000010A5D4E80000E87648170000E40B542C
:10036000020000CA9A3B000000E1F50500008096FB
:100370009800000040420F000000A086010000002D
:10038000102700000000E8030000000064000000E7
:1003900000000A00000000000100000000002C76B0
:1003A000D888DC674F0823DFC1DFAE59E1B1B796CB
:1003B000E5E3E453C63AE651997696E8E6C2842628
:1003C000EB898C9B62ED407C6FFCEFBC9C9F40F204
:1003D000BAA56FA5F490055A2AF75C936B6CF96780
:1003E0006DC11BFCE0E40D47FEF520E6B500D0ED45
:1003F000902E0300943577050080841E08000020AD
:100400004E0A000000C80C333333330F986E12834A
:100410001141EF8D2114893BE65516CFFEE6DB181E
:10042000D1844B381BF77C1D901DA4BBE4242032E3
:1004300084725E228100C9F124ECA1E53D271124DC
:100440001FBECFEFDAE0DEBFCDBF12E0A0E0B1E02B
:10045000E4EEFBE302C005900D92AE33B107D9F78D
:1004600022E0AEE3B2E001C01D92A33EB207E1F785
:100470000E9412100C94F01DC3CDA0E0B0E0E3E4A4
:10048000F2E00C94431A5C01EB010E851F85FC0120
:1004900080819181081B190BC880D980EA80FB807C
:1004A0004C805D806E807F808C849D841D870C874E
:1004B000B801882777FD8095982F0E9412199B011B
:1004C000AC01C701B6010E94D2196B017C01B801D1
:1004D00068197909882777FD8095982F0E9412194D
:1004E0009B01AC01C301B2010E94D21920E030E0AF
:1004F00048EC52E40E943D189B01AC01C701B601D3
:100500000E94D4176B017C0120E030E0A9010E9419
:10051000391887FF03C061E070E002C060E070E05E
:10052000C5010E945F0FC701B6010E94DF189B0141
:1005300077FF04C022273327261B370B23333105CF
:1005400034F0C12CD12C88E4E82E82E4F82EF50199
:1005500080819181998B888BCA8ADB8AEC8AFD8A9B
:10056000C701B6010E94DF189B0177FF04C0222754
:100570003327261B370B822F0E94710FCDB7DEB7B2
:10058000E0E10C945F1AFC0140815181628173812A
:100590004093C7025093C8026093C9027093CA0285
:1005A00040855185628573854093CF025093D00278
:1005B0006093D1027093D202448155816681778124
:1005C0004093CB025093CC026093CD027093CE0245
:1005D000868597859093D6028093D502089587ECFF
:1005E00092E00895BC0181EC92E00C94C50ECF928C
:1005F000DF92EF920F931F938DEC9CECACE4BDE384
:100600008093C7029093C802A093C902B093CA0214
:1006100080E090E0A0E2B1E48093CB029093CC0222
:10062000A093CD02B093CE021092CF021092D002CE
:100630001092D1021092D2021092D9021092DA02D4
:100640001092DB021092DC021092D8021092D702B4
:100650001092D6021092D5028EE397E00E94850F89
:1006600098ECC92E98E0D92E24E0E22E0EE210E09C
:1006700020E240E163E270E080EB92E00E94100F24
:100680001F910F91EF90DF90CF900895B0DFE4ECD1
:10069000F2E084E68083808190E0880F991F0E94B9
:1006A0009F1A9093C2028093C10281EC92E00C9455
:1006B000DE0E83E0C8D7882349F180E0C4D78823C1
:1006C00029F181E090E00E94EF0B8823F9F00E946D
:1006D000500C8823D9F082EF9DE00E947A0B82E3D0
:1006E00090E09ED6882391F084E471D740E060E0EA
:1006F00070E48CE996E413D3882341F084E0A3D717
:10070000882321F085E09FD7811103C080E090E02D
:1007100040C10895479A5D98089547985D9A089555
:10072000269A6A9A84B18F7C84B9F4DF2FEF83ED27
:1007300090E3215080409040E1F700C00000EDDFE1
:10074000A5CF1F920F920FB60F9211242F933F93B4
:100750004F935F936F937F938F939F93AF93BF93C9
:10076000EF93FF9380EB92E00E942F0FFF91EF91A8
:10077000BF91AF919F918F917F916F915F914F91B9
:100780003F912F910F900FBE0F901F9018951F92C1
:100790000F920FB60F9211242F933F934F935F93B5
:1007A0006F937F938F939F93AF93BF93EF93FF9339
:1007B0008091B0029091B10215DFFF91EF91BF914E
:1007C000AF919F918F917F916F915F914F913F91E9
:1007D0002F910F900FBE0F901F901895E091DD02A2
:1007E000F091DE0241E050E0A181B2812C91838141
:1007F000282381E090E011F480E090E024813581AD
:100800002130310589F4892BD9F48FE39CE90197D4
:10081000F1F700C00000A181B2818C9193818923FE
:1008200079F4158214820CC0232B51F4019741F402
:100830008FE39CE90197F1F700C0000055834483E2
:100840000680F781E02D309779F6089582B78068A9
:1008500082BF82B7806282BF82B78F7E82BF82B73B
:100860008A6082BF82B78A7F82BF89B58F7E89BD49
:1008700089B5826089BD0895EF92FF920F931F930F
:10088000CF93DF9384B1867F84B985B1896085B9C0
:1008900088E090E00E949F1AEC019093DE02809322
:1008A000DD0281E4888383E2E82EF12CFA82E9827A
:1008B00088E08B8301E010E01D830C8388E090E0EA
:1008C0000E949F1AFC019F838E8383E48083F282BF
:1008D000E18281E083831583048317821682CDB77A
:1008E000DEB7E6E00C94691A479A5D9A2FEF43EC65
:1008F00059E0215040405040E1F700C000008CE03A
:1009000090E030E228B1205828B92BB123272BB929
:100910002FEF41EE54E0215040405040E1F700C03D
:1009200000000197009771F747985D9A08952FEF9F
:1009300081EE94E0215080409040E1F700C000003B
:100940003F9A559A99DFD0CF85B5887F85BD0895A8
:10095000A1E0B0E0EEEAF4E00C94511A8983F4DFF0
:10096000898186BD84B58F7384BD85B5877F85BD3C
:1009700084B58C7F84BDEEE6F0E080818160808369
:10098000579885B5876085BD81E02196E2E00C949B
:100990006D1AF894209A009721F0019719F45D9848
:1009A00001C0479A2898FFCFAAE0B0E0EAEDF4E052
:1009B0000C94411A58874F83680179019B01AC015F
:1009C00060E070E08AE794E40E943D189B01AC016E
:1009D00060E074E284E79BE40E943D180E94AA183C
:1009E000F22FE32F49875A876B837C838D839E8305
:1009F00016012701612C712C430156016201E12C83
:100A0000F12C00E010E00E94961A48F4CF01AF816B
:100A1000B8859C9311968C9381E090E079C02F2F3C
:100A20003E2F49855A856B817C818D819E8103E0B3
:100A30000E947A1AD90151016201E12CF12C00E0E7
:100A400010E00E94961A38F4EF81F885A083B183F4
:100A500088E090E05DC02F2F3E2F49855A856B813D
:100A60007C818D819E8106E00E947A1AD901510114
:100A70006201E12CF12C00E010E00E94961A50F483
:100A80009A2F8B2FAF81B8859C9311968C9380E41D
:100A900090E03EC02F2F3E2F49855A856B817C8187
:100AA0008D819E8108E00E947A1AD901510162016C
:100AB000E12CF12C00E010E00E94961A38F4EF814E
:100AC000F885A083B18380E091E022C02F2F3E2FD4
:100AD00049855A856B817C818D819E810AE00E94C7
:100AE0007A1AF22FE32F51016201E12CF12C00E080
:100AF00010E00E94961A48F4CF01AF81B8859C930C
:100B000011968C9380E094E003C080E090E041DF98
:100B10002A96E2E10C945D1AA2E0B0E0E2E9F5E089
:100B20000C944F1ABC0180E090E00E94101900E084
:100B300011E020E030E0AE014F5F5F4F35DF0097FE
:100B400009F444C016BC24B52F7324BD25B5277FF6
:100B500025BD24B5226024BD24B52E7F24BD298166
:100B6000215027BD20916E00226020936E008830B6
:100B70009105A9F040F4019719F585B5897F85BDE8
:100B800085B5816011C080349105A1F08115914037
:100B9000B9F485B5846085BD85B58C7F05C085B504
:100BA0008A7F85BD85B5826085BD81E02296E4E0BF
:100BB0000C946B1A85B58B7F85BD85B58360F4CFAA
:100BC00085B5856085BD85B58D7FEECF80E090E0F1
:100BD000E0DE823441F08F3451F0813471F4809141
:100BE0006E00826007C080916E00846003C08091B7
:100BF0006E00816080936E00089580E090E0C9DE11
:100C0000823441F08F3451F0813471F480916E0060
:100C10008D7F07C080916E008B7F03C080916E0036
:100C20008E7F80936E00089580E090E0B2DEA2E0B7
:100C3000B0E0EDE1F6E00C944F1ABC0180E090E0EA
:100C40000E94101900E010E021E030E0AE014F5F9B
:100C50005F4FAADE009709F45FC0109285001092E2
:100C600084002091810028602093810020918100E0
:100C70002F7E20938100209180002C7F2093800084
:100C800029813A81215031093093890020938800CD
:100C900020916F00226020936F0088309105D9F079
:100CA00058F4019781F580918100897F80938100BC
:100CB00080918100816017C080349105D9F0811541
:100CC000914009F58091810084608093810080913A
:100CD00081008C7F08C0809181008A7F8093810091
:100CE0008091810082608093810081E02296E4E01F
:100CF0000C946B1A809181008B7F8093810080918E
:100D000081008360F0CF80918100856080938100B5
:100D1000809181008D7FE7CF80E090E03ADEA2E015
:100D2000B0E0E5E9F6E00C944A1AB42E9B01AC0160
:100D30000E94D5179B01AC0160E070E08AE794E463
:100D40000E943D1800E010E021E030E0AE014F5F6E
:100D50005F4F2ADE8C01009709F46CC080918100FE
:100D6000887F80938100109285001092840080918A
:100D7000810080618093810080918100877F8093D2
:100D80008100809180008C7F8093800089819A818E
:100D9000909387008093860080918000807180937B
:100DA00080008091800080628093800084E68B15B3
:100DB00008F440C069817A8180E090E00E941019B7
:100DC0006B017C016B2D70E080E090E00E941019B7
:100DD0009B01AC01C701B6010E94D21920E030E0AE
:100DE00048EC52E40E943D180E94E41870938B0076
:100DF00060938A000830110501F160F4013011059B
:100E000071F580918100897F8093810080918100BC
:100E100081602DC000341105C9F0011581E018076B
:100E2000F1F4809181008460809381008091810041
:100E30008C7F1DC080E090E0ACDD809181008A7FD6
:100E40008093810080918100826011C08091810037
:100E50008B7F8093810080918100836008C08091A6
:100E60008100856080938100809181008D7F8093D7
:100E7000810081E02296E9E00C94661ACF92DF921D
:100E8000EF92FF92CF93C82F853648F520918600C8
:100E900030918700B90180E090E00E9410196B0149
:100EA0007C016C2F70E080E090E00E9410199B01A3
:100EB000AC01C701B6010E94D21920E030E048EC35
:100EC00052E40E943D180E94E41870938B006093D6
:100ED0008A00CF91FF90EF90DF90CF90089580E04F
:100EE00090E057DD823479F034F48134B1F48091AC
:100EF0006F0082600FC0833451F08F3471F48091A1
:100F00006F00816007C080916F00846003C0809192
:100F10006F00886080936F00089580E090E039DD75
:100F2000823479F034F48134B1F480916F008D7F94
:100F30000FC0833451F08F3471F480916F008E7F35
:100F400007C080916F008B7F03C080916F00877F07
:100F500080936F00089580E090E01BDDA2E0B0E098
:100F6000E4EBF7E00C944F1ABC0180E090E00E94A3
:100F7000101900E010E021E030E0AE014F5F5F4F5C
:100F800013DD009709F45FC0109295001092940051
:100F900020919100286020939100209191002F7E54
:100FA00020939100209190002C7F20939000298124
:100FB0003A81215031093093990020939800209173
:100FC000710022602093710088309105D9F058F4A7
:100FD000019781F580919100897F809391008091A4
:100FE0009100816017C080349105D9F0811591403E
:100FF00009F5809191008460809391008091910027
:101000008C7F08C0809191008A7F809391008091AD
:10101000910082608093910081E02296E4E00C943C
:101020006B1A809191008B7F809391008091910049
:101030008360F0CF809191008560809391008091D2
:1010400091008D7FE7CF80E090E0A3DC823479F0DF
:1010500034F48134B1F48091710082600FC0833424
:1010600051F08F3471F480917100816007C08091DC
:101070007100846003C0809171008860809371006A
:10108000089580E090E085DC823479F034F4813496
:10109000B1F4809171008D7F0FC0833451F08F3493
:1010A00071F4809171008E7F07C0809171008B7FF9
:1010B00003C080917100877F80937100089580E064
:1010C00090E067DC8F929F92AF92BF92CF92DF92B7
:1010D000EF92FF926B017C0120E030E040E854E4A5
:1010E0000E94391887FF09C08091C100817F8093D9
:1010F000C1008091C10081608BC120E030E040E000
:101100005FE3C701B6010E94D2194B015C0120E0E8
:1011100030E040E854E40E94391887FF09C080910C
:10112000C100827F8093C1008091C100826046C16E
:1011300020E030E040E85EE3C701B6010E94D2192A
:101140004B015C0120E030E040E854E40E94391893
:1011500087FF0EC08091C100837F8093C100809182
:10116000C10082608093C1008091C100816026C16E
:1011700020E030E040E05EE3C701B6010E94D219F2
:1011800020E030E040E854E40E94391887FF09C0AD
:101190008091C100837F8093C1008091C1008360F2
:1011A0000DC120E030E040E85DE3C701B6010E94D8
:1011B000D2194B015C0120E030E040E854E40E9489
:1011C000391887FF09C08091C10084608093C100F5
:1011D0008091C100847FF2C020E030E040E05DE318
:1011E000C701B6010E94D2194B015C0120E030E03A
:1011F00040E854E40E94391887FF09C08091C1007B
:10120000857F8093C1008091C1008560D7C020E0B8
:1012100030E040E85CE3C701B6010E94D2194B01FF
:101220005C0120E030E040E854E40E94391887FF78
:1012300009C08091C100867F8093C1008091C10068
:101240008660BCC020E030E040E05CE3C701B6014E
:101250000E94D2194B015C0120E030E040E854E4E8
:101260000E94391887FF09C08091C100877F809351
:10127000C1008091C1008760A1C020E030E040E85B
:101280005BE3C701B6010E94D2194B015C0120E06B
:1012900030E040E854E40E94391887FF09C080918B
:1012A000C10088608093C1008091C100887F86C0A2
:1012B00020E030E040E05BE3C701B6010E94D219B4
:1012C0004B015C0120E030E040E854E40E94391812
:1012D00087FF09C08091C10089608093C10080911F
:1012E000C100897F6BC020E030E040E85AE3C701CD
:1012F000B6010E94D2194B015C0120E030E040E8C9
:1013000054E40E94391887FF09C08091C1008B7F87
:101310008093C1008091C1008B6050C020E030E01C
:1013200040E05AE3C701B6010E94D2194B015C01AB
:1013300020E030E040E854E40E94391887FF09C0FB
:101340008091C1008C608093C1008091C1008C7F2E
:1013500035C020E030E040E859E3C701B6010E9403
:10136000D2194B015C0120E030E040E854E40E94D7
:10137000391887FF09C08091C1008D608093C1003A
:101380008091C1008D7F1AC020E030E040E059E339
:10139000C701B6010E94D2194B015C0120E030E088
:1013A00040E854E40E94391887FF18C08091C100BA
:1013B0008E608093C1008091C1008E7F8093C100B8
:1013C000C501B4010E94E418CB01FF90EF90DF90BB
:1013D000CF90BF90AF909F908F90089520E030E025
:1013E00040E858E3C701B6010E94D2196B017C01A5
:1013F00020E030E040E854E40E94391887FF0DC037
:101400008091C1008C608093C1008091C100836095
:101410008093C100C701B601D5CF80E090E0B9DA72
:10142000A2E0B0E0E6E1FAE00C944F1A8C011A82D7
:1014300019820CDA8091C0008F7C8093C00080916B
:10144000C0008F738093C0008091C0008C7F809318
:10145000C0008091C2008E7F8093C2008091C20044
:10146000837F8093C2008091C3008C7F8093C300F0
:10147000B801660F771F80E090E00E9410199B0171
:10148000AC0160E070E08AE794E40E943D189B01A3
:10149000AC0160E074E284E79CE40E943D1812DE37
:1014A0009A83898389819A819093BF0089819A81E7
:1014B0008093D10089819A819093BF0089819A811C
:1014C0008093D2001092BF001092BF001092BE0015
:1014D00029813A8181E0232B09F480E02296E4E01F
:1014E0000C946B1ACF92DF92EF92FF921F93CF93DF
:1014F000DF9300D000D0CDB7DEB7142F69837A8395
:101500008B839C83A3D92091C00020622093C000CC
:101510002091C0002F7E2093C0002091C000216048
:101520002093C0002091C3002D7F2093C300209101
:10153000C30021602093C30069817A818B819C81E3
:101540009B01AC0160E074E284E79CE40E943D18DA
:10155000B9DD9093BF008093D100153658F5BC01DA
:1015600080E090E00E9410196B017C01612F70E017
:1015700080E090E00E9410199B01AC01C701B60108
:101580000E94D21920E030E048EC52E40E943D185D
:101590000E94E4187093BF006093D0000F900F90EA
:1015A0000F900F90DF91CF911F91FF90EF90DF9000
:1015B000CF9008958091C100837F8093C100809176
:1015C000C1008C7F8093C10080E090E0E2D982343A
:1015D00079F034F48134B1F48091720080640FC0EA
:1015E000843451F08F3471F480917200846007C0AC
:1015F00080917200806203C0809172008068809345
:101600007200089580E090E0C4D9823479F034F417
:101610008134B1F4809172008F7B0FC0843451F01B
:101620008F3471F4809172008B7F07C080917200BB
:101630008F7D03C0809172008F7780937200089530
:1016400080E090E0A6D99091680091609093680046
:10165000883018F080E090E09CD990916B0021E0F8
:1016600030E001C0220F8A95EAF7922B90936B002D
:1016700081E00895909168009E7F90936800883083
:1016800070F490916B0021E030E0082E01C0220F31
:101690000A94EAF72095292320936B00089580E0AF
:1016A00090E077D910927802109277021092AC02F3
:1016B0001092AB021092440210923F0210923E022E
:1016C0001092410210924002109243021092420284
:1016D000089510927802109277021092AC02109244
:1016E000AB020895809145028093CE0081E0809303
:1016F00078020895CF93DF93EC0180914402833008
:1017000018F082E090E045D980913E0290913F022E
:10171000892B79F08091400290914102892B61F0F0
:101720008091420290914302892BA9F422E030E09B
:1017300005C020E030E002C021E030E0F901EE0F0A
:10174000FF1FE25CFD4FD183C083809144028F5F15
:101750008093440202C023E030E0822FDF91CF91DA
:101760000895E82FF0E0EE0FFF1FE25CFD4F1182BD
:101770001082E4E4F2E08081815080830895009734
:1017800019F00197A1F029C0CB010197029748F405
:101790008091C90080618093C9006230710519F0A1
:1017A0001AC0672BC1F48091C900886012C0CB01B8
:1017B0000197029748F48091C9008F7E8093C900F9
:1017C0006230710519F007C0672B29F48091C900B8
:1017D000877F8093C90081E0089580E00895CF93CA
:1017E000DF93EC015FDF8091CA008F7C8093CA0099
:1017F0008091CA00877F8093CA008091C9008B7F47
:101800008093C9008091CA0086608093CA0080914D
:10181000C9008C7F8093C9008091CA008E7F80931D
:10182000CA008091CB008C7F8093CB00209761F021
:10183000219729F580E190E09093CD008093CC0032
:101840008091C800826009C087E090E09093CD004D
:101850008093CC008091C8008D7F8093C8008091D8
:10186000C8008E7F8093C8008091CA008F738093D8
:10187000CA0062E070E080E090E081DF01C080E0BB
:10188000DF91CF9108958091C80085FFFCCFE09152
:10189000AB02F0E0E758FD4F80818093CE000895C1
:1018A000E9ECF0E08081806C808381E00895E9ECD0
:1018B000F0E080818F73808381E00895A2E0B0E042
:1018C000E4E6FCE00C94501A182F8091C90089833B
:1018D0009A83EDDFE12F9A81F92F8191882339F0E6
:1018E0009091C80095FFFCCF8093CE00F6CF898100
:1018F0008093C9002296E3E00C946C1A1F920F9219
:101900000FB60F9211242F933F934F935F936F93D2
:101910007F938F939F93AF93BF93CF93DF93EF9377
:10192000FF938091AB02823310F01092AB02809152
:10193000CE00E091AB02F0E0E758FD4F8083A3DFDB
:101940009091AB02E92FF0E0E758FD4F80818D3098
:1019500011F08A30E9F4108280914402882309F161
:10196000C0E0D0E0FE01EE0FFF1FE25CFD4F808182
:101970009181892B41F00190F081E02D6BEA72E0BA
:1019800089E792E009952196C330D10559F709C03E
:10199000883011F08F3711F4915001C09F5F909300
:1019A000AB02FF91EF91DF91CF91BF91AF919F91EA
:1019B0008F917F916F915F914F913F912F910F90F8
:1019C0000FBE0F901F9018951F920F920FB60F9297
:1019D00011248F939F93EF93FF93809178029091BE
:1019E0007702891750F4E82FF0E0EB5BFD4F908110
:1019F0009093CE008F5F80937802FF91EF919F913B
:101A00008F910F900FBE0F901F901895A2E0B0E03D
:101A1000ECE0FDE00C944E1A5CDE62E070E080E0E9
:101A200090E0ADDE82EF9DE065DEF82E1A820CEAD2
:101A300010E0F80184918983CE0101963FDF0F5FAA
:101A40001F4FF2E00E3E1F07A1F710E00CE380915C
:101A5000AD02811114C0812F602F0E94351A91119F
:101A600003C086E091E02ADF2FEF89E698E121505C
:101A700080409040E1F700C000001F5FE8CF8F2D4D
:101A800070DE1092AD022296E5E00C946A1AA9E18C
:101A9000B0E0EDE4FDE00C94491A8C0183E291E0A2
:101AA0000DDF8FE391E00ADF83E291E007DF87E556
:101AB00091E004DFF80183818F9382818F9381818C
:101AC0008F9380818F9384EAC82E81E0D82EDF9295
:101AD000CF92CE0101967C01FF928F930E943F1D11
:101AE000C701ECDE8FE591E0E9DE83E691E0E6DE1A
:101AF000F80183858F9382858F9381858F9380856D
:101B00008F93DF92CF92FF92EF920E943F1DC70109
:101B1000D5DE8FE591E0D2DE8BE691E0CFDEF801F5
:101B200087818F9386818F9385818F9384818F9313
:101B3000DF92CF92FF92EF920E943F1DC701BEDE5F
:101B40008FE591E0BBDE83E791E0B8DEF8018785A1
:101B50008F9386858F939CE7A92E91E0B92EBF9233
:101B6000AF92FF92EF920E943F1DC701A7DE8FE563
:101B700091E0A4DE8FE791E0A1DEF80181898F93E7
:101B800080898F93BF92AF92FF92EF920E943F1D88
:101B90000FB6F894DEBF0FBECDBFC7018FDE8FE555
:101BA00091E08CDE86E891E089DEF80185898F93EB
:101BB00084898F9383898F9382898F93DF92CF92C9
:101BC000FF92EF920E943F1DC70178DE8FE591E002
:101BD00075DE0FB6F894DEBF0FBECDBF6996EAE0A2
:101BE0000C94651AABE1B0E0E8EFFDE00C944F1AFD
:101BF000182F092F1F8A188E198E1A8E61E070E037
:101C000081E090E0BCDD81E991E058DE812F902FEA
:101C100055DE8FE591E052DE9E01295E3F4F3F93F6
:101C20002F932C5F3F4F3F932F9321EA31E03F9357
:101C30002F930F931F930E945F1D8C010FB6F89492
:101C4000DEBF0FBECDBF181619061CF087EA91E063
:101C50008AC00E94EF0226E1FC01DE01119601908C
:101C60000D922A95E1F78B8D843609F464C0D4F483
:101C7000803509F43CC084F4843441F786EF91E068
:101C80001DDE2F89388D498D5A8D6D817E818F8122
:101C900098850E94D5175CC08235C9F0863509F455
:101CA0005CC0D4CF823799F05CF48037B1F18137D2
:101CB00069F68EE292E002DE81E08093AD0254C0CC
:101CC000843709F44EC0863709F447C0BFCF0230CD
:101CD000110509F0BBCF88EC91E0F0DD6F89788DBC
:101CE000898D9A8D0E94DF18788B6F8711C088EDDF
:101CF00091E0E4DD2F89388D498D5A8D69817A8193
:101D00008B819C810E94D51769837A838B839C8306
:101D1000CE0101960E94C30227C087EE91E0CEDD7E
:101D20002F89388D498D5A8D69817A818B819C816B
:101D30000E94D417E9CF85E092E0C0DD2F89388D6D
:101D4000498D5A8D6D817E818F8198850E94D4172F
:101D50006D837E838F839887DBCFCE01019697DEDC
:101D600003C084E192E0AADD8091AD02811103C03D
:101D700086E091E0A3DD61E070E080E090E0FFDCD0
:101D8000A8DC6B96E4E00C946B1AFC0192818381D1
:101D9000891798F0A081B1818581A80FB11DA80F86
:101DA000B11D6D937C9385818F5F858393818917A6
:101DB00008F0158282818F5F82830895FC0115826D
:101DC0001482128280E090E0238130E08217930732
:101DD0005CF4A081B1819C01220F331FA20FB31FBD
:101DE0001D921C920196F0CF0895FC0182818823F8
:101DF000A1F0A081B1818481A80FB11DA80FB11DF0
:101E00008D919C9124812F5F24833381231708F0C7
:101E1000148222812150228308958FEF9FEF08952D
:101E2000CF92DF92EF920F931F93FC0111821082E9
:101E30001582148217821682D382C28273876287C8
:101E40004787208B15870487E68682E090E091879C
:101E500080871F910F91EF90DF90CF900895FC0144
:101E6000A285B38587859C91892321E030E011F418
:101E700020E030E0A285B38540898C91482381E041
:101E800090E011F480E090E04681578124173507F7
:101E900031F0408151814F5F5F4F518340834481D6
:101EA00055814817590731F04081518141505109FE
:101EB0005183408335832483978386830895FC016F
:101EC00080859185A485B5858617970721F4968529
:101ED0008C91892B04C0968590958C9189238C9345
:101EE0000895CF93C82F2091AE023091AF02232BDB
:101EF00021F482E090E00E94C904E091AE02F091EA
:101F0000AF028C2F0995CF9108959093AF028093E3
:101F1000AE020895CF93DF93EC0180E0E2DF88EE1C
:101F200093E099838883EC85FD859E858081892B4C
:101F3000808389E1D6DF2FEF89E698E12150804048
:101F40009040E1F700C0000080E0CBDF88819981FC
:101F5000893E23E0920718F0198618860CC0883E47
:101F6000934029F081E090E09987888704C081E060
:101F700090E00E94C90419821882DF91CF910895E0
:101F8000FC0111821082158214821782168222E0CF
:101F900030E031872087BECFCF92DF92EF92FF9261
:101FA000CF93DF93EA010E9410196B017C01BE01FF
:101FB00080E090E00E9410199B01AC01C701B601BE
:101FC0000E943D1820E030E044EB53E40E94D21917
:101FD000DF91CF91FF90EF90DF90CF900895CF9257
:101FE000DF92EF92FF92CF93DF93EA0120E030E09F
:101FF00044EB53E40E943D186B017C01BE0180E07C
:1020000090E00E9410199B01AC01C701B6010E942B
:10201000D2190E94E418DF91CF91FF90EF90DF90EA
:10202000CF9008950E9497040E9459030E94900344
:10203000789480EB92E0A4DF67EC72E080EB92E0B2
:102040000E943D022FEF81EE94E0215080409040AD
:10205000E1F700C00000F0CF20FD09C0FC0123FD26
:1020600005C022FF02C073836283518340830895B9
:1020700044FD10C046FD10C0DB01FC01AA0FBB1FD0
:10208000EE1FFF1F1094D1F76A0F7B1F8E1F9F1F3B
:1020900031E003C033E001C034E0660F771F881FD2
:1020A000991F3150D1F7620F711D811D911D089547
:1020B0000F931F93CF93DF938C01C8010E94CF1C15
:1020C000EC0197FD08C00E949E1C892BB1F7B80156
:1020D000CE010E94761DCE01DF91CF911F910F910D
:1020E00008956F927F929F92AF92BF92CF92DF92AC
:1020F000EF92FF920F931F93CF93DF931F92CDB771
:10210000DEB78C013B015A0129830E94CF1CAC0130
:10211000552729814B32510521F04D32510581F46B
:10212000206831E0631A71086114710411F480E0D1
:102130007DC0C80129830E94CF1C298197FDF7CF5C
:10214000E22FED7F9E2E322F307379F5803369F5C3
:102150007301F1E0EF1AF108E114F10409F453C03E
:10216000C80129830E94CF1C298197FD4CC0382FBC
:102170003F7D383581F4292D2264922E32E0631A96
:1021800071086114710409F43EC0C8010E94CF1C9B
:1021900097FF0BC038C026FF04C0E92DE2609E2ED9
:1021A00003C0F92DF2619F2E3701C12CD12C76018D
:1021B00020ED280F283080F094FE04C0B8010E9462
:1021C000761D1EC02A3040F096FEF8CF2F7D3FEEE0
:1021D000320F363098F72750492DC701B60148DF36
:1021E0006B017C01292D2260922E31E0631A710867
:1021F0006114710459F0C8010E94CF1C97FFD8CF19
:1022000091FC04C094CFC12CD12C760197FE08C05C
:10221000F094E094D094C094C11CD11CE11CF11C3A
:10222000292DB701A601C50117DF81E00F90DF91CD
:10223000CF911F910F91FF90EF90DF90CF90BF90C3
:10224000AF909F907F906F900895A0E2B0E0EBE296
:10225000F1E10C94431A5C014B017A018E010F5F8E
:102260001F4F680180E2F80111928A95E9F7F501A4
:10227000638080E090E0712C412CB0E041E050E0C0
:10228000F90163FC559063FE51908F01A52D9F01CC
:10229000511003C080E090E07FC0FEE55F1202C0F5
:1022A000009761F16B2F70E0681779074CF46DE5CA
:1022B000561661F1EDE25E1203C0442009F103C03D
:1022C000411001C0752C6A2F669566956695F601DA
:1022D000E60FF11D6A2F67708A0102C0000F111FFF
:1022E0006A95E2F7B8017081762B7083A71559F0D3
:1022F000A71510F4AF5FE7CFA150E5CFB1E004C060
:102300004424439401C0412C0196BACF442019F0D3
:102310008E8180628E83B11103C07724739419C0BB
:10232000F601CE018196208120952193E817F907C7
:10233000D1F7F3CFE114F10429F0F7018083C7014D
:1023400001967C0191E0891A910881149104F1F0C1
:10235000712CC5010E94CF1C97FD16C0282F269511
:1023600026952695F601E20FF11D208130E0AC01A3
:102370004770552702C0359527954A95E2F720FD0D
:10238000D9CFB5010E94761D711084CFE114F104FC
:1023900011F0F7011082C801A096E0E10C945F1AD9
:1023A0002F923F924F925F926F927F929F92AF9245
:1023B000BF92CF92DF92EF92FF920F931F93CF9332
:1023C000DF9300D000D000D0CDB7DEB76C018B0119
:1023D0001A010E94CF1C9E838D8399278B32910511
:1023E00029F08D9799F480E8982E01C0912C015026
:1023F00011090115110511F480E032C1C6010E94D6
:10240000CF1C9E838D8397FF02C0F6CF912C8D81C8
:102410009E810E94A61C8936910541F08E36910559
:10242000D9F5B1E06B2EB3E07B2E04C0A4E06A2E98
:10243000A3E07A2E8FEF681A780AF3013197B490EF
:10244000BB20F1F0015011090115110571F0C60111
:102450000E94CF1C7C0197FD08C00E94A61CB816E4
:1024600049F3B601C7010E94761D27E0621623E0FA
:10247000720609F0C1CF80E090E0A0E8BFE709C094
:1024800094E0691693E07906B1F780E090E0A0EC63
:10249000BFE7BC01CD01D4C0412C512C3201E12C4D
:1024A000F12C2D8120532A3020F5E92DE260BE2E3B
:1024B000892D887092FE06C0811122C0FFEFEF1AAD
:1024C000FF0A1EC0882319F081E0E81AF10840E2F3
:1024D000C301B201CDDD2B013C0198E9491699E910
:1024E0005906690699E1790658F0E92DE660BE2E95
:1024F00007C02E3FA1F493FC12C0F92DF860BF2E47
:10250000015011090115110549F0C6010E94CF1CA7
:102510009E838D839B2C97FD02C0C3CF9B2C91FE85
:102520006BCF8D818F7D853409F055C0580121E036
:10253000A21AB108A114B10409F45ECFC6010E9429
:10254000CF1C9E838D8397FD57CF99278B329105A2
:1025500029F08D9781F4892D8061982E580192E0A1
:10256000A91AB108A114B10409F446CFC6010E940A
:10257000CF1C9E838D838D819E81C0970A9708F022
:102580003BCF8501A12CB12CB501882777FD809523
:10259000982F2D81205340E26BDDAB01BC015A0125
:1025A000015011090115110571F0C60149835A83C3
:1025B0006B837C830E94CF1C9E838D83C09749814F
:1025C0005A810A9708F394FE04C0AA24BB24A41AD3
:1025D000B50AEA0CFB1C012B41F0ED81FE81F7FDF1
:1025E00004C0B601CF010E94761DC301B20118D606
:1025F000F7FE08C0F194E194F108F0E2AF2EF3E0A9
:10260000BF2E04C0E8E3AE2EE3E0BE2E6501F8E184
:10261000CF1AD10800E210E0E016F10648F0F5010B
:102620002591359145915491BDD6E01AF10AF4CF28
:1026300024E0A21AB10816950795AC14BD0461F701
:1026400097FE05C0DC01CB01B058BC01CD012114BF
:10265000310429F0F101608371838283938381E0E7
:1026600026960FB6F894DEBF0FBECDBFDF91CF9197
:102670001F910F91FF90EF90DF90CF90BF90AF90A0
:102680009F907F906F905F904F903F902F90089514
:10269000A1E0B0E0EDE4F3E1F6C68C012B017A0194
:1026A000FC0117821682A12CF801D380F201D3FC21
:1026B0008591D3FE8191382F2F01882309F40FC112
:1026C00090E039830E949E1C3981892B19F0C80142
:1026D000EFDCEACF353241F4F201D3FC3591D3FE81
:1026E00031912F01353269F4C80139830E94CF1C22
:1026F000398197FDF2C03817B9F2B8010E94761DF2
:10270000EEC03A3241F4D3FC3591D3FE31912F0122
:10271000BB24B39401C0B12C812C912C20ED230F4C
:102720002A3080F4FB2DF260BF2EB40180E090E0EF
:1027300040E29EDC4B01F201D3FC3591D3FE319196
:102740002F01ECCFB1FE04C08114910421F4C7C065
:1027500088248A94982C383619F03C3661F014C0DD
:10276000F201D3FC3591D3FE31912F01383661F45B
:10277000FB2DF860BF2E8B2D8460B82EF201D3FCA8
:102780003591D3FE31912F01332309F4A8C0632F73
:1027900070E08FEE92E039830E94AE1C3981892B64
:1027A00009F49DC0B0FC07C0F701C080D180C7010B
:1027B00002967C0102C0C12CD12C3E3649F4F801AE
:1027C0004681578160E070E02B2DC60145DC6CCF5F
:1027D0003336C9F4B1FC03C088248394912CC8011A
:1027E0000E94CF1C97FD79C0C114D10429F0F601D5
:1027F0008083C60101966C0191E0891A91088114C9
:10280000910469F766C03B3551F49201A601B40109
:10281000C8011BDD2C01009709F05BC055C0C80141
:10282000398346DC398197FD58C03F36F1F140F4D9
:102830003436B9F13936E1F1383509F03FC02DC0F1
:102840003337B9F018F4303741F138C0353749F132
:10285000383719F133C0C114D10429F0F601608270
:10286000C60101966C0191E0891A910881149104C6
:1028700071F0C8010E94CF1C3C0197FD08C00E9466
:102880009E1C892B41F3B801C3010E94761DC1141F
:10289000D104F9F0F60110821CC0FB2DF064BF2EAC
:1028A00007C08B2D8062B82E03C09B2D9061B92E7E
:1028B0002B2DA601B401C80114DC04C0A601B4018B
:1028C000C8016EDD811105C0F8018381807329F490
:1028D00006C0B0FCE9CEA394E7CEAA2019F08A2D59
:1028E00090E002C08FEF9FEF2196E0E1E8C5A3E101
:1028F000B0E0ECE7F4E1C5C57C011B016A01FC0115
:1029000017821682838181FF4AC3BE016F5F7F4FAA
:102910004B01F7019381F10193FD859193FF819123
:102920001F01882309F437C3853239F493FD85915B
:1029300093FF81911F01853239F4B70190E00E9425
:102940000D1D56016501E5CF10E0512C20E020322D
:10295000A0F48B3269F030F4803259F0833269F49C
:1029600020612CC08D3239F0803339F4216026C0CB
:102970002260246023C0286021C027FD27C030EDDD
:10298000380F3A3078F426FF06C0FAE01F9F300D6A
:102990001124132F13C06AE0569E300D1124532EBC
:1029A00020620CC08E3221F426FDF5C2206406C0E0
:1029B0008C3611F4206802C0883641F4F10193FD91
:1029C000859193FF81911F018111C1CF9BEB980FDE
:1029D000933018F42061805E06C09BE9980F933015
:1029E00008F09AC12F7E26FF16E02F73722E8536CF
:1029F00021F4F22FF0647F2E08C0863621F4622F76
:102A00006068762E02C01111115077FE07C01C338A
:102A100048F444244394410E27E00BC0183030F4AE
:102A2000212F06C027E04CE3442E03C027E017E027
:102A3000412C560174E0A70EB11CF6016081718132
:102A400082819381042DA401A1D66C01098100FF2C
:102A500002C003FF06C071FC07C072FC08C0612CF5
:102A600008C03DE2632E05C02BE2622E02C090E258
:102A7000692E802F8C7081F1662011F084E001C0F6
:102A800083E0851510F0512C0AC0581A73FC07C05A
:102A9000B70180E290E0C1D75A94D1F7F4CF662015
:102AA00021F0B701862D90E0B8D703FD03C000E404
:102AB00013E002C00CE313E0F72DF0717F2EF80154
:102AC0008491882309F45EC271108052B70190E0AE
:102AD000A4D70F5F1F4FF3CF77FE0FC04C0C04FF3E
:102AE00004C08A81813309F44A94141474F5F8E01F
:102AF000F41578F588E0482E2CC076FC2AC0812F8A
:102B000090E08C159D059CF06CEFC6166FEFD60615
:102B100074F0772D7068772E0AC0E2E0F0E0EC0FD9
:102B2000FD1FE10FF11D8081803319F41150111147
:102B3000F4CF77FE0EC044244394410E812F90E0E1
:102B4000C816D9062CF41C1904C04424439401C0AF
:102B500010E077FE07C01C141D043CF496012F5FA3
:102B60003F4F05C025E030E002C021E030E06620A4
:102B700011F02F5F3F4F112331F0412F50E04F5F95
:102B80005F4F240F351F452D50E02417350714F4EF
:102B9000521A01C0512C872D897041F4552031F013
:102BA000B70180E290E039D75A94F8CF662021F03F
:102BB000B701862D90E031D773FC08C0552031F065
:102BC000B70180E390E029D75A94F8CF77FE5DC033
:102BD0009C2D8D2DD7FE02C090E080E0692E782ECE
:102BE00040E050E0C601841991099D878C879601C9
:102BF00026193709280D391D812F90E0EE27FF2770
:102C0000E81BF90BFF87EE87FFEF6F167F0661F475
:102C1000B7018EE290E02B8B3A8B488B598BFDD617
:102C2000598948893A892B89C614D70454F06C8590
:102C30007D85661577052CF4F901E40FF51F818178
:102C400001C080E371E0671A71084F5F5F4FEE8546
:102C5000FF856E167F0664F0B70190E02B8B3A8BF0
:102C6000488B598BDAD62B893A8948895989CCCF38
:102C70006C147D0439F49A81963318F4953311F469
:102C800004FF81E3B70190E045C08A81813309F0F8
:102C90000F7EB70190E0C1D6111105C074FE16C0B9
:102CA00085E490E015C0B7018EE290E0B6D682E0F0
:102CB00066246394680EF401E80FF11D8081B7016A
:102CC00090E0ABD6115051F3862DF2CF85E690E01F
:102CD000B701A3D6D7FC05C0C114D10439F404FF51
:102CE00005C0D194C194D1088DE201C08BE2B70137
:102CF00090E093D680E36AE0C616D1042CF08F5F93
:102D0000FAE0CF1AD108F7CFB70190E086D6B70125
:102D1000C601C09682D636C1833631F0833779F04A
:102D2000833509F054C020C0560172E0A70EB11CD3
:102D3000F6018081898301E010E0640113C056012F
:102D4000F2E0AF0EB11CF601C080D18026FF03C0B7
:102D5000612F70E002C06FEF7FEFC6012B8B14D69E
:102D60008C012B892F7714C05601F2E0AF0EB11CF5
:102D7000F601C080D18026FF03C0612F70E002C041
:102D80006FEF7FEFC6012B8BF4D58C012B89206868
:102D9000722E23FD18C0852D90E00817190798F4AE
:102DA000B70180E290E039D65A94F5CFF60177FC6E
:102DB000859177FE81916F01B70190E02ED6511079
:102DC0005A94015011090115110581F7DBC08436B1
:102DD00011F0893649F5560127FF09C0F4E0AF0E1E
:102DE000B11CF60160817181828193810AC0F2E099
:102DF000AF0EB11CF60160817181882777FD809547
:102E0000982F022F0F7697FF08C0909580957095A8
:102E100061957F4F8F4F9F4F00682AE030E0A401FB
:102E20007ED6C82EC8183DC0022F853721F40F7EEC
:102E30002AE030E01DC0097F8F3691F018F4883504
:102E400059F0A9C0803719F0883711F0A4C000618B
:102E500004FF09C0046007C024FF08C0066006C064
:102E600028E030E005C020E130E002C020E132E09F
:102E7000560107FF09C0F4E0AF0EB11CF6016081F6
:102E800071818281938108C0F2E0AF0EB11CF6011E
:102E90006081718180E090E0A40141D6C82EC818FD
:102EA0000F7706FF0BC0202F2E7FC11650F404FFB2
:102EB0000AC002FD08C0202F2E7E05C0DC2C202F6A
:102EC00003C0DC2C01C0D12E24FF0DC0FE01EC0D8F
:102ED000F11D8081803311F4297E09C022FF06C0D4
:102EE000D394D39404C0822F867809F0D39423FD21
:102EF00012C020FF06C01C2DD51418F4150D1D1985
:102F0000D52CD51460F4B70180E290E02B8B85D5E9
:102F1000D3942B89F6CFD51410F45D1801C0512C31
:102F200024FF11C0B70180E390E02B8B76D52B896D
:102F300022FF16C021FF03C088E590E002C088E7A9
:102F400090E0B7010CC0822F867851F021FD02C0BD
:102F500080E201C08BE227FD8DE2B70190E05DD5F4
:102F6000C11630F4B70180E390E057D51150F8CF87
:102F7000CA94F401EC0DF11D8081B70190E04DD5AC
:102F8000C110F6CF552009F4DDCCB70180E290E006
:102F900044D55A94F7CFF7018681978102C08FEF0D
:102FA0009FEF6396E2E189C25058BB27AA270ED053
:102FB000BFC1B0D130F0B5D120F031F49F3F11F452
:102FC0001EF495C10EF4E095E7FB8BC1E92FC1D14A
:102FD00080F3BA17620773078407950718F071F436
:102FE0009EF5D9C10EF4E0950B2EBA2FA02D0B0142
:102FF000B90190010C01CA01A0011124FF27591B3E
:1030000099F0593F50F4503E68F11A16F040A22F43
:10301000232F342F4427585FF3CF469537952795B4
:10302000A795F0405395C9F77EF41F16BA0B620BB3
:10303000730B840BBAF09150A1F0FF0FBB1F661FFA
:10304000771F881FC2F70EC0BA0F621F731F841F3D
:1030500048F4879577956795B795F7959E3F08F063
:10306000B3CF9395880F08F09927EE0F9795879522
:10307000089513D108F481E008950CD059C151D1BD
:1030800040F048D130F021F45F3F19F02AC15111CE
:1030900083C12DC15ED198F39923C9F35523B1F3B0
:1030A000951B550BBB27AA2762177307840738F0B7
:1030B0009F5F5F4F220F331F441FAA1FA9F333D016
:1030C0000E2E3AF0E0E830D091505040E695001CCA
:1030D000CAF729D0FE2F27D0660F771F881FBB1F86
:1030E000261737074807AB07B0E809F0BB0B802D60
:1030F000BF01FF2793585F4F2AF09E3F510568F0AC
:10310000F0C04AC15F3FECF3983EDCF386957795BB
:103110006795B795F7959F5FC9F7880F911D9695AD
:10312000879597F90895E1E0660F771F881FBB1F09
:10313000621773078407BA0720F0621B730B840BB6
:10314000BA0BEE1F88F7E0950895BEE304D008F4AB
:1031500090E80895BFE322273327A90102D158F14F
:103160009F5740F1B91738F1BFE3B91B9927B85001
:103170003AF4660F771F881F991FB395D2F316C0D4
:10318000B8504AF0232F342F452F562F672F782F12
:103190008827B850BAF7B85F49F086957795679554
:1031A0005795479537952795BA95B9F70EF4A2D05C
:1031B00088940895889460E070E0CB01089504D06D
:1031C0006894B111E9C00895CCD088F09F5790F071
:1031D000B92F9927B751A0F0D1F0660F771F881F3C
:1031E000991F1AF0BA95C9F712C0B13081F0D3D047
:1031F000B1E00895D0C0672F782F8827B85F39F0E5
:10320000B93FCCF3869577956795B395D9F73EF49A
:1032100090958095709561957F4F8F4F9F4F089542
:10322000E89409C097FB3EF4909580957095619560
:103230007F4F8F4F9F4F9923A9F0F92F96E9BB2716
:103240009395F695879577956795B795F111F8CF92
:10325000FAF4BB0F11F460FF1BC06F5F7F4F8F4FFD
:103260009F4F16C0882311F096E911C0772321F0F3
:103270009EE8872F762F05C0662371F096E8862F8B
:1032800070E060E02AF09A95660F771F881FDAF7E2
:10329000880F9695879597F90895990F0008550F0F
:1032A000AA0BE0E8FEEF16161706E807F907C0F0CC
:1032B00012161306E407F50798F0621B730B840BD4
:1032C000950B39F40A2661F0232B242B252B21F4AE
:1032D00008950A2609F4A140A6958FEF811D811D4E
:1032E000089597F99F6780E870E060E008959FEF88
:1032F00080EC0895909580957095609550954095D7
:10330000309521953F4F4F4F5F4F6F4F7F4F8F4FFE
:103310009F4F089500240A941616170618060906EA
:10332000089500240A94121613061406050608953B
:10333000092E0394000C11F4882352F0BB0F40F4C3
:10334000BF2B11F460FF04C06F5F7F4F8F4F9F4F03
:10335000089557FD9058440F551F59F05F3F71F085
:103360004795880F97FB991F61F09F3F79F08795EC
:103370000895121613061406551FF2CF4695F1DF75
:1033800008C0161617061806991FF1CF8695710505
:10339000610508940895E894BB2766277727CB0139
:1033A00097F908950BD0C4CFB5DF28F0BADF18F035
:1033B000952309F096CF9BCF1124EECFCADFA0F35F
:1033C000959FD1F3950F50E0551F629FF001729FBA
:1033D000BB27F00DB11D639FAA27F00DB11DAA1FD9
:1033E000649F6627B00DA11D661F829F2227B00D26
:1033F000A11D621F739FB00DA11D621F839FA00DB1
:10340000611D221F749F3327A00D611D231F849F00
:10341000600D211D822F762F6A2F11249F57504057
:103420008AF0E1F088234AF0EE0FFF1FBB1F661FF2
:10343000771F881F91505040A9F79E3F510570F0AB
:1034400050CFAACF5F3FECF3983EDCF3869577959B
:103450006795B795F795E7959F5FC1F7FE2B880FA6
:10346000911D9695879597F90895991B79E004C069
:10347000991F961708F0961B881F7A95C9F78095B3
:1034800008952F923F924F925F926F927F928F9208
:103490009F92AF92BF92CF92DF92EF92FF920F93E3
:1034A0001F93CF93DF93CDB7DEB7CA1BDB0B0FB6ED
:1034B000F894DEBF0FBECDBF09942A8839884888AA
:1034C0005F846E847D848C849B84AA84B984C88440
:1034D000DF80EE80FD800C811B81AA81B981CE0F37
:1034E000D11D0FB6F894DEBF0FBECDBFED0108951C
:1034F00097FB10F8169400080F93083098F00850C6
:10350000232F342F452F562F672F782F892F902D5B
:10351000F4CF059497958795779567955795479537
:10352000379527950A95AAF70F9108952A153B0517
:103530004C055D056E057F05800791070895CF93C3
:10354000DF938230910510F482E090E0E091E10297
:10355000F091E20220E030E0A0E0B0E0309739F1F5
:103560004081518148175907B8F04817590771F43D
:1035700082819381109729F013969C938E931297D2
:103580002CC09093E2028093E10227C021153105FF
:1035900031F04217530718F0A901DB0101C0EF0118
:1035A0009A01BD01DF010280F381E02DD7CF211503
:1035B0003105F9F0281B390B2430310580F48A815C
:1035C0009B816115710521F0FB019383828304C007
:1035D0009093E2028093E102FE01329644C0FE0124
:1035E000E20FF31F8193919322503109398328838D
:1035F0003AC02091DF023091E002232B41F4209168
:103600000201309103013093E0022093DF02209108
:103610000001309101012115310541F42DB73EB76C
:103620004091040150910501241B350BE091DF020C
:10363000F091E002E217F307A0F42E1B3F0B2817CE
:10364000390778F0AC014E5F5F4F2417350748F01B
:103650004E0F5F1F5093E0024093DF0281939193DE
:1036600002C0E0E0F0E0CF01DF91CF910895CF9369
:10367000DF93009709F487C0FC013297138212820E
:10368000C091E102D091E202209781F42081318142
:10369000280F391F8091DF029091E0028217930773
:1036A00079F5F093E002E093DF026DC0DE0120E0E7
:1036B00030E0AE17BF0750F412964D915C9113970E
:1036C0009D014115510509F1DA01F3CFB383A283BE
:1036D00040815181840F951F8A179B0771F48D914A
:1036E0009C911197840F951F029691838083129667
:1036F0008D919C911397938382832115310529F431
:10370000F093E202E093E1023EC0D9011396FC93EC
:10371000EE9312974D915D91A40FB51FEA17FB0729
:1037200079F480819181840F951F0296D9011196B9
:103730009C938E938281938113969C938E93129780
:10374000E0E0F0E08A819B81009719F0FE01EC0136
:10375000F9CFCE01029628813981820F931F2091E3
:10376000DF023091E0022817390769F4309729F415
:103770001092E2021092E10202C013821282D093F0
:10378000E002C093DF02DF91CF910895283008F066
:1037900027E03327DA01990F311D87FD91600096EC
:1037A0006105710539F432602E5F3D9330E32A954F
:1037B000E1F708959F3F30F080387105610509F009
:1037C0003C5F3C5F3D93913008F08068911DDF9332
:1037D000CF931F930F93FF92EF92192F987F969597
:1037E000E92F96959695E90FFF27E256FC4F99270A
:1037F0003327EE24FF24A701E701059008940794DE
:1038000028F4360FE71EF81E491F511D660F771F5B
:10381000881F991F0694A1F70590079428F4E70ED6
:10382000F81E491F561FC11D770F881F991F661F5D
:103830000694A1F70590079428F4F80E491F561F27
:10384000C71FD11D880F991F661F771F0694A1F708
:103850000590079420F4490F561FC71FD81F990FD2
:10386000661F771F881F0694A9F78491109517701B
:1038700041F0D695C79557954795F794E7941A95D3
:10388000C1F7E4E4F3E068941590159135916591E2
:10389000959105907FE27395E118F10A430B560B61
:1038A000C90BD009C0F7E10CF11E431F561FC91FF9
:1038B000D01D7EF4703311F48A95E6CFE894015060
:1038C00030F0080F0AF40027021708F4202F239580
:1038D000022F7A3328F079E37D932A95E9F710C017
:1038E0007D932A9589F60694979567953795179550
:1038F0001794E118F10A430B560BC90BD00998F045
:1039000023957E9173957A3308F070E37C932013AE
:10391000B8F77E9170617D9330F0839571E37D936C
:1039200070E32A95E1F71124EF90FF900F911F911A
:10393000CF91DF91992787FD9095089591114DC101
:10394000803219F089508550D0F70895911108956B
:1039500081548A5108F4805E855A0895FC010590CF
:10396000061621F00020D9F7C00108953197CF0144
:103970000895FC010590615070400110D8F78095C2
:1039800090958E0F9F1F0895FC016150704001902B
:103990000110D8F7809590958E0F9F1F0895CF93B3
:1039A000DF93EC012B8120FF33C026FF0AC02F7B61
:1039B0002B838E819F8101969F838E838A8190E0E5
:1039C00029C022FF0FC0E881F9818081992787FDF6
:1039D0009095009719F420622B831AC03196F983D1
:1039E000E8830EC0EA85FB85099597FF09C02B8106
:1039F000019611F480E101C080E2822B8B8308C024
:103A00002E813F812F5F3F4F3F832E83992702C036
:103A10008FEF9FEFDF91CF9108950F931F93CF9377
:103A2000DF93182F092FEB018B8181FD03C08FEFEE
:103A30009FEF20C082FF10C04E815F812C813D81AD
:103A4000421753077CF4E881F9819F012F5F3F4FB4
:103A500039832883108306C0E885F985812F09956D
:103A6000892B29F72E813F812F5F3F4F3F832E8384
:103A7000812F902FDF91CF911F910F910895AEE08C
:103A8000B0E0E4E4FDE10BCD0D891E8986E08C8376
:103A90001A8309838FEF9FE79E838D83AE01475E74
:103AA0005F4F6F89788DCE0101960E947714EF8168
:103AB000F885E00FF11F10822E96E4E00CCDAEE009
:103AC000B0E0E4E6FDE1EDCC85E08C838B899C8958
:103AD0009A838983AE01495E5F4F6D897E89CE01ED
:103AE00001960E9448132E96E2E0F7CCFB01238159
:103AF00020FF12C026FD10C08F3F3FEF930761F0FB
:103B000082832F7D206423832681378121503109D0
:103B100037832683992708958FEF9FEF0895FA0141
:103B2000AA27283051F1203181F1E8946F936E7FFC
:103B30006E5F7F4F8F4F9F4FAF4FB1E03ED0B4E0ED
:103B40003CD0670F781F891F9A1FA11D680F791F2E
:103B50008A1F911DA11D6A0F711D811D911DA11D3F
:103B600020D009F468943F912AE0269F112430194F
:103B7000305D3193DEF6CF010895462F4770405DEA
:103B80004193B3E00FD0C9F7F6CF462F4F70405D99
:103B90004A3318F0495D31FD4052419302D0A9F7F4
:103BA000EACFB4E0A6959795879577956795BA95EE
:103BB000C9F700976105710508959B01AC010A2EB4
:103BC00006945795479537952795BA95C9F7620F8B
:103BD000731F841F951FA01D089599278827089596
:043BE000F894FFCF87
:103BE4000000E30220000D0A57616974696E6720C2
:103BF400666F72207573657220696E7075742E2EEF
:103C04002E20000D0A2D2D2D2D2D2D2D2D2D2D2D5C
:103C14002D2D2D2D2D2D2D2D2D2D2D2D0D0A00204D
:103C240020202050494420504152414D4554455292
:103C3400532020202020004B702009203D2000200C
:103C44000D0A004B692009203D20004B6420092007
:103C54003D20005072656609203D20002564005017
:103C64006D09203D200054286472762909203D20E6
:103C7400000D0A596F75722063686F6963653A2095
:103C840000256320256600496E76616C69642075A1
:103C940073657220696E7075742C2074727920615A
:103CA4006761696E2E0D0A005265666572656E6302
:103CB40065207365740D0A004B7020696E6372652C
:103CC400617365640D0A004B7020646563726561FD
:103CD4007365640D0A004B6420696E6372656173D9
:103CE40065640D0A004B64206465637265617365E5
:103CF400640D0A00457865637574696E6720747293
:103D0400616A6563746F72696573210D0A00517588
:0E3D1400697474696E67206D656E750D0A0026
:00000001FF
