:1000000055C000006EC000006CC000006AC0000057
:1000100068C0000066C0000064C0000062C000004C
:1000200060C000005EC000005CC000005AC000005C
:1000300058C0000056C0000054C0000052C000006C
:1000400050C000001EC100004CC000004AC00000AB
:1000500048C0000046C0000044C0000042C000008C
:1000600040C000003EC000003CC000003AC000009C
:1000700038C0000036C0000034C0000032C00000AC
:1000800028C100002EC000002CC000002AC00000C3
:1000900028C0000026C0000024C0000022C00000CC
:1000A00020C000001EC000001CC0000011241FBEA4
:1000B000CFEFDAE0DEBFCDBF11E0A0E0B1E0E8E7CE
:1000C000F4E002C005900D92A230B107D9F721E00B
:1000D000A2E0B1E001C01D92AE30B207E1F761D1FC
:1000E000C9C18ECF88B18F7388B95D9A8BB18D7E6F
:1000F0008BB9089583B190910101913071F483FD22
:100100000CC08FE99FE00197F1F700C0000081E08B
:1001100090E090930D0180930C0183B190910001C8
:10012000913071F480FD0CC08FE99FE00197F1F7E9
:1001300000C0000081E090E090930D0180930C01DD
:100140000895479A5D9A2FEF43EC59E021504040C3
:100150005040E1F700C000008CE090E030E228B1B0
:10016000205828B92BB123272BB92FEF41EE54E0AB
:10017000215040405040E1F700C000000197009737
:1001800071F747985D9A08952FEF81EE94E0215022
:1001900080409040E1F700C0000087B1806C87B9D3
:1001A0008AB182638AB984B1867F84B985B1896056
:1001B00085B9C7CF1092850010928400E1E8F0E085
:1001C00080818860808380818F7E8083A0E8B0E01A
:1001D0008C918C7F8C9383E294EF90938900809331
:1001E0008800AFE6B0E08C9182608C93808184605F
:1001F000808380818C7F808381E090E008951092DD
:10020000950010929400E1E9F0E08081886080839D
:1002100080818F7E8083A0E9B0E08C918C7F8C936D
:100220008FE79EE39093990080939800A1E7B0E058
:100230008C9182608C938081897F808380818160B2
:10024000808381E090E00895F894209A009721F04F
:10025000019711F45D9A01C0479A289AFFCF68EE82
:1002600073E080E090E0A6DF892B19F480E090E055
:10027000EBDF61E070E080E090E0C1DF892BB1F35B
:1002800008951F920F920FB60F9211248F939F9390
:10029000AF93BF938091020190910301A09104015B
:1002A000B09105010196A11DB11D809302019093AB
:1002B0000301A0930401B093050188B1805888B967
:1002C000BF91AF919F918F910F900FBE0F901F9094
:1002D00018951F920F920FB60F9211242F933F93F0
:1002E0004F935F936F937F938F939F93AF93BF933E
:1002F000EF93FF938091060190910701A09108016F
:10030000B09109010196A11DB11D80930601909342
:100310000701A0930801B093090160910601709153
:10032000070180910801909109012AEF30E040E037
:1003300050E07ED0672B682B692B81F481E090E040
:1003400090930B0180930A0180910C0190910D0113
:10035000892B21F08BB190E289278BB9609106013E
:1003600070910701809108019091090122E330E02A
:1003700040E050E05DD0672B682B692B09F4BADEB2
:10038000FF91EF91BF91AF919F918F917F916F916D
:100390005F914F913F912F910F900FBE0F901F9043
:1003A0001895F2DE5CDF9EDE789420E280910A01EF
:1003B00090910B01892B39F08BB182278BB9109268
:1003C0000B0110920A0180910C0190910D01892B73
:1003D00069F3599A8BE898EAA6E0B0E0000001972B
:1003E000A109B1090097A105B105C1F759985C9A17
:1003F00088EE98E1ABE0B0E000000197A109B109F7
:100400000097A105B105C1F75C98599A89EB90EE68
:10041000A8E0B0E000000197A109B1090097A1058B
:10042000B105C1F7599810920D0110920C01BECF81
:10043000A1E21A2EAA1BBB1BFD010DC0AA1FBB1FE8
:10044000EE1FFF1FA217B307E407F50720F0A21B5A
:10045000B30BE40BF50B661F771F881F991F1A94C7
:1004600069F760957095809590959B01AC01BD01F1
:08047000CF010895F894FFCFBD
:02047800010180
:00000001FF
